{"abi":[{"inputs":[{"internalType":"address","name":"_priceFeed","type":"address"}],"stateMutability":"nonpayable","type":"constructor","name":"constructor"},{"anonymous":false,"inputs":[{"indexed":false,"internalType":"uint256","name":"roundId","type":"uint256"},{"indexed":true,"internalType":"address","name":"bettor","type":"address"},{"indexed":false,"internalType":"int256","name":"predictedPrice","type":"int256"}],"name":"BetPlaced","type":"event"},{"anonymous":false,"inputs":[{"indexed":false,"internalType":"uint256","name":"roundId","type":"uint256"},{"indexed":false,"internalType":"int256","name":"actualPrice","type":"int256"},{"indexed":false,"internalType":"address","name":"winner","type":"address"}],"name":"RoundEnded","type":"event"},{"anonymous":false,"inputs":[{"indexed":false,"internalType":"uint256","name":"roundId","type":"uint256"},{"indexed":false,"internalType":"uint256","name":"startTime","type":"uint256"}],"name":"RoundStarted","type":"event"},{"anonymous":false,"inputs":[{"indexed":true,"internalType":"address","name":"winner","type":"address"},{"indexed":false,"internalType":"uint256","name":"amount","type":"uint256"}],"name":"WinningsWithdrawn","type":"event"},{"inputs":[],"name":"actualPrice","outputs":[{"internalType":"int256","name":"","type":"int256"}],"stateMutability":"view","type":"function"},{"inputs":[],"name":"betAmount","outputs":[{"internalType":"uint256","name":"","type":"uint256"}],"stateMutability":"view","type":"function"},{"inputs":[],"name":"betting_duration","outputs":[{"internalType":"uint256","name":"","type":"uint256"}],"stateMutability":"view","type":"function"},{"inputs":[],"name":"currentRound","outputs":[{"internalType":"uint256","name":"","type":"uint256"}],"stateMutability":"view","type":"function"},{"inputs":[],"name":"endRound","outputs":[],"stateMutability":"nonpayable","type":"function"},{"inputs":[],"name":"getContractBalance","outputs":[{"internalType":"uint256","name":"","type":"uint256"}],"stateMutability":"view","type":"function"},{"inputs":[],"name":"n_bets","outputs":[{"internalType":"uint256","name":"","type":"uint256"}],"stateMutability":"view","type":"function"},{"inputs":[],"name":"owner","outputs":[{"internalType":"address","name":"","type":"address"}],"stateMutability":"view","type":"function"},{"inputs":[{"internalType":"address","name":"","type":"address"}],"name":"pendingWithdrawals","outputs":[{"internalType":"uint256","name":"","type":"uint256"}],"stateMutability":"view","type":"function"},{"inputs":[{"internalType":"int256","name":"_predictedPrice","type":"int256"}],"name":"placeBet","outputs":[],"stateMutability":"payable","type":"function"},{"inputs":[],"name":"priceFeed","outputs":[{"internalType":"contract AggregatorV3Interface","name":"","type":"address"}],"stateMutability":"view","type":"function"},{"inputs":[{"internalType":"uint256","name":"","type":"uint256"},{"internalType":"uint256","name":"","type":"uint256"}],"name":"roundBets","outputs":[{"internalType":"address","name":"bettor","type":"address"},{"internalType":"int256","name":"predictedPrice","type":"int256"}],"stateMutability":"view","type":"function"},{"inputs":[],"name":"roundDuration","outputs":[{"internalType":"uint256","name":"","type":"uint256"}],"stateMutability":"view","type":"function"},{"inputs":[],"name":"roundStartTime","outputs":[{"internalType":"uint256","name":"","type":"uint256"}],"stateMutability":"view","type":"function"},{"inputs":[{"internalType":"uint256","name":"","type":"uint256"}],"name":"roundWinners","outputs":[{"internalType":"address","name":"","type":"address"}],"stateMutability":"view","type":"function"},{"inputs":[],"name":"withdrawWinnings","outputs":[],"stateMutability":"nonpayable","type":"function"}],"bytecode":"6080604052662386f26fc100006005556000600655610e1060075534801561002657600080fd5b50604051610aef380380610aef833981016040819052610045916100c7565b60018054336001600160a01b0319918216178255600080549091166001600160a01b038416179055600b5561007861007e565b506100f7565b426002819055600b546040517f278844837bcf8364a705384bf3a2812901f54155bae86dea81dd52aa5b9ec0e3926100bd928252602082015260400190565b60405180910390a1565b6000602082840312156100d957600080fd5b81516001600160a01b03811681146100f057600080fd5b9392505050565b6109e9806101066000396000f3fe6080604052600436106100f35760003560e01c80638da5cb5b1161008a578063d24257c011610059578063d24257c01461027e578063dd4f8f7414610294578063f3f43703146102aa578063f7cb789a146102d757600080fd5b80638da5cb5b1461021d578063bb42e32e1461023d578063c232302f14610253578063cc42e83a1461026957600080fd5b806376a4956c116100c657806376a4956c1461017c57806381b79267146101b25780638a19c8bc146101f15780638c6481171461020757600080fd5b8063133386a4146100f85780636f9fb98a1461010d578063741bef1a1461012f578063749aa2d914610167575b600080fd5b61010b610106366004610841565b6102ed565b005b34801561011957600080fd5b50475b6040519081526020015b60405180910390f35b34801561013b57600080fd5b5060005461014f906001600160a01b031681565b6040516001600160a01b039091168152602001610126565b34801561017357600080fd5b5061010b610450565b34801561018857600080fd5b5061014f610197366004610841565b6009602052600090815260409020546001600160a01b031681565b3480156101be57600080fd5b506101d26101cd36600461085a565b6106bc565b604080516001600160a01b039093168352602083019190915201610126565b3480156101fd57600080fd5b5061011c600b5481565b34801561021357600080fd5b5061011c60035481565b34801561022957600080fd5b5060015461014f906001600160a01b031681565b34801561024957600080fd5b5061011c60075481565b34801561025f57600080fd5b5061011c60045481565b34801561027557600080fd5b5061010b610702565b34801561028a57600080fd5b5061011c60055481565b3480156102a057600080fd5b5061011c60025481565b3480156102b657600080fd5b5061011c6102c536600461087c565b600a6020526000908152604090205481565b3480156102e357600080fd5b5061011c60065481565b6007546002546102fd91906108c2565b42111561034a5760405162461bcd60e51b81526020600482015260166024820152752132ba3a34b733903832b934b7b21034b99037bb32b960511b60448201526064015b60405180910390fd5b600554341461039b5760405162461bcd60e51b815260206004820181905260248201527f42657420616d6f756e74206d7573742062652065786163746c792031204554486044820152606401610341565b600b54600090815260086020908152604080832081518083019092523382528183018581528154600180820184559286529385209251600290940290920180546001600160a01b0319166001600160a01b0390941693909317835590519101556004805491610409836108d5565b9091555050600b54604080519182526020820183905233917f0fe8a4f5c8aa725deff1274dcd26cc3d24f93440a9b35ea011509b962f518b1191015b60405180910390a250565b60065460025461046091906108c2565b4210156104a75760405162461bcd60e51b81526020600482015260156024820152742937bab7321034b9903737ba103cb2ba1037bb32b960591b6044820152606401610341565b60008060009054906101000a90046001600160a01b03166001600160a01b031663feaf968c6040518163ffffffff1660e01b815260040160a060405180830381865afa1580156104fb573d6000803e3d6000fd5b505050506040513d601f19601f8201168201806040525081019061051f919061090d565b5050506003819055600b54600090815260086020526040812091935091506001600160ff1b0390825b81548110156105c75760006105828383815481106105685761056861095f565b9060005260206000209060020201600101546003546107cd565b9050838112156105be578093508282815481106105a1576105a161095f565b60009182526020909120600290910201546001600160a01b031694505b50600101610548565b506001600160a01b038316156106465760055481546000916105e891610975565b6001600160a01b0385166000908152600a60205260408120805492935083929091906106159084906108c2565b9091555050600b54600090815260096020526040902080546001600160a01b0319166001600160a01b038616179055505b600b546003546040805192835260208301919091526001600160a01b03851682820152517fbbc057d42226d2747c9c898fa1be04cd1734cacafeaee5f799bd9e741a8eb03a9181900360600190a1600b80549060006106a4836108d5565b909155505060006004556106b66107f8565b50505050565b600860205281600052604060002081815481106106d857600080fd5b6000918252602090912060029091020180546001909101546001600160a01b039091169250905082565b336000908152600a60205260409020548061075f5760405162461bcd60e51b815260206004820152601760248201527f4e6f2077696e6e696e677320746f2077697468647261770000000000000000006044820152606401610341565b336000818152600a60205260408082208290555183156108fc0291849190818181858888f1935050505015801561079a573d6000803e3d6000fd5b5060405181815233907f24215bbaf0832fa4d6ffef16dee3971d8b714921fef3ad63f793d578983c6dc290602001610445565b60008183136107e5576107e0838361098c565b6107ef565b6107ef828461098c565b90505b92915050565b426002819055600b546040517f278844837bcf8364a705384bf3a2812901f54155bae86dea81dd52aa5b9ec0e392610837928252602082015260400190565b60405180910390a1565b60006020828403121561085357600080fd5b5035919050565b6000806040838503121561086d57600080fd5b50508035926020909101359150565b60006020828403121561088e57600080fd5b81356001600160a01b03811681146108a557600080fd5b9392505050565b634e487b7160e01b600052601160045260246000fd5b808201808211156107f2576107f26108ac565b6000600182016108e7576108e76108ac565b5060010190565b805169ffffffffffffffffffff8116811461090857600080fd5b919050565b600080600080600060a0868803121561092557600080fd5b61092e866108ee565b60208701516040880151606089015192975090955093509150610953608087016108ee565b90509295509295909350565b634e487b7160e01b600052603260045260246000fd5b80820281158282048414176107f2576107f26108ac565b81810360008312801583831316838312821617156109ac576109ac6108ac565b509291505056fea26469706673582212207932e9e04fa848a20ab23f25350ee7aeffae4dc26e0b42779dcdfbd177443e9e64736f6c634300081c0033","bytecodeSha1":"a01ac17563acbedd59e6d21dbc208cc3007bcf6f","compiler":{"evm_version":"istanbul","optimizer":{"enabled":true,"runs":200},"version":"0.8.28+commit.7893614a"},"contractName":"BitcoinUpDown","language":"Solidity","natspec":{"kind":"dev","methods":{},"version":1},"opcodes":"PUSH1 0x80 PUSH1 0x40 MSTORE PUSH1 0x4 CALLDATASIZE LT PUSH2 0xF3 JUMPI PUSH1 0x0 CALLDATALOAD PUSH1 0xE0 SHR DUP1 PUSH4 0x8DA5CB5B GT PUSH2 0x8A JUMPI DUP1 PUSH4 0xD24257C0 GT PUSH2 0x59 JUMPI DUP1 PUSH4 0xD24257C0 EQ PUSH2 0x27E JUMPI DUP1 PUSH4 0xDD4F8F74 EQ PUSH2 0x294 JUMPI DUP1 PUSH4 0xF3F43703 EQ PUSH2 0x2AA JUMPI DUP1 PUSH4 0xF7CB789A EQ PUSH2 0x2D7 JUMPI PUSH1 0x0 DUP1 REVERT JUMPDEST DUP1 PUSH4 0x8DA5CB5B EQ PUSH2 0x21D JUMPI DUP1 PUSH4 0xBB42E32E EQ PUSH2 0x23D JUMPI DUP1 PUSH4 0xC232302F EQ PUSH2 0x253 JUMPI DUP1 PUSH4 0xCC42E83A EQ PUSH2 0x269 JUMPI PUSH1 0x0 DUP1 REVERT JUMPDEST DUP1 PUSH4 0x76A4956C GT PUSH2 0xC6 JUMPI DUP1 PUSH4 0x76A4956C EQ PUSH2 0x17C JUMPI DUP1 PUSH4 0x81B79267 EQ PUSH2 0x1B2 JUMPI DUP1 PUSH4 0x8A19C8BC EQ PUSH2 0x1F1 JUMPI DUP1 PUSH4 0x8C648117 EQ PUSH2 0x207 JUMPI PUSH1 0x0 DUP1 REVERT JUMPDEST DUP1 PUSH4 0x133386A4 EQ PUSH2 0xF8 JUMPI DUP1 PUSH4 0x6F9FB98A EQ PUSH2 0x10D JUMPI DUP1 PUSH4 0x741BEF1A EQ PUSH2 0x12F JUMPI DUP1 PUSH4 0x749AA2D9 EQ PUSH2 0x167 JUMPI JUMPDEST PUSH1 0x0 DUP1 REVERT JUMPDEST PUSH2 0x10B PUSH2 0x106 CALLDATASIZE PUSH1 0x4 PUSH2 0x841 JUMP JUMPDEST PUSH2 0x2ED JUMP JUMPDEST STOP JUMPDEST CALLVALUE DUP1 ISZERO PUSH2 0x119 JUMPI PUSH1 0x0 DUP1 REVERT JUMPDEST POP SELFBALANCE JUMPDEST PUSH1 0x40 MLOAD SWAP1 DUP2 MSTORE PUSH1 0x20 ADD JUMPDEST PUSH1 0x40 MLOAD DUP1 SWAP2 SUB SWAP1 RETURN JUMPDEST CALLVALUE DUP1 ISZERO PUSH2 0x13B JUMPI PUSH1 0x0 DUP1 REVERT JUMPDEST POP PUSH1 0x0 SLOAD PUSH2 0x14F SWAP1 PUSH1 0x1 PUSH1 0x1 PUSH1 0xA0 SHL SUB AND DUP2 JUMP JUMPDEST PUSH1 0x40 MLOAD PUSH1 0x1 PUSH1 0x1 PUSH1 0xA0 SHL SUB SWAP1 SWAP2 AND DUP2 MSTORE PUSH1 0x20 ADD PUSH2 0x126 JUMP JUMPDEST CALLVALUE DUP1 ISZERO PUSH2 0x173 JUMPI PUSH1 0x0 DUP1 REVERT JUMPDEST POP PUSH2 0x10B PUSH2 0x450 JUMP JUMPDEST CALLVALUE DUP1 ISZERO PUSH2 0x188 JUMPI PUSH1 0x0 DUP1 REVERT JUMPDEST POP PUSH2 0x14F PUSH2 0x197 CALLDATASIZE PUSH1 0x4 PUSH2 0x841 JUMP JUMPDEST PUSH1 0x9 PUSH1 0x20 MSTORE PUSH1 0x0 SWAP1 DUP2 MSTORE PUSH1 0x40 SWAP1 KECCAK256 SLOAD PUSH1 0x1 PUSH1 0x1 PUSH1 0xA0 SHL SUB AND DUP2 JUMP JUMPDEST CALLVALUE DUP1 ISZERO PUSH2 0x1BE JUMPI PUSH1 0x0 DUP1 REVERT JUMPDEST POP PUSH2 0x1D2 PUSH2 0x1CD CALLDATASIZE PUSH1 0x4 PUSH2 0x85A JUMP JUMPDEST PUSH2 0x6BC JUMP JUMPDEST PUSH1 0x40 DUP1 MLOAD PUSH1 0x1 PUSH1 0x1 PUSH1 0xA0 SHL SUB SWAP1 SWAP4 AND DUP4 MSTORE PUSH1 0x20 DUP4 ADD SWAP2 SWAP1 SWAP2 MSTORE ADD PUSH2 0x126 JUMP JUMPDEST CALLVALUE DUP1 ISZERO PUSH2 0x1FD JUMPI PUSH1 0x0 DUP1 REVERT JUMPDEST POP PUSH2 0x11C PUSH1 0xB SLOAD DUP2 JUMP JUMPDEST CALLVALUE DUP1 ISZERO PUSH2 0x213 JUMPI PUSH1 0x0 DUP1 REVERT JUMPDEST POP PUSH2 0x11C PUSH1 0x3 SLOAD DUP2 JUMP JUMPDEST CALLVALUE DUP1 ISZERO PUSH2 0x229 JUMPI PUSH1 0x0 DUP1 REVERT JUMPDEST POP PUSH1 0x1 SLOAD PUSH2 0x14F SWAP1 PUSH1 0x1 PUSH1 0x1 PUSH1 0xA0 SHL SUB AND DUP2 JUMP JUMPDEST CALLVALUE DUP1 ISZERO PUSH2 0x249 JUMPI PUSH1 0x0 DUP1 REVERT JUMPDEST POP PUSH2 0x11C PUSH1 0x7 SLOAD DUP2 JUMP JUMPDEST CALLVALUE DUP1 ISZERO PUSH2 0x25F JUMPI PUSH1 0x0 DUP1 REVERT JUMPDEST POP PUSH2 0x11C PUSH1 0x4 SLOAD DUP2 JUMP JUMPDEST CALLVALUE DUP1 ISZERO PUSH2 0x275 JUMPI PUSH1 0x0 DUP1 REVERT JUMPDEST POP PUSH2 0x10B PUSH2 0x702 JUMP JUMPDEST CALLVALUE DUP1 ISZERO PUSH2 0x28A JUMPI PUSH1 0x0 DUP1 REVERT JUMPDEST POP PUSH2 0x11C PUSH1 0x5 SLOAD DUP2 JUMP JUMPDEST CALLVALUE DUP1 ISZERO PUSH2 0x2A0 JUMPI PUSH1 0x0 DUP1 REVERT JUMPDEST POP PUSH2 0x11C PUSH1 0x2 SLOAD DUP2 JUMP JUMPDEST CALLVALUE DUP1 ISZERO PUSH2 0x2B6 JUMPI PUSH1 0x0 DUP1 REVERT JUMPDEST POP PUSH2 0x11C PUSH2 0x2C5 CALLDATASIZE PUSH1 0x4 PUSH2 0x87C JUMP JUMPDEST PUSH1 0xA PUSH1 0x20 MSTORE PUSH1 0x0 SWAP1 DUP2 MSTORE PUSH1 0x40 SWAP1 KECCAK256 SLOAD DUP2 JUMP JUMPDEST CALLVALUE DUP1 ISZERO PUSH2 0x2E3 JUMPI PUSH1 0x0 DUP1 REVERT JUMPDEST POP PUSH2 0x11C PUSH1 0x6 SLOAD DUP2 JUMP JUMPDEST PUSH1 0x7 SLOAD PUSH1 0x2 SLOAD PUSH2 0x2FD SWAP2 SWAP1 PUSH2 0x8C2 JUMP JUMPDEST TIMESTAMP GT ISZERO PUSH2 0x34A JUMPI PUSH1 0x40 MLOAD PUSH3 0x461BCD PUSH1 0xE5 SHL DUP2 MSTORE PUSH1 0x20 PUSH1 0x4 DUP3 ADD MSTORE PUSH1 0x16 PUSH1 0x24 DUP3 ADD MSTORE PUSH22 0x2132BA3A34B733903832B934B7B21034B99037BB32B9 PUSH1 0x51 SHL PUSH1 0x44 DUP3 ADD MSTORE PUSH1 0x64 ADD JUMPDEST PUSH1 0x40 MLOAD DUP1 SWAP2 SUB SWAP1 REVERT JUMPDEST PUSH1 0x5 SLOAD CALLVALUE EQ PUSH2 0x39B JUMPI PUSH1 0x40 MLOAD PUSH3 0x461BCD PUSH1 0xE5 SHL DUP2 MSTORE PUSH1 0x20 PUSH1 0x4 DUP3 ADD DUP2 SWAP1 MSTORE PUSH1 0x24 DUP3 ADD MSTORE PUSH32 0x42657420616D6F756E74206D7573742062652065786163746C79203120455448 PUSH1 0x44 DUP3 ADD MSTORE PUSH1 0x64 ADD PUSH2 0x341 JUMP JUMPDEST PUSH1 0xB SLOAD PUSH1 0x0 SWAP1 DUP2 MSTORE PUSH1 0x8 PUSH1 0x20 SWAP1 DUP2 MSTORE PUSH1 0x40 DUP1 DUP4 KECCAK256 DUP2 MLOAD DUP1 DUP4 ADD SWAP1 SWAP3 MSTORE CALLER DUP3 MSTORE DUP2 DUP4 ADD DUP6 DUP2 MSTORE DUP2 SLOAD PUSH1 0x1 DUP1 DUP3 ADD DUP5 SSTORE SWAP3 DUP7 MSTORE SWAP4 DUP6 KECCAK256 SWAP3 MLOAD PUSH1 0x2 SWAP1 SWAP5 MUL SWAP1 SWAP3 ADD DUP1 SLOAD PUSH1 0x1 PUSH1 0x1 PUSH1 0xA0 SHL SUB NOT AND PUSH1 0x1 PUSH1 0x1 PUSH1 0xA0 SHL SUB SWAP1 SWAP5 AND SWAP4 SWAP1 SWAP4 OR DUP4 SSTORE SWAP1 MLOAD SWAP2 ADD SSTORE PUSH1 0x4 DUP1 SLOAD SWAP2 PUSH2 0x409 DUP4 PUSH2 0x8D5 JUMP JUMPDEST SWAP1 SWAP2 SSTORE POP POP PUSH1 0xB SLOAD PUSH1 0x40 DUP1 MLOAD SWAP2 DUP3 MSTORE PUSH1 0x20 DUP3 ADD DUP4 SWAP1 MSTORE CALLER SWAP2 PUSH32 0xFE8A4F5C8AA725DEFF1274DCD26CC3D24F93440A9B35EA011509B962F518B11 SWAP2 ADD JUMPDEST PUSH1 0x40 MLOAD DUP1 SWAP2 SUB SWAP1 LOG2 POP JUMP JUMPDEST PUSH1 0x6 SLOAD PUSH1 0x2 SLOAD PUSH2 0x460 SWAP2 SWAP1 PUSH2 0x8C2 JUMP JUMPDEST TIMESTAMP LT ISZERO PUSH2 0x4A7 JUMPI PUSH1 0x40 MLOAD PUSH3 0x461BCD PUSH1 0xE5 SHL DUP2 MSTORE PUSH1 0x20 PUSH1 0x4 DUP3 ADD MSTORE PUSH1 0x15 PUSH1 0x24 DUP3 ADD MSTORE PUSH21 0x2937BAB7321034B9903737BA103CB2BA1037BB32B9 PUSH1 0x59 SHL PUSH1 0x44 DUP3 ADD MSTORE PUSH1 0x64 ADD PUSH2 0x341 JUMP JUMPDEST PUSH1 0x0 DUP1 PUSH1 0x0 SWAP1 SLOAD SWAP1 PUSH2 0x100 EXP SWAP1 DIV PUSH1 0x1 PUSH1 0x1 PUSH1 0xA0 SHL SUB AND PUSH1 0x1 PUSH1 0x1 PUSH1 0xA0 SHL SUB AND PUSH4 0xFEAF968C PUSH1 0x40 MLOAD DUP2 PUSH4 0xFFFFFFFF AND PUSH1 0xE0 SHL DUP2 MSTORE PUSH1 0x4 ADD PUSH1 0xA0 PUSH1 0x40 MLOAD DUP1 DUP4 SUB DUP2 DUP7 GAS STATICCALL ISZERO DUP1 ISZERO PUSH2 0x4FB JUMPI RETURNDATASIZE PUSH1 0x0 DUP1 RETURNDATACOPY RETURNDATASIZE PUSH1 0x0 REVERT JUMPDEST POP POP POP POP PUSH1 0x40 MLOAD RETURNDATASIZE PUSH1 0x1F NOT PUSH1 0x1F DUP3 ADD AND DUP3 ADD DUP1 PUSH1 0x40 MSTORE POP DUP2 ADD SWAP1 PUSH2 0x51F SWAP2 SWAP1 PUSH2 0x90D JUMP JUMPDEST POP POP POP PUSH1 0x3 DUP2 SWAP1 SSTORE PUSH1 0xB SLOAD PUSH1 0x0 SWAP1 DUP2 MSTORE PUSH1 0x8 PUSH1 0x20 MSTORE PUSH1 0x40 DUP2 KECCAK256 SWAP2 SWAP4 POP SWAP2 POP PUSH1 0x1 PUSH1 0x1 PUSH1 0xFF SHL SUB SWAP1 DUP3 JUMPDEST DUP2 SLOAD DUP2 LT ISZERO PUSH2 0x5C7 JUMPI PUSH1 0x0 PUSH2 0x582 DUP4 DUP4 DUP2 SLOAD DUP2 LT PUSH2 0x568 JUMPI PUSH2 0x568 PUSH2 0x95F JUMP JUMPDEST SWAP1 PUSH1 0x0 MSTORE PUSH1 0x20 PUSH1 0x0 KECCAK256 SWAP1 PUSH1 0x2 MUL ADD PUSH1 0x1 ADD SLOAD PUSH1 0x3 SLOAD PUSH2 0x7CD JUMP JUMPDEST SWAP1 POP DUP4 DUP2 SLT ISZERO PUSH2 0x5BE JUMPI DUP1 SWAP4 POP DUP3 DUP3 DUP2 SLOAD DUP2 LT PUSH2 0x5A1 JUMPI PUSH2 0x5A1 PUSH2 0x95F JUMP JUMPDEST PUSH1 0x0 SWAP2 DUP3 MSTORE PUSH1 0x20 SWAP1 SWAP2 KECCAK256 PUSH1 0x2 SWAP1 SWAP2 MUL ADD SLOAD PUSH1 0x1 PUSH1 0x1 PUSH1 0xA0 SHL SUB AND SWAP5 POP JUMPDEST POP PUSH1 0x1 ADD PUSH2 0x548 JUMP JUMPDEST POP PUSH1 0x1 PUSH1 0x1 PUSH1 0xA0 SHL SUB DUP4 AND ISZERO PUSH2 0x646 JUMPI PUSH1 0x5 SLOAD DUP2 SLOAD PUSH1 0x0 SWAP2 PUSH2 0x5E8 SWAP2 PUSH2 0x975 JUMP JUMPDEST PUSH1 0x1 PUSH1 0x1 PUSH1 0xA0 SHL SUB DUP6 AND PUSH1 0x0 SWAP1 DUP2 MSTORE PUSH1 0xA PUSH1 0x20 MSTORE PUSH1 0x40 DUP2 KECCAK256 DUP1 SLOAD SWAP3 SWAP4 POP DUP4 SWAP3 SWAP1 SWAP2 SWAP1 PUSH2 0x615 SWAP1 DUP5 SWAP1 PUSH2 0x8C2 JUMP JUMPDEST SWAP1 SWAP2 SSTORE POP POP PUSH1 0xB SLOAD PUSH1 0x0 SWAP1 DUP2 MSTORE PUSH1 0x9 PUSH1 0x20 MSTORE PUSH1 0x40 SWAP1 KECCAK256 DUP1 SLOAD PUSH1 0x1 PUSH1 0x1 PUSH1 0xA0 SHL SUB NOT AND PUSH1 0x1 PUSH1 0x1 PUSH1 0xA0 SHL SUB DUP7 AND OR SWAP1 SSTORE POP JUMPDEST PUSH1 0xB SLOAD PUSH1 0x3 SLOAD PUSH1 0x40 DUP1 MLOAD SWAP3 DUP4 MSTORE PUSH1 0x20 DUP4 ADD SWAP2 SWAP1 SWAP2 MSTORE PUSH1 0x1 PUSH1 0x1 PUSH1 0xA0 SHL SUB DUP6 AND DUP3 DUP3 ADD MSTORE MLOAD PUSH32 0xBBC057D42226D2747C9C898FA1BE04CD1734CACAFEAEE5F799BD9E741A8EB03A SWAP2 DUP2 SWAP1 SUB PUSH1 0x60 ADD SWAP1 LOG1 PUSH1 0xB DUP1 SLOAD SWAP1 PUSH1 0x0 PUSH2 0x6A4 DUP4 PUSH2 0x8D5 JUMP JUMPDEST SWAP1 SWAP2 SSTORE POP POP PUSH1 0x0 PUSH1 0x4 SSTORE PUSH2 0x6B6 PUSH2 0x7F8 JUMP JUMPDEST POP POP POP POP JUMP JUMPDEST PUSH1 0x8 PUSH1 0x20 MSTORE DUP2 PUSH1 0x0 MSTORE PUSH1 0x40 PUSH1 0x0 KECCAK256 DUP2 DUP2 SLOAD DUP2 LT PUSH2 0x6D8 JUMPI PUSH1 0x0 DUP1 REVERT JUMPDEST PUSH1 0x0 SWAP2 DUP3 MSTORE PUSH1 0x20 SWAP1 SWAP2 KECCAK256 PUSH1 0x2 SWAP1 SWAP2 MUL ADD DUP1 SLOAD PUSH1 0x1 SWAP1 SWAP2 ADD SLOAD PUSH1 0x1 PUSH1 0x1 PUSH1 0xA0 SHL SUB SWAP1 SWAP2 AND SWAP3 POP SWAP1 POP DUP3 JUMP JUMPDEST CALLER PUSH1 0x0 SWAP1 DUP2 MSTORE PUSH1 0xA PUSH1 0x20 MSTORE PUSH1 0x40 SWAP1 KECCAK256 SLOAD DUP1 PUSH2 0x75F JUMPI PUSH1 0x40 MLOAD PUSH3 0x461BCD PUSH1 0xE5 SHL DUP2 MSTORE PUSH1 0x20 PUSH1 0x4 DUP3 ADD MSTORE PUSH1 0x17 PUSH1 0x24 DUP3 ADD MSTORE PUSH32 0x4E6F2077696E6E696E677320746F207769746864726177000000000000000000 PUSH1 0x44 DUP3 ADD MSTORE PUSH1 0x64 ADD PUSH2 0x341 JUMP JUMPDEST CALLER PUSH1 0x0 DUP2 DUP2 MSTORE PUSH1 0xA PUSH1 0x20 MSTORE PUSH1 0x40 DUP1 DUP3 KECCAK256 DUP3 SWAP1 SSTORE MLOAD DUP4 ISZERO PUSH2 0x8FC MUL SWAP2 DUP5 SWAP2 SWAP1 DUP2 DUP2 DUP2 DUP6 DUP9 DUP9 CALL SWAP4 POP POP POP POP ISZERO DUP1 ISZERO PUSH2 0x79A JUMPI RETURNDATASIZE PUSH1 0x0 DUP1 RETURNDATACOPY RETURNDATASIZE PUSH1 0x0 REVERT JUMPDEST POP PUSH1 0x40 MLOAD DUP2 DUP2 MSTORE CALLER SWAP1 PUSH32 0x24215BBAF0832FA4D6FFEF16DEE3971D8B714921FEF3AD63F793D578983C6DC2 SWAP1 PUSH1 0x20 ADD PUSH2 0x445 JUMP JUMPDEST PUSH1 0x0 DUP2 DUP4 SGT PUSH2 0x7E5 JUMPI PUSH2 0x7E0 DUP4 DUP4 PUSH2 0x98C JUMP JUMPDEST PUSH2 0x7EF JUMP JUMPDEST PUSH2 0x7EF DUP3 DUP5 PUSH2 0x98C JUMP JUMPDEST SWAP1 POP JUMPDEST SWAP3 SWAP2 POP POP JUMP JUMPDEST TIMESTAMP PUSH1 0x2 DUP2 SWAP1 SSTORE PUSH1 0xB SLOAD PUSH1 0x40 MLOAD PUSH32 0x278844837BCF8364A705384BF3A2812901F54155BAE86DEA81DD52AA5B9EC0E3 SWAP3 PUSH2 0x837 SWAP3 DUP3 MSTORE PUSH1 0x20 DUP3 ADD MSTORE PUSH1 0x40 ADD SWAP1 JUMP JUMPDEST PUSH1 0x40 MLOAD DUP1 SWAP2 SUB SWAP1 LOG1 JUMP JUMPDEST PUSH1 0x0 PUSH1 0x20 DUP3 DUP5 SUB SLT ISZERO PUSH2 0x853 JUMPI PUSH1 0x0 DUP1 REVERT JUMPDEST POP CALLDATALOAD SWAP2 SWAP1 POP JUMP JUMPDEST PUSH1 0x0 DUP1 PUSH1 0x40 DUP4 DUP6 SUB SLT ISZERO PUSH2 0x86D JUMPI PUSH1 0x0 DUP1 REVERT JUMPDEST POP POP DUP1 CALLDATALOAD SWAP3 PUSH1 0x20 SWAP1 SWAP2 ADD CALLDATALOAD SWAP2 POP JUMP JUMPDEST PUSH1 0x0 PUSH1 0x20 DUP3 DUP5 SUB SLT ISZERO PUSH2 0x88E JUMPI PUSH1 0x0 DUP1 REVERT JUMPDEST DUP2 CALLDATALOAD PUSH1 0x1 PUSH1 0x1 PUSH1 0xA0 SHL SUB DUP2 AND DUP2 EQ PUSH2 0x8A5 JUMPI PUSH1 0x0 DUP1 REVERT JUMPDEST SWAP4 SWAP3 POP POP POP JUMP JUMPDEST PUSH4 0x4E487B71 PUSH1 0xE0 SHL PUSH1 0x0 MSTORE PUSH1 0x11 PUSH1 0x4 MSTORE PUSH1 0x24 PUSH1 0x0 REVERT JUMPDEST DUP1 DUP3 ADD DUP1 DUP3 GT ISZERO PUSH2 0x7F2 JUMPI PUSH2 0x7F2 PUSH2 0x8AC JUMP JUMPDEST PUSH1 0x0 PUSH1 0x1 DUP3 ADD PUSH2 0x8E7 JUMPI PUSH2 0x8E7 PUSH2 0x8AC JUMP JUMPDEST POP PUSH1 0x1 ADD SWAP1 JUMP JUMPDEST DUP1 MLOAD PUSH10 0xFFFFFFFFFFFFFFFFFFFF DUP2 AND DUP2 EQ PUSH2 0x908 JUMPI PUSH1 0x0 DUP1 REVERT JUMPDEST SWAP2 SWAP1 POP JUMP JUMPDEST PUSH1 0x0 DUP1 PUSH1 0x0 DUP1 PUSH1 0x0 PUSH1 0xA0 DUP7 DUP9 SUB SLT ISZERO PUSH2 0x925 JUMPI PUSH1 0x0 DUP1 REVERT JUMPDEST PUSH2 0x92E DUP7 PUSH2 0x8EE JUMP JUMPDEST PUSH1 0x20 DUP8 ADD MLOAD PUSH1 0x40 DUP9 ADD MLOAD PUSH1 0x60 DUP10 ADD MLOAD SWAP3 SWAP8 POP SWAP1 SWAP6 POP SWAP4 POP SWAP2 POP PUSH2 0x953 PUSH1 0x80 DUP8 ADD PUSH2 0x8EE JUMP JUMPDEST SWAP1 POP SWAP3 SWAP6 POP SWAP3 SWAP6 SWAP1 SWAP4 POP JUMP JUMPDEST PUSH4 0x4E487B71 PUSH1 0xE0 SHL PUSH1 0x0 MSTORE PUSH1 0x32 PUSH1 0x4 MSTORE PUSH1 0x24 PUSH1 0x0 REVERT JUMPDEST DUP1 DUP3 MUL DUP2 ISZERO DUP3 DUP3 DIV DUP5 EQ OR PUSH2 0x7F2 JUMPI PUSH2 0x7F2 PUSH2 0x8AC JUMP JUMPDEST DUP2 DUP2 SUB PUSH1 0x0 DUP4 SLT DUP1 ISZERO DUP4 DUP4 SGT AND DUP4 DUP4 SLT DUP3 AND OR ISZERO PUSH2 0x9AC JUMPI PUSH2 0x9AC PUSH2 0x8AC JUMP JUMPDEST POP SWAP3 SWAP2 POP POP JUMP INVALID LOG2 PUSH5 0x6970667358 0x22 SLT KECCAK256 PUSH26 0x32E9E04FA848A20AB23F25350EE7AEFFAE4DC26E0B42779DCDFB 0xD1 PUSH24 0x443E9E64736F6C634300081C003300000000000000000000 ","sha1":"ec220bdcd84535107c7ac307b49a2a1a0dc1a43e","source":"// SPDX-License-Identifier: MIT\npragma solidity ^0.8.7;\n\nimport \"@chainlink/contracts/src/v0.8/interfaces/AggregatorV3Interface.sol\";\n\ncontract BitcoinUpDown {\n    struct Bet {\n        address bettor;\n        int256 predictedPrice; // User's predicted price\n    }\n\n    AggregatorV3Interface public priceFeed;\n    address public owner;\n    uint256 public roundStartTime;\n    int256 public actualPrice; // The actual price fetched at the end of the round\n    uint256 public n_bets;\n    uint256 public betAmount = 0.01 ether; // Fixed bet amount\n    uint256 public roundDuration = 0; // 1 hour\n    uint256 public betting_duration = 3600;\n\n    mapping(uint256 => Bet[]) public roundBets; // Store bets for each round\n    mapping(uint256 => address) public roundWinners; // Store the winner of each round\n    mapping(address => uint256) public pendingWithdrawals; // Winnings available for withdrawal\n\n    uint256 public currentRound; // Current round ID\n\n    event RoundStarted(uint256 roundId, uint256 startTime);\n    event BetPlaced(\n        uint256 roundId,\n        address indexed bettor,\n        int256 predictedPrice\n    );\n    event RoundEnded(uint256 roundId, int256 actualPrice, address winner);\n    event WinningsWithdrawn(address indexed winner, uint256 amount);\n\n    modifier onlyOwner() {\n        require(msg.sender == owner, \"Only owner can call this function\");\n        _;\n    }\n\n    constructor(address _priceFeed) {\n        owner = msg.sender;\n        priceFeed = AggregatorV3Interface(_priceFeed);\n        currentRound = 1;\n        _startNewRound();\n    }\n\n    function placeBet(int256 _predictedPrice) external payable {\n        require(\n            block.timestamp <= roundStartTime + betting_duration,\n            \"Betting period is over\"\n        );\n        require(msg.value == betAmount, \"Bet amount must be exactly 1 ETH\");\n        roundBets[currentRound].push(Bet(msg.sender, _predictedPrice));\n        n_bets++;\n        emit BetPlaced(currentRound, msg.sender, _predictedPrice);\n    }\n\n    function endRound() external {\n        require(\n            block.timestamp >= roundStartTime + roundDuration,\n            \"Round is not yet over\"\n        );\n\n        (, int256 _actualPrice, , , ) = priceFeed.latestRoundData();\n        actualPrice = _actualPrice;\n\n        // Determine the closest prediction\n        address winner;\n        int256 closestDifference = type(int256).max;\n\n        Bet[] storage bets = roundBets[currentRound];\n        for (uint256 i = 0; i < bets.length; i++) {\n            int256 difference = absoluteDifference(\n                bets[i].predictedPrice,\n                actualPrice\n            );\n            if (difference < closestDifference) {\n                closestDifference = difference;\n                winner = bets[i].bettor;\n            }\n        }\n\n        if (winner != address(0)) {\n            uint256 totalPool = bets.length * betAmount;\n            pendingWithdrawals[winner] += totalPool; // Add winnings to the winner's withdrawal balance\n            roundWinners[currentRound] = winner;\n        }\n\n        emit RoundEnded(currentRound, actualPrice, winner);\n\n        // Automatically start the next round\n        currentRound++;\n        n_bets = 0;\n        _startNewRound();\n    }\n\n    function withdrawWinnings() external {\n        uint256 amount = pendingWithdrawals[msg.sender];\n        require(amount > 0, \"No winnings to withdraw\");\n\n        pendingWithdrawals[msg.sender] = 0;\n        payable(msg.sender).transfer(amount);\n\n        emit WinningsWithdrawn(msg.sender, amount);\n    }\n\n    function absoluteDifference(\n        int256 a,\n        int256 b\n    ) internal pure returns (int256) {\n        return a > b ? a - b : b - a;\n    }\n\n    function getContractBalance() external view returns (uint256) {\n        return address(this).balance;\n    }\n\n    function _startNewRound() internal {\n        roundStartTime = block.timestamp;\n        emit RoundStarted(currentRound, roundStartTime);\n    }\n}\n","sourcePath":"contracts/BitcoinUpDown.sol","type":"contract","deployment":{"address":"0x61643453f18637E40ab3316bcd7A4dd998b2391e","chainid":"97","blockHeight":46371504}}