{"abi":[{"inputs":[{"internalType":"address","name":"_priceFeed","type":"address"},{"internalType":"uint256","name":"_initialSeed","type":"uint256"}],"stateMutability":"payable","type":"constructor","name":"constructor"},{"anonymous":false,"inputs":[{"indexed":false,"internalType":"uint256","name":"roundId","type":"uint256"},{"indexed":true,"internalType":"address","name":"bettor","type":"address"},{"indexed":false,"internalType":"int256","name":"predictedPrice","type":"int256"}],"name":"BetPlaced","type":"event"},{"anonymous":false,"inputs":[{"indexed":true,"internalType":"address","name":"owner","type":"address"},{"indexed":false,"internalType":"uint256","name":"amount","type":"uint256"}],"name":"DevFeeWithdrawn","type":"event"},{"anonymous":false,"inputs":[{"indexed":false,"internalType":"uint256","name":"roundId","type":"uint256"},{"indexed":false,"internalType":"int256","name":"actualPrice","type":"int256"},{"indexed":false,"internalType":"address","name":"winner","type":"address"}],"name":"RoundEnded","type":"event"},{"anonymous":false,"inputs":[{"indexed":false,"internalType":"uint256","name":"roundId","type":"uint256"},{"indexed":false,"internalType":"uint256","name":"startTime","type":"uint256"}],"name":"RoundStarted","type":"event"},{"anonymous":false,"inputs":[{"indexed":true,"internalType":"address","name":"winner","type":"address"},{"indexed":false,"internalType":"uint256","name":"amount","type":"uint256"}],"name":"WinningsWithdrawn","type":"event"},{"stateMutability":"payable","type":"fallback"},{"inputs":[],"name":"currentRound","outputs":[{"internalType":"uint256","name":"","type":"uint256"}],"stateMutability":"view","type":"function"},{"inputs":[{"internalType":"uint256","name":"","type":"uint256"}],"name":"currentRoundBets","outputs":[{"internalType":"address","name":"bettor","type":"address"},{"internalType":"int256","name":"predictedPrice","type":"int256"}],"stateMutability":"view","type":"function"},{"inputs":[],"name":"devFeeBalance","outputs":[{"internalType":"uint256","name":"","type":"uint256"}],"stateMutability":"view","type":"function"},{"inputs":[],"name":"endRound","outputs":[],"stateMutability":"nonpayable","type":"function"},{"inputs":[],"name":"getBetCount","outputs":[{"internalType":"uint256","name":"","type":"uint256"}],"stateMutability":"view","type":"function"},{"inputs":[],"name":"getPrice","outputs":[{"internalType":"int256","name":"","type":"int256"}],"stateMutability":"view","type":"function"},{"inputs":[{"internalType":"uint256","name":"","type":"uint256"},{"internalType":"int256","name":"","type":"int256"}],"name":"hasBetOnPrice","outputs":[{"internalType":"bool","name":"","type":"bool"}],"stateMutability":"view","type":"function"},{"inputs":[{"internalType":"uint256","name":"","type":"uint256"},{"internalType":"address","name":"","type":"address"}],"name":"hasPlacedBet","outputs":[{"internalType":"bool","name":"","type":"bool"}],"stateMutability":"view","type":"function"},{"inputs":[],"name":"n_bets","outputs":[{"internalType":"uint256","name":"","type":"uint256"}],"stateMutability":"view","type":"function"},{"inputs":[],"name":"owner","outputs":[{"internalType":"address","name":"","type":"address"}],"stateMutability":"view","type":"function"},{"inputs":[{"internalType":"address","name":"","type":"address"}],"name":"pendingWithdrawals","outputs":[{"internalType":"uint256","name":"","type":"uint256"}],"stateMutability":"view","type":"function"},{"inputs":[{"internalType":"int256","name":"_predictedPrice","type":"int256"}],"name":"placeBet","outputs":[],"stateMutability":"payable","type":"function"},{"inputs":[],"name":"priceFeed","outputs":[{"internalType":"contract AggregatorV3Interface","name":"","type":"address"}],"stateMutability":"view","type":"function"},{"inputs":[],"name":"roundStartTime","outputs":[{"internalType":"uint256","name":"","type":"uint256"}],"stateMutability":"view","type":"function"},{"inputs":[{"internalType":"uint256","name":"","type":"uint256"}],"name":"roundWinners","outputs":[{"internalType":"address","name":"","type":"address"}],"stateMutability":"view","type":"function"},{"inputs":[],"name":"seedAmount","outputs":[{"internalType":"uint256","name":"","type":"uint256"}],"stateMutability":"view","type":"function"},{"inputs":[],"name":"withdrawDevFee","outputs":[],"stateMutability":"nonpayable","type":"function"},{"inputs":[],"name":"withdrawWinnings","outputs":[],"stateMutability":"nonpayable","type":"function"},{"stateMutability":"payable","type":"receive"}],"bytecode":"60e06040819052662386f26fc100006080526104b060a05261025860c0526112223881900390819083398101604081905261003991610115565b8034101561008d5760405162461bcd60e51b815260206004820152601960248201527f496e73756666696369656e7420696e697469616c207365656400000000000000604482015260640160405180910390fd5b60018054336001600160a01b0319918216178255600080549091166001600160a01b0385161790556004829055600b556100c56100cc565b505061014f565b426002819055600b546040517f278844837bcf8364a705384bf3a2812901f54155bae86dea81dd52aa5b9ec0e39261010b928252602082015260400190565b60405180910390a1565b6000806040838503121561012857600080fd5b82516001600160a01b038116811461013f57600080fd5b6020939093015192949293505050565b60805160a05160c05161109d61018560003960006104280152600061076401526000818161049e015261095f015261109d6000f3fe60806040526004361061010d5760003560e01c80638da5cb5b11610095578063c5774a3f11610064578063c5774a3f146103a3578063cb93f7ef146103b9578063cc42e83a146103ce578063dd4f8f74146103e3578063f3f43703146103f95761015f565b80638da5cb5b1461034357806398d5fdca14610363578063b93dab0b14610378578063c232302f1461038d5761015f565b806372e9b172116100dc57806372e9b1721461026f578063741bef1a146102aa578063749aa2d9146102e257806376a4956c146102f75780638a19c8bc1461032d5761015f565b8063133386a4146101a757806314ce7590146101bc5780635a0753ac1461020c5780635f96fe15146102305761015f565b3661015f5760405162461bcd60e51b815260206004820181905260248201527f44697265637420455448207472616e7366657273206e6f7420616c6c6f77656460448201526064015b60405180910390fd5b60405162461bcd60e51b815260206004820181905260248201527f44697265637420455448207472616e7366657273206e6f7420616c6c6f7765646044820152606401610156565b6101ba6101b5366004610eb9565b610426565b005b3480156101c857600080fd5b506101f76101d7366004610eee565b600960209081526000928352604080842090915290825290205460ff1681565b60405190151581526020015b60405180910390f35b34801561021857600080fd5b5061022260055481565b604051908152602001610203565b34801561023c57600080fd5b5061025061024b366004610eb9565b61072a565b604080516001600160a01b039093168352602083019190915201610203565b34801561027b57600080fd5b506101f761028a366004610f1a565b600a60209081526000928352604080842090915290825290205460ff1681565b3480156102b657600080fd5b506000546102ca906001600160a01b031681565b6040516001600160a01b039091168152602001610203565b3480156102ee57600080fd5b506101ba610762565b34801561030357600080fd5b506102ca610312366004610eb9565b6007602052600090815260409020546001600160a01b031681565b34801561033957600080fd5b50610222600b5481565b34801561034f57600080fd5b506001546102ca906001600160a01b031681565b34801561036f57600080fd5b50610222610acc565b34801561038457600080fd5b50600654610222565b34801561039957600080fd5b5061022260035481565b3480156103af57600080fd5b5061022260045481565b3480156103c557600080fd5b506101ba610b45565b3480156103da57600080fd5b506101ba610cdc565b3480156103ef57600080fd5b5061022260025481565b34801561040557600080fd5b50610222610414366004610f3c565b60086020526000908152604090205481565b7f00000000000000000000000000000000000000000000000000000000000000006002546104549190610f6d565b42111561049c5760405162461bcd60e51b81526020600482015260166024820152752132ba3a34b733903832b934b7b21034b99037bb32b960511b6044820152606401610156565b7f000000000000000000000000000000000000000000000000000000000000000034146105175760405162461bcd60e51b815260206004820152602360248201527f42657420616d6f756e74206d7573742062652065786163746c7920302e30312060448201526208aa8960eb1b6064820152608401610156565b600b54600090815260096020908152604080832033845290915290205460ff161561059f5760405162461bcd60e51b815260206004820152603260248201527f596f75206861766520616c726561647920706c616365642061207072656469636044820152711d1a5bdb881a5b881d1a1a5cc81c9bdd5b9960721b6064820152608401610156565b600b546000908152600a6020908152604080832084845290915290205460ff16156106175760405162461bcd60e51b815260206004820152602260248201527f546869732070726963652068617320616c7265616479206265656e206265742060448201526137b760f11b6064820152608401610156565b6040805180820182523380825260208083018581526006805460018082018355600092835295517ff652222313e28459528d920b65115c16c04f3efc82aaedc97be59f3f377c0d3f600290920291820180546001600160a01b0319166001600160a01b0390921691909117905591517ff652222313e28459528d920b65115c16c04f3efc82aaedc97be59f3f377c0d4090920191909155600b80548252600983528582208483528352858220805460ff19908116871790915581548352600a84528683208884528452918690208054909216909417905591548351908152918201849052917f0fe8a4f5c8aa725deff1274dcd26cc3d24f93440a9b35ea011509b962f518b11910160405180910390a250565b6006818154811061073a57600080fd5b6000918252602090912060029091020180546001909101546001600160a01b03909116915082565b7f00000000000000000000000000000000000000000000000000000000000000006002546107909190610f6d565b4210156107d75760405162461bcd60e51b81526020600482015260156024820152742937bab7321034b9903737ba103cb2ba1037bb32b960591b6044820152606401610156565b60008060009054906101000a90046001600160a01b03166001600160a01b031663feaf968c6040518163ffffffff1660e01b815260040160a060405180830381865afa15801561082b573d6000803e3d6000fd5b505050506040513d601f19601f8201168201806040525081019061084f9190610f9a565b5050509150506000806001600160ff1b03905060006006805480602002602001604051908101604052809291908181526020016000905b828210156108ce576000848152602090819020604080518082019091526002850290910180546001600160a01b03168252600190810154828401529083529092019101610886565b505060065492935060009150505b8181101561094457600061090d8483815181106108fb576108fb610fec565b60200260200101516020015188610e04565b90508481121561093b5780945083828151811061092c5761092c610fec565b60200260200101516000015195505b506001016108dc565b506001600160a01b03841615610a52576004546000906109847f000000000000000000000000000000000000000000000000000000000000000084611002565b61098e9190610f6d565b90506000606461099f83600a611002565b6109a99190611019565b905060006109b8600a83611019565b905060006109c6828461103b565b905060006109d4848661103b565b6001600160a01b038a16600090815260086020526040812080549293508392909190610a01908490610f6d565b9091555050600b54600090815260076020526040812080546001600160a01b0319166001600160a01b038c16179055600483905560058054859290610a47908490610f6d565b909155505050505050505b600b5460408051918252602082018790526001600160a01b03861682820152517fbbc057d42226d2747c9c898fa1be04cd1734cacafeaee5f799bd9e741a8eb03a9181900360600190a1610aa860066000610e6b565b600b8054906000610ab88361104e565b9190505550610ac5610e22565b5050505050565b6000805460408051633fabe5a360e21b8152905183926001600160a01b03169163feaf968c9160048083019260a09291908290030181865afa158015610b16573d6000803e3d6000fd5b505050506040513d601f19601f82011682018060405250810190610b3a9190610f9a565b509195945050505050565b6001546001600160a01b03163314610ba95760405162461bcd60e51b815260206004820152602160248201527f4f6e6c79206f776e65722063616e2063616c6c20746869732066756e6374696f6044820152603760f91b6064820152608401610156565b600060055411610bf45760405162461bcd60e51b81526020600482015260166024820152754e6f206465762066656520746f20776974686472617760501b6044820152606401610156565b600580546000918290556001546040519192916001600160a01b039091169083908381818185875af1925050503d8060008114610c4d576040519150601f19603f3d011682016040523d82523d6000602084013e610c52565b606091505b5050905080610c955760405162461bcd60e51b815260206004820152600f60248201526e151c985b9cd9995c8819985a5b1959608a1b6044820152606401610156565b6001546040518381526001600160a01b03909116907f6c86cbe8f71dda79a8558f6b509bf627b232a1577720dd7807b4eefa65bd16a5906020015b60405180910390a25050565b3360009081526008602052604090205480610d395760405162461bcd60e51b815260206004820152601760248201527f4e6f2077696e6e696e677320746f2077697468647261770000000000000000006044820152606401610156565b336000818152600860205260408082208290555190919083908381818185875af1925050503d8060008114610d8a576040519150601f19603f3d011682016040523d82523d6000602084013e610d8f565b606091505b5050905080610dd25760405162461bcd60e51b815260206004820152600f60248201526e151c985b9cd9995c8819985a5b1959608a1b6044820152606401610156565b60405182815233907f24215bbaf0832fa4d6ffef16dee3971d8b714921fef3ad63f793d578983c6dc290602001610cd0565b6000818313610e1557828203610e19565b8183035b90505b92915050565b426002819055600b546040517f278844837bcf8364a705384bf3a2812901f54155bae86dea81dd52aa5b9ec0e392610e61928252602082015260400190565b60405180910390a1565b5080546000825560020290600052602060002090810190610e8c9190610e8f565b50565b5b80821115610eb55780546001600160a01b031916815560006001820155600201610e90565b5090565b600060208284031215610ecb57600080fd5b5035919050565b80356001600160a01b0381168114610ee957600080fd5b919050565b60008060408385031215610f0157600080fd5b82359150610f1160208401610ed2565b90509250929050565b60008060408385031215610f2d57600080fd5b50508035926020909101359150565b600060208284031215610f4e57600080fd5b610e1982610ed2565b634e487b7160e01b600052601160045260246000fd5b80820180821115610e1c57610e1c610f57565b805169ffffffffffffffffffff81168114610ee957600080fd5b600080600080600060a08688031215610fb257600080fd5b610fbb86610f80565b60208701516040880151606089015192975090955093509150610fe060808701610f80565b90509295509295909350565b634e487b7160e01b600052603260045260246000fd5b8082028115828204841417610e1c57610e1c610f57565b60008261103657634e487b7160e01b600052601260045260246000fd5b500490565b81810381811115610e1c57610e1c610f57565b60006001820161106057611060610f57565b506001019056fea264697066735822122084f3ab7557b90e193bd0a9922a3db3a85ce9847b60eea2fe9f60ecfeb21eaaef64736f6c634300081c0033","bytecodeSha1":"d2cb0685e19e80f852c6b93580d6a957eb76511b","compiler":{"evm_version":"istanbul","optimizer":{"enabled":true,"runs":200},"version":"0.8.28+commit.7893614a"},"contractName":"BitcoinUpDown","language":"Solidity","natspec":{"kind":"dev","methods":{},"version":1},"opcodes":"PUSH1 0x80 PUSH1 0x40 MSTORE PUSH1 0x4 CALLDATASIZE LT PUSH2 0x10D JUMPI PUSH1 0x0 CALLDATALOAD PUSH1 0xE0 SHR DUP1 PUSH4 0x8DA5CB5B GT PUSH2 0x95 JUMPI DUP1 PUSH4 0xC5774A3F GT PUSH2 0x64 JUMPI DUP1 PUSH4 0xC5774A3F EQ PUSH2 0x3A3 JUMPI DUP1 PUSH4 0xCB93F7EF EQ PUSH2 0x3B9 JUMPI DUP1 PUSH4 0xCC42E83A EQ PUSH2 0x3CE JUMPI DUP1 PUSH4 0xDD4F8F74 EQ PUSH2 0x3E3 JUMPI DUP1 PUSH4 0xF3F43703 EQ PUSH2 0x3F9 JUMPI PUSH2 0x15F JUMP JUMPDEST DUP1 PUSH4 0x8DA5CB5B EQ PUSH2 0x343 JUMPI DUP1 PUSH4 0x98D5FDCA EQ PUSH2 0x363 JUMPI DUP1 PUSH4 0xB93DAB0B EQ PUSH2 0x378 JUMPI DUP1 PUSH4 0xC232302F EQ PUSH2 0x38D JUMPI PUSH2 0x15F JUMP JUMPDEST DUP1 PUSH4 0x72E9B172 GT PUSH2 0xDC JUMPI DUP1 PUSH4 0x72E9B172 EQ PUSH2 0x26F JUMPI DUP1 PUSH4 0x741BEF1A EQ PUSH2 0x2AA JUMPI DUP1 PUSH4 0x749AA2D9 EQ PUSH2 0x2E2 JUMPI DUP1 PUSH4 0x76A4956C EQ PUSH2 0x2F7 JUMPI DUP1 PUSH4 0x8A19C8BC EQ PUSH2 0x32D JUMPI PUSH2 0x15F JUMP JUMPDEST DUP1 PUSH4 0x133386A4 EQ PUSH2 0x1A7 JUMPI DUP1 PUSH4 0x14CE7590 EQ PUSH2 0x1BC JUMPI DUP1 PUSH4 0x5A0753AC EQ PUSH2 0x20C JUMPI DUP1 PUSH4 0x5F96FE15 EQ PUSH2 0x230 JUMPI PUSH2 0x15F JUMP JUMPDEST CALLDATASIZE PUSH2 0x15F JUMPI PUSH1 0x40 MLOAD PUSH3 0x461BCD PUSH1 0xE5 SHL DUP2 MSTORE PUSH1 0x20 PUSH1 0x4 DUP3 ADD DUP2 SWAP1 MSTORE PUSH1 0x24 DUP3 ADD MSTORE PUSH32 0x44697265637420455448207472616E7366657273206E6F7420616C6C6F776564 PUSH1 0x44 DUP3 ADD MSTORE PUSH1 0x64 ADD JUMPDEST PUSH1 0x40 MLOAD DUP1 SWAP2 SUB SWAP1 REVERT JUMPDEST PUSH1 0x40 MLOAD PUSH3 0x461BCD PUSH1 0xE5 SHL DUP2 MSTORE PUSH1 0x20 PUSH1 0x4 DUP3 ADD DUP2 SWAP1 MSTORE PUSH1 0x24 DUP3 ADD MSTORE PUSH32 0x44697265637420455448207472616E7366657273206E6F7420616C6C6F776564 PUSH1 0x44 DUP3 ADD MSTORE PUSH1 0x64 ADD PUSH2 0x156 JUMP JUMPDEST PUSH2 0x1BA PUSH2 0x1B5 CALLDATASIZE PUSH1 0x4 PUSH2 0xEB9 JUMP JUMPDEST PUSH2 0x426 JUMP JUMPDEST STOP JUMPDEST CALLVALUE DUP1 ISZERO PUSH2 0x1C8 JUMPI PUSH1 0x0 DUP1 REVERT JUMPDEST POP PUSH2 0x1F7 PUSH2 0x1D7 CALLDATASIZE PUSH1 0x4 PUSH2 0xEEE JUMP JUMPDEST PUSH1 0x9 PUSH1 0x20 SWAP1 DUP2 MSTORE PUSH1 0x0 SWAP3 DUP4 MSTORE PUSH1 0x40 DUP1 DUP5 KECCAK256 SWAP1 SWAP2 MSTORE SWAP1 DUP3 MSTORE SWAP1 KECCAK256 SLOAD PUSH1 0xFF AND DUP2 JUMP JUMPDEST PUSH1 0x40 MLOAD SWAP1 ISZERO ISZERO DUP2 MSTORE PUSH1 0x20 ADD JUMPDEST PUSH1 0x40 MLOAD DUP1 SWAP2 SUB SWAP1 RETURN JUMPDEST CALLVALUE DUP1 ISZERO PUSH2 0x218 JUMPI PUSH1 0x0 DUP1 REVERT JUMPDEST POP PUSH2 0x222 PUSH1 0x5 SLOAD DUP2 JUMP JUMPDEST PUSH1 0x40 MLOAD SWAP1 DUP2 MSTORE PUSH1 0x20 ADD PUSH2 0x203 JUMP JUMPDEST CALLVALUE DUP1 ISZERO PUSH2 0x23C JUMPI PUSH1 0x0 DUP1 REVERT JUMPDEST POP PUSH2 0x250 PUSH2 0x24B CALLDATASIZE PUSH1 0x4 PUSH2 0xEB9 JUMP JUMPDEST PUSH2 0x72A JUMP JUMPDEST PUSH1 0x40 DUP1 MLOAD PUSH1 0x1 PUSH1 0x1 PUSH1 0xA0 SHL SUB SWAP1 SWAP4 AND DUP4 MSTORE PUSH1 0x20 DUP4 ADD SWAP2 SWAP1 SWAP2 MSTORE ADD PUSH2 0x203 JUMP JUMPDEST CALLVALUE DUP1 ISZERO PUSH2 0x27B JUMPI PUSH1 0x0 DUP1 REVERT JUMPDEST POP PUSH2 0x1F7 PUSH2 0x28A CALLDATASIZE PUSH1 0x4 PUSH2 0xF1A JUMP JUMPDEST PUSH1 0xA PUSH1 0x20 SWAP1 DUP2 MSTORE PUSH1 0x0 SWAP3 DUP4 MSTORE PUSH1 0x40 DUP1 DUP5 KECCAK256 SWAP1 SWAP2 MSTORE SWAP1 DUP3 MSTORE SWAP1 KECCAK256 SLOAD PUSH1 0xFF AND DUP2 JUMP JUMPDEST CALLVALUE DUP1 ISZERO PUSH2 0x2B6 JUMPI PUSH1 0x0 DUP1 REVERT JUMPDEST POP PUSH1 0x0 SLOAD PUSH2 0x2CA SWAP1 PUSH1 0x1 PUSH1 0x1 PUSH1 0xA0 SHL SUB AND DUP2 JUMP JUMPDEST PUSH1 0x40 MLOAD PUSH1 0x1 PUSH1 0x1 PUSH1 0xA0 SHL SUB SWAP1 SWAP2 AND DUP2 MSTORE PUSH1 0x20 ADD PUSH2 0x203 JUMP JUMPDEST CALLVALUE DUP1 ISZERO PUSH2 0x2EE JUMPI PUSH1 0x0 DUP1 REVERT JUMPDEST POP PUSH2 0x1BA PUSH2 0x762 JUMP JUMPDEST CALLVALUE DUP1 ISZERO PUSH2 0x303 JUMPI PUSH1 0x0 DUP1 REVERT JUMPDEST POP PUSH2 0x2CA PUSH2 0x312 CALLDATASIZE PUSH1 0x4 PUSH2 0xEB9 JUMP JUMPDEST PUSH1 0x7 PUSH1 0x20 MSTORE PUSH1 0x0 SWAP1 DUP2 MSTORE PUSH1 0x40 SWAP1 KECCAK256 SLOAD PUSH1 0x1 PUSH1 0x1 PUSH1 0xA0 SHL SUB AND DUP2 JUMP JUMPDEST CALLVALUE DUP1 ISZERO PUSH2 0x339 JUMPI PUSH1 0x0 DUP1 REVERT JUMPDEST POP PUSH2 0x222 PUSH1 0xB SLOAD DUP2 JUMP JUMPDEST CALLVALUE DUP1 ISZERO PUSH2 0x34F JUMPI PUSH1 0x0 DUP1 REVERT JUMPDEST POP PUSH1 0x1 SLOAD PUSH2 0x2CA SWAP1 PUSH1 0x1 PUSH1 0x1 PUSH1 0xA0 SHL SUB AND DUP2 JUMP JUMPDEST CALLVALUE DUP1 ISZERO PUSH2 0x36F JUMPI PUSH1 0x0 DUP1 REVERT JUMPDEST POP PUSH2 0x222 PUSH2 0xACC JUMP JUMPDEST CALLVALUE DUP1 ISZERO PUSH2 0x384 JUMPI PUSH1 0x0 DUP1 REVERT JUMPDEST POP PUSH1 0x6 SLOAD PUSH2 0x222 JUMP JUMPDEST CALLVALUE DUP1 ISZERO PUSH2 0x399 JUMPI PUSH1 0x0 DUP1 REVERT JUMPDEST POP PUSH2 0x222 PUSH1 0x3 SLOAD DUP2 JUMP JUMPDEST CALLVALUE DUP1 ISZERO PUSH2 0x3AF JUMPI PUSH1 0x0 DUP1 REVERT JUMPDEST POP PUSH2 0x222 PUSH1 0x4 SLOAD DUP2 JUMP JUMPDEST CALLVALUE DUP1 ISZERO PUSH2 0x3C5 JUMPI PUSH1 0x0 DUP1 REVERT JUMPDEST POP PUSH2 0x1BA PUSH2 0xB45 JUMP JUMPDEST CALLVALUE DUP1 ISZERO PUSH2 0x3DA JUMPI PUSH1 0x0 DUP1 REVERT JUMPDEST POP PUSH2 0x1BA PUSH2 0xCDC JUMP JUMPDEST CALLVALUE DUP1 ISZERO PUSH2 0x3EF JUMPI PUSH1 0x0 DUP1 REVERT JUMPDEST POP PUSH2 0x222 PUSH1 0x2 SLOAD DUP2 JUMP JUMPDEST CALLVALUE DUP1 ISZERO PUSH2 0x405 JUMPI PUSH1 0x0 DUP1 REVERT JUMPDEST POP PUSH2 0x222 PUSH2 0x414 CALLDATASIZE PUSH1 0x4 PUSH2 0xF3C JUMP JUMPDEST PUSH1 0x8 PUSH1 0x20 MSTORE PUSH1 0x0 SWAP1 DUP2 MSTORE PUSH1 0x40 SWAP1 KECCAK256 SLOAD DUP2 JUMP JUMPDEST PUSH32 0x0 PUSH1 0x2 SLOAD PUSH2 0x454 SWAP2 SWAP1 PUSH2 0xF6D JUMP JUMPDEST TIMESTAMP GT ISZERO PUSH2 0x49C JUMPI PUSH1 0x40 MLOAD PUSH3 0x461BCD PUSH1 0xE5 SHL DUP2 MSTORE PUSH1 0x20 PUSH1 0x4 DUP3 ADD MSTORE PUSH1 0x16 PUSH1 0x24 DUP3 ADD MSTORE PUSH22 0x2132BA3A34B733903832B934B7B21034B99037BB32B9 PUSH1 0x51 SHL PUSH1 0x44 DUP3 ADD MSTORE PUSH1 0x64 ADD PUSH2 0x156 JUMP JUMPDEST PUSH32 0x0 CALLVALUE EQ PUSH2 0x517 JUMPI PUSH1 0x40 MLOAD PUSH3 0x461BCD PUSH1 0xE5 SHL DUP2 MSTORE PUSH1 0x20 PUSH1 0x4 DUP3 ADD MSTORE PUSH1 0x23 PUSH1 0x24 DUP3 ADD MSTORE PUSH32 0x42657420616D6F756E74206D7573742062652065786163746C7920302E303120 PUSH1 0x44 DUP3 ADD MSTORE PUSH3 0x8AA89 PUSH1 0xEB SHL PUSH1 0x64 DUP3 ADD MSTORE PUSH1 0x84 ADD PUSH2 0x156 JUMP JUMPDEST PUSH1 0xB SLOAD PUSH1 0x0 SWAP1 DUP2 MSTORE PUSH1 0x9 PUSH1 0x20 SWAP1 DUP2 MSTORE PUSH1 0x40 DUP1 DUP4 KECCAK256 CALLER DUP5 MSTORE SWAP1 SWAP2 MSTORE SWAP1 KECCAK256 SLOAD PUSH1 0xFF AND ISZERO PUSH2 0x59F JUMPI PUSH1 0x40 MLOAD PUSH3 0x461BCD PUSH1 0xE5 SHL DUP2 MSTORE PUSH1 0x20 PUSH1 0x4 DUP3 ADD MSTORE PUSH1 0x32 PUSH1 0x24 DUP3 ADD MSTORE PUSH32 0x596F75206861766520616C726561647920706C61636564206120707265646963 PUSH1 0x44 DUP3 ADD MSTORE PUSH18 0x1D1A5BDB881A5B881D1A1A5CC81C9BDD5B99 PUSH1 0x72 SHL PUSH1 0x64 DUP3 ADD MSTORE PUSH1 0x84 ADD PUSH2 0x156 JUMP JUMPDEST PUSH1 0xB SLOAD PUSH1 0x0 SWAP1 DUP2 MSTORE PUSH1 0xA PUSH1 0x20 SWAP1 DUP2 MSTORE PUSH1 0x40 DUP1 DUP4 KECCAK256 DUP5 DUP5 MSTORE SWAP1 SWAP2 MSTORE SWAP1 KECCAK256 SLOAD PUSH1 0xFF AND ISZERO PUSH2 0x617 JUMPI PUSH1 0x40 MLOAD PUSH3 0x461BCD PUSH1 0xE5 SHL DUP2 MSTORE PUSH1 0x20 PUSH1 0x4 DUP3 ADD MSTORE PUSH1 0x22 PUSH1 0x24 DUP3 ADD MSTORE PUSH32 0x546869732070726963652068617320616C7265616479206265656E2062657420 PUSH1 0x44 DUP3 ADD MSTORE PUSH2 0x37B7 PUSH1 0xF1 SHL PUSH1 0x64 DUP3 ADD MSTORE PUSH1 0x84 ADD PUSH2 0x156 JUMP JUMPDEST PUSH1 0x40 DUP1 MLOAD DUP1 DUP3 ADD DUP3 MSTORE CALLER DUP1 DUP3 MSTORE PUSH1 0x20 DUP1 DUP4 ADD DUP6 DUP2 MSTORE PUSH1 0x6 DUP1 SLOAD PUSH1 0x1 DUP1 DUP3 ADD DUP4 SSTORE PUSH1 0x0 SWAP3 DUP4 MSTORE SWAP6 MLOAD PUSH32 0xF652222313E28459528D920B65115C16C04F3EFC82AAEDC97BE59F3F377C0D3F PUSH1 0x2 SWAP1 SWAP3 MUL SWAP2 DUP3 ADD DUP1 SLOAD PUSH1 0x1 PUSH1 0x1 PUSH1 0xA0 SHL SUB NOT AND PUSH1 0x1 PUSH1 0x1 PUSH1 0xA0 SHL SUB SWAP1 SWAP3 AND SWAP2 SWAP1 SWAP2 OR SWAP1 SSTORE SWAP2 MLOAD PUSH32 0xF652222313E28459528D920B65115C16C04F3EFC82AAEDC97BE59F3F377C0D40 SWAP1 SWAP3 ADD SWAP2 SWAP1 SWAP2 SSTORE PUSH1 0xB DUP1 SLOAD DUP3 MSTORE PUSH1 0x9 DUP4 MSTORE DUP6 DUP3 KECCAK256 DUP5 DUP4 MSTORE DUP4 MSTORE DUP6 DUP3 KECCAK256 DUP1 SLOAD PUSH1 0xFF NOT SWAP1 DUP2 AND DUP8 OR SWAP1 SWAP2 SSTORE DUP2 SLOAD DUP4 MSTORE PUSH1 0xA DUP5 MSTORE DUP7 DUP4 KECCAK256 DUP9 DUP5 MSTORE DUP5 MSTORE SWAP2 DUP7 SWAP1 KECCAK256 DUP1 SLOAD SWAP1 SWAP3 AND SWAP1 SWAP5 OR SWAP1 SSTORE SWAP2 SLOAD DUP4 MLOAD SWAP1 DUP2 MSTORE SWAP2 DUP3 ADD DUP5 SWAP1 MSTORE SWAP2 PUSH32 0xFE8A4F5C8AA725DEFF1274DCD26CC3D24F93440A9B35EA011509B962F518B11 SWAP2 ADD PUSH1 0x40 MLOAD DUP1 SWAP2 SUB SWAP1 LOG2 POP JUMP JUMPDEST PUSH1 0x6 DUP2 DUP2 SLOAD DUP2 LT PUSH2 0x73A JUMPI PUSH1 0x0 DUP1 REVERT JUMPDEST PUSH1 0x0 SWAP2 DUP3 MSTORE PUSH1 0x20 SWAP1 SWAP2 KECCAK256 PUSH1 0x2 SWAP1 SWAP2 MUL ADD DUP1 SLOAD PUSH1 0x1 SWAP1 SWAP2 ADD SLOAD PUSH1 0x1 PUSH1 0x1 PUSH1 0xA0 SHL SUB SWAP1 SWAP2 AND SWAP2 POP DUP3 JUMP JUMPDEST PUSH32 0x0 PUSH1 0x2 SLOAD PUSH2 0x790 SWAP2 SWAP1 PUSH2 0xF6D JUMP JUMPDEST TIMESTAMP LT ISZERO PUSH2 0x7D7 JUMPI PUSH1 0x40 MLOAD PUSH3 0x461BCD PUSH1 0xE5 SHL DUP2 MSTORE PUSH1 0x20 PUSH1 0x4 DUP3 ADD MSTORE PUSH1 0x15 PUSH1 0x24 DUP3 ADD MSTORE PUSH21 0x2937BAB7321034B9903737BA103CB2BA1037BB32B9 PUSH1 0x59 SHL PUSH1 0x44 DUP3 ADD MSTORE PUSH1 0x64 ADD PUSH2 0x156 JUMP JUMPDEST PUSH1 0x0 DUP1 PUSH1 0x0 SWAP1 SLOAD SWAP1 PUSH2 0x100 EXP SWAP1 DIV PUSH1 0x1 PUSH1 0x1 PUSH1 0xA0 SHL SUB AND PUSH1 0x1 PUSH1 0x1 PUSH1 0xA0 SHL SUB AND PUSH4 0xFEAF968C PUSH1 0x40 MLOAD DUP2 PUSH4 0xFFFFFFFF AND PUSH1 0xE0 SHL DUP2 MSTORE PUSH1 0x4 ADD PUSH1 0xA0 PUSH1 0x40 MLOAD DUP1 DUP4 SUB DUP2 DUP7 GAS STATICCALL ISZERO DUP1 ISZERO PUSH2 0x82B JUMPI RETURNDATASIZE PUSH1 0x0 DUP1 RETURNDATACOPY RETURNDATASIZE PUSH1 0x0 REVERT JUMPDEST POP POP POP POP PUSH1 0x40 MLOAD RETURNDATASIZE PUSH1 0x1F NOT PUSH1 0x1F DUP3 ADD AND DUP3 ADD DUP1 PUSH1 0x40 MSTORE POP DUP2 ADD SWAP1 PUSH2 0x84F SWAP2 SWAP1 PUSH2 0xF9A JUMP JUMPDEST POP POP POP SWAP2 POP POP PUSH1 0x0 DUP1 PUSH1 0x1 PUSH1 0x1 PUSH1 0xFF SHL SUB SWAP1 POP PUSH1 0x0 PUSH1 0x6 DUP1 SLOAD DUP1 PUSH1 0x20 MUL PUSH1 0x20 ADD PUSH1 0x40 MLOAD SWAP1 DUP2 ADD PUSH1 0x40 MSTORE DUP1 SWAP3 SWAP2 SWAP1 DUP2 DUP2 MSTORE PUSH1 0x20 ADD PUSH1 0x0 SWAP1 JUMPDEST DUP3 DUP3 LT ISZERO PUSH2 0x8CE JUMPI PUSH1 0x0 DUP5 DUP2 MSTORE PUSH1 0x20 SWAP1 DUP2 SWAP1 KECCAK256 PUSH1 0x40 DUP1 MLOAD DUP1 DUP3 ADD SWAP1 SWAP2 MSTORE PUSH1 0x2 DUP6 MUL SWAP1 SWAP2 ADD DUP1 SLOAD PUSH1 0x1 PUSH1 0x1 PUSH1 0xA0 SHL SUB AND DUP3 MSTORE PUSH1 0x1 SWAP1 DUP2 ADD SLOAD DUP3 DUP5 ADD MSTORE SWAP1 DUP4 MSTORE SWAP1 SWAP3 ADD SWAP2 ADD PUSH2 0x886 JUMP JUMPDEST POP POP PUSH1 0x6 SLOAD SWAP3 SWAP4 POP PUSH1 0x0 SWAP2 POP POP JUMPDEST DUP2 DUP2 LT ISZERO PUSH2 0x944 JUMPI PUSH1 0x0 PUSH2 0x90D DUP5 DUP4 DUP2 MLOAD DUP2 LT PUSH2 0x8FB JUMPI PUSH2 0x8FB PUSH2 0xFEC JUMP JUMPDEST PUSH1 0x20 MUL PUSH1 0x20 ADD ADD MLOAD PUSH1 0x20 ADD MLOAD DUP9 PUSH2 0xE04 JUMP JUMPDEST SWAP1 POP DUP5 DUP2 SLT ISZERO PUSH2 0x93B JUMPI DUP1 SWAP5 POP DUP4 DUP3 DUP2 MLOAD DUP2 LT PUSH2 0x92C JUMPI PUSH2 0x92C PUSH2 0xFEC JUMP JUMPDEST PUSH1 0x20 MUL PUSH1 0x20 ADD ADD MLOAD PUSH1 0x0 ADD MLOAD SWAP6 POP JUMPDEST POP PUSH1 0x1 ADD PUSH2 0x8DC JUMP JUMPDEST POP PUSH1 0x1 PUSH1 0x1 PUSH1 0xA0 SHL SUB DUP5 AND ISZERO PUSH2 0xA52 JUMPI PUSH1 0x4 SLOAD PUSH1 0x0 SWAP1 PUSH2 0x984 PUSH32 0x0 DUP5 PUSH2 0x1002 JUMP JUMPDEST PUSH2 0x98E SWAP2 SWAP1 PUSH2 0xF6D JUMP JUMPDEST SWAP1 POP PUSH1 0x0 PUSH1 0x64 PUSH2 0x99F DUP4 PUSH1 0xA PUSH2 0x1002 JUMP JUMPDEST PUSH2 0x9A9 SWAP2 SWAP1 PUSH2 0x1019 JUMP JUMPDEST SWAP1 POP PUSH1 0x0 PUSH2 0x9B8 PUSH1 0xA DUP4 PUSH2 0x1019 JUMP JUMPDEST SWAP1 POP PUSH1 0x0 PUSH2 0x9C6 DUP3 DUP5 PUSH2 0x103B JUMP JUMPDEST SWAP1 POP PUSH1 0x0 PUSH2 0x9D4 DUP5 DUP7 PUSH2 0x103B JUMP JUMPDEST PUSH1 0x1 PUSH1 0x1 PUSH1 0xA0 SHL SUB DUP11 AND PUSH1 0x0 SWAP1 DUP2 MSTORE PUSH1 0x8 PUSH1 0x20 MSTORE PUSH1 0x40 DUP2 KECCAK256 DUP1 SLOAD SWAP3 SWAP4 POP DUP4 SWAP3 SWAP1 SWAP2 SWAP1 PUSH2 0xA01 SWAP1 DUP5 SWAP1 PUSH2 0xF6D JUMP JUMPDEST SWAP1 SWAP2 SSTORE POP POP PUSH1 0xB SLOAD PUSH1 0x0 SWAP1 DUP2 MSTORE PUSH1 0x7 PUSH1 0x20 MSTORE PUSH1 0x40 DUP2 KECCAK256 DUP1 SLOAD PUSH1 0x1 PUSH1 0x1 PUSH1 0xA0 SHL SUB NOT AND PUSH1 0x1 PUSH1 0x1 PUSH1 0xA0 SHL SUB DUP13 AND OR SWAP1 SSTORE PUSH1 0x4 DUP4 SWAP1 SSTORE PUSH1 0x5 DUP1 SLOAD DUP6 SWAP3 SWAP1 PUSH2 0xA47 SWAP1 DUP5 SWAP1 PUSH2 0xF6D JUMP JUMPDEST SWAP1 SWAP2 SSTORE POP POP POP POP POP POP POP JUMPDEST PUSH1 0xB SLOAD PUSH1 0x40 DUP1 MLOAD SWAP2 DUP3 MSTORE PUSH1 0x20 DUP3 ADD DUP8 SWAP1 MSTORE PUSH1 0x1 PUSH1 0x1 PUSH1 0xA0 SHL SUB DUP7 AND DUP3 DUP3 ADD MSTORE MLOAD PUSH32 0xBBC057D42226D2747C9C898FA1BE04CD1734CACAFEAEE5F799BD9E741A8EB03A SWAP2 DUP2 SWAP1 SUB PUSH1 0x60 ADD SWAP1 LOG1 PUSH2 0xAA8 PUSH1 0x6 PUSH1 0x0 PUSH2 0xE6B JUMP JUMPDEST PUSH1 0xB DUP1 SLOAD SWAP1 PUSH1 0x0 PUSH2 0xAB8 DUP4 PUSH2 0x104E JUMP JUMPDEST SWAP2 SWAP1 POP SSTORE POP PUSH2 0xAC5 PUSH2 0xE22 JUMP JUMPDEST POP POP POP POP POP JUMP JUMPDEST PUSH1 0x0 DUP1 SLOAD PUSH1 0x40 DUP1 MLOAD PUSH4 0x3FABE5A3 PUSH1 0xE2 SHL DUP2 MSTORE SWAP1 MLOAD DUP4 SWAP3 PUSH1 0x1 PUSH1 0x1 PUSH1 0xA0 SHL SUB AND SWAP2 PUSH4 0xFEAF968C SWAP2 PUSH1 0x4 DUP1 DUP4 ADD SWAP3 PUSH1 0xA0 SWAP3 SWAP2 SWAP1 DUP3 SWAP1 SUB ADD DUP2 DUP7 GAS STATICCALL ISZERO DUP1 ISZERO PUSH2 0xB16 JUMPI RETURNDATASIZE PUSH1 0x0 DUP1 RETURNDATACOPY RETURNDATASIZE PUSH1 0x0 REVERT JUMPDEST POP POP POP POP PUSH1 0x40 MLOAD RETURNDATASIZE PUSH1 0x1F NOT PUSH1 0x1F DUP3 ADD AND DUP3 ADD DUP1 PUSH1 0x40 MSTORE POP DUP2 ADD SWAP1 PUSH2 0xB3A SWAP2 SWAP1 PUSH2 0xF9A JUMP JUMPDEST POP SWAP2 SWAP6 SWAP5 POP POP POP POP POP JUMP JUMPDEST PUSH1 0x1 SLOAD PUSH1 0x1 PUSH1 0x1 PUSH1 0xA0 SHL SUB AND CALLER EQ PUSH2 0xBA9 JUMPI PUSH1 0x40 MLOAD PUSH3 0x461BCD PUSH1 0xE5 SHL DUP2 MSTORE PUSH1 0x20 PUSH1 0x4 DUP3 ADD MSTORE PUSH1 0x21 PUSH1 0x24 DUP3 ADD MSTORE PUSH32 0x4F6E6C79206F776E65722063616E2063616C6C20746869732066756E6374696F PUSH1 0x44 DUP3 ADD MSTORE PUSH1 0x37 PUSH1 0xF9 SHL PUSH1 0x64 DUP3 ADD MSTORE PUSH1 0x84 ADD PUSH2 0x156 JUMP JUMPDEST PUSH1 0x0 PUSH1 0x5 SLOAD GT PUSH2 0xBF4 JUMPI PUSH1 0x40 MLOAD PUSH3 0x461BCD PUSH1 0xE5 SHL DUP2 MSTORE PUSH1 0x20 PUSH1 0x4 DUP3 ADD MSTORE PUSH1 0x16 PUSH1 0x24 DUP3 ADD MSTORE PUSH22 0x4E6F206465762066656520746F207769746864726177 PUSH1 0x50 SHL PUSH1 0x44 DUP3 ADD MSTORE PUSH1 0x64 ADD PUSH2 0x156 JUMP JUMPDEST PUSH1 0x5 DUP1 SLOAD PUSH1 0x0 SWAP2 DUP3 SWAP1 SSTORE PUSH1 0x1 SLOAD PUSH1 0x40 MLOAD SWAP2 SWAP3 SWAP2 PUSH1 0x1 PUSH1 0x1 PUSH1 0xA0 SHL SUB SWAP1 SWAP2 AND SWAP1 DUP4 SWAP1 DUP4 DUP2 DUP2 DUP2 DUP6 DUP8 GAS CALL SWAP3 POP POP POP RETURNDATASIZE DUP1 PUSH1 0x0 DUP2 EQ PUSH2 0xC4D JUMPI PUSH1 0x40 MLOAD SWAP2 POP PUSH1 0x1F NOT PUSH1 0x3F RETURNDATASIZE ADD AND DUP3 ADD PUSH1 0x40 MSTORE RETURNDATASIZE DUP3 MSTORE RETURNDATASIZE PUSH1 0x0 PUSH1 0x20 DUP5 ADD RETURNDATACOPY PUSH2 0xC52 JUMP JUMPDEST PUSH1 0x60 SWAP2 POP JUMPDEST POP POP SWAP1 POP DUP1 PUSH2 0xC95 JUMPI PUSH1 0x40 MLOAD PUSH3 0x461BCD PUSH1 0xE5 SHL DUP2 MSTORE PUSH1 0x20 PUSH1 0x4 DUP3 ADD MSTORE PUSH1 0xF PUSH1 0x24 DUP3 ADD MSTORE PUSH15 0x151C985B9CD9995C8819985A5B1959 PUSH1 0x8A SHL PUSH1 0x44 DUP3 ADD MSTORE PUSH1 0x64 ADD PUSH2 0x156 JUMP JUMPDEST PUSH1 0x1 SLOAD PUSH1 0x40 MLOAD DUP4 DUP2 MSTORE PUSH1 0x1 PUSH1 0x1 PUSH1 0xA0 SHL SUB SWAP1 SWAP2 AND SWAP1 PUSH32 0x6C86CBE8F71DDA79A8558F6B509BF627B232A1577720DD7807B4EEFA65BD16A5 SWAP1 PUSH1 0x20 ADD JUMPDEST PUSH1 0x40 MLOAD DUP1 SWAP2 SUB SWAP1 LOG2 POP POP JUMP JUMPDEST CALLER PUSH1 0x0 SWAP1 DUP2 MSTORE PUSH1 0x8 PUSH1 0x20 MSTORE PUSH1 0x40 SWAP1 KECCAK256 SLOAD DUP1 PUSH2 0xD39 JUMPI PUSH1 0x40 MLOAD PUSH3 0x461BCD PUSH1 0xE5 SHL DUP2 MSTORE PUSH1 0x20 PUSH1 0x4 DUP3 ADD MSTORE PUSH1 0x17 PUSH1 0x24 DUP3 ADD MSTORE PUSH32 0x4E6F2077696E6E696E677320746F207769746864726177000000000000000000 PUSH1 0x44 DUP3 ADD MSTORE PUSH1 0x64 ADD PUSH2 0x156 JUMP JUMPDEST CALLER PUSH1 0x0 DUP2 DUP2 MSTORE PUSH1 0x8 PUSH1 0x20 MSTORE PUSH1 0x40 DUP1 DUP3 KECCAK256 DUP3 SWAP1 SSTORE MLOAD SWAP1 SWAP2 SWAP1 DUP4 SWAP1 DUP4 DUP2 DUP2 DUP2 DUP6 DUP8 GAS CALL SWAP3 POP POP POP RETURNDATASIZE DUP1 PUSH1 0x0 DUP2 EQ PUSH2 0xD8A JUMPI PUSH1 0x40 MLOAD SWAP2 POP PUSH1 0x1F NOT PUSH1 0x3F RETURNDATASIZE ADD AND DUP3 ADD PUSH1 0x40 MSTORE RETURNDATASIZE DUP3 MSTORE RETURNDATASIZE PUSH1 0x0 PUSH1 0x20 DUP5 ADD RETURNDATACOPY PUSH2 0xD8F JUMP JUMPDEST PUSH1 0x60 SWAP2 POP JUMPDEST POP POP SWAP1 POP DUP1 PUSH2 0xDD2 JUMPI PUSH1 0x40 MLOAD PUSH3 0x461BCD PUSH1 0xE5 SHL DUP2 MSTORE PUSH1 0x20 PUSH1 0x4 DUP3 ADD MSTORE PUSH1 0xF PUSH1 0x24 DUP3 ADD MSTORE PUSH15 0x151C985B9CD9995C8819985A5B1959 PUSH1 0x8A SHL PUSH1 0x44 DUP3 ADD MSTORE PUSH1 0x64 ADD PUSH2 0x156 JUMP JUMPDEST PUSH1 0x40 MLOAD DUP3 DUP2 MSTORE CALLER SWAP1 PUSH32 0x24215BBAF0832FA4D6FFEF16DEE3971D8B714921FEF3AD63F793D578983C6DC2 SWAP1 PUSH1 0x20 ADD PUSH2 0xCD0 JUMP JUMPDEST PUSH1 0x0 DUP2 DUP4 SGT PUSH2 0xE15 JUMPI DUP3 DUP3 SUB PUSH2 0xE19 JUMP JUMPDEST DUP2 DUP4 SUB JUMPDEST SWAP1 POP JUMPDEST SWAP3 SWAP2 POP POP JUMP JUMPDEST TIMESTAMP PUSH1 0x2 DUP2 SWAP1 SSTORE PUSH1 0xB SLOAD PUSH1 0x40 MLOAD PUSH32 0x278844837BCF8364A705384BF3A2812901F54155BAE86DEA81DD52AA5B9EC0E3 SWAP3 PUSH2 0xE61 SWAP3 DUP3 MSTORE PUSH1 0x20 DUP3 ADD MSTORE PUSH1 0x40 ADD SWAP1 JUMP JUMPDEST PUSH1 0x40 MLOAD DUP1 SWAP2 SUB SWAP1 LOG1 JUMP JUMPDEST POP DUP1 SLOAD PUSH1 0x0 DUP3 SSTORE PUSH1 0x2 MUL SWAP1 PUSH1 0x0 MSTORE PUSH1 0x20 PUSH1 0x0 KECCAK256 SWAP1 DUP2 ADD SWAP1 PUSH2 0xE8C SWAP2 SWAP1 PUSH2 0xE8F JUMP JUMPDEST POP JUMP JUMPDEST JUMPDEST DUP1 DUP3 GT ISZERO PUSH2 0xEB5 JUMPI DUP1 SLOAD PUSH1 0x1 PUSH1 0x1 PUSH1 0xA0 SHL SUB NOT AND DUP2 SSTORE PUSH1 0x0 PUSH1 0x1 DUP3 ADD SSTORE PUSH1 0x2 ADD PUSH2 0xE90 JUMP JUMPDEST POP SWAP1 JUMP JUMPDEST PUSH1 0x0 PUSH1 0x20 DUP3 DUP5 SUB SLT ISZERO PUSH2 0xECB JUMPI PUSH1 0x0 DUP1 REVERT JUMPDEST POP CALLDATALOAD SWAP2 SWAP1 POP JUMP JUMPDEST DUP1 CALLDATALOAD PUSH1 0x1 PUSH1 0x1 PUSH1 0xA0 SHL SUB DUP2 AND DUP2 EQ PUSH2 0xEE9 JUMPI PUSH1 0x0 DUP1 REVERT JUMPDEST SWAP2 SWAP1 POP JUMP JUMPDEST PUSH1 0x0 DUP1 PUSH1 0x40 DUP4 DUP6 SUB SLT ISZERO PUSH2 0xF01 JUMPI PUSH1 0x0 DUP1 REVERT JUMPDEST DUP3 CALLDATALOAD SWAP2 POP PUSH2 0xF11 PUSH1 0x20 DUP5 ADD PUSH2 0xED2 JUMP JUMPDEST SWAP1 POP SWAP3 POP SWAP3 SWAP1 POP JUMP JUMPDEST PUSH1 0x0 DUP1 PUSH1 0x40 DUP4 DUP6 SUB SLT ISZERO PUSH2 0xF2D JUMPI PUSH1 0x0 DUP1 REVERT JUMPDEST POP POP DUP1 CALLDATALOAD SWAP3 PUSH1 0x20 SWAP1 SWAP2 ADD CALLDATALOAD SWAP2 POP JUMP JUMPDEST PUSH1 0x0 PUSH1 0x20 DUP3 DUP5 SUB SLT ISZERO PUSH2 0xF4E JUMPI PUSH1 0x0 DUP1 REVERT JUMPDEST PUSH2 0xE19 DUP3 PUSH2 0xED2 JUMP JUMPDEST PUSH4 0x4E487B71 PUSH1 0xE0 SHL PUSH1 0x0 MSTORE PUSH1 0x11 PUSH1 0x4 MSTORE PUSH1 0x24 PUSH1 0x0 REVERT JUMPDEST DUP1 DUP3 ADD DUP1 DUP3 GT ISZERO PUSH2 0xE1C JUMPI PUSH2 0xE1C PUSH2 0xF57 JUMP JUMPDEST DUP1 MLOAD PUSH10 0xFFFFFFFFFFFFFFFFFFFF DUP2 AND DUP2 EQ PUSH2 0xEE9 JUMPI PUSH1 0x0 DUP1 REVERT JUMPDEST PUSH1 0x0 DUP1 PUSH1 0x0 DUP1 PUSH1 0x0 PUSH1 0xA0 DUP7 DUP9 SUB SLT ISZERO PUSH2 0xFB2 JUMPI PUSH1 0x0 DUP1 REVERT JUMPDEST PUSH2 0xFBB DUP7 PUSH2 0xF80 JUMP JUMPDEST PUSH1 0x20 DUP8 ADD MLOAD PUSH1 0x40 DUP9 ADD MLOAD PUSH1 0x60 DUP10 ADD MLOAD SWAP3 SWAP8 POP SWAP1 SWAP6 POP SWAP4 POP SWAP2 POP PUSH2 0xFE0 PUSH1 0x80 DUP8 ADD PUSH2 0xF80 JUMP JUMPDEST SWAP1 POP SWAP3 SWAP6 POP SWAP3 SWAP6 SWAP1 SWAP4 POP JUMP JUMPDEST PUSH4 0x4E487B71 PUSH1 0xE0 SHL PUSH1 0x0 MSTORE PUSH1 0x32 PUSH1 0x4 MSTORE PUSH1 0x24 PUSH1 0x0 REVERT JUMPDEST DUP1 DUP3 MUL DUP2 ISZERO DUP3 DUP3 DIV DUP5 EQ OR PUSH2 0xE1C JUMPI PUSH2 0xE1C PUSH2 0xF57 JUMP JUMPDEST PUSH1 0x0 DUP3 PUSH2 0x1036 JUMPI PUSH4 0x4E487B71 PUSH1 0xE0 SHL PUSH1 0x0 MSTORE PUSH1 0x12 PUSH1 0x4 MSTORE PUSH1 0x24 PUSH1 0x0 REVERT JUMPDEST POP DIV SWAP1 JUMP JUMPDEST DUP2 DUP2 SUB DUP2 DUP2 GT ISZERO PUSH2 0xE1C JUMPI PUSH2 0xE1C PUSH2 0xF57 JUMP JUMPDEST PUSH1 0x0 PUSH1 0x1 DUP3 ADD PUSH2 0x1060 JUMPI PUSH2 0x1060 PUSH2 0xF57 JUMP JUMPDEST POP PUSH1 0x1 ADD SWAP1 JUMP INVALID LOG2 PUSH5 0x6970667358 0x22 SLT KECCAK256 DUP5 RETURN 0xAB PUSH22 0x57B90E193BD0A9922A3DB3A85CE9847B60EEA2FE9F60 0xEC INVALID 0xB2 0x1E 0xAA 0xEF PUSH5 0x736F6C6343 STOP ADDMOD SHR STOP CALLER ","sha1":"2795a1b2cc2f3d199170255922293be9ce03ac6c","source":"// SPDX-License-Identifier: MIT\npragma solidity ^0.8.7;\n\nimport \"@chainlink/contracts/src/v0.8/interfaces/AggregatorV3Interface.sol\";\n\ncontract BitcoinUpDown {\n    struct Bet {\n        address bettor;\n        int256 predictedPrice; // User's predicted price\n    }\n\n    AggregatorV3Interface public priceFeed;\n    address public owner;\n    uint256 public roundStartTime;\n    uint256 public n_bets;\n    uint256 immutable betAmount = 0.01 ether; // Fixed bet amount\n    uint256 immutable roundDuration = 20 minutes;\n    uint256 immutable betting_duration = 10 minutes;\n    uint256 public seedAmount; // Current seed for the next round\n    uint256 public devFeeBalance; // Accumulated developer fee\n\n    //mapping(uint256 => Bet[]) public roundBets; // Store bets for each round\n    Bet[] public currentRoundBets; // Bets for the current round only\n    mapping(uint256 => address) public roundWinners; // Store the winner of each round\n    mapping(address => uint256) public pendingWithdrawals; // Winnings available for withdrawal\n    // Track if a user has already placed a bet in the current round\n    mapping(uint256 => mapping(address => bool)) public hasPlacedBet;\n    // Tracks whether a specific price has been bet on in a particular round\n    mapping(uint256 => mapping(int256 => bool)) public hasBetOnPrice;\n\n    uint256 public currentRound; // Current round ID\n\n    event RoundStarted(uint256 roundId, uint256 startTime);\n    event BetPlaced(\n        uint256 roundId,\n        address indexed bettor,\n        int256 predictedPrice\n    );\n    event RoundEnded(uint256 roundId, int256 actualPrice, address winner);\n    event WinningsWithdrawn(address indexed winner, uint256 amount);\n    event DevFeeWithdrawn(address indexed owner, uint256 amount);\n\n    modifier onlyOwner() {\n        require(msg.sender == owner, \"Only owner can call this function\");\n        _;\n    }\n\n    constructor(address _priceFeed, uint256 _initialSeed) payable {\n        require(msg.value >= _initialSeed, \"Insufficient initial seed\");\n        owner = msg.sender;\n        priceFeed = AggregatorV3Interface(_priceFeed);\n        seedAmount = _initialSeed;\n        currentRound = 1;\n        _startNewRound();\n    }\n\n    function getPrice() public view returns (int256) {\n        (, int256 price, , , ) = priceFeed.latestRoundData();\n        return price;\n    }\n\n    function getBetCount() public view returns (uint256) {\n        return currentRoundBets.length;\n    }\n\n    function placeBet(int256 _predictedPrice) external payable {\n        require(\n            block.timestamp <= roundStartTime + betting_duration,\n            \"Betting period is over\"\n        );\n        require(msg.value == betAmount, \"Bet amount must be exactly 0.01 ETH\");\n        require(\n            !hasPlacedBet[currentRound][msg.sender],\n            \"You have already placed a prediction in this round\"\n        );\n        require(\n            !hasBetOnPrice[currentRound][_predictedPrice],\n            \"This price has already been bet on\"\n        );\n        currentRoundBets.push(Bet(msg.sender, _predictedPrice));\n        hasPlacedBet[currentRound][msg.sender] = true;\n        hasBetOnPrice[currentRound][_predictedPrice] = true;\n        emit BetPlaced(currentRound, msg.sender, _predictedPrice);\n    }\n\n    function endRound() external {\n        require(\n            block.timestamp >= roundStartTime + roundDuration,\n            \"Round is not yet over\"\n        );\n\n        (, int256 _actualPrice, , , ) = priceFeed.latestRoundData();\n\n        // Determine the closest prediction\n        address winner;\n        int256 closestDifference = type(int256).max;\n        Bet[] memory bets = currentRoundBets; // Load into memory\n        uint256 length = currentRoundBets.length;\n        for (uint256 i = 0; i < length; i++) {\n            int256 difference = absoluteDifference(\n                bets[i].predictedPrice,\n                _actualPrice\n            );\n            if (difference < closestDifference) {\n                closestDifference = difference;\n                winner = bets[i].bettor;\n            }\n        }\n\n        // Distribute prize pool\n        if (winner != address(0)) {\n            uint256 totalPool = length * betAmount + seedAmount;\n            // Calculate fees\n            uint256 fee = (totalPool * 10) / 100; // 10% fee\n            uint256 devFee = fee / 10; // 1% for dev\n            uint256 nextSeed = fee - devFee; // 9% for next round seed\n            uint256 prize = totalPool - fee;\n            pendingWithdrawals[winner] += prize;\n            roundWinners[currentRound] = winner;\n            // Update seed and dev fee\n            seedAmount = nextSeed;\n            devFeeBalance += devFee;\n        }\n\n        emit RoundEnded(currentRound, _actualPrice, winner);\n\n        // Automatically start the next round\n        delete currentRoundBets; // Clear current round's bets\n        currentRound++;\n        _startNewRound();\n    }\n\n    function withdrawWinnings() external {\n        uint256 amount = pendingWithdrawals[msg.sender];\n        require(amount > 0, \"No winnings to withdraw\");\n\n        pendingWithdrawals[msg.sender] = 0;\n        (bool success, ) = payable(msg.sender).call{value: amount}(\"\");\n        require(success, \"Transfer failed\");\n\n        emit WinningsWithdrawn(msg.sender, amount);\n    }\n\n    function withdrawDevFee() external onlyOwner {\n        require(devFeeBalance > 0, \"No dev fee to withdraw\");\n\n        uint256 amount = devFeeBalance;\n        devFeeBalance = 0;\n        (bool success, ) = payable(owner).call{value: amount}(\"\");\n        require(success, \"Transfer failed\");\n        emit DevFeeWithdrawn(owner, amount);\n    }\n\n    function absoluteDifference(\n        int256 a,\n        int256 b\n    ) internal pure returns (int256) {\n        unchecked {\n            return a > b ? a - b : b - a;\n        }\n    }\n\n    function _startNewRound() internal {\n        roundStartTime = block.timestamp;\n        emit RoundStarted(currentRound, roundStartTime);\n    }\n\n    receive() external payable {\n        revert(\"Direct ETH transfers not allowed\");\n    }\n\n    fallback() external payable {\n        revert(\"Direct ETH transfers not allowed\");\n    }\n}\n","sourcePath":"contracts/BitcoinUpDown.sol","type":"contract","deployment":{"address":"0x65a5c4229f3Ea4eC0DBA025386cE9c38264d1ae4","chainid":"97","blockHeight":46516479}}