{"abi":[{"inputs":[{"internalType":"address","name":"_priceFeedAddress","type":"address"}],"stateMutability":"nonpayable","type":"constructor","name":"constructor"},{"anonymous":false,"inputs":[{"indexed":true,"internalType":"address","name":"previousOwner","type":"address"},{"indexed":true,"internalType":"address","name":"newOwner","type":"address"}],"name":"OwnershipTransferred","type":"event"},{"anonymous":false,"inputs":[{"indexed":true,"internalType":"uint256","name":"round","type":"uint256"},{"indexed":true,"internalType":"address","name":"from","type":"address"},{"indexed":false,"internalType":"uint256","name":"amount","type":"uint256"}],"name":"eventAddToPrizePool","type":"event"},{"anonymous":false,"inputs":[{"indexed":true,"internalType":"uint256","name":"round","type":"uint256"},{"indexed":true,"internalType":"address","name":"from","type":"address"},{"indexed":false,"internalType":"uint256","name":"amount","type":"uint256"},{"indexed":false,"internalType":"enum BitcoinUpDown.UP_DOWN","name":"up_down","type":"uint8"}],"name":"eventBet","type":"event"},{"anonymous":false,"inputs":[{"indexed":true,"internalType":"uint256","name":"round","type":"uint256"},{"indexed":true,"internalType":"uint256","name":"ts_close","type":"uint256"},{"indexed":false,"internalType":"int256","name":"price_close","type":"int256"},{"indexed":false,"internalType":"uint256","name":"prize_pool","type":"uint256"},{"indexed":false,"internalType":"uint256","name":"prize_pool_up","type":"uint256"},{"indexed":false,"internalType":"uint256","name":"prize_pool_down","type":"uint256"}],"name":"eventEndRound","type":"event"},{"anonymous":false,"inputs":[{"indexed":true,"internalType":"uint256","name":"round","type":"uint256"},{"indexed":true,"internalType":"uint256","name":"ts_start","type":"uint256"},{"indexed":false,"internalType":"int256","name":"price_open","type":"int256"},{"indexed":false,"internalType":"uint256","name":"seed","type":"uint256"}],"name":"eventStartRound","type":"event"},{"inputs":[],"name":"addToPrizePool","outputs":[],"stateMutability":"payable","type":"function"},{"inputs":[{"internalType":"enum BitcoinUpDown.UP_DOWN","name":"_up_down","type":"uint8"}],"name":"bet","outputs":[],"stateMutability":"payable","type":"function"},{"inputs":[],"name":"endRound","outputs":[],"stateMutability":"nonpayable","type":"function"},{"inputs":[{"internalType":"address","name":"_addr","type":"address"}],"name":"getPendingWithdraw","outputs":[{"internalType":"uint256","name":"","type":"uint256"}],"stateMutability":"view","type":"function"},{"inputs":[],"name":"getPrice","outputs":[{"internalType":"int256","name":"","type":"int256"}],"stateMutability":"view","type":"function"},{"inputs":[],"name":"owner","outputs":[{"internalType":"address","name":"","type":"address"}],"stateMutability":"view","type":"function"},{"inputs":[{"internalType":"address","name":"","type":"address"}],"name":"players_bet","outputs":[{"internalType":"uint256","name":"bet","type":"uint256"},{"internalType":"enum BitcoinUpDown.UP_DOWN","name":"up_down","type":"uint8"},{"internalType":"uint256","name":"round","type":"uint256"},{"internalType":"bool","name":"isExist","type":"bool"}],"stateMutability":"view","type":"function"},{"inputs":[],"name":"price_close","outputs":[{"internalType":"int256","name":"","type":"int256"}],"stateMutability":"view","type":"function"},{"inputs":[],"name":"price_open","outputs":[{"internalType":"int256","name":"","type":"int256"}],"stateMutability":"view","type":"function"},{"inputs":[{"internalType":"uint256","name":"","type":"uint256"}],"name":"prize_pool","outputs":[{"internalType":"uint256","name":"","type":"uint256"}],"stateMutability":"view","type":"function"},{"inputs":[{"internalType":"uint256","name":"","type":"uint256"}],"name":"prize_pool_down","outputs":[{"internalType":"uint256","name":"","type":"uint256"}],"stateMutability":"view","type":"function"},{"inputs":[{"internalType":"uint256","name":"","type":"uint256"}],"name":"prize_pool_up","outputs":[{"internalType":"uint256","name":"","type":"uint256"}],"stateMutability":"view","type":"function"},{"inputs":[],"name":"renounceOwnership","outputs":[],"stateMutability":"nonpayable","type":"function"},{"inputs":[],"name":"round","outputs":[{"internalType":"uint256","name":"","type":"uint256"}],"stateMutability":"view","type":"function"},{"inputs":[{"internalType":"uint256","name":"","type":"uint256"}],"name":"roundWinner","outputs":[{"internalType":"enum BitcoinUpDown.UP_DOWN","name":"","type":"uint8"}],"stateMutability":"view","type":"function"},{"inputs":[{"internalType":"address","name":"newOwner","type":"address"}],"name":"transferOwnership","outputs":[],"stateMutability":"nonpayable","type":"function"},{"inputs":[],"name":"ts_start","outputs":[{"internalType":"uint256","name":"","type":"uint256"}],"stateMutability":"view","type":"function"},{"inputs":[],"name":"withdraw","outputs":[],"stateMutability":"nonpayable","type":"function"},{"inputs":[],"name":"withdrawFee","outputs":[],"stateMutability":"nonpayable","type":"function"}],"bytecode":"60806040523480156200001157600080fd5b506040516200154d3803806200154d8339810160408190526200003491620001e1565b6200003f336200007f565b60018055600d8054336001600160a01b031991821617909155600380549091166001600160a01b038316179055620000786000620000cf565b5062000285565b600080546001600160a01b038381166001600160a01b0319831681178455604051919092169283917f8be0079c531659141344cd1fd0a4f28419497f9722a3daafe3b4186f6b6457e09190a35050565b600480546000908152600860209081526040808320859055835483526009825280832083905592548252600a9052908120556200010b62000159565b600681905542600b8190556004546040805193845260208401859052919290917f9c968032babecb64d56238f3b471800f713310c82902367f105eb43fcd35404f910160405180910390a350565b600080600360009054906101000a90046001600160a01b03166001600160a01b031663feaf968c6040518163ffffffff1660e01b815260040160a060405180830381865afa158015620001b0573d6000803e3d6000fd5b505050506040513d601f19601f82011682018060405250810190620001d6919062000230565b509195945050505050565b600060208284031215620001f457600080fd5b81516001600160a01b03811681146200020c57600080fd5b9392505050565b80516001600160501b03811681146200022b57600080fd5b919050565b600080600080600060a086880312156200024957600080fd5b620002548662000213565b9450602086015193506040860151925060608601519150620002796080870162000213565b90509295509295909350565b6112b880620002956000396000f3fe6080604052600436106101145760003560e01c806376da5a40116100a0578063da1a8a6a11610064578063da1a8a6a146102b4578063e3380d69146102d4578063e941fa781461032e578063f2fde38b14610343578063fc3ec1aa1461036357600080fd5b806376da5a401461022f5780638da5cb5b1461025c57806398d5fdca14610284578063b3ede13f14610299578063d0821b0e146102a157600080fd5b80634cd3e333116100e75780634cd3e3331461018557806352e9a640146101b25780636ec11f0b146101ef578063715018a614610205578063749aa2d91461021a57600080fd5b8063146ca5311461011957806334ef4242146101425780633ccfd60b1461015857806343e2a4ae1461016f575b600080fd5b34801561012557600080fd5b5061012f60045481565b6040519081526020015b60405180910390f35b34801561014e57600080fd5b5061012f60065481565b34801561016457600080fd5b5061016d610390565b005b34801561017b57600080fd5b5061012f600b5481565b34801561019157600080fd5b5061012f6101a036600461109f565b600a6020526000908152604090205481565b3480156101be57600080fd5b506101e26101cd36600461109f565b60056020526000908152604090205460ff1681565b60405161013991906110f0565b3480156101fb57600080fd5b5061012f60075481565b34801561021157600080fd5b5061016d6105f6565b34801561022657600080fd5b5061016d61060a565b34801561023b57600080fd5b5061012f61024a36600461109f565b60086020526000908152604090205481565b34801561026857600080fd5b506000546040516001600160a01b039091168152602001610139565b34801561029057600080fd5b5061012f6107b8565b61016d61083d565b61016d6102af366004611104565b6108ee565b3480156102c057600080fd5b5061012f6102cf366004611125565b610bda565b3480156102e057600080fd5b5061031e6102ef366004611125565b60026020819052600091825260409091208054600182015492820154600390920154909260ff90811692911684565b604051610139949392919061114e565b34801561033a57600080fd5b5061016d610cc3565b34801561034f57600080fd5b5061016d61035e366004611125565b610e04565b34801561036f57600080fd5b5061012f61037e36600461109f565b60096020526000908152604090205481565b6002600154036103e75760405162461bcd60e51b815260206004820152601f60248201527f5265656e7472616e637947756172643a207265656e7472616e742063616c6c0060448201526064015b60405180910390fd5b6002600181815533600090815260209290925260409091206003015460ff1615151461044c5760405162461bcd60e51b8152602060048201526014602482015273141b185e595c88191bd95cdb89dd08195e1a5cdd60621b60448201526064016103de565b6004543360009081526002602081905260409091200154106104a65760405162461bcd60e51b8152602060048201526013602482015272526f756e64207374696c6c206f6e676f696e6760681b60448201526064016103de565b3360009081526002602081815260408084209092015483526005905290205460ff1660018111156104d9576104d96110b8565b33600090815260026020526040902060019081015460ff1690811115610501576105016110b8565b1461053d5760405162461bcd60e51b815260206004820152600c60248201526b2737ba1030903bb4b73732b960a11b60448201526064016103de565b336000818152600260205260408120600301805460ff191690559061056190610e7d565b604051909150600090339083908381818185875af1925050503d80600081146105a6576040519150601f19603f3d011682016040523d82523d6000602084013e6105ab565b606091505b50509050806105ee5760405162461bcd60e51b815260206004820152600f60248201526e15da5d1a191c985dc819985a5b1959608a1b60448201526064016103de565b505060018055565b6105fe610f73565b6106086000610fcd565b565b6000806106156107b8565b6007556004546000908152600860205260408120546106369060649061118f565b905080600c600082825461064a91906111b1565b9091555050600454600090815260086020526040812080548392906106709084906111c9565b9091555050600654600754126106b55760045460009081526009602052604081205490925082036106b05760045460009081526008602052604090205492505b6106f2565b60065460075412156106f2576004546000908152600a60205260408120546001935090036106f25760045460009081526008602052604090205492505b6004546000908152600560205260409020805483919060ff19166001838181111561071f5761071f6110b8565b02179055506004546007546000828152600860209081526040808320546009835281842054600a8452938290205482519586529285015283019190915260608201524291907fadfa59f97f30eb3ac919fcf909095fe3813ed4b48f8dee2a9a9809f6d18400089060800160405180910390a36001600460008282546107a491906111b1565b909155506107b390508361101d565b505050565b600080600360009054906101000a90046001600160a01b03166001600160a01b031663feaf968c6040518163ffffffff1660e01b815260040160a060405180830381865afa15801561080e573d6000803e3d6000fd5b505050506040513d601f19601f8201168201806040525081019061083291906111ff565b509195945050505050565b6000341161088d5760405162461bcd60e51b815260206004820152601d60248201527f4d696e696d756d20616d6f756e7420746f20616464203d20312077656900000060448201526064016103de565b600454600090815260086020526040812080543492906108ae9084906111b1565b90915550506004546040513481523391907fe31a04ca79d0165c2f5994dc2e79b8c923e95fffa40afc9cf7d0ac677fcec68a9060200160405180910390a3565b600034116109345760405162461bcd60e51b81526020600482015260136024820152724d696e696d756d20626574203d20312077656960681b60448201526064016103de565b610e10600b544261094591906111c9565b11156109845760405162461bcd60e51b815260206004820152600e60248201526d10995d1d1a5b99c818db1bdcd95960921b60448201526064016103de565b3360009081526002602052604090206003015460ff161515600103610aa457600454336000908152600260208190526040909120015403610a075760405162461bcd60e51b815260206004820152601d60248201527f42657420616c726561647920706c61636564207468697320726f756e6400000060448201526064016103de565b3360009081526002602081815260408084209092015483526005905290205460ff166001811115610a3a57610a3a6110b8565b33600090815260026020526040902060019081015460ff1690811115610a6257610a626110b8565b03610aa45760405162461bcd60e51b815260206004820152601260248201527114195b991a5b99c81dda5d1a191c985dd85b60721b60448201526064016103de565b33600090815260026020526040902034815560019081018054839260ff19909116908381811115610ad757610ad76110b8565b02179055506004543360009081526002602081905260408220908101929092556003909101805460ff19166001179055816001811115610b1957610b196110b8565b03610b4a5760045460009081526009602052604081208054349290610b3f9084906111b1565b90915550610b719050565b6004546000908152600a602052604081208054349290610b6b9084906111b1565b90915550505b60045460009081526008602052604081208054349290610b929084906111b1565b90915550506004546040513391907f9a9b1ab57a775ebead5cefe947552da14819ceab35cbce686dde8c688f12aa4a90610bcf903490869061124f565b60405180910390a350565b6001600160a01b03811660009081526002602052604081206003015460ff1615158103610c0957506000919050565b6004546001600160a01b0383166000908152600260208190526040909120015403610c3657506000919050565b6001600160a01b038216600090815260026020818152604080842090920154808452600590915291205460ff166001811115610c7457610c746110b8565b6001600160a01b038416600090815260026020526040902060019081015460ff1690811115610ca557610ca56110b8565b14610cb35750600092915050565b610cbc83610e7d565b9392505050565b600260015403610d155760405162461bcd60e51b815260206004820152601f60248201527f5265656e7472616e637947756172643a207265656e7472616e742063616c6c0060448201526064016103de565b6002600155600c54610d5f5760405162461bcd60e51b81526020600482015260136024820152724e6f206665657320746f20776974686472617760681b60448201526064016103de565b600d54600c546040516000926001600160a01b031691908381818185875af1925050503d8060008114610dae576040519150601f19603f3d011682016040523d82523d6000602084013e610db3565b606091505b5050905080610dfd5760405162461bcd60e51b81526020600482015260166024820152754661696c656420746f2077697468647261772066656560501b60448201526064016103de565b5060018055565b610e0c610f73565b6001600160a01b038116610e715760405162461bcd60e51b815260206004820152602660248201527f4f776e61626c653a206e6577206f776e657220697320746865207a65726f206160448201526564647265737360d01b60648201526084016103de565b610e7a81610fcd565b50565b6001600160a01b038116600081815260026020818152604080842080840154855260088352908420549484529190526001908101549192918391829160ff1690811115610ecc57610ecc6110b8565b14610efe576001600160a01b0384166000908152600260208181526040808420909201548352600a9052902054610f27565b6001600160a01b0384166000908152600260208181526040808420909201548352600990529020545b905080600003610f3b575060009392505050565b6001600160a01b0384166000908152600260205260409020548190610f61908490611263565b610f6b919061118f565b949350505050565b6000546001600160a01b031633146106085760405162461bcd60e51b815260206004820181905260248201527f4f776e61626c653a2063616c6c6572206973206e6f7420746865206f776e657260448201526064016103de565b600080546001600160a01b038381166001600160a01b0319831681178455604051919092169283917f8be0079c531659141344cd1fd0a4f28419497f9722a3daafe3b4186f6b6457e09190a35050565b600480546000908152600860209081526040808320859055835483526009825280832083905592548252600a9052908120556110576107b8565b600681905542600b8190556004546040805193845260208401859052919290917f9c968032babecb64d56238f3b471800f713310c82902367f105eb43fcd35404f9101610bcf565b6000602082840312156110b157600080fd5b5035919050565b634e487b7160e01b600052602160045260246000fd5b600281106110ec57634e487b7160e01b600052602160045260246000fd5b9052565b602081016110fe82846110ce565b92915050565b60006020828403121561111657600080fd5b813560028110610cbc57600080fd5b60006020828403121561113757600080fd5b81356001600160a01b0381168114610cbc57600080fd5b8481526080810161116260208301866110ce565b836040830152821515606083015295945050505050565b634e487b7160e01b600052601160045260246000fd5b6000826111ac57634e487b7160e01b600052601260045260246000fd5b500490565b600082198211156111c4576111c4611179565b500190565b6000828210156111db576111db611179565b500390565b805169ffffffffffffffffffff811681146111fa57600080fd5b919050565b600080600080600060a0868803121561121757600080fd5b611220866111e0565b9450602086015193506040860151925060608601519150611243608087016111e0565b90509295509295909350565b82815260408101610cbc60208301846110ce565b600081600019048311821515161561127d5761127d611179565b50029056fea26469706673582212204c099ffa9fc6d8a2111550cab37470ab0b7c1030a2a55fc9c27c2c4854e0ccde64736f6c634300080f0033","bytecodeSha1":"6ac62886a60bd9d0ba757a71e0a3addad4511971","compiler":{"evm_version":"istanbul","optimizer":{"enabled":true,"runs":200},"version":"0.8.15+commit.e14f2714"},"contractName":"BitcoinUpDown","language":"Solidity","natspec":{"kind":"dev","methods":{"owner()":{"details":"Returns the address of the current owner."},"renounceOwnership()":{"details":"Leaves the contract without owner. It will not be possible to call `onlyOwner` functions anymore. Can only be called by the current owner. NOTE: Renouncing ownership will leave the contract without an owner, thereby removing any functionality that is only available to the owner."},"transferOwnership(address)":{"details":"Transfers ownership of the contract to a new account (`newOwner`). Can only be called by the current owner."}},"version":1},"opcodes":"PUSH1 0x80 PUSH1 0x40 MSTORE PUSH1 0x4 CALLDATASIZE LT PUSH2 0x114 JUMPI PUSH1 0x0 CALLDATALOAD PUSH1 0xE0 SHR DUP1 PUSH4 0x76DA5A40 GT PUSH2 0xA0 JUMPI DUP1 PUSH4 0xDA1A8A6A GT PUSH2 0x64 JUMPI DUP1 PUSH4 0xDA1A8A6A EQ PUSH2 0x2B4 JUMPI DUP1 PUSH4 0xE3380D69 EQ PUSH2 0x2D4 JUMPI DUP1 PUSH4 0xE941FA78 EQ PUSH2 0x32E JUMPI DUP1 PUSH4 0xF2FDE38B EQ PUSH2 0x343 JUMPI DUP1 PUSH4 0xFC3EC1AA EQ PUSH2 0x363 JUMPI PUSH1 0x0 DUP1 REVERT JUMPDEST DUP1 PUSH4 0x76DA5A40 EQ PUSH2 0x22F JUMPI DUP1 PUSH4 0x8DA5CB5B EQ PUSH2 0x25C JUMPI DUP1 PUSH4 0x98D5FDCA EQ PUSH2 0x284 JUMPI DUP1 PUSH4 0xB3EDE13F EQ PUSH2 0x299 JUMPI DUP1 PUSH4 0xD0821B0E EQ PUSH2 0x2A1 JUMPI PUSH1 0x0 DUP1 REVERT JUMPDEST DUP1 PUSH4 0x4CD3E333 GT PUSH2 0xE7 JUMPI DUP1 PUSH4 0x4CD3E333 EQ PUSH2 0x185 JUMPI DUP1 PUSH4 0x52E9A640 EQ PUSH2 0x1B2 JUMPI DUP1 PUSH4 0x6EC11F0B EQ PUSH2 0x1EF JUMPI DUP1 PUSH4 0x715018A6 EQ PUSH2 0x205 JUMPI DUP1 PUSH4 0x749AA2D9 EQ PUSH2 0x21A JUMPI PUSH1 0x0 DUP1 REVERT JUMPDEST DUP1 PUSH4 0x146CA531 EQ PUSH2 0x119 JUMPI DUP1 PUSH4 0x34EF4242 EQ PUSH2 0x142 JUMPI DUP1 PUSH4 0x3CCFD60B EQ PUSH2 0x158 JUMPI DUP1 PUSH4 0x43E2A4AE EQ PUSH2 0x16F JUMPI JUMPDEST PUSH1 0x0 DUP1 REVERT JUMPDEST CALLVALUE DUP1 ISZERO PUSH2 0x125 JUMPI PUSH1 0x0 DUP1 REVERT JUMPDEST POP PUSH2 0x12F PUSH1 0x4 SLOAD DUP2 JUMP JUMPDEST PUSH1 0x40 MLOAD SWAP1 DUP2 MSTORE PUSH1 0x20 ADD JUMPDEST PUSH1 0x40 MLOAD DUP1 SWAP2 SUB SWAP1 RETURN JUMPDEST CALLVALUE DUP1 ISZERO PUSH2 0x14E JUMPI PUSH1 0x0 DUP1 REVERT JUMPDEST POP PUSH2 0x12F PUSH1 0x6 SLOAD DUP2 JUMP JUMPDEST CALLVALUE DUP1 ISZERO PUSH2 0x164 JUMPI PUSH1 0x0 DUP1 REVERT JUMPDEST POP PUSH2 0x16D PUSH2 0x390 JUMP JUMPDEST STOP JUMPDEST CALLVALUE DUP1 ISZERO PUSH2 0x17B JUMPI PUSH1 0x0 DUP1 REVERT JUMPDEST POP PUSH2 0x12F PUSH1 0xB SLOAD DUP2 JUMP JUMPDEST CALLVALUE DUP1 ISZERO PUSH2 0x191 JUMPI PUSH1 0x0 DUP1 REVERT JUMPDEST POP PUSH2 0x12F PUSH2 0x1A0 CALLDATASIZE PUSH1 0x4 PUSH2 0x109F JUMP JUMPDEST PUSH1 0xA PUSH1 0x20 MSTORE PUSH1 0x0 SWAP1 DUP2 MSTORE PUSH1 0x40 SWAP1 KECCAK256 SLOAD DUP2 JUMP JUMPDEST CALLVALUE DUP1 ISZERO PUSH2 0x1BE JUMPI PUSH1 0x0 DUP1 REVERT JUMPDEST POP PUSH2 0x1E2 PUSH2 0x1CD CALLDATASIZE PUSH1 0x4 PUSH2 0x109F JUMP JUMPDEST PUSH1 0x5 PUSH1 0x20 MSTORE PUSH1 0x0 SWAP1 DUP2 MSTORE PUSH1 0x40 SWAP1 KECCAK256 SLOAD PUSH1 0xFF AND DUP2 JUMP JUMPDEST PUSH1 0x40 MLOAD PUSH2 0x139 SWAP2 SWAP1 PUSH2 0x10F0 JUMP JUMPDEST CALLVALUE DUP1 ISZERO PUSH2 0x1FB JUMPI PUSH1 0x0 DUP1 REVERT JUMPDEST POP PUSH2 0x12F PUSH1 0x7 SLOAD DUP2 JUMP JUMPDEST CALLVALUE DUP1 ISZERO PUSH2 0x211 JUMPI PUSH1 0x0 DUP1 REVERT JUMPDEST POP PUSH2 0x16D PUSH2 0x5F6 JUMP JUMPDEST CALLVALUE DUP1 ISZERO PUSH2 0x226 JUMPI PUSH1 0x0 DUP1 REVERT JUMPDEST POP PUSH2 0x16D PUSH2 0x60A JUMP JUMPDEST CALLVALUE DUP1 ISZERO PUSH2 0x23B JUMPI PUSH1 0x0 DUP1 REVERT JUMPDEST POP PUSH2 0x12F PUSH2 0x24A CALLDATASIZE PUSH1 0x4 PUSH2 0x109F JUMP JUMPDEST PUSH1 0x8 PUSH1 0x20 MSTORE PUSH1 0x0 SWAP1 DUP2 MSTORE PUSH1 0x40 SWAP1 KECCAK256 SLOAD DUP2 JUMP JUMPDEST CALLVALUE DUP1 ISZERO PUSH2 0x268 JUMPI PUSH1 0x0 DUP1 REVERT JUMPDEST POP PUSH1 0x0 SLOAD PUSH1 0x40 MLOAD PUSH1 0x1 PUSH1 0x1 PUSH1 0xA0 SHL SUB SWAP1 SWAP2 AND DUP2 MSTORE PUSH1 0x20 ADD PUSH2 0x139 JUMP JUMPDEST CALLVALUE DUP1 ISZERO PUSH2 0x290 JUMPI PUSH1 0x0 DUP1 REVERT JUMPDEST POP PUSH2 0x12F PUSH2 0x7B8 JUMP JUMPDEST PUSH2 0x16D PUSH2 0x83D JUMP JUMPDEST PUSH2 0x16D PUSH2 0x2AF CALLDATASIZE PUSH1 0x4 PUSH2 0x1104 JUMP JUMPDEST PUSH2 0x8EE JUMP JUMPDEST CALLVALUE DUP1 ISZERO PUSH2 0x2C0 JUMPI PUSH1 0x0 DUP1 REVERT JUMPDEST POP PUSH2 0x12F PUSH2 0x2CF CALLDATASIZE PUSH1 0x4 PUSH2 0x1125 JUMP JUMPDEST PUSH2 0xBDA JUMP JUMPDEST CALLVALUE DUP1 ISZERO PUSH2 0x2E0 JUMPI PUSH1 0x0 DUP1 REVERT JUMPDEST POP PUSH2 0x31E PUSH2 0x2EF CALLDATASIZE PUSH1 0x4 PUSH2 0x1125 JUMP JUMPDEST PUSH1 0x2 PUSH1 0x20 DUP2 SWAP1 MSTORE PUSH1 0x0 SWAP2 DUP3 MSTORE PUSH1 0x40 SWAP1 SWAP2 KECCAK256 DUP1 SLOAD PUSH1 0x1 DUP3 ADD SLOAD SWAP3 DUP3 ADD SLOAD PUSH1 0x3 SWAP1 SWAP3 ADD SLOAD SWAP1 SWAP3 PUSH1 0xFF SWAP1 DUP2 AND SWAP3 SWAP2 AND DUP5 JUMP JUMPDEST PUSH1 0x40 MLOAD PUSH2 0x139 SWAP5 SWAP4 SWAP3 SWAP2 SWAP1 PUSH2 0x114E JUMP JUMPDEST CALLVALUE DUP1 ISZERO PUSH2 0x33A JUMPI PUSH1 0x0 DUP1 REVERT JUMPDEST POP PUSH2 0x16D PUSH2 0xCC3 JUMP JUMPDEST CALLVALUE DUP1 ISZERO PUSH2 0x34F JUMPI PUSH1 0x0 DUP1 REVERT JUMPDEST POP PUSH2 0x16D PUSH2 0x35E CALLDATASIZE PUSH1 0x4 PUSH2 0x1125 JUMP JUMPDEST PUSH2 0xE04 JUMP JUMPDEST CALLVALUE DUP1 ISZERO PUSH2 0x36F JUMPI PUSH1 0x0 DUP1 REVERT JUMPDEST POP PUSH2 0x12F PUSH2 0x37E CALLDATASIZE PUSH1 0x4 PUSH2 0x109F JUMP JUMPDEST PUSH1 0x9 PUSH1 0x20 MSTORE PUSH1 0x0 SWAP1 DUP2 MSTORE PUSH1 0x40 SWAP1 KECCAK256 SLOAD DUP2 JUMP JUMPDEST PUSH1 0x2 PUSH1 0x1 SLOAD SUB PUSH2 0x3E7 JUMPI PUSH1 0x40 MLOAD PUSH3 0x461BCD PUSH1 0xE5 SHL DUP2 MSTORE PUSH1 0x20 PUSH1 0x4 DUP3 ADD MSTORE PUSH1 0x1F PUSH1 0x24 DUP3 ADD MSTORE PUSH32 0x5265656E7472616E637947756172643A207265656E7472616E742063616C6C00 PUSH1 0x44 DUP3 ADD MSTORE PUSH1 0x64 ADD JUMPDEST PUSH1 0x40 MLOAD DUP1 SWAP2 SUB SWAP1 REVERT JUMPDEST PUSH1 0x2 PUSH1 0x1 DUP2 DUP2 SSTORE CALLER PUSH1 0x0 SWAP1 DUP2 MSTORE PUSH1 0x20 SWAP3 SWAP1 SWAP3 MSTORE PUSH1 0x40 SWAP1 SWAP2 KECCAK256 PUSH1 0x3 ADD SLOAD PUSH1 0xFF AND ISZERO ISZERO EQ PUSH2 0x44C JUMPI PUSH1 0x40 MLOAD PUSH3 0x461BCD PUSH1 0xE5 SHL DUP2 MSTORE PUSH1 0x20 PUSH1 0x4 DUP3 ADD MSTORE PUSH1 0x14 PUSH1 0x24 DUP3 ADD MSTORE PUSH20 0x141B185E595C88191BD95CDB89DD08195E1A5CDD PUSH1 0x62 SHL PUSH1 0x44 DUP3 ADD MSTORE PUSH1 0x64 ADD PUSH2 0x3DE JUMP JUMPDEST PUSH1 0x4 SLOAD CALLER PUSH1 0x0 SWAP1 DUP2 MSTORE PUSH1 0x2 PUSH1 0x20 DUP2 SWAP1 MSTORE PUSH1 0x40 SWAP1 SWAP2 KECCAK256 ADD SLOAD LT PUSH2 0x4A6 JUMPI PUSH1 0x40 MLOAD PUSH3 0x461BCD PUSH1 0xE5 SHL DUP2 MSTORE PUSH1 0x20 PUSH1 0x4 DUP3 ADD MSTORE PUSH1 0x13 PUSH1 0x24 DUP3 ADD MSTORE PUSH19 0x526F756E64207374696C6C206F6E676F696E67 PUSH1 0x68 SHL PUSH1 0x44 DUP3 ADD MSTORE PUSH1 0x64 ADD PUSH2 0x3DE JUMP JUMPDEST CALLER PUSH1 0x0 SWAP1 DUP2 MSTORE PUSH1 0x2 PUSH1 0x20 DUP2 DUP2 MSTORE PUSH1 0x40 DUP1 DUP5 KECCAK256 SWAP1 SWAP3 ADD SLOAD DUP4 MSTORE PUSH1 0x5 SWAP1 MSTORE SWAP1 KECCAK256 SLOAD PUSH1 0xFF AND PUSH1 0x1 DUP2 GT ISZERO PUSH2 0x4D9 JUMPI PUSH2 0x4D9 PUSH2 0x10B8 JUMP JUMPDEST CALLER PUSH1 0x0 SWAP1 DUP2 MSTORE PUSH1 0x2 PUSH1 0x20 MSTORE PUSH1 0x40 SWAP1 KECCAK256 PUSH1 0x1 SWAP1 DUP2 ADD SLOAD PUSH1 0xFF AND SWAP1 DUP2 GT ISZERO PUSH2 0x501 JUMPI PUSH2 0x501 PUSH2 0x10B8 JUMP JUMPDEST EQ PUSH2 0x53D JUMPI PUSH1 0x40 MLOAD PUSH3 0x461BCD PUSH1 0xE5 SHL DUP2 MSTORE PUSH1 0x20 PUSH1 0x4 DUP3 ADD MSTORE PUSH1 0xC PUSH1 0x24 DUP3 ADD MSTORE PUSH12 0x2737BA1030903BB4B73732B9 PUSH1 0xA1 SHL PUSH1 0x44 DUP3 ADD MSTORE PUSH1 0x64 ADD PUSH2 0x3DE JUMP JUMPDEST CALLER PUSH1 0x0 DUP2 DUP2 MSTORE PUSH1 0x2 PUSH1 0x20 MSTORE PUSH1 0x40 DUP2 KECCAK256 PUSH1 0x3 ADD DUP1 SLOAD PUSH1 0xFF NOT AND SWAP1 SSTORE SWAP1 PUSH2 0x561 SWAP1 PUSH2 0xE7D JUMP JUMPDEST PUSH1 0x40 MLOAD SWAP1 SWAP2 POP PUSH1 0x0 SWAP1 CALLER SWAP1 DUP4 SWAP1 DUP4 DUP2 DUP2 DUP2 DUP6 DUP8 GAS CALL SWAP3 POP POP POP RETURNDATASIZE DUP1 PUSH1 0x0 DUP2 EQ PUSH2 0x5A6 JUMPI PUSH1 0x40 MLOAD SWAP2 POP PUSH1 0x1F NOT PUSH1 0x3F RETURNDATASIZE ADD AND DUP3 ADD PUSH1 0x40 MSTORE RETURNDATASIZE DUP3 MSTORE RETURNDATASIZE PUSH1 0x0 PUSH1 0x20 DUP5 ADD RETURNDATACOPY PUSH2 0x5AB JUMP JUMPDEST PUSH1 0x60 SWAP2 POP JUMPDEST POP POP SWAP1 POP DUP1 PUSH2 0x5EE JUMPI PUSH1 0x40 MLOAD PUSH3 0x461BCD PUSH1 0xE5 SHL DUP2 MSTORE PUSH1 0x20 PUSH1 0x4 DUP3 ADD MSTORE PUSH1 0xF PUSH1 0x24 DUP3 ADD MSTORE PUSH15 0x15DA5D1A191C985DC819985A5B1959 PUSH1 0x8A SHL PUSH1 0x44 DUP3 ADD MSTORE PUSH1 0x64 ADD PUSH2 0x3DE JUMP JUMPDEST POP POP PUSH1 0x1 DUP1 SSTORE JUMP JUMPDEST PUSH2 0x5FE PUSH2 0xF73 JUMP JUMPDEST PUSH2 0x608 PUSH1 0x0 PUSH2 0xFCD JUMP JUMPDEST JUMP JUMPDEST PUSH1 0x0 DUP1 PUSH2 0x615 PUSH2 0x7B8 JUMP JUMPDEST PUSH1 0x7 SSTORE PUSH1 0x4 SLOAD PUSH1 0x0 SWAP1 DUP2 MSTORE PUSH1 0x8 PUSH1 0x20 MSTORE PUSH1 0x40 DUP2 KECCAK256 SLOAD PUSH2 0x636 SWAP1 PUSH1 0x64 SWAP1 PUSH2 0x118F JUMP JUMPDEST SWAP1 POP DUP1 PUSH1 0xC PUSH1 0x0 DUP3 DUP3 SLOAD PUSH2 0x64A SWAP2 SWAP1 PUSH2 0x11B1 JUMP JUMPDEST SWAP1 SWAP2 SSTORE POP POP PUSH1 0x4 SLOAD PUSH1 0x0 SWAP1 DUP2 MSTORE PUSH1 0x8 PUSH1 0x20 MSTORE PUSH1 0x40 DUP2 KECCAK256 DUP1 SLOAD DUP4 SWAP3 SWAP1 PUSH2 0x670 SWAP1 DUP5 SWAP1 PUSH2 0x11C9 JUMP JUMPDEST SWAP1 SWAP2 SSTORE POP POP PUSH1 0x6 SLOAD PUSH1 0x7 SLOAD SLT PUSH2 0x6B5 JUMPI PUSH1 0x4 SLOAD PUSH1 0x0 SWAP1 DUP2 MSTORE PUSH1 0x9 PUSH1 0x20 MSTORE PUSH1 0x40 DUP2 KECCAK256 SLOAD SWAP1 SWAP3 POP DUP3 SUB PUSH2 0x6B0 JUMPI PUSH1 0x4 SLOAD PUSH1 0x0 SWAP1 DUP2 MSTORE PUSH1 0x8 PUSH1 0x20 MSTORE PUSH1 0x40 SWAP1 KECCAK256 SLOAD SWAP3 POP JUMPDEST PUSH2 0x6F2 JUMP JUMPDEST PUSH1 0x6 SLOAD PUSH1 0x7 SLOAD SLT ISZERO PUSH2 0x6F2 JUMPI PUSH1 0x4 SLOAD PUSH1 0x0 SWAP1 DUP2 MSTORE PUSH1 0xA PUSH1 0x20 MSTORE PUSH1 0x40 DUP2 KECCAK256 SLOAD PUSH1 0x1 SWAP4 POP SWAP1 SUB PUSH2 0x6F2 JUMPI PUSH1 0x4 SLOAD PUSH1 0x0 SWAP1 DUP2 MSTORE PUSH1 0x8 PUSH1 0x20 MSTORE PUSH1 0x40 SWAP1 KECCAK256 SLOAD SWAP3 POP JUMPDEST PUSH1 0x4 SLOAD PUSH1 0x0 SWAP1 DUP2 MSTORE PUSH1 0x5 PUSH1 0x20 MSTORE PUSH1 0x40 SWAP1 KECCAK256 DUP1 SLOAD DUP4 SWAP2 SWAP1 PUSH1 0xFF NOT AND PUSH1 0x1 DUP4 DUP2 DUP2 GT ISZERO PUSH2 0x71F JUMPI PUSH2 0x71F PUSH2 0x10B8 JUMP JUMPDEST MUL OR SWAP1 SSTORE POP PUSH1 0x4 SLOAD PUSH1 0x7 SLOAD PUSH1 0x0 DUP3 DUP2 MSTORE PUSH1 0x8 PUSH1 0x20 SWAP1 DUP2 MSTORE PUSH1 0x40 DUP1 DUP4 KECCAK256 SLOAD PUSH1 0x9 DUP4 MSTORE DUP2 DUP5 KECCAK256 SLOAD PUSH1 0xA DUP5 MSTORE SWAP4 DUP3 SWAP1 KECCAK256 SLOAD DUP3 MLOAD SWAP6 DUP7 MSTORE SWAP3 DUP6 ADD MSTORE DUP4 ADD SWAP2 SWAP1 SWAP2 MSTORE PUSH1 0x60 DUP3 ADD MSTORE TIMESTAMP SWAP2 SWAP1 PUSH32 0xADFA59F97F30EB3AC919FCF909095FE3813ED4B48F8DEE2A9A9809F6D1840008 SWAP1 PUSH1 0x80 ADD PUSH1 0x40 MLOAD DUP1 SWAP2 SUB SWAP1 LOG3 PUSH1 0x1 PUSH1 0x4 PUSH1 0x0 DUP3 DUP3 SLOAD PUSH2 0x7A4 SWAP2 SWAP1 PUSH2 0x11B1 JUMP JUMPDEST SWAP1 SWAP2 SSTORE POP PUSH2 0x7B3 SWAP1 POP DUP4 PUSH2 0x101D JUMP JUMPDEST POP POP POP JUMP JUMPDEST PUSH1 0x0 DUP1 PUSH1 0x3 PUSH1 0x0 SWAP1 SLOAD SWAP1 PUSH2 0x100 EXP SWAP1 DIV PUSH1 0x1 PUSH1 0x1 PUSH1 0xA0 SHL SUB AND PUSH1 0x1 PUSH1 0x1 PUSH1 0xA0 SHL SUB AND PUSH4 0xFEAF968C PUSH1 0x40 MLOAD DUP2 PUSH4 0xFFFFFFFF AND PUSH1 0xE0 SHL DUP2 MSTORE PUSH1 0x4 ADD PUSH1 0xA0 PUSH1 0x40 MLOAD DUP1 DUP4 SUB DUP2 DUP7 GAS STATICCALL ISZERO DUP1 ISZERO PUSH2 0x80E JUMPI RETURNDATASIZE PUSH1 0x0 DUP1 RETURNDATACOPY RETURNDATASIZE PUSH1 0x0 REVERT JUMPDEST POP POP POP POP PUSH1 0x40 MLOAD RETURNDATASIZE PUSH1 0x1F NOT PUSH1 0x1F DUP3 ADD AND DUP3 ADD DUP1 PUSH1 0x40 MSTORE POP DUP2 ADD SWAP1 PUSH2 0x832 SWAP2 SWAP1 PUSH2 0x11FF JUMP JUMPDEST POP SWAP2 SWAP6 SWAP5 POP POP POP POP POP JUMP JUMPDEST PUSH1 0x0 CALLVALUE GT PUSH2 0x88D JUMPI PUSH1 0x40 MLOAD PUSH3 0x461BCD PUSH1 0xE5 SHL DUP2 MSTORE PUSH1 0x20 PUSH1 0x4 DUP3 ADD MSTORE PUSH1 0x1D PUSH1 0x24 DUP3 ADD MSTORE PUSH32 0x4D696E696D756D20616D6F756E7420746F20616464203D203120776569000000 PUSH1 0x44 DUP3 ADD MSTORE PUSH1 0x64 ADD PUSH2 0x3DE JUMP JUMPDEST PUSH1 0x4 SLOAD PUSH1 0x0 SWAP1 DUP2 MSTORE PUSH1 0x8 PUSH1 0x20 MSTORE PUSH1 0x40 DUP2 KECCAK256 DUP1 SLOAD CALLVALUE SWAP3 SWAP1 PUSH2 0x8AE SWAP1 DUP5 SWAP1 PUSH2 0x11B1 JUMP JUMPDEST SWAP1 SWAP2 SSTORE POP POP PUSH1 0x4 SLOAD PUSH1 0x40 MLOAD CALLVALUE DUP2 MSTORE CALLER SWAP2 SWAP1 PUSH32 0xE31A04CA79D0165C2F5994DC2E79B8C923E95FFFA40AFC9CF7D0AC677FCEC68A SWAP1 PUSH1 0x20 ADD PUSH1 0x40 MLOAD DUP1 SWAP2 SUB SWAP1 LOG3 JUMP JUMPDEST PUSH1 0x0 CALLVALUE GT PUSH2 0x934 JUMPI PUSH1 0x40 MLOAD PUSH3 0x461BCD PUSH1 0xE5 SHL DUP2 MSTORE PUSH1 0x20 PUSH1 0x4 DUP3 ADD MSTORE PUSH1 0x13 PUSH1 0x24 DUP3 ADD MSTORE PUSH19 0x4D696E696D756D20626574203D203120776569 PUSH1 0x68 SHL PUSH1 0x44 DUP3 ADD MSTORE PUSH1 0x64 ADD PUSH2 0x3DE JUMP JUMPDEST PUSH2 0xE10 PUSH1 0xB SLOAD TIMESTAMP PUSH2 0x945 SWAP2 SWAP1 PUSH2 0x11C9 JUMP JUMPDEST GT ISZERO PUSH2 0x984 JUMPI PUSH1 0x40 MLOAD PUSH3 0x461BCD PUSH1 0xE5 SHL DUP2 MSTORE PUSH1 0x20 PUSH1 0x4 DUP3 ADD MSTORE PUSH1 0xE PUSH1 0x24 DUP3 ADD MSTORE PUSH14 0x10995D1D1A5B99C818DB1BDCD959 PUSH1 0x92 SHL PUSH1 0x44 DUP3 ADD MSTORE PUSH1 0x64 ADD PUSH2 0x3DE JUMP JUMPDEST CALLER PUSH1 0x0 SWAP1 DUP2 MSTORE PUSH1 0x2 PUSH1 0x20 MSTORE PUSH1 0x40 SWAP1 KECCAK256 PUSH1 0x3 ADD SLOAD PUSH1 0xFF AND ISZERO ISZERO PUSH1 0x1 SUB PUSH2 0xAA4 JUMPI PUSH1 0x4 SLOAD CALLER PUSH1 0x0 SWAP1 DUP2 MSTORE PUSH1 0x2 PUSH1 0x20 DUP2 SWAP1 MSTORE PUSH1 0x40 SWAP1 SWAP2 KECCAK256 ADD SLOAD SUB PUSH2 0xA07 JUMPI PUSH1 0x40 MLOAD PUSH3 0x461BCD PUSH1 0xE5 SHL DUP2 MSTORE PUSH1 0x20 PUSH1 0x4 DUP3 ADD MSTORE PUSH1 0x1D PUSH1 0x24 DUP3 ADD MSTORE PUSH32 0x42657420616C726561647920706C61636564207468697320726F756E64000000 PUSH1 0x44 DUP3 ADD MSTORE PUSH1 0x64 ADD PUSH2 0x3DE JUMP JUMPDEST CALLER PUSH1 0x0 SWAP1 DUP2 MSTORE PUSH1 0x2 PUSH1 0x20 DUP2 DUP2 MSTORE PUSH1 0x40 DUP1 DUP5 KECCAK256 SWAP1 SWAP3 ADD SLOAD DUP4 MSTORE PUSH1 0x5 SWAP1 MSTORE SWAP1 KECCAK256 SLOAD PUSH1 0xFF AND PUSH1 0x1 DUP2 GT ISZERO PUSH2 0xA3A JUMPI PUSH2 0xA3A PUSH2 0x10B8 JUMP JUMPDEST CALLER PUSH1 0x0 SWAP1 DUP2 MSTORE PUSH1 0x2 PUSH1 0x20 MSTORE PUSH1 0x40 SWAP1 KECCAK256 PUSH1 0x1 SWAP1 DUP2 ADD SLOAD PUSH1 0xFF AND SWAP1 DUP2 GT ISZERO PUSH2 0xA62 JUMPI PUSH2 0xA62 PUSH2 0x10B8 JUMP JUMPDEST SUB PUSH2 0xAA4 JUMPI PUSH1 0x40 MLOAD PUSH3 0x461BCD PUSH1 0xE5 SHL DUP2 MSTORE PUSH1 0x20 PUSH1 0x4 DUP3 ADD MSTORE PUSH1 0x12 PUSH1 0x24 DUP3 ADD MSTORE PUSH18 0x14195B991A5B99C81DDA5D1A191C985DD85B PUSH1 0x72 SHL PUSH1 0x44 DUP3 ADD MSTORE PUSH1 0x64 ADD PUSH2 0x3DE JUMP JUMPDEST CALLER PUSH1 0x0 SWAP1 DUP2 MSTORE PUSH1 0x2 PUSH1 0x20 MSTORE PUSH1 0x40 SWAP1 KECCAK256 CALLVALUE DUP2 SSTORE PUSH1 0x1 SWAP1 DUP2 ADD DUP1 SLOAD DUP4 SWAP3 PUSH1 0xFF NOT SWAP1 SWAP2 AND SWAP1 DUP4 DUP2 DUP2 GT ISZERO PUSH2 0xAD7 JUMPI PUSH2 0xAD7 PUSH2 0x10B8 JUMP JUMPDEST MUL OR SWAP1 SSTORE POP PUSH1 0x4 SLOAD CALLER PUSH1 0x0 SWAP1 DUP2 MSTORE PUSH1 0x2 PUSH1 0x20 DUP2 SWAP1 MSTORE PUSH1 0x40 DUP3 KECCAK256 SWAP1 DUP2 ADD SWAP3 SWAP1 SWAP3 SSTORE PUSH1 0x3 SWAP1 SWAP2 ADD DUP1 SLOAD PUSH1 0xFF NOT AND PUSH1 0x1 OR SWAP1 SSTORE DUP2 PUSH1 0x1 DUP2 GT ISZERO PUSH2 0xB19 JUMPI PUSH2 0xB19 PUSH2 0x10B8 JUMP JUMPDEST SUB PUSH2 0xB4A JUMPI PUSH1 0x4 SLOAD PUSH1 0x0 SWAP1 DUP2 MSTORE PUSH1 0x9 PUSH1 0x20 MSTORE PUSH1 0x40 DUP2 KECCAK256 DUP1 SLOAD CALLVALUE SWAP3 SWAP1 PUSH2 0xB3F SWAP1 DUP5 SWAP1 PUSH2 0x11B1 JUMP JUMPDEST SWAP1 SWAP2 SSTORE POP PUSH2 0xB71 SWAP1 POP JUMP JUMPDEST PUSH1 0x4 SLOAD PUSH1 0x0 SWAP1 DUP2 MSTORE PUSH1 0xA PUSH1 0x20 MSTORE PUSH1 0x40 DUP2 KECCAK256 DUP1 SLOAD CALLVALUE SWAP3 SWAP1 PUSH2 0xB6B SWAP1 DUP5 SWAP1 PUSH2 0x11B1 JUMP JUMPDEST SWAP1 SWAP2 SSTORE POP POP JUMPDEST PUSH1 0x4 SLOAD PUSH1 0x0 SWAP1 DUP2 MSTORE PUSH1 0x8 PUSH1 0x20 MSTORE PUSH1 0x40 DUP2 KECCAK256 DUP1 SLOAD CALLVALUE SWAP3 SWAP1 PUSH2 0xB92 SWAP1 DUP5 SWAP1 PUSH2 0x11B1 JUMP JUMPDEST SWAP1 SWAP2 SSTORE POP POP PUSH1 0x4 SLOAD PUSH1 0x40 MLOAD CALLER SWAP2 SWAP1 PUSH32 0x9A9B1AB57A775EBEAD5CEFE947552DA14819CEAB35CBCE686DDE8C688F12AA4A SWAP1 PUSH2 0xBCF SWAP1 CALLVALUE SWAP1 DUP7 SWAP1 PUSH2 0x124F JUMP JUMPDEST PUSH1 0x40 MLOAD DUP1 SWAP2 SUB SWAP1 LOG3 POP JUMP JUMPDEST PUSH1 0x1 PUSH1 0x1 PUSH1 0xA0 SHL SUB DUP2 AND PUSH1 0x0 SWAP1 DUP2 MSTORE PUSH1 0x2 PUSH1 0x20 MSTORE PUSH1 0x40 DUP2 KECCAK256 PUSH1 0x3 ADD SLOAD PUSH1 0xFF AND ISZERO ISZERO DUP2 SUB PUSH2 0xC09 JUMPI POP PUSH1 0x0 SWAP2 SWAP1 POP JUMP JUMPDEST PUSH1 0x4 SLOAD PUSH1 0x1 PUSH1 0x1 PUSH1 0xA0 SHL SUB DUP4 AND PUSH1 0x0 SWAP1 DUP2 MSTORE PUSH1 0x2 PUSH1 0x20 DUP2 SWAP1 MSTORE PUSH1 0x40 SWAP1 SWAP2 KECCAK256 ADD SLOAD SUB PUSH2 0xC36 JUMPI POP PUSH1 0x0 SWAP2 SWAP1 POP JUMP JUMPDEST PUSH1 0x1 PUSH1 0x1 PUSH1 0xA0 SHL SUB DUP3 AND PUSH1 0x0 SWAP1 DUP2 MSTORE PUSH1 0x2 PUSH1 0x20 DUP2 DUP2 MSTORE PUSH1 0x40 DUP1 DUP5 KECCAK256 SWAP1 SWAP3 ADD SLOAD DUP1 DUP5 MSTORE PUSH1 0x5 SWAP1 SWAP2 MSTORE SWAP2 KECCAK256 SLOAD PUSH1 0xFF AND PUSH1 0x1 DUP2 GT ISZERO PUSH2 0xC74 JUMPI PUSH2 0xC74 PUSH2 0x10B8 JUMP JUMPDEST PUSH1 0x1 PUSH1 0x1 PUSH1 0xA0 SHL SUB DUP5 AND PUSH1 0x0 SWAP1 DUP2 MSTORE PUSH1 0x2 PUSH1 0x20 MSTORE PUSH1 0x40 SWAP1 KECCAK256 PUSH1 0x1 SWAP1 DUP2 ADD SLOAD PUSH1 0xFF AND SWAP1 DUP2 GT ISZERO PUSH2 0xCA5 JUMPI PUSH2 0xCA5 PUSH2 0x10B8 JUMP JUMPDEST EQ PUSH2 0xCB3 JUMPI POP PUSH1 0x0 SWAP3 SWAP2 POP POP JUMP JUMPDEST PUSH2 0xCBC DUP4 PUSH2 0xE7D JUMP JUMPDEST SWAP4 SWAP3 POP POP POP JUMP JUMPDEST PUSH1 0x2 PUSH1 0x1 SLOAD SUB PUSH2 0xD15 JUMPI PUSH1 0x40 MLOAD PUSH3 0x461BCD PUSH1 0xE5 SHL DUP2 MSTORE PUSH1 0x20 PUSH1 0x4 DUP3 ADD MSTORE PUSH1 0x1F PUSH1 0x24 DUP3 ADD MSTORE PUSH32 0x5265656E7472616E637947756172643A207265656E7472616E742063616C6C00 PUSH1 0x44 DUP3 ADD MSTORE PUSH1 0x64 ADD PUSH2 0x3DE JUMP JUMPDEST PUSH1 0x2 PUSH1 0x1 SSTORE PUSH1 0xC SLOAD PUSH2 0xD5F JUMPI PUSH1 0x40 MLOAD PUSH3 0x461BCD PUSH1 0xE5 SHL DUP2 MSTORE PUSH1 0x20 PUSH1 0x4 DUP3 ADD MSTORE PUSH1 0x13 PUSH1 0x24 DUP3 ADD MSTORE PUSH19 0x4E6F206665657320746F207769746864726177 PUSH1 0x68 SHL PUSH1 0x44 DUP3 ADD MSTORE PUSH1 0x64 ADD PUSH2 0x3DE JUMP JUMPDEST PUSH1 0xD SLOAD PUSH1 0xC SLOAD PUSH1 0x40 MLOAD PUSH1 0x0 SWAP3 PUSH1 0x1 PUSH1 0x1 PUSH1 0xA0 SHL SUB AND SWAP2 SWAP1 DUP4 DUP2 DUP2 DUP2 DUP6 DUP8 GAS CALL SWAP3 POP POP POP RETURNDATASIZE DUP1 PUSH1 0x0 DUP2 EQ PUSH2 0xDAE JUMPI PUSH1 0x40 MLOAD SWAP2 POP PUSH1 0x1F NOT PUSH1 0x3F RETURNDATASIZE ADD AND DUP3 ADD PUSH1 0x40 MSTORE RETURNDATASIZE DUP3 MSTORE RETURNDATASIZE PUSH1 0x0 PUSH1 0x20 DUP5 ADD RETURNDATACOPY PUSH2 0xDB3 JUMP JUMPDEST PUSH1 0x60 SWAP2 POP JUMPDEST POP POP SWAP1 POP DUP1 PUSH2 0xDFD JUMPI PUSH1 0x40 MLOAD PUSH3 0x461BCD PUSH1 0xE5 SHL DUP2 MSTORE PUSH1 0x20 PUSH1 0x4 DUP3 ADD MSTORE PUSH1 0x16 PUSH1 0x24 DUP3 ADD MSTORE PUSH22 0x4661696C656420746F20776974686472617720666565 PUSH1 0x50 SHL PUSH1 0x44 DUP3 ADD MSTORE PUSH1 0x64 ADD PUSH2 0x3DE JUMP JUMPDEST POP PUSH1 0x1 DUP1 SSTORE JUMP JUMPDEST PUSH2 0xE0C PUSH2 0xF73 JUMP JUMPDEST PUSH1 0x1 PUSH1 0x1 PUSH1 0xA0 SHL SUB DUP2 AND PUSH2 0xE71 JUMPI PUSH1 0x40 MLOAD PUSH3 0x461BCD PUSH1 0xE5 SHL DUP2 MSTORE PUSH1 0x20 PUSH1 0x4 DUP3 ADD MSTORE PUSH1 0x26 PUSH1 0x24 DUP3 ADD MSTORE PUSH32 0x4F776E61626C653A206E6577206F776E657220697320746865207A65726F2061 PUSH1 0x44 DUP3 ADD MSTORE PUSH6 0x646472657373 PUSH1 0xD0 SHL PUSH1 0x64 DUP3 ADD MSTORE PUSH1 0x84 ADD PUSH2 0x3DE JUMP JUMPDEST PUSH2 0xE7A DUP2 PUSH2 0xFCD JUMP JUMPDEST POP JUMP JUMPDEST PUSH1 0x1 PUSH1 0x1 PUSH1 0xA0 SHL SUB DUP2 AND PUSH1 0x0 DUP2 DUP2 MSTORE PUSH1 0x2 PUSH1 0x20 DUP2 DUP2 MSTORE PUSH1 0x40 DUP1 DUP5 KECCAK256 DUP1 DUP5 ADD SLOAD DUP6 MSTORE PUSH1 0x8 DUP4 MSTORE SWAP1 DUP5 KECCAK256 SLOAD SWAP5 DUP5 MSTORE SWAP2 SWAP1 MSTORE PUSH1 0x1 SWAP1 DUP2 ADD SLOAD SWAP2 SWAP3 SWAP2 DUP4 SWAP2 DUP3 SWAP2 PUSH1 0xFF AND SWAP1 DUP2 GT ISZERO PUSH2 0xECC JUMPI PUSH2 0xECC PUSH2 0x10B8 JUMP JUMPDEST EQ PUSH2 0xEFE JUMPI PUSH1 0x1 PUSH1 0x1 PUSH1 0xA0 SHL SUB DUP5 AND PUSH1 0x0 SWAP1 DUP2 MSTORE PUSH1 0x2 PUSH1 0x20 DUP2 DUP2 MSTORE PUSH1 0x40 DUP1 DUP5 KECCAK256 SWAP1 SWAP3 ADD SLOAD DUP4 MSTORE PUSH1 0xA SWAP1 MSTORE SWAP1 KECCAK256 SLOAD PUSH2 0xF27 JUMP JUMPDEST PUSH1 0x1 PUSH1 0x1 PUSH1 0xA0 SHL SUB DUP5 AND PUSH1 0x0 SWAP1 DUP2 MSTORE PUSH1 0x2 PUSH1 0x20 DUP2 DUP2 MSTORE PUSH1 0x40 DUP1 DUP5 KECCAK256 SWAP1 SWAP3 ADD SLOAD DUP4 MSTORE PUSH1 0x9 SWAP1 MSTORE SWAP1 KECCAK256 SLOAD JUMPDEST SWAP1 POP DUP1 PUSH1 0x0 SUB PUSH2 0xF3B JUMPI POP PUSH1 0x0 SWAP4 SWAP3 POP POP POP JUMP JUMPDEST PUSH1 0x1 PUSH1 0x1 PUSH1 0xA0 SHL SUB DUP5 AND PUSH1 0x0 SWAP1 DUP2 MSTORE PUSH1 0x2 PUSH1 0x20 MSTORE PUSH1 0x40 SWAP1 KECCAK256 SLOAD DUP2 SWAP1 PUSH2 0xF61 SWAP1 DUP5 SWAP1 PUSH2 0x1263 JUMP JUMPDEST PUSH2 0xF6B SWAP2 SWAP1 PUSH2 0x118F JUMP JUMPDEST SWAP5 SWAP4 POP POP POP POP JUMP JUMPDEST PUSH1 0x0 SLOAD PUSH1 0x1 PUSH1 0x1 PUSH1 0xA0 SHL SUB AND CALLER EQ PUSH2 0x608 JUMPI PUSH1 0x40 MLOAD PUSH3 0x461BCD PUSH1 0xE5 SHL DUP2 MSTORE PUSH1 0x20 PUSH1 0x4 DUP3 ADD DUP2 SWAP1 MSTORE PUSH1 0x24 DUP3 ADD MSTORE PUSH32 0x4F776E61626C653A2063616C6C6572206973206E6F7420746865206F776E6572 PUSH1 0x44 DUP3 ADD MSTORE PUSH1 0x64 ADD PUSH2 0x3DE JUMP JUMPDEST PUSH1 0x0 DUP1 SLOAD PUSH1 0x1 PUSH1 0x1 PUSH1 0xA0 SHL SUB DUP4 DUP2 AND PUSH1 0x1 PUSH1 0x1 PUSH1 0xA0 SHL SUB NOT DUP4 AND DUP2 OR DUP5 SSTORE PUSH1 0x40 MLOAD SWAP2 SWAP1 SWAP3 AND SWAP3 DUP4 SWAP2 PUSH32 0x8BE0079C531659141344CD1FD0A4F28419497F9722A3DAAFE3B4186F6B6457E0 SWAP2 SWAP1 LOG3 POP POP JUMP JUMPDEST PUSH1 0x4 DUP1 SLOAD PUSH1 0x0 SWAP1 DUP2 MSTORE PUSH1 0x8 PUSH1 0x20 SWAP1 DUP2 MSTORE PUSH1 0x40 DUP1 DUP4 KECCAK256 DUP6 SWAP1 SSTORE DUP4 SLOAD DUP4 MSTORE PUSH1 0x9 DUP3 MSTORE DUP1 DUP4 KECCAK256 DUP4 SWAP1 SSTORE SWAP3 SLOAD DUP3 MSTORE PUSH1 0xA SWAP1 MSTORE SWAP1 DUP2 KECCAK256 SSTORE PUSH2 0x1057 PUSH2 0x7B8 JUMP JUMPDEST PUSH1 0x6 DUP2 SWAP1 SSTORE TIMESTAMP PUSH1 0xB DUP2 SWAP1 SSTORE PUSH1 0x4 SLOAD PUSH1 0x40 DUP1 MLOAD SWAP4 DUP5 MSTORE PUSH1 0x20 DUP5 ADD DUP6 SWAP1 MSTORE SWAP2 SWAP3 SWAP1 SWAP2 PUSH32 0x9C968032BABECB64D56238F3B471800F713310C82902367F105EB43FCD35404F SWAP2 ADD PUSH2 0xBCF JUMP JUMPDEST PUSH1 0x0 PUSH1 0x20 DUP3 DUP5 SUB SLT ISZERO PUSH2 0x10B1 JUMPI PUSH1 0x0 DUP1 REVERT JUMPDEST POP CALLDATALOAD SWAP2 SWAP1 POP JUMP JUMPDEST PUSH4 0x4E487B71 PUSH1 0xE0 SHL PUSH1 0x0 MSTORE PUSH1 0x21 PUSH1 0x4 MSTORE PUSH1 0x24 PUSH1 0x0 REVERT JUMPDEST PUSH1 0x2 DUP2 LT PUSH2 0x10EC JUMPI PUSH4 0x4E487B71 PUSH1 0xE0 SHL PUSH1 0x0 MSTORE PUSH1 0x21 PUSH1 0x4 MSTORE PUSH1 0x24 PUSH1 0x0 REVERT JUMPDEST SWAP1 MSTORE JUMP JUMPDEST PUSH1 0x20 DUP2 ADD PUSH2 0x10FE DUP3 DUP5 PUSH2 0x10CE JUMP JUMPDEST SWAP3 SWAP2 POP POP JUMP JUMPDEST PUSH1 0x0 PUSH1 0x20 DUP3 DUP5 SUB SLT ISZERO PUSH2 0x1116 JUMPI PUSH1 0x0 DUP1 REVERT JUMPDEST DUP2 CALLDATALOAD PUSH1 0x2 DUP2 LT PUSH2 0xCBC JUMPI PUSH1 0x0 DUP1 REVERT JUMPDEST PUSH1 0x0 PUSH1 0x20 DUP3 DUP5 SUB SLT ISZERO PUSH2 0x1137 JUMPI PUSH1 0x0 DUP1 REVERT JUMPDEST DUP2 CALLDATALOAD PUSH1 0x1 PUSH1 0x1 PUSH1 0xA0 SHL SUB DUP2 AND DUP2 EQ PUSH2 0xCBC JUMPI PUSH1 0x0 DUP1 REVERT JUMPDEST DUP5 DUP2 MSTORE PUSH1 0x80 DUP2 ADD PUSH2 0x1162 PUSH1 0x20 DUP4 ADD DUP7 PUSH2 0x10CE JUMP JUMPDEST DUP4 PUSH1 0x40 DUP4 ADD MSTORE DUP3 ISZERO ISZERO PUSH1 0x60 DUP4 ADD MSTORE SWAP6 SWAP5 POP POP POP POP POP JUMP JUMPDEST PUSH4 0x4E487B71 PUSH1 0xE0 SHL PUSH1 0x0 MSTORE PUSH1 0x11 PUSH1 0x4 MSTORE PUSH1 0x24 PUSH1 0x0 REVERT JUMPDEST PUSH1 0x0 DUP3 PUSH2 0x11AC JUMPI PUSH4 0x4E487B71 PUSH1 0xE0 SHL PUSH1 0x0 MSTORE PUSH1 0x12 PUSH1 0x4 MSTORE PUSH1 0x24 PUSH1 0x0 REVERT JUMPDEST POP DIV SWAP1 JUMP JUMPDEST PUSH1 0x0 DUP3 NOT DUP3 GT ISZERO PUSH2 0x11C4 JUMPI PUSH2 0x11C4 PUSH2 0x1179 JUMP JUMPDEST POP ADD SWAP1 JUMP JUMPDEST PUSH1 0x0 DUP3 DUP3 LT ISZERO PUSH2 0x11DB JUMPI PUSH2 0x11DB PUSH2 0x1179 JUMP JUMPDEST POP SUB SWAP1 JUMP JUMPDEST DUP1 MLOAD PUSH10 0xFFFFFFFFFFFFFFFFFFFF DUP2 AND DUP2 EQ PUSH2 0x11FA JUMPI PUSH1 0x0 DUP1 REVERT JUMPDEST SWAP2 SWAP1 POP JUMP JUMPDEST PUSH1 0x0 DUP1 PUSH1 0x0 DUP1 PUSH1 0x0 PUSH1 0xA0 DUP7 DUP9 SUB SLT ISZERO PUSH2 0x1217 JUMPI PUSH1 0x0 DUP1 REVERT JUMPDEST PUSH2 0x1220 DUP7 PUSH2 0x11E0 JUMP JUMPDEST SWAP5 POP PUSH1 0x20 DUP7 ADD MLOAD SWAP4 POP PUSH1 0x40 DUP7 ADD MLOAD SWAP3 POP PUSH1 0x60 DUP7 ADD MLOAD SWAP2 POP PUSH2 0x1243 PUSH1 0x80 DUP8 ADD PUSH2 0x11E0 JUMP JUMPDEST SWAP1 POP SWAP3 SWAP6 POP SWAP3 SWAP6 SWAP1 SWAP4 POP JUMP JUMPDEST DUP3 DUP2 MSTORE PUSH1 0x40 DUP2 ADD PUSH2 0xCBC PUSH1 0x20 DUP4 ADD DUP5 PUSH2 0x10CE JUMP JUMPDEST PUSH1 0x0 DUP2 PUSH1 0x0 NOT DIV DUP4 GT DUP3 ISZERO ISZERO AND ISZERO PUSH2 0x127D JUMPI PUSH2 0x127D PUSH2 0x1179 JUMP JUMPDEST POP MUL SWAP1 JUMP INVALID LOG2 PUSH5 0x6970667358 0x22 SLT KECCAK256 0x4C MULMOD SWAP16 STATICCALL SWAP16 0xC6 0xD8 LOG2 GT ISZERO POP 0xCA 0xB3 PUSH21 0x70AB0B7C1030A2A55FC9C27C2C4854E0CCDE64736F PUSH13 0x634300080F0033000000000000 ","sha1":"30ed585d4fe5fe3b9cd34abcf14c6bf9bd505af8","source":"// SPDX-License-Identifier: MIT\npragma solidity ^0.8.7;\n\nimport \"@chainlink/contracts/src/v0.8/interfaces/AggregatorV3Interface.sol\";\nimport \"@openzeppelin/contracts/access/Ownable.sol\";\nimport \"@openzeppelin/contracts/security/ReentrancyGuard.sol\";\n\ncontract BitcoinUpDown is Ownable, ReentrancyGuard {\n    enum UP_DOWN {\n        UP,\n        DOWN\n    }\n    struct Players {\n        uint256 bet;\n        UP_DOWN up_down;\n        uint256 round;\n        bool isExist;\n    }\n    mapping(address => Players) public players_bet;\n    AggregatorV3Interface internal btcUsdPriceFeed;\n    uint256 public round;\n    mapping(uint256 => UP_DOWN) public roundWinner;\n    int256 public price_open;\n    int256 public price_close;\n    mapping(uint256 => uint256) public prize_pool;\n    mapping(uint256 => uint256) public prize_pool_up;\n    mapping(uint256 => uint256) public prize_pool_down;\n    uint256 public ts_start;\n    uint256 private fee;\n    address private dev;\n\n    event eventStartRound(\n        uint256 indexed round,\n        uint256 indexed ts_start,\n        int256 price_open,\n        uint256 seed\n    );\n    event eventBet(\n        uint256 indexed round,\n        address indexed from,\n        uint256 amount,\n        UP_DOWN up_down\n    );\n    event eventEndRound(\n        uint256 indexed round,\n        uint256 indexed ts_close,\n        int256 price_close,\n        uint256 prize_pool,\n        uint256 prize_pool_up,\n        uint256 prize_pool_down\n    );\n    event eventAddToPrizePool(\n        uint256 indexed round,\n        address indexed from,\n        uint256 amount\n    );\n\n    constructor(address _priceFeedAddress) {\n        dev = msg.sender;\n        btcUsdPriceFeed = AggregatorV3Interface(_priceFeedAddress);\n        _startRound(0); // 0 = no seed\n    }\n\n    function getPrice() public view returns (int256) {\n        (, int256 price, , , ) = btcUsdPriceFeed.latestRoundData();\n        return price;\n    }\n\n    function _calculateAmount(address _addr) private view returns (uint256) {\n        // calculate the amount depending of player bet ratio to prizepool and direction\n        uint256 roundPool = prize_pool[players_bet[_addr].round];\n        uint256 betPool = players_bet[_addr].up_down == UP_DOWN.UP\n            ? prize_pool_up[players_bet[_addr].round]\n            : prize_pool_down[players_bet[_addr].round];\n\n        if (betPool == 0) return 0; // Avoid division by zero\n        return (players_bet[_addr].bet * roundPool) / betPool;\n    }\n\n    function getPendingWithdraw(address _addr) public view returns (uint256) {\n        if (players_bet[_addr].isExist == false) {\n            return 0;\n        }\n        if (players_bet[_addr].round == round) {\n            return 0; // Round still going\n        }\n\n        uint256 bet_round = players_bet[_addr].round;\n        if (players_bet[_addr].up_down != roundWinner[bet_round]) {\n            return 0; // Loser\n        }\n        return _calculateAmount(_addr);\n    }\n\n    function _startRound(uint256 seed) private {\n        prize_pool[round] = seed;\n        prize_pool_up[round] = 0;\n        prize_pool_down[round] = 0;\n        price_open = getPrice();\n        ts_start = block.timestamp;\n        emit eventStartRound(round, ts_start, price_open, seed);\n    }\n\n    function addToPrizePool() public payable {\n        require(msg.value > 0, \"Minimum amount to add = 1 wei\");\n        prize_pool[round] += msg.value;\n        emit eventAddToPrizePool(round, msg.sender, msg.value);\n    }\n\n    function bet(UP_DOWN _up_down) public payable {\n        require(msg.value > 0, \"Minimum bet = 1 wei\");\n        require(block.timestamp - ts_start <= 3600, \"Betting closed\");\n\n        if (players_bet[msg.sender].isExist == true) {\n            if (players_bet[msg.sender].round == round) {\n                // Player have aleardy bet this round\n                revert(\"Bet already placed this round\");\n            } else if (\n                players_bet[msg.sender].up_down ==\n                roundWinner[players_bet[msg.sender].round]\n            ) {\n                // Player have pending withdrawal\n                revert(\"Pending withdrawal\");\n            }\n        }\n\n        // if player doesn't exist yet we add the player\n        players_bet[msg.sender].bet = msg.value;\n        players_bet[msg.sender].up_down = _up_down;\n        players_bet[msg.sender].round = round;\n        players_bet[msg.sender].isExist = true;\n\n        // add the amount to the prizpool\n        if (_up_down == UP_DOWN.UP) {\n            prize_pool_up[round] += msg.value;\n        } else {\n            prize_pool_down[round] += msg.value;\n        }\n        prize_pool[round] += msg.value;\n        emit eventBet(round, msg.sender, msg.value, _up_down);\n    }\n\n    function withdraw() public nonReentrant {\n        require(\n            players_bet[msg.sender].isExist == true,\n            \"Player doesn't exist\"\n        );\n        require(players_bet[msg.sender].round < round, \"Round still ongoing\");\n        require(\n            players_bet[msg.sender].up_down ==\n                roundWinner[players_bet[msg.sender].round],\n            \"Not a winner\"\n        );\n        players_bet[msg.sender].isExist = false;\n        // prize_pool up or down\n        uint256 amount = _calculateAmount(msg.sender);\n        (bool sent, ) = msg.sender.call{value: amount}(\"\");\n        require(sent, \"Withdraw failed\"); // dev:withdraw failed\n    }\n\n    function withdrawFee() public nonReentrant {\n        require(fee > 0, \"No fees to withdraw\");\n        (bool sent, ) = dev.call{value: fee}(\"\");\n        require(sent, \"Failed to withdraw fee\"); // dev:withdraw fee failed\n    }\n\n    function endRound() public {\n        /*require(\n            block.timestamp - ts_start >= 1 hours,\n            \"Minimum round duration is 24 hours\"\n        );*/\n        uint256 seed = 0;\n        UP_DOWN up_down;\n        price_close = getPrice();\n\n        // calculate fee\n        uint256 devTax = prize_pool[round] / 100; // 1% dev fee\n        fee += devTax;\n        prize_pool[round] -= devTax;\n\n        // process winners\n        if (price_close >= price_open) {\n            up_down = UP_DOWN.UP;\n            if (prize_pool_up[round] == 0) {\n                // if no player won\n                seed = prize_pool[round];\n            }\n            // UP wins if no price change\n        } else if (price_close < price_open) {\n            up_down = UP_DOWN.DOWN;\n            if (prize_pool_down[round] == 0) {\n                // if no player won\n                seed = prize_pool[round];\n            }\n        }\n\n        roundWinner[round] = up_down;\n\n        emit eventEndRound(\n            round,\n            block.timestamp,\n            price_close,\n            prize_pool[round],\n            prize_pool_up[round],\n            prize_pool_down[round]\n        );\n\n        // Reset variables for new round\n        round += 1;\n        _startRound(seed); // New round\n    }\n}\n","sourcePath":"contracts/BitcoinUpDown.sol","type":"contract","deployment":{"address":"0x730700D063E1195Dbe0f0A2c77DB7dC64fBC165b","chainid":"97","blockHeight":46112417}}