{"abi":[{"inputs":[{"internalType":"address","name":"_priceFeedAddress","type":"address"}],"stateMutability":"nonpayable","type":"constructor","name":"constructor"},{"anonymous":false,"inputs":[{"indexed":true,"internalType":"address","name":"previousOwner","type":"address"},{"indexed":true,"internalType":"address","name":"newOwner","type":"address"}],"name":"OwnershipTransferred","type":"event"},{"anonymous":false,"inputs":[{"indexed":true,"internalType":"address","name":"_from","type":"address"},{"indexed":false,"internalType":"uint256","name":"amount","type":"uint256"},{"indexed":false,"internalType":"enum BitcoinUpDown.UP_DOWN","name":"up_down","type":"uint8"}],"name":"eventBet","type":"event"},{"inputs":[],"name":"addGas","outputs":[],"stateMutability":"payable","type":"function"},{"inputs":[{"internalType":"uint256","name":"","type":"uint256"}],"name":"bears","outputs":[{"internalType":"address payable","name":"","type":"address"}],"stateMutability":"view","type":"function"},{"inputs":[{"internalType":"enum BitcoinUpDown.UP_DOWN","name":"_up_down","type":"uint8"}],"name":"bet","outputs":[],"stateMutability":"payable","type":"function"},{"inputs":[],"name":"betting_state","outputs":[{"internalType":"enum BitcoinUpDown.BETTING_STATE","name":"","type":"uint8"}],"stateMutability":"view","type":"function"},{"inputs":[{"internalType":"uint256","name":"","type":"uint256"}],"name":"bulls","outputs":[{"internalType":"address payable","name":"","type":"address"}],"stateMutability":"view","type":"function"},{"inputs":[],"name":"declareWinners","outputs":[],"stateMutability":"nonpayable","type":"function"},{"inputs":[],"name":"endBet","outputs":[],"stateMutability":"nonpayable","type":"function"},{"inputs":[],"name":"getBearsCount","outputs":[{"internalType":"uint256","name":"","type":"uint256"}],"stateMutability":"view","type":"function"},{"inputs":[],"name":"getBullsCount","outputs":[{"internalType":"uint256","name":"","type":"uint256"}],"stateMutability":"view","type":"function"},{"inputs":[],"name":"getPlayersCount","outputs":[{"internalType":"uint256","name":"","type":"uint256"}],"stateMutability":"view","type":"function"},{"inputs":[],"name":"getPrice","outputs":[{"internalType":"int256","name":"","type":"int256"}],"stateMutability":"view","type":"function"},{"inputs":[],"name":"owner","outputs":[{"internalType":"address","name":"","type":"address"}],"stateMutability":"view","type":"function"},{"inputs":[],"name":"payHouse","outputs":[],"stateMutability":"nonpayable","type":"function"},{"inputs":[],"name":"percent","outputs":[{"internalType":"uint256","name":"","type":"uint256"}],"stateMutability":"view","type":"function"},{"inputs":[{"internalType":"uint256","name":"","type":"uint256"}],"name":"players","outputs":[{"internalType":"address payable","name":"","type":"address"}],"stateMutability":"view","type":"function"},{"inputs":[{"internalType":"address","name":"","type":"address"}],"name":"players_bet","outputs":[{"internalType":"uint256","name":"bet","type":"uint256"},{"internalType":"bool","name":"isExist","type":"bool"}],"stateMutability":"view","type":"function"},{"inputs":[{"internalType":"address","name":"","type":"address"}],"name":"players_bet_down","outputs":[{"internalType":"uint256","name":"bet","type":"uint256"},{"internalType":"bool","name":"isExist","type":"bool"}],"stateMutability":"view","type":"function"},{"inputs":[{"internalType":"address","name":"","type":"address"}],"name":"players_bet_up","outputs":[{"internalType":"uint256","name":"bet","type":"uint256"},{"internalType":"bool","name":"isExist","type":"bool"}],"stateMutability":"view","type":"function"},{"inputs":[],"name":"price_close","outputs":[{"internalType":"int256","name":"","type":"int256"}],"stateMutability":"view","type":"function"},{"inputs":[],"name":"price_open","outputs":[{"internalType":"int256","name":"","type":"int256"}],"stateMutability":"view","type":"function"},{"inputs":[],"name":"prize_pool","outputs":[{"internalType":"uint256","name":"","type":"uint256"}],"stateMutability":"view","type":"function"},{"inputs":[],"name":"prize_pool_down","outputs":[{"internalType":"uint256","name":"","type":"uint256"}],"stateMutability":"view","type":"function"},{"inputs":[],"name":"prize_pool_up","outputs":[{"internalType":"uint256","name":"","type":"uint256"}],"stateMutability":"view","type":"function"},{"inputs":[],"name":"renounceOwnership","outputs":[],"stateMutability":"nonpayable","type":"function"},{"inputs":[],"name":"startBet","outputs":[],"stateMutability":"nonpayable","type":"function"},{"inputs":[],"name":"total_winners","outputs":[{"internalType":"uint256","name":"","type":"uint256"}],"stateMutability":"view","type":"function"},{"inputs":[{"internalType":"address","name":"newOwner","type":"address"}],"name":"transferOwnership","outputs":[],"stateMutability":"nonpayable","type":"function"},{"inputs":[],"name":"ts_start","outputs":[{"internalType":"uint256","name":"","type":"uint256"}],"stateMutability":"view","type":"function"}],"bytecode":"608060405234801561001057600080fd5b5060405161152438038061152483398101604081905261002f916100c9565b61003833610079565b60018054336001600160a01b0319909116179055600880546001600160a01b03929092166001600160a81b031990921691909117600160a01b1790556100f9565b600080546001600160a01b038381166001600160a01b0319831681178455604051919092169283917f8be0079c531659141344cd1fd0a4f28419497f9722a3daafe3b4186f6b6457e09190a35050565b6000602082840312156100db57600080fd5b81516001600160a01b03811681146100f257600080fd5b9392505050565b61141c806101086000396000f3fe6080604052600436106101b75760003560e01c80639ada30ac116100ec578063d06da2cb1161008a578063e3380d6911610064578063e3380d691461046b578063f2fde38b146104a2578063f71d96cb146104c2578063fa6776db146104e257600080fd5b8063d06da2cb1461042e578063d0821b0e14610443578063d1c08b401461045657600080fd5b8063b23f9340116100c6578063b23f9340146103b4578063b4231563146103ca578063bc42408f146103ea578063c11d66161461041857600080fd5b80639ada30ac14610375578063a76594bf1461038a578063b1418cf41461039f57600080fd5b80636ec11f0b1161015957806375b01b8f1161013357806375b01b8f1461032457806386ac90d51461032c5780638da5cb5b1461034257806398d5fdca1461036057600080fd5b80636ec11f0b146102e157806370ba1113146102f7578063715018a61461030d57600080fd5b806334ef42421161019557806334ef42421461026957806339a8252e1461027f57806343e2a4ae146102945780634695517b146102aa57600080fd5b80631a81ff2e146101bc578063282e0eb81461020d57806330b772f814610245575b600080fd5b3480156101c857600080fd5b506101f36101d73660046111be565b6006602052600090815260409020805460019091015460ff1682565b604080519283529015156020830152015b60405180910390f35b34801561021957600080fd5b5061022d6102283660046111ee565b6104f7565b6040516001600160a01b039091168152602001610204565b34801561025157600080fd5b5061025b600c5481565b604051908152602001610204565b34801561027557600080fd5b5061025b60095481565b34801561028b57600080fd5b5060045461025b565b3480156102a057600080fd5b5061025b60105481565b3480156102b657600080fd5b506101f36102c53660046111be565b6005602052600090815260409020805460019091015460ff1682565b3480156102ed57600080fd5b5061025b600a5481565b34801561030357600080fd5b5061025b600f5481565b34801561031957600080fd5b50610322610521565b005b610322610535565b34801561033857600080fd5b5061025b600e5481565b34801561034e57600080fd5b506000546001600160a01b031661022d565b34801561036c57600080fd5b5061025b610542565b34801561038157600080fd5b506103226105d8565b34801561039657600080fd5b5060025461025b565b3480156103ab57600080fd5b50610322610668565b3480156103c057600080fd5b5061025b600b5481565b3480156103d657600080fd5b5061022d6103e53660046111ee565b6106ac565b3480156103f657600080fd5b5060085461040b90600160a01b900460ff1681565b604051610204919061123b565b34801561042457600080fd5b5061025b600d5481565b34801561043a57600080fd5b506103226106bc565b61032261045136600461124e565b6109e9565b34801561046257600080fd5b5060035461025b565b34801561047757600080fd5b506101f36104863660046111be565b6007602052600090815260409020805460019091015460ff1682565b3480156104ae57600080fd5b506103226104bd3660046111be565b610da8565b3480156104ce57600080fd5b5061022d6104dd3660046111ee565b610e1e565b3480156104ee57600080fd5b50610322610e2e565b6003818154811061050757600080fd5b6000918252602090912001546001600160a01b0316905081565b610529610ec3565b6105336000610f1d565b565b6000341161053357600080fd5b600080600860009054906101000a90046001600160a01b03166001600160a01b031663feaf968c6040518163ffffffff1660e01b815260040160a060405180830381865afa158015610598573d6000803e3d6000fd5b505050506040513d601f19601f820116820180604052508101906105bc919061128e565b5050509150506305f5e100816105d2919061130a565b91505090565b6105e0610ec3565b6000600854600160a01b900460ff16600181111561060057610600611207565b1461064b5760405162461bcd60e51b815260206004820152601660248201527510995d1d1a5b99c8185b19585c991e4818db1bdcd95960521b60448201526064015b60405180910390fd5b600880546001919060ff60a01b1916600160a01b835b0217905550565b610670610ec3565b6001546040516001600160a01b03909116904780156108fc02916000818181858888f193505050501580156106a9573d6000803e3d6000fd5b50565b6004818154811061050757600080fd5b6106c4610ec3565b6001600854600160a01b900460ff1660018111156106e4576106e4611207565b146107265760405162461bcd60e51b81526020600482015260126024820152712132ba3a34b7339039ba34b6361037b832b760711b6044820152606401610642565b61072e610542565b600a55600b54600090606490610745906002611338565b61074f9190611357565b905080600b6000828254610763919061136b565b9091555050600954600a54126108a65760005b6003548110156108a057600c54600560006003848154811061079a5761079a611382565b60009182526020808320909101546001600160a01b031683528201929092526040019020546107ca906064611338565b6107d49190611357565b600f81905550600060056000600384815481106107f3576107f3611382565b60009182526020808320909101546001600160a01b03168352820192909252604001902055600380548290811061082c5761082c611382565b600091825260209091200154600b54600f546001600160a01b03909216916108fc9160649161085b9190611338565b6108659190611357565b6040518115909202916000818181858888f1935050505015801561088d573d6000803e3d6000fd5b508061089881611398565b915050610776565b506109e1565b600954600a5412156109e15760005b6004548110156109df57600c5460066000600484815481106108d9576108d9611382565b60009182526020808320909101546001600160a01b03168352820192909252604001902054610909906064611338565b6109139190611357565b600f819055506000600660006004848154811061093257610932611382565b60009182526020808320909101546001600160a01b03168352820192909252604001902055600480548290811061096b5761096b611382565b600091825260209091200154600b54600f546001600160a01b03909216916108fc9160649161099a9190611338565b6109a49190611357565b6040518115909202916000818181858888f193505050501580156109cc573d6000803e3d6000fd5b50806109d781611398565b9150506108b5565b505b6106a9610f6d565b6000600854600160a01b900460ff166001811115610a0957610a09611207565b14610a475760405162461bcd60e51b815260206004820152600e60248201526d10995d1d1a5b99c818db1bdcd95960921b6044820152606401610642565b66038d7ea4c68000341015610a9e5760405162461bcd60e51b815260206004820152601b60248201527f4d696e696d756d20626574203d20302e303031207e302e3236352400000000006044820152606401610642565b610e1060105442610aaf919061136b565b1115610af65760405162461bcd60e51b815260206004820152601660248201527513585e080c481a1bdd5c8818599d195c881cdd185c9d60521b6044820152606401610642565b3360009081526007602052604081208054349290610b159084906113b1565b90915550503360009081526007602052604081206001015460ff1615159003610bad576002805460018181019092557f405787fa12a823e0f2b7631cc41b3ba8828b3321ca811111fa75cd3aa3bb5ace0180546001600160a01b031916339081179091556000908152600760205260408120808301805460ff1916909317909255815434929190610ba79084906113b1565b90915550505b6000816001811115610bc157610bc1611207565b03610c82573360009081526005602052604081208054349290610be59084906113b1565b90915550503360009081526005602052604081206001015460ff1615159003610c65576003805460018181019092557fc2575a0e9e593c00f959f8c92f12db2869c3395a3b0502d05e2516446f71f85b0180546001600160a01b0319163390811790915560009081526005602052604090208101805460ff191690911790555b34600c6000828254610c7791906113b1565b90915550610d529050565b6001816001811115610c9657610c96611207565b03610d52573360009081526006602052604081208054349290610cba9084906113b1565b90915550503360009081526006602052604081206001015460ff1615159003610d3a576004805460018181019092557f8a35acfbc15ff81a39ae7d344fd709f28e8600b4aa8c65c6b64bfe7fe36bd19b0180546001600160a01b0319163390811790915560009081526006602052604090208101805460ff191690911790555b34600d6000828254610d4c91906113b1565b90915550505b34600b6000828254610d6491906113b1565b909155505060405133907fa67a178e8534a0a872d9d8098150d83aeae31eae23625a1144ab570cd1a3e37690610d9d90349085906113c9565b60405180910390a250565b610db0610ec3565b6001600160a01b038116610e155760405162461bcd60e51b815260206004820152602660248201527f4f776e61626c653a206e6577206f776e657220697320746865207a65726f206160448201526564647265737360d01b6064820152608401610642565b6106a981610f1d565b6002818154811061050757600080fd5b610e36610ec3565b6001600854600160a01b900460ff166001811115610e5657610e56611207565b14610e9a5760405162461bcd60e51b81526020600482015260146024820152732132ba3a34b7339030b632b0b9323c9037b832b760611b6044820152606401610642565b610ea2610542565b60095542601055600880546000919060ff60a01b1916600160a01b83610661565b6000546001600160a01b031633146105335760405162461bcd60e51b815260206004820181905260248201527f4f776e61626c653a2063616c6c6572206973206e6f7420746865206f776e65726044820152606401610642565b600080546001600160a01b038381166001600160a01b0319831681178455604051919092169283917f8be0079c531659141344cd1fd0a4f28419497f9722a3daafe3b4186f6b6457e09190a35050565b60005b60045481101561101d5760006006600060048481548110610f9357610f93611382565b60009182526020808320909101546001600160a01b0316835282019290925260400181209190915560048054600691839185908110610fd457610fd4611382565b6000918252602080832091909101546001600160a01b031683528201929092526040019020600101805460ff19169115159190911790558061101581611398565b915050610f70565b5060005b6003548110156110ce576000600560006003848154811061104457611044611382565b60009182526020808320909101546001600160a01b031683528201929092526040018120919091556003805460059183918590811061108557611085611382565b6000918252602080832091909101546001600160a01b031683528201929092526040019020600101805460ff1916911515919091179055806110c681611398565b915050611021565b5060408051600081526020810191829052516110ec91600291611144565b50604080516000815260208101918290525161110a91600391611144565b50604080516000815260208101918290525161112891600491611144565b506000600b819055600c819055600d8190556009819055601055565b828054828255906000526020600020908101928215611199579160200282015b8281111561119957825182546001600160a01b0319166001600160a01b03909116178255602090920191600190910190611164565b506111a59291506111a9565b5090565b5b808211156111a557600081556001016111aa565b6000602082840312156111d057600080fd5b81356001600160a01b03811681146111e757600080fd5b9392505050565b60006020828403121561120057600080fd5b5035919050565b634e487b7160e01b600052602160045260246000fd5b600281106106a957634e487b7160e01b600052602160045260246000fd5b602081016112488361121d565b91905290565b60006020828403121561126057600080fd5b8135600281106111e757600080fd5b805169ffffffffffffffffffff8116811461128957600080fd5b919050565b600080600080600060a086880312156112a657600080fd5b6112af8661126f565b94506020860151935060408601519250606086015191506112d26080870161126f565b90509295509295909350565b634e487b7160e01b600052601260045260246000fd5b634e487b7160e01b600052601160045260246000fd5b600082611319576113196112de565b600160ff1b821460001984141615611333576113336112f4565b500590565b6000816000190483118215151615611352576113526112f4565b500290565b600082611366576113666112de565b500490565b60008282101561137d5761137d6112f4565b500390565b634e487b7160e01b600052603260045260246000fd5b6000600182016113aa576113aa6112f4565b5060010190565b600082198211156113c4576113c46112f4565b500190565b828152604081016113d98361121d565b826020830152939250505056fea264697066735822122091aa568c24ba0e4f66a37adcf5bb671982d67effe2babea0abc7259a1d6aed6064736f6c634300080f0033","bytecodeSha1":"2c8973dfcd2ce1169182ac882574bbbcd1fcdb14","compiler":{"evm_version":"istanbul","optimizer":{"enabled":true,"runs":200},"version":"0.8.15+commit.e14f2714"},"contractName":"BitcoinUpDown","language":"Solidity","natspec":{"kind":"dev","methods":{"owner()":{"details":"Returns the address of the current owner."},"renounceOwnership()":{"details":"Leaves the contract without owner. It will not be possible to call `onlyOwner` functions anymore. Can only be called by the current owner. NOTE: Renouncing ownership will leave the contract without an owner, thereby removing any functionality that is only available to the owner."},"transferOwnership(address)":{"details":"Transfers ownership of the contract to a new account (`newOwner`). Can only be called by the current owner."}},"version":1},"opcodes":"PUSH1 0x80 PUSH1 0x40 MSTORE PUSH1 0x4 CALLDATASIZE LT PUSH2 0x1B7 JUMPI PUSH1 0x0 CALLDATALOAD PUSH1 0xE0 SHR DUP1 PUSH4 0x9ADA30AC GT PUSH2 0xEC JUMPI DUP1 PUSH4 0xD06DA2CB GT PUSH2 0x8A JUMPI DUP1 PUSH4 0xE3380D69 GT PUSH2 0x64 JUMPI DUP1 PUSH4 0xE3380D69 EQ PUSH2 0x46B JUMPI DUP1 PUSH4 0xF2FDE38B EQ PUSH2 0x4A2 JUMPI DUP1 PUSH4 0xF71D96CB EQ PUSH2 0x4C2 JUMPI DUP1 PUSH4 0xFA6776DB EQ PUSH2 0x4E2 JUMPI PUSH1 0x0 DUP1 REVERT JUMPDEST DUP1 PUSH4 0xD06DA2CB EQ PUSH2 0x42E JUMPI DUP1 PUSH4 0xD0821B0E EQ PUSH2 0x443 JUMPI DUP1 PUSH4 0xD1C08B40 EQ PUSH2 0x456 JUMPI PUSH1 0x0 DUP1 REVERT JUMPDEST DUP1 PUSH4 0xB23F9340 GT PUSH2 0xC6 JUMPI DUP1 PUSH4 0xB23F9340 EQ PUSH2 0x3B4 JUMPI DUP1 PUSH4 0xB4231563 EQ PUSH2 0x3CA JUMPI DUP1 PUSH4 0xBC42408F EQ PUSH2 0x3EA JUMPI DUP1 PUSH4 0xC11D6616 EQ PUSH2 0x418 JUMPI PUSH1 0x0 DUP1 REVERT JUMPDEST DUP1 PUSH4 0x9ADA30AC EQ PUSH2 0x375 JUMPI DUP1 PUSH4 0xA76594BF EQ PUSH2 0x38A JUMPI DUP1 PUSH4 0xB1418CF4 EQ PUSH2 0x39F JUMPI PUSH1 0x0 DUP1 REVERT JUMPDEST DUP1 PUSH4 0x6EC11F0B GT PUSH2 0x159 JUMPI DUP1 PUSH4 0x75B01B8F GT PUSH2 0x133 JUMPI DUP1 PUSH4 0x75B01B8F EQ PUSH2 0x324 JUMPI DUP1 PUSH4 0x86AC90D5 EQ PUSH2 0x32C JUMPI DUP1 PUSH4 0x8DA5CB5B EQ PUSH2 0x342 JUMPI DUP1 PUSH4 0x98D5FDCA EQ PUSH2 0x360 JUMPI PUSH1 0x0 DUP1 REVERT JUMPDEST DUP1 PUSH4 0x6EC11F0B EQ PUSH2 0x2E1 JUMPI DUP1 PUSH4 0x70BA1113 EQ PUSH2 0x2F7 JUMPI DUP1 PUSH4 0x715018A6 EQ PUSH2 0x30D JUMPI PUSH1 0x0 DUP1 REVERT JUMPDEST DUP1 PUSH4 0x34EF4242 GT PUSH2 0x195 JUMPI DUP1 PUSH4 0x34EF4242 EQ PUSH2 0x269 JUMPI DUP1 PUSH4 0x39A8252E EQ PUSH2 0x27F JUMPI DUP1 PUSH4 0x43E2A4AE EQ PUSH2 0x294 JUMPI DUP1 PUSH4 0x4695517B EQ PUSH2 0x2AA JUMPI PUSH1 0x0 DUP1 REVERT JUMPDEST DUP1 PUSH4 0x1A81FF2E EQ PUSH2 0x1BC JUMPI DUP1 PUSH4 0x282E0EB8 EQ PUSH2 0x20D JUMPI DUP1 PUSH4 0x30B772F8 EQ PUSH2 0x245 JUMPI JUMPDEST PUSH1 0x0 DUP1 REVERT JUMPDEST CALLVALUE DUP1 ISZERO PUSH2 0x1C8 JUMPI PUSH1 0x0 DUP1 REVERT JUMPDEST POP PUSH2 0x1F3 PUSH2 0x1D7 CALLDATASIZE PUSH1 0x4 PUSH2 0x11BE JUMP JUMPDEST PUSH1 0x6 PUSH1 0x20 MSTORE PUSH1 0x0 SWAP1 DUP2 MSTORE PUSH1 0x40 SWAP1 KECCAK256 DUP1 SLOAD PUSH1 0x1 SWAP1 SWAP2 ADD SLOAD PUSH1 0xFF AND DUP3 JUMP JUMPDEST PUSH1 0x40 DUP1 MLOAD SWAP3 DUP4 MSTORE SWAP1 ISZERO ISZERO PUSH1 0x20 DUP4 ADD MSTORE ADD JUMPDEST PUSH1 0x40 MLOAD DUP1 SWAP2 SUB SWAP1 RETURN JUMPDEST CALLVALUE DUP1 ISZERO PUSH2 0x219 JUMPI PUSH1 0x0 DUP1 REVERT JUMPDEST POP PUSH2 0x22D PUSH2 0x228 CALLDATASIZE PUSH1 0x4 PUSH2 0x11EE JUMP JUMPDEST PUSH2 0x4F7 JUMP JUMPDEST PUSH1 0x40 MLOAD PUSH1 0x1 PUSH1 0x1 PUSH1 0xA0 SHL SUB SWAP1 SWAP2 AND DUP2 MSTORE PUSH1 0x20 ADD PUSH2 0x204 JUMP JUMPDEST CALLVALUE DUP1 ISZERO PUSH2 0x251 JUMPI PUSH1 0x0 DUP1 REVERT JUMPDEST POP PUSH2 0x25B PUSH1 0xC SLOAD DUP2 JUMP JUMPDEST PUSH1 0x40 MLOAD SWAP1 DUP2 MSTORE PUSH1 0x20 ADD PUSH2 0x204 JUMP JUMPDEST CALLVALUE DUP1 ISZERO PUSH2 0x275 JUMPI PUSH1 0x0 DUP1 REVERT JUMPDEST POP PUSH2 0x25B PUSH1 0x9 SLOAD DUP2 JUMP JUMPDEST CALLVALUE DUP1 ISZERO PUSH2 0x28B JUMPI PUSH1 0x0 DUP1 REVERT JUMPDEST POP PUSH1 0x4 SLOAD PUSH2 0x25B JUMP JUMPDEST CALLVALUE DUP1 ISZERO PUSH2 0x2A0 JUMPI PUSH1 0x0 DUP1 REVERT JUMPDEST POP PUSH2 0x25B PUSH1 0x10 SLOAD DUP2 JUMP JUMPDEST CALLVALUE DUP1 ISZERO PUSH2 0x2B6 JUMPI PUSH1 0x0 DUP1 REVERT JUMPDEST POP PUSH2 0x1F3 PUSH2 0x2C5 CALLDATASIZE PUSH1 0x4 PUSH2 0x11BE JUMP JUMPDEST PUSH1 0x5 PUSH1 0x20 MSTORE PUSH1 0x0 SWAP1 DUP2 MSTORE PUSH1 0x40 SWAP1 KECCAK256 DUP1 SLOAD PUSH1 0x1 SWAP1 SWAP2 ADD SLOAD PUSH1 0xFF AND DUP3 JUMP JUMPDEST CALLVALUE DUP1 ISZERO PUSH2 0x2ED JUMPI PUSH1 0x0 DUP1 REVERT JUMPDEST POP PUSH2 0x25B PUSH1 0xA SLOAD DUP2 JUMP JUMPDEST CALLVALUE DUP1 ISZERO PUSH2 0x303 JUMPI PUSH1 0x0 DUP1 REVERT JUMPDEST POP PUSH2 0x25B PUSH1 0xF SLOAD DUP2 JUMP JUMPDEST CALLVALUE DUP1 ISZERO PUSH2 0x319 JUMPI PUSH1 0x0 DUP1 REVERT JUMPDEST POP PUSH2 0x322 PUSH2 0x521 JUMP JUMPDEST STOP JUMPDEST PUSH2 0x322 PUSH2 0x535 JUMP JUMPDEST CALLVALUE DUP1 ISZERO PUSH2 0x338 JUMPI PUSH1 0x0 DUP1 REVERT JUMPDEST POP PUSH2 0x25B PUSH1 0xE SLOAD DUP2 JUMP JUMPDEST CALLVALUE DUP1 ISZERO PUSH2 0x34E JUMPI PUSH1 0x0 DUP1 REVERT JUMPDEST POP PUSH1 0x0 SLOAD PUSH1 0x1 PUSH1 0x1 PUSH1 0xA0 SHL SUB AND PUSH2 0x22D JUMP JUMPDEST CALLVALUE DUP1 ISZERO PUSH2 0x36C JUMPI PUSH1 0x0 DUP1 REVERT JUMPDEST POP PUSH2 0x25B PUSH2 0x542 JUMP JUMPDEST CALLVALUE DUP1 ISZERO PUSH2 0x381 JUMPI PUSH1 0x0 DUP1 REVERT JUMPDEST POP PUSH2 0x322 PUSH2 0x5D8 JUMP JUMPDEST CALLVALUE DUP1 ISZERO PUSH2 0x396 JUMPI PUSH1 0x0 DUP1 REVERT JUMPDEST POP PUSH1 0x2 SLOAD PUSH2 0x25B JUMP JUMPDEST CALLVALUE DUP1 ISZERO PUSH2 0x3AB JUMPI PUSH1 0x0 DUP1 REVERT JUMPDEST POP PUSH2 0x322 PUSH2 0x668 JUMP JUMPDEST CALLVALUE DUP1 ISZERO PUSH2 0x3C0 JUMPI PUSH1 0x0 DUP1 REVERT JUMPDEST POP PUSH2 0x25B PUSH1 0xB SLOAD DUP2 JUMP JUMPDEST CALLVALUE DUP1 ISZERO PUSH2 0x3D6 JUMPI PUSH1 0x0 DUP1 REVERT JUMPDEST POP PUSH2 0x22D PUSH2 0x3E5 CALLDATASIZE PUSH1 0x4 PUSH2 0x11EE JUMP JUMPDEST PUSH2 0x6AC JUMP JUMPDEST CALLVALUE DUP1 ISZERO PUSH2 0x3F6 JUMPI PUSH1 0x0 DUP1 REVERT JUMPDEST POP PUSH1 0x8 SLOAD PUSH2 0x40B SWAP1 PUSH1 0x1 PUSH1 0xA0 SHL SWAP1 DIV PUSH1 0xFF AND DUP2 JUMP JUMPDEST PUSH1 0x40 MLOAD PUSH2 0x204 SWAP2 SWAP1 PUSH2 0x123B JUMP JUMPDEST CALLVALUE DUP1 ISZERO PUSH2 0x424 JUMPI PUSH1 0x0 DUP1 REVERT JUMPDEST POP PUSH2 0x25B PUSH1 0xD SLOAD DUP2 JUMP JUMPDEST CALLVALUE DUP1 ISZERO PUSH2 0x43A JUMPI PUSH1 0x0 DUP1 REVERT JUMPDEST POP PUSH2 0x322 PUSH2 0x6BC JUMP JUMPDEST PUSH2 0x322 PUSH2 0x451 CALLDATASIZE PUSH1 0x4 PUSH2 0x124E JUMP JUMPDEST PUSH2 0x9E9 JUMP JUMPDEST CALLVALUE DUP1 ISZERO PUSH2 0x462 JUMPI PUSH1 0x0 DUP1 REVERT JUMPDEST POP PUSH1 0x3 SLOAD PUSH2 0x25B JUMP JUMPDEST CALLVALUE DUP1 ISZERO PUSH2 0x477 JUMPI PUSH1 0x0 DUP1 REVERT JUMPDEST POP PUSH2 0x1F3 PUSH2 0x486 CALLDATASIZE PUSH1 0x4 PUSH2 0x11BE JUMP JUMPDEST PUSH1 0x7 PUSH1 0x20 MSTORE PUSH1 0x0 SWAP1 DUP2 MSTORE PUSH1 0x40 SWAP1 KECCAK256 DUP1 SLOAD PUSH1 0x1 SWAP1 SWAP2 ADD SLOAD PUSH1 0xFF AND DUP3 JUMP JUMPDEST CALLVALUE DUP1 ISZERO PUSH2 0x4AE JUMPI PUSH1 0x0 DUP1 REVERT JUMPDEST POP PUSH2 0x322 PUSH2 0x4BD CALLDATASIZE PUSH1 0x4 PUSH2 0x11BE JUMP JUMPDEST PUSH2 0xDA8 JUMP JUMPDEST CALLVALUE DUP1 ISZERO PUSH2 0x4CE JUMPI PUSH1 0x0 DUP1 REVERT JUMPDEST POP PUSH2 0x22D PUSH2 0x4DD CALLDATASIZE PUSH1 0x4 PUSH2 0x11EE JUMP JUMPDEST PUSH2 0xE1E JUMP JUMPDEST CALLVALUE DUP1 ISZERO PUSH2 0x4EE JUMPI PUSH1 0x0 DUP1 REVERT JUMPDEST POP PUSH2 0x322 PUSH2 0xE2E JUMP JUMPDEST PUSH1 0x3 DUP2 DUP2 SLOAD DUP2 LT PUSH2 0x507 JUMPI PUSH1 0x0 DUP1 REVERT JUMPDEST PUSH1 0x0 SWAP2 DUP3 MSTORE PUSH1 0x20 SWAP1 SWAP2 KECCAK256 ADD SLOAD PUSH1 0x1 PUSH1 0x1 PUSH1 0xA0 SHL SUB AND SWAP1 POP DUP2 JUMP JUMPDEST PUSH2 0x529 PUSH2 0xEC3 JUMP JUMPDEST PUSH2 0x533 PUSH1 0x0 PUSH2 0xF1D JUMP JUMPDEST JUMP JUMPDEST PUSH1 0x0 CALLVALUE GT PUSH2 0x533 JUMPI PUSH1 0x0 DUP1 REVERT JUMPDEST PUSH1 0x0 DUP1 PUSH1 0x8 PUSH1 0x0 SWAP1 SLOAD SWAP1 PUSH2 0x100 EXP SWAP1 DIV PUSH1 0x1 PUSH1 0x1 PUSH1 0xA0 SHL SUB AND PUSH1 0x1 PUSH1 0x1 PUSH1 0xA0 SHL SUB AND PUSH4 0xFEAF968C PUSH1 0x40 MLOAD DUP2 PUSH4 0xFFFFFFFF AND PUSH1 0xE0 SHL DUP2 MSTORE PUSH1 0x4 ADD PUSH1 0xA0 PUSH1 0x40 MLOAD DUP1 DUP4 SUB DUP2 DUP7 GAS STATICCALL ISZERO DUP1 ISZERO PUSH2 0x598 JUMPI RETURNDATASIZE PUSH1 0x0 DUP1 RETURNDATACOPY RETURNDATASIZE PUSH1 0x0 REVERT JUMPDEST POP POP POP POP PUSH1 0x40 MLOAD RETURNDATASIZE PUSH1 0x1F NOT PUSH1 0x1F DUP3 ADD AND DUP3 ADD DUP1 PUSH1 0x40 MSTORE POP DUP2 ADD SWAP1 PUSH2 0x5BC SWAP2 SWAP1 PUSH2 0x128E JUMP JUMPDEST POP POP POP SWAP2 POP POP PUSH4 0x5F5E100 DUP2 PUSH2 0x5D2 SWAP2 SWAP1 PUSH2 0x130A JUMP JUMPDEST SWAP2 POP POP SWAP1 JUMP JUMPDEST PUSH2 0x5E0 PUSH2 0xEC3 JUMP JUMPDEST PUSH1 0x0 PUSH1 0x8 SLOAD PUSH1 0x1 PUSH1 0xA0 SHL SWAP1 DIV PUSH1 0xFF AND PUSH1 0x1 DUP2 GT ISZERO PUSH2 0x600 JUMPI PUSH2 0x600 PUSH2 0x1207 JUMP JUMPDEST EQ PUSH2 0x64B JUMPI PUSH1 0x40 MLOAD PUSH3 0x461BCD PUSH1 0xE5 SHL DUP2 MSTORE PUSH1 0x20 PUSH1 0x4 DUP3 ADD MSTORE PUSH1 0x16 PUSH1 0x24 DUP3 ADD MSTORE PUSH22 0x10995D1D1A5B99C8185B19585C991E4818DB1BDCD959 PUSH1 0x52 SHL PUSH1 0x44 DUP3 ADD MSTORE PUSH1 0x64 ADD JUMPDEST PUSH1 0x40 MLOAD DUP1 SWAP2 SUB SWAP1 REVERT JUMPDEST PUSH1 0x8 DUP1 SLOAD PUSH1 0x1 SWAP2 SWAP1 PUSH1 0xFF PUSH1 0xA0 SHL NOT AND PUSH1 0x1 PUSH1 0xA0 SHL DUP4 JUMPDEST MUL OR SWAP1 SSTORE POP JUMP JUMPDEST PUSH2 0x670 PUSH2 0xEC3 JUMP JUMPDEST PUSH1 0x1 SLOAD PUSH1 0x40 MLOAD PUSH1 0x1 PUSH1 0x1 PUSH1 0xA0 SHL SUB SWAP1 SWAP2 AND SWAP1 SELFBALANCE DUP1 ISZERO PUSH2 0x8FC MUL SWAP2 PUSH1 0x0 DUP2 DUP2 DUP2 DUP6 DUP9 DUP9 CALL SWAP4 POP POP POP POP ISZERO DUP1 ISZERO PUSH2 0x6A9 JUMPI RETURNDATASIZE PUSH1 0x0 DUP1 RETURNDATACOPY RETURNDATASIZE PUSH1 0x0 REVERT JUMPDEST POP JUMP JUMPDEST PUSH1 0x4 DUP2 DUP2 SLOAD DUP2 LT PUSH2 0x507 JUMPI PUSH1 0x0 DUP1 REVERT JUMPDEST PUSH2 0x6C4 PUSH2 0xEC3 JUMP JUMPDEST PUSH1 0x1 PUSH1 0x8 SLOAD PUSH1 0x1 PUSH1 0xA0 SHL SWAP1 DIV PUSH1 0xFF AND PUSH1 0x1 DUP2 GT ISZERO PUSH2 0x6E4 JUMPI PUSH2 0x6E4 PUSH2 0x1207 JUMP JUMPDEST EQ PUSH2 0x726 JUMPI PUSH1 0x40 MLOAD PUSH3 0x461BCD PUSH1 0xE5 SHL DUP2 MSTORE PUSH1 0x20 PUSH1 0x4 DUP3 ADD MSTORE PUSH1 0x12 PUSH1 0x24 DUP3 ADD MSTORE PUSH18 0x2132BA3A34B7339039BA34B6361037B832B7 PUSH1 0x71 SHL PUSH1 0x44 DUP3 ADD MSTORE PUSH1 0x64 ADD PUSH2 0x642 JUMP JUMPDEST PUSH2 0x72E PUSH2 0x542 JUMP JUMPDEST PUSH1 0xA SSTORE PUSH1 0xB SLOAD PUSH1 0x0 SWAP1 PUSH1 0x64 SWAP1 PUSH2 0x745 SWAP1 PUSH1 0x2 PUSH2 0x1338 JUMP JUMPDEST PUSH2 0x74F SWAP2 SWAP1 PUSH2 0x1357 JUMP JUMPDEST SWAP1 POP DUP1 PUSH1 0xB PUSH1 0x0 DUP3 DUP3 SLOAD PUSH2 0x763 SWAP2 SWAP1 PUSH2 0x136B JUMP JUMPDEST SWAP1 SWAP2 SSTORE POP POP PUSH1 0x9 SLOAD PUSH1 0xA SLOAD SLT PUSH2 0x8A6 JUMPI PUSH1 0x0 JUMPDEST PUSH1 0x3 SLOAD DUP2 LT ISZERO PUSH2 0x8A0 JUMPI PUSH1 0xC SLOAD PUSH1 0x5 PUSH1 0x0 PUSH1 0x3 DUP5 DUP2 SLOAD DUP2 LT PUSH2 0x79A JUMPI PUSH2 0x79A PUSH2 0x1382 JUMP JUMPDEST PUSH1 0x0 SWAP2 DUP3 MSTORE PUSH1 0x20 DUP1 DUP4 KECCAK256 SWAP1 SWAP2 ADD SLOAD PUSH1 0x1 PUSH1 0x1 PUSH1 0xA0 SHL SUB AND DUP4 MSTORE DUP3 ADD SWAP3 SWAP1 SWAP3 MSTORE PUSH1 0x40 ADD SWAP1 KECCAK256 SLOAD PUSH2 0x7CA SWAP1 PUSH1 0x64 PUSH2 0x1338 JUMP JUMPDEST PUSH2 0x7D4 SWAP2 SWAP1 PUSH2 0x1357 JUMP JUMPDEST PUSH1 0xF DUP2 SWAP1 SSTORE POP PUSH1 0x0 PUSH1 0x5 PUSH1 0x0 PUSH1 0x3 DUP5 DUP2 SLOAD DUP2 LT PUSH2 0x7F3 JUMPI PUSH2 0x7F3 PUSH2 0x1382 JUMP JUMPDEST PUSH1 0x0 SWAP2 DUP3 MSTORE PUSH1 0x20 DUP1 DUP4 KECCAK256 SWAP1 SWAP2 ADD SLOAD PUSH1 0x1 PUSH1 0x1 PUSH1 0xA0 SHL SUB AND DUP4 MSTORE DUP3 ADD SWAP3 SWAP1 SWAP3 MSTORE PUSH1 0x40 ADD SWAP1 KECCAK256 SSTORE PUSH1 0x3 DUP1 SLOAD DUP3 SWAP1 DUP2 LT PUSH2 0x82C JUMPI PUSH2 0x82C PUSH2 0x1382 JUMP JUMPDEST PUSH1 0x0 SWAP2 DUP3 MSTORE PUSH1 0x20 SWAP1 SWAP2 KECCAK256 ADD SLOAD PUSH1 0xB SLOAD PUSH1 0xF SLOAD PUSH1 0x1 PUSH1 0x1 PUSH1 0xA0 SHL SUB SWAP1 SWAP3 AND SWAP2 PUSH2 0x8FC SWAP2 PUSH1 0x64 SWAP2 PUSH2 0x85B SWAP2 SWAP1 PUSH2 0x1338 JUMP JUMPDEST PUSH2 0x865 SWAP2 SWAP1 PUSH2 0x1357 JUMP JUMPDEST PUSH1 0x40 MLOAD DUP2 ISZERO SWAP1 SWAP3 MUL SWAP2 PUSH1 0x0 DUP2 DUP2 DUP2 DUP6 DUP9 DUP9 CALL SWAP4 POP POP POP POP ISZERO DUP1 ISZERO PUSH2 0x88D JUMPI RETURNDATASIZE PUSH1 0x0 DUP1 RETURNDATACOPY RETURNDATASIZE PUSH1 0x0 REVERT JUMPDEST POP DUP1 PUSH2 0x898 DUP2 PUSH2 0x1398 JUMP JUMPDEST SWAP2 POP POP PUSH2 0x776 JUMP JUMPDEST POP PUSH2 0x9E1 JUMP JUMPDEST PUSH1 0x9 SLOAD PUSH1 0xA SLOAD SLT ISZERO PUSH2 0x9E1 JUMPI PUSH1 0x0 JUMPDEST PUSH1 0x4 SLOAD DUP2 LT ISZERO PUSH2 0x9DF JUMPI PUSH1 0xC SLOAD PUSH1 0x6 PUSH1 0x0 PUSH1 0x4 DUP5 DUP2 SLOAD DUP2 LT PUSH2 0x8D9 JUMPI PUSH2 0x8D9 PUSH2 0x1382 JUMP JUMPDEST PUSH1 0x0 SWAP2 DUP3 MSTORE PUSH1 0x20 DUP1 DUP4 KECCAK256 SWAP1 SWAP2 ADD SLOAD PUSH1 0x1 PUSH1 0x1 PUSH1 0xA0 SHL SUB AND DUP4 MSTORE DUP3 ADD SWAP3 SWAP1 SWAP3 MSTORE PUSH1 0x40 ADD SWAP1 KECCAK256 SLOAD PUSH2 0x909 SWAP1 PUSH1 0x64 PUSH2 0x1338 JUMP JUMPDEST PUSH2 0x913 SWAP2 SWAP1 PUSH2 0x1357 JUMP JUMPDEST PUSH1 0xF DUP2 SWAP1 SSTORE POP PUSH1 0x0 PUSH1 0x6 PUSH1 0x0 PUSH1 0x4 DUP5 DUP2 SLOAD DUP2 LT PUSH2 0x932 JUMPI PUSH2 0x932 PUSH2 0x1382 JUMP JUMPDEST PUSH1 0x0 SWAP2 DUP3 MSTORE PUSH1 0x20 DUP1 DUP4 KECCAK256 SWAP1 SWAP2 ADD SLOAD PUSH1 0x1 PUSH1 0x1 PUSH1 0xA0 SHL SUB AND DUP4 MSTORE DUP3 ADD SWAP3 SWAP1 SWAP3 MSTORE PUSH1 0x40 ADD SWAP1 KECCAK256 SSTORE PUSH1 0x4 DUP1 SLOAD DUP3 SWAP1 DUP2 LT PUSH2 0x96B JUMPI PUSH2 0x96B PUSH2 0x1382 JUMP JUMPDEST PUSH1 0x0 SWAP2 DUP3 MSTORE PUSH1 0x20 SWAP1 SWAP2 KECCAK256 ADD SLOAD PUSH1 0xB SLOAD PUSH1 0xF SLOAD PUSH1 0x1 PUSH1 0x1 PUSH1 0xA0 SHL SUB SWAP1 SWAP3 AND SWAP2 PUSH2 0x8FC SWAP2 PUSH1 0x64 SWAP2 PUSH2 0x99A SWAP2 SWAP1 PUSH2 0x1338 JUMP JUMPDEST PUSH2 0x9A4 SWAP2 SWAP1 PUSH2 0x1357 JUMP JUMPDEST PUSH1 0x40 MLOAD DUP2 ISZERO SWAP1 SWAP3 MUL SWAP2 PUSH1 0x0 DUP2 DUP2 DUP2 DUP6 DUP9 DUP9 CALL SWAP4 POP POP POP POP ISZERO DUP1 ISZERO PUSH2 0x9CC JUMPI RETURNDATASIZE PUSH1 0x0 DUP1 RETURNDATACOPY RETURNDATASIZE PUSH1 0x0 REVERT JUMPDEST POP DUP1 PUSH2 0x9D7 DUP2 PUSH2 0x1398 JUMP JUMPDEST SWAP2 POP POP PUSH2 0x8B5 JUMP JUMPDEST POP JUMPDEST PUSH2 0x6A9 PUSH2 0xF6D JUMP JUMPDEST PUSH1 0x0 PUSH1 0x8 SLOAD PUSH1 0x1 PUSH1 0xA0 SHL SWAP1 DIV PUSH1 0xFF AND PUSH1 0x1 DUP2 GT ISZERO PUSH2 0xA09 JUMPI PUSH2 0xA09 PUSH2 0x1207 JUMP JUMPDEST EQ PUSH2 0xA47 JUMPI PUSH1 0x40 MLOAD PUSH3 0x461BCD PUSH1 0xE5 SHL DUP2 MSTORE PUSH1 0x20 PUSH1 0x4 DUP3 ADD MSTORE PUSH1 0xE PUSH1 0x24 DUP3 ADD MSTORE PUSH14 0x10995D1D1A5B99C818DB1BDCD959 PUSH1 0x92 SHL PUSH1 0x44 DUP3 ADD MSTORE PUSH1 0x64 ADD PUSH2 0x642 JUMP JUMPDEST PUSH7 0x38D7EA4C68000 CALLVALUE LT ISZERO PUSH2 0xA9E JUMPI PUSH1 0x40 MLOAD PUSH3 0x461BCD PUSH1 0xE5 SHL DUP2 MSTORE PUSH1 0x20 PUSH1 0x4 DUP3 ADD MSTORE PUSH1 0x1B PUSH1 0x24 DUP3 ADD MSTORE PUSH32 0x4D696E696D756D20626574203D20302E303031207E302E323635240000000000 PUSH1 0x44 DUP3 ADD MSTORE PUSH1 0x64 ADD PUSH2 0x642 JUMP JUMPDEST PUSH2 0xE10 PUSH1 0x10 SLOAD TIMESTAMP PUSH2 0xAAF SWAP2 SWAP1 PUSH2 0x136B JUMP JUMPDEST GT ISZERO PUSH2 0xAF6 JUMPI PUSH1 0x40 MLOAD PUSH3 0x461BCD PUSH1 0xE5 SHL DUP2 MSTORE PUSH1 0x20 PUSH1 0x4 DUP3 ADD MSTORE PUSH1 0x16 PUSH1 0x24 DUP3 ADD MSTORE PUSH22 0x13585E080C481A1BDD5C8818599D195C881CDD185C9D PUSH1 0x52 SHL PUSH1 0x44 DUP3 ADD MSTORE PUSH1 0x64 ADD PUSH2 0x642 JUMP JUMPDEST CALLER PUSH1 0x0 SWAP1 DUP2 MSTORE PUSH1 0x7 PUSH1 0x20 MSTORE PUSH1 0x40 DUP2 KECCAK256 DUP1 SLOAD CALLVALUE SWAP3 SWAP1 PUSH2 0xB15 SWAP1 DUP5 SWAP1 PUSH2 0x13B1 JUMP JUMPDEST SWAP1 SWAP2 SSTORE POP POP CALLER PUSH1 0x0 SWAP1 DUP2 MSTORE PUSH1 0x7 PUSH1 0x20 MSTORE PUSH1 0x40 DUP2 KECCAK256 PUSH1 0x1 ADD SLOAD PUSH1 0xFF AND ISZERO ISZERO SWAP1 SUB PUSH2 0xBAD JUMPI PUSH1 0x2 DUP1 SLOAD PUSH1 0x1 DUP2 DUP2 ADD SWAP1 SWAP3 SSTORE PUSH32 0x405787FA12A823E0F2B7631CC41B3BA8828B3321CA811111FA75CD3AA3BB5ACE ADD DUP1 SLOAD PUSH1 0x1 PUSH1 0x1 PUSH1 0xA0 SHL SUB NOT AND CALLER SWAP1 DUP2 OR SWAP1 SWAP2 SSTORE PUSH1 0x0 SWAP1 DUP2 MSTORE PUSH1 0x7 PUSH1 0x20 MSTORE PUSH1 0x40 DUP2 KECCAK256 DUP1 DUP4 ADD DUP1 SLOAD PUSH1 0xFF NOT AND SWAP1 SWAP4 OR SWAP1 SWAP3 SSTORE DUP2 SLOAD CALLVALUE SWAP3 SWAP2 SWAP1 PUSH2 0xBA7 SWAP1 DUP5 SWAP1 PUSH2 0x13B1 JUMP JUMPDEST SWAP1 SWAP2 SSTORE POP POP JUMPDEST PUSH1 0x0 DUP2 PUSH1 0x1 DUP2 GT ISZERO PUSH2 0xBC1 JUMPI PUSH2 0xBC1 PUSH2 0x1207 JUMP JUMPDEST SUB PUSH2 0xC82 JUMPI CALLER PUSH1 0x0 SWAP1 DUP2 MSTORE PUSH1 0x5 PUSH1 0x20 MSTORE PUSH1 0x40 DUP2 KECCAK256 DUP1 SLOAD CALLVALUE SWAP3 SWAP1 PUSH2 0xBE5 SWAP1 DUP5 SWAP1 PUSH2 0x13B1 JUMP JUMPDEST SWAP1 SWAP2 SSTORE POP POP CALLER PUSH1 0x0 SWAP1 DUP2 MSTORE PUSH1 0x5 PUSH1 0x20 MSTORE PUSH1 0x40 DUP2 KECCAK256 PUSH1 0x1 ADD SLOAD PUSH1 0xFF AND ISZERO ISZERO SWAP1 SUB PUSH2 0xC65 JUMPI PUSH1 0x3 DUP1 SLOAD PUSH1 0x1 DUP2 DUP2 ADD SWAP1 SWAP3 SSTORE PUSH32 0xC2575A0E9E593C00F959F8C92F12DB2869C3395A3B0502D05E2516446F71F85B ADD DUP1 SLOAD PUSH1 0x1 PUSH1 0x1 PUSH1 0xA0 SHL SUB NOT AND CALLER SWAP1 DUP2 OR SWAP1 SWAP2 SSTORE PUSH1 0x0 SWAP1 DUP2 MSTORE PUSH1 0x5 PUSH1 0x20 MSTORE PUSH1 0x40 SWAP1 KECCAK256 DUP2 ADD DUP1 SLOAD PUSH1 0xFF NOT AND SWAP1 SWAP2 OR SWAP1 SSTORE JUMPDEST CALLVALUE PUSH1 0xC PUSH1 0x0 DUP3 DUP3 SLOAD PUSH2 0xC77 SWAP2 SWAP1 PUSH2 0x13B1 JUMP JUMPDEST SWAP1 SWAP2 SSTORE POP PUSH2 0xD52 SWAP1 POP JUMP JUMPDEST PUSH1 0x1 DUP2 PUSH1 0x1 DUP2 GT ISZERO PUSH2 0xC96 JUMPI PUSH2 0xC96 PUSH2 0x1207 JUMP JUMPDEST SUB PUSH2 0xD52 JUMPI CALLER PUSH1 0x0 SWAP1 DUP2 MSTORE PUSH1 0x6 PUSH1 0x20 MSTORE PUSH1 0x40 DUP2 KECCAK256 DUP1 SLOAD CALLVALUE SWAP3 SWAP1 PUSH2 0xCBA SWAP1 DUP5 SWAP1 PUSH2 0x13B1 JUMP JUMPDEST SWAP1 SWAP2 SSTORE POP POP CALLER PUSH1 0x0 SWAP1 DUP2 MSTORE PUSH1 0x6 PUSH1 0x20 MSTORE PUSH1 0x40 DUP2 KECCAK256 PUSH1 0x1 ADD SLOAD PUSH1 0xFF AND ISZERO ISZERO SWAP1 SUB PUSH2 0xD3A JUMPI PUSH1 0x4 DUP1 SLOAD PUSH1 0x1 DUP2 DUP2 ADD SWAP1 SWAP3 SSTORE PUSH32 0x8A35ACFBC15FF81A39AE7D344FD709F28E8600B4AA8C65C6B64BFE7FE36BD19B ADD DUP1 SLOAD PUSH1 0x1 PUSH1 0x1 PUSH1 0xA0 SHL SUB NOT AND CALLER SWAP1 DUP2 OR SWAP1 SWAP2 SSTORE PUSH1 0x0 SWAP1 DUP2 MSTORE PUSH1 0x6 PUSH1 0x20 MSTORE PUSH1 0x40 SWAP1 KECCAK256 DUP2 ADD DUP1 SLOAD PUSH1 0xFF NOT AND SWAP1 SWAP2 OR SWAP1 SSTORE JUMPDEST CALLVALUE PUSH1 0xD PUSH1 0x0 DUP3 DUP3 SLOAD PUSH2 0xD4C SWAP2 SWAP1 PUSH2 0x13B1 JUMP JUMPDEST SWAP1 SWAP2 SSTORE POP POP JUMPDEST CALLVALUE PUSH1 0xB PUSH1 0x0 DUP3 DUP3 SLOAD PUSH2 0xD64 SWAP2 SWAP1 PUSH2 0x13B1 JUMP JUMPDEST SWAP1 SWAP2 SSTORE POP POP PUSH1 0x40 MLOAD CALLER SWAP1 PUSH32 0xA67A178E8534A0A872D9D8098150D83AEAE31EAE23625A1144AB570CD1A3E376 SWAP1 PUSH2 0xD9D SWAP1 CALLVALUE SWAP1 DUP6 SWAP1 PUSH2 0x13C9 JUMP JUMPDEST PUSH1 0x40 MLOAD DUP1 SWAP2 SUB SWAP1 LOG2 POP JUMP JUMPDEST PUSH2 0xDB0 PUSH2 0xEC3 JUMP JUMPDEST PUSH1 0x1 PUSH1 0x1 PUSH1 0xA0 SHL SUB DUP2 AND PUSH2 0xE15 JUMPI PUSH1 0x40 MLOAD PUSH3 0x461BCD PUSH1 0xE5 SHL DUP2 MSTORE PUSH1 0x20 PUSH1 0x4 DUP3 ADD MSTORE PUSH1 0x26 PUSH1 0x24 DUP3 ADD MSTORE PUSH32 0x4F776E61626C653A206E6577206F776E657220697320746865207A65726F2061 PUSH1 0x44 DUP3 ADD MSTORE PUSH6 0x646472657373 PUSH1 0xD0 SHL PUSH1 0x64 DUP3 ADD MSTORE PUSH1 0x84 ADD PUSH2 0x642 JUMP JUMPDEST PUSH2 0x6A9 DUP2 PUSH2 0xF1D JUMP JUMPDEST PUSH1 0x2 DUP2 DUP2 SLOAD DUP2 LT PUSH2 0x507 JUMPI PUSH1 0x0 DUP1 REVERT JUMPDEST PUSH2 0xE36 PUSH2 0xEC3 JUMP JUMPDEST PUSH1 0x1 PUSH1 0x8 SLOAD PUSH1 0x1 PUSH1 0xA0 SHL SWAP1 DIV PUSH1 0xFF AND PUSH1 0x1 DUP2 GT ISZERO PUSH2 0xE56 JUMPI PUSH2 0xE56 PUSH2 0x1207 JUMP JUMPDEST EQ PUSH2 0xE9A JUMPI PUSH1 0x40 MLOAD PUSH3 0x461BCD PUSH1 0xE5 SHL DUP2 MSTORE PUSH1 0x20 PUSH1 0x4 DUP3 ADD MSTORE PUSH1 0x14 PUSH1 0x24 DUP3 ADD MSTORE PUSH20 0x2132BA3A34B7339030B632B0B9323C9037B832B7 PUSH1 0x61 SHL PUSH1 0x44 DUP3 ADD MSTORE PUSH1 0x64 ADD PUSH2 0x642 JUMP JUMPDEST PUSH2 0xEA2 PUSH2 0x542 JUMP JUMPDEST PUSH1 0x9 SSTORE TIMESTAMP PUSH1 0x10 SSTORE PUSH1 0x8 DUP1 SLOAD PUSH1 0x0 SWAP2 SWAP1 PUSH1 0xFF PUSH1 0xA0 SHL NOT AND PUSH1 0x1 PUSH1 0xA0 SHL DUP4 PUSH2 0x661 JUMP JUMPDEST PUSH1 0x0 SLOAD PUSH1 0x1 PUSH1 0x1 PUSH1 0xA0 SHL SUB AND CALLER EQ PUSH2 0x533 JUMPI PUSH1 0x40 MLOAD PUSH3 0x461BCD PUSH1 0xE5 SHL DUP2 MSTORE PUSH1 0x20 PUSH1 0x4 DUP3 ADD DUP2 SWAP1 MSTORE PUSH1 0x24 DUP3 ADD MSTORE PUSH32 0x4F776E61626C653A2063616C6C6572206973206E6F7420746865206F776E6572 PUSH1 0x44 DUP3 ADD MSTORE PUSH1 0x64 ADD PUSH2 0x642 JUMP JUMPDEST PUSH1 0x0 DUP1 SLOAD PUSH1 0x1 PUSH1 0x1 PUSH1 0xA0 SHL SUB DUP4 DUP2 AND PUSH1 0x1 PUSH1 0x1 PUSH1 0xA0 SHL SUB NOT DUP4 AND DUP2 OR DUP5 SSTORE PUSH1 0x40 MLOAD SWAP2 SWAP1 SWAP3 AND SWAP3 DUP4 SWAP2 PUSH32 0x8BE0079C531659141344CD1FD0A4F28419497F9722A3DAAFE3B4186F6B6457E0 SWAP2 SWAP1 LOG3 POP POP JUMP JUMPDEST PUSH1 0x0 JUMPDEST PUSH1 0x4 SLOAD DUP2 LT ISZERO PUSH2 0x101D JUMPI PUSH1 0x0 PUSH1 0x6 PUSH1 0x0 PUSH1 0x4 DUP5 DUP2 SLOAD DUP2 LT PUSH2 0xF93 JUMPI PUSH2 0xF93 PUSH2 0x1382 JUMP JUMPDEST PUSH1 0x0 SWAP2 DUP3 MSTORE PUSH1 0x20 DUP1 DUP4 KECCAK256 SWAP1 SWAP2 ADD SLOAD PUSH1 0x1 PUSH1 0x1 PUSH1 0xA0 SHL SUB AND DUP4 MSTORE DUP3 ADD SWAP3 SWAP1 SWAP3 MSTORE PUSH1 0x40 ADD DUP2 KECCAK256 SWAP2 SWAP1 SWAP2 SSTORE PUSH1 0x4 DUP1 SLOAD PUSH1 0x6 SWAP2 DUP4 SWAP2 DUP6 SWAP1 DUP2 LT PUSH2 0xFD4 JUMPI PUSH2 0xFD4 PUSH2 0x1382 JUMP JUMPDEST PUSH1 0x0 SWAP2 DUP3 MSTORE PUSH1 0x20 DUP1 DUP4 KECCAK256 SWAP2 SWAP1 SWAP2 ADD SLOAD PUSH1 0x1 PUSH1 0x1 PUSH1 0xA0 SHL SUB AND DUP4 MSTORE DUP3 ADD SWAP3 SWAP1 SWAP3 MSTORE PUSH1 0x40 ADD SWAP1 KECCAK256 PUSH1 0x1 ADD DUP1 SLOAD PUSH1 0xFF NOT AND SWAP2 ISZERO ISZERO SWAP2 SWAP1 SWAP2 OR SWAP1 SSTORE DUP1 PUSH2 0x1015 DUP2 PUSH2 0x1398 JUMP JUMPDEST SWAP2 POP POP PUSH2 0xF70 JUMP JUMPDEST POP PUSH1 0x0 JUMPDEST PUSH1 0x3 SLOAD DUP2 LT ISZERO PUSH2 0x10CE JUMPI PUSH1 0x0 PUSH1 0x5 PUSH1 0x0 PUSH1 0x3 DUP5 DUP2 SLOAD DUP2 LT PUSH2 0x1044 JUMPI PUSH2 0x1044 PUSH2 0x1382 JUMP JUMPDEST PUSH1 0x0 SWAP2 DUP3 MSTORE PUSH1 0x20 DUP1 DUP4 KECCAK256 SWAP1 SWAP2 ADD SLOAD PUSH1 0x1 PUSH1 0x1 PUSH1 0xA0 SHL SUB AND DUP4 MSTORE DUP3 ADD SWAP3 SWAP1 SWAP3 MSTORE PUSH1 0x40 ADD DUP2 KECCAK256 SWAP2 SWAP1 SWAP2 SSTORE PUSH1 0x3 DUP1 SLOAD PUSH1 0x5 SWAP2 DUP4 SWAP2 DUP6 SWAP1 DUP2 LT PUSH2 0x1085 JUMPI PUSH2 0x1085 PUSH2 0x1382 JUMP JUMPDEST PUSH1 0x0 SWAP2 DUP3 MSTORE PUSH1 0x20 DUP1 DUP4 KECCAK256 SWAP2 SWAP1 SWAP2 ADD SLOAD PUSH1 0x1 PUSH1 0x1 PUSH1 0xA0 SHL SUB AND DUP4 MSTORE DUP3 ADD SWAP3 SWAP1 SWAP3 MSTORE PUSH1 0x40 ADD SWAP1 KECCAK256 PUSH1 0x1 ADD DUP1 SLOAD PUSH1 0xFF NOT AND SWAP2 ISZERO ISZERO SWAP2 SWAP1 SWAP2 OR SWAP1 SSTORE DUP1 PUSH2 0x10C6 DUP2 PUSH2 0x1398 JUMP JUMPDEST SWAP2 POP POP PUSH2 0x1021 JUMP JUMPDEST POP PUSH1 0x40 DUP1 MLOAD PUSH1 0x0 DUP2 MSTORE PUSH1 0x20 DUP2 ADD SWAP2 DUP3 SWAP1 MSTORE MLOAD PUSH2 0x10EC SWAP2 PUSH1 0x2 SWAP2 PUSH2 0x1144 JUMP JUMPDEST POP PUSH1 0x40 DUP1 MLOAD PUSH1 0x0 DUP2 MSTORE PUSH1 0x20 DUP2 ADD SWAP2 DUP3 SWAP1 MSTORE MLOAD PUSH2 0x110A SWAP2 PUSH1 0x3 SWAP2 PUSH2 0x1144 JUMP JUMPDEST POP PUSH1 0x40 DUP1 MLOAD PUSH1 0x0 DUP2 MSTORE PUSH1 0x20 DUP2 ADD SWAP2 DUP3 SWAP1 MSTORE MLOAD PUSH2 0x1128 SWAP2 PUSH1 0x4 SWAP2 PUSH2 0x1144 JUMP JUMPDEST POP PUSH1 0x0 PUSH1 0xB DUP2 SWAP1 SSTORE PUSH1 0xC DUP2 SWAP1 SSTORE PUSH1 0xD DUP2 SWAP1 SSTORE PUSH1 0x9 DUP2 SWAP1 SSTORE PUSH1 0x10 SSTORE JUMP JUMPDEST DUP3 DUP1 SLOAD DUP3 DUP3 SSTORE SWAP1 PUSH1 0x0 MSTORE PUSH1 0x20 PUSH1 0x0 KECCAK256 SWAP1 DUP2 ADD SWAP3 DUP3 ISZERO PUSH2 0x1199 JUMPI SWAP2 PUSH1 0x20 MUL DUP3 ADD JUMPDEST DUP3 DUP2 GT ISZERO PUSH2 0x1199 JUMPI DUP3 MLOAD DUP3 SLOAD PUSH1 0x1 PUSH1 0x1 PUSH1 0xA0 SHL SUB NOT AND PUSH1 0x1 PUSH1 0x1 PUSH1 0xA0 SHL SUB SWAP1 SWAP2 AND OR DUP3 SSTORE PUSH1 0x20 SWAP1 SWAP3 ADD SWAP2 PUSH1 0x1 SWAP1 SWAP2 ADD SWAP1 PUSH2 0x1164 JUMP JUMPDEST POP PUSH2 0x11A5 SWAP3 SWAP2 POP PUSH2 0x11A9 JUMP JUMPDEST POP SWAP1 JUMP JUMPDEST JUMPDEST DUP1 DUP3 GT ISZERO PUSH2 0x11A5 JUMPI PUSH1 0x0 DUP2 SSTORE PUSH1 0x1 ADD PUSH2 0x11AA JUMP JUMPDEST PUSH1 0x0 PUSH1 0x20 DUP3 DUP5 SUB SLT ISZERO PUSH2 0x11D0 JUMPI PUSH1 0x0 DUP1 REVERT JUMPDEST DUP2 CALLDATALOAD PUSH1 0x1 PUSH1 0x1 PUSH1 0xA0 SHL SUB DUP2 AND DUP2 EQ PUSH2 0x11E7 JUMPI PUSH1 0x0 DUP1 REVERT JUMPDEST SWAP4 SWAP3 POP POP POP JUMP JUMPDEST PUSH1 0x0 PUSH1 0x20 DUP3 DUP5 SUB SLT ISZERO PUSH2 0x1200 JUMPI PUSH1 0x0 DUP1 REVERT JUMPDEST POP CALLDATALOAD SWAP2 SWAP1 POP JUMP JUMPDEST PUSH4 0x4E487B71 PUSH1 0xE0 SHL PUSH1 0x0 MSTORE PUSH1 0x21 PUSH1 0x4 MSTORE PUSH1 0x24 PUSH1 0x0 REVERT JUMPDEST PUSH1 0x2 DUP2 LT PUSH2 0x6A9 JUMPI PUSH4 0x4E487B71 PUSH1 0xE0 SHL PUSH1 0x0 MSTORE PUSH1 0x21 PUSH1 0x4 MSTORE PUSH1 0x24 PUSH1 0x0 REVERT JUMPDEST PUSH1 0x20 DUP2 ADD PUSH2 0x1248 DUP4 PUSH2 0x121D JUMP JUMPDEST SWAP2 SWAP1 MSTORE SWAP1 JUMP JUMPDEST PUSH1 0x0 PUSH1 0x20 DUP3 DUP5 SUB SLT ISZERO PUSH2 0x1260 JUMPI PUSH1 0x0 DUP1 REVERT JUMPDEST DUP2 CALLDATALOAD PUSH1 0x2 DUP2 LT PUSH2 0x11E7 JUMPI PUSH1 0x0 DUP1 REVERT JUMPDEST DUP1 MLOAD PUSH10 0xFFFFFFFFFFFFFFFFFFFF DUP2 AND DUP2 EQ PUSH2 0x1289 JUMPI PUSH1 0x0 DUP1 REVERT JUMPDEST SWAP2 SWAP1 POP JUMP JUMPDEST PUSH1 0x0 DUP1 PUSH1 0x0 DUP1 PUSH1 0x0 PUSH1 0xA0 DUP7 DUP9 SUB SLT ISZERO PUSH2 0x12A6 JUMPI PUSH1 0x0 DUP1 REVERT JUMPDEST PUSH2 0x12AF DUP7 PUSH2 0x126F JUMP JUMPDEST SWAP5 POP PUSH1 0x20 DUP7 ADD MLOAD SWAP4 POP PUSH1 0x40 DUP7 ADD MLOAD SWAP3 POP PUSH1 0x60 DUP7 ADD MLOAD SWAP2 POP PUSH2 0x12D2 PUSH1 0x80 DUP8 ADD PUSH2 0x126F JUMP JUMPDEST SWAP1 POP SWAP3 SWAP6 POP SWAP3 SWAP6 SWAP1 SWAP4 POP JUMP JUMPDEST PUSH4 0x4E487B71 PUSH1 0xE0 SHL PUSH1 0x0 MSTORE PUSH1 0x12 PUSH1 0x4 MSTORE PUSH1 0x24 PUSH1 0x0 REVERT JUMPDEST PUSH4 0x4E487B71 PUSH1 0xE0 SHL PUSH1 0x0 MSTORE PUSH1 0x11 PUSH1 0x4 MSTORE PUSH1 0x24 PUSH1 0x0 REVERT JUMPDEST PUSH1 0x0 DUP3 PUSH2 0x1319 JUMPI PUSH2 0x1319 PUSH2 0x12DE JUMP JUMPDEST PUSH1 0x1 PUSH1 0xFF SHL DUP3 EQ PUSH1 0x0 NOT DUP5 EQ AND ISZERO PUSH2 0x1333 JUMPI PUSH2 0x1333 PUSH2 0x12F4 JUMP JUMPDEST POP SDIV SWAP1 JUMP JUMPDEST PUSH1 0x0 DUP2 PUSH1 0x0 NOT DIV DUP4 GT DUP3 ISZERO ISZERO AND ISZERO PUSH2 0x1352 JUMPI PUSH2 0x1352 PUSH2 0x12F4 JUMP JUMPDEST POP MUL SWAP1 JUMP JUMPDEST PUSH1 0x0 DUP3 PUSH2 0x1366 JUMPI PUSH2 0x1366 PUSH2 0x12DE JUMP JUMPDEST POP DIV SWAP1 JUMP JUMPDEST PUSH1 0x0 DUP3 DUP3 LT ISZERO PUSH2 0x137D JUMPI PUSH2 0x137D PUSH2 0x12F4 JUMP JUMPDEST POP SUB SWAP1 JUMP JUMPDEST PUSH4 0x4E487B71 PUSH1 0xE0 SHL PUSH1 0x0 MSTORE PUSH1 0x32 PUSH1 0x4 MSTORE PUSH1 0x24 PUSH1 0x0 REVERT JUMPDEST PUSH1 0x0 PUSH1 0x1 DUP3 ADD PUSH2 0x13AA JUMPI PUSH2 0x13AA PUSH2 0x12F4 JUMP JUMPDEST POP PUSH1 0x1 ADD SWAP1 JUMP JUMPDEST PUSH1 0x0 DUP3 NOT DUP3 GT ISZERO PUSH2 0x13C4 JUMPI PUSH2 0x13C4 PUSH2 0x12F4 JUMP JUMPDEST POP ADD SWAP1 JUMP JUMPDEST DUP3 DUP2 MSTORE PUSH1 0x40 DUP2 ADD PUSH2 0x13D9 DUP4 PUSH2 0x121D JUMP JUMPDEST DUP3 PUSH1 0x20 DUP4 ADD MSTORE SWAP4 SWAP3 POP POP POP JUMP INVALID LOG2 PUSH5 0x6970667358 0x22 SLT KECCAK256 SWAP2 0xAA JUMP DUP13 0x24 0xBA 0xE 0x4F PUSH7 0xA37ADCF5BB6719 DUP3 0xD6 PUSH31 0xFFE2BABEA0ABC7259A1D6AED6064736F6C634300080F003300000000000000 ","sha1":"12dadb4b75c247fd50d18a2d10ca6fedb9040c2e","source":"// SPDX-License-Identifier: MIT\npragma solidity ^0.8.7;\n\nimport \"@chainlink/contracts/src/v0.8/interfaces/AggregatorV3Interface.sol\";\nimport \"@openzeppelin/contracts/access/Ownable.sol\";\n\ncontract BitcoinUpDown is Ownable {\n    address private house;\n    address payable[] public players;\n    address payable[] public bulls;\n    address payable[] public bears;\n\n    struct Players {\n        uint256 bet;\n        bool isExist;\n    }\n    mapping(address => Players) public players_bet_up;\n    mapping(address => Players) public players_bet_down;\n    mapping(address => Players) public players_bet;\n    AggregatorV3Interface internal btcUsdPriceFeed;\n    enum BETTING_STATE {\n        OPEN,\n        CLOSED\n    }\n    enum UP_DOWN {\n        UP,\n        DOWN\n    }\n    BETTING_STATE public betting_state;\n    int256 public price_open;\n    int256 public price_close;\n    uint256 public prize_pool;\n    uint256 public prize_pool_up;\n    uint256 public prize_pool_down;\n    uint256 public total_winners;\n    uint256 public percent;\n    uint256 public ts_start;\n\n    event eventBet(address indexed _from, uint256 amount, UP_DOWN up_down);\n\n    constructor(address _priceFeedAddress) {\n        house = msg.sender;\n        btcUsdPriceFeed = AggregatorV3Interface(_priceFeedAddress);\n        betting_state = BETTING_STATE.CLOSED;\n    }\n\n    function getPrice() public view returns (int256) {\n        (, int256 price, , , ) = btcUsdPriceFeed.latestRoundData();\n        return price / (10**8);\n    }\n\n    function getPlayersCount() public view returns (uint256) {\n        return players.length;\n    }\n\n    function getBullsCount() public view returns (uint256) {\n        return bulls.length;\n    }\n\n    function getBearsCount() public view returns (uint256) {\n        return bears.length;\n    }\n\n    function reset() private {\n        // reset variables for new round\n        for (uint256 i = 0; i < bears.length; i++) {\n            players_bet_down[bears[i]].bet = 0;\n            players_bet_down[bears[i]].isExist = false;\n        }\n        for (uint256 i = 0; i < bulls.length; i++) {\n            players_bet_up[bulls[i]].bet = 0;\n            players_bet_up[bulls[i]].isExist = false;\n        }\n\n        players = new address payable[](0);\n        bulls = new address payable[](0);\n        bears = new address payable[](0);\n        prize_pool = 0;\n        prize_pool_up = 0;\n        prize_pool_down = 0;\n        price_open = 0;\n        ts_start = 0;\n    }\n\n    function startBet() public onlyOwner {\n        require(betting_state == BETTING_STATE.CLOSED, \"Betting aleardy open\");\n        price_open = getPrice();\n        ts_start = block.timestamp;\n        betting_state = BETTING_STATE.OPEN;\n    }\n\n    function bet(UP_DOWN _up_down) public payable {\n        require(betting_state == BETTING_STATE.OPEN, \"Betting closed\");\n        require(msg.value >= 0.001 ether, \"Minimum bet = 0.001 ~0.265$\");\n        require(block.timestamp - ts_start <= 3600, \"Max 1 hour after start\");\n\n        players_bet[msg.sender].bet += msg.value; // keep history of all player bets / never reseted\n        if (players_bet[msg.sender].isExist == false) {\n            players.push(payable(msg.sender));\n            players_bet[msg.sender].isExist = true;\n            players_bet[msg.sender].bet += msg.value;\n        }\n\n        // player bet up or down / reseted every round\n        if (_up_down == UP_DOWN.UP) {\n            players_bet_up[msg.sender].bet += msg.value;\n            if (players_bet_up[msg.sender].isExist == false) {\n                bulls.push(payable(msg.sender));\n                players_bet_up[msg.sender].isExist = true;\n            }\n            prize_pool_up += msg.value;\n        } else if (_up_down == UP_DOWN.DOWN) {\n            players_bet_down[msg.sender].bet += msg.value;\n            if (players_bet_down[msg.sender].isExist == false) {\n                bears.push(payable(msg.sender));\n                players_bet_down[msg.sender].isExist = true;\n            }\n            prize_pool_down += msg.value;\n        }\n        prize_pool += msg.value;\n        emit eventBet(msg.sender, msg.value, _up_down);\n    }\n\n    function endBet() public onlyOwner {\n        require(betting_state == BETTING_STATE.OPEN, \"Betting aleardy closed\");\n        //require(block.timestamp - ts_start >= 3600, \"Min 1 hour after start\");\n        betting_state = BETTING_STATE.CLOSED;\n    }\n\n    function payHouse() public onlyOwner {\n        payable(house).transfer(address(this).balance);\n    }\n\n    function addGas() public payable {\n        require(msg.value > 0);\n    }\n\n    function declareWinners() public onlyOwner {\n        require(betting_state == BETTING_STATE.CLOSED, \"Betting still open\");\n        //require(block.timestamp - ts_start >= 1 days, \"Min 1 day after start\");\n        price_close = getPrice();\n        uint256 fee = (2 * prize_pool) / 100; // 2% fee for gas and escorts\n        prize_pool -= fee;\n\n        if (price_close >= price_open) {\n            for (uint256 i = 0; i < bulls.length; i++) {\n                percent = (players_bet_up[bulls[i]].bet * 100) / prize_pool_up;\n                players_bet_up[bulls[i]].bet = 0; // avoid re-entrancy and reset\n                bulls[i].transfer((percent * prize_pool) / 100);\n            }\n        } else if (price_close < price_open) {\n            for (uint256 i = 0; i < bears.length; i++) {\n                percent =\n                    (players_bet_down[bears[i]].bet * 100) /\n                    prize_pool_up;\n                players_bet_down[bears[i]].bet = 0; // avoid re-entrancy and reset\n                bears[i].transfer((percent * prize_pool) / 100);\n            }\n        }\n\n        reset(); // reset varialbes for new round\n    }\n}\n","sourcePath":"contracts/BitcoinUpDown.sol","type":"contract","deployment":{"address":"0x760fC566A58cdC51394ec05a60dBe8e991e0c38a","chainid":"97","blockHeight":21207689}}