{"abi":[{"inputs":[{"internalType":"address","name":"_priceFeedAddress","type":"address"}],"stateMutability":"nonpayable","type":"constructor","name":"constructor"},{"anonymous":false,"inputs":[{"indexed":true,"internalType":"address","name":"previousOwner","type":"address"},{"indexed":true,"internalType":"address","name":"newOwner","type":"address"}],"name":"OwnershipTransferred","type":"event"},{"anonymous":false,"inputs":[{"indexed":true,"internalType":"uint256","name":"round","type":"uint256"},{"indexed":true,"internalType":"address","name":"from","type":"address"},{"indexed":false,"internalType":"uint256","name":"amount","type":"uint256"},{"indexed":false,"internalType":"enum BitcoinUpDown.UP_DOWN","name":"up_down","type":"uint8"}],"name":"eventBet","type":"event"},{"anonymous":false,"inputs":[{"indexed":true,"internalType":"uint256","name":"round","type":"uint256"},{"indexed":true,"internalType":"uint256","name":"ts_close","type":"uint256"},{"indexed":false,"internalType":"int256","name":"price_close","type":"int256"},{"indexed":false,"internalType":"uint256","name":"prize_pool","type":"uint256"},{"indexed":false,"internalType":"uint256","name":"prize_pool_up","type":"uint256"},{"indexed":false,"internalType":"uint256","name":"prize_pool_down","type":"uint256"}],"name":"eventDeclareWinners","type":"event"},{"anonymous":false,"inputs":[{"indexed":true,"internalType":"uint256","name":"round","type":"uint256"},{"indexed":true,"internalType":"uint256","name":"ts_start","type":"uint256"},{"indexed":false,"internalType":"int256","name":"price_open","type":"int256"}],"name":"eventStartRound","type":"event"},{"inputs":[{"internalType":"enum BitcoinUpDown.UP_DOWN","name":"_up_down","type":"uint8"}],"name":"bet","outputs":[],"stateMutability":"payable","type":"function"},{"inputs":[],"name":"declareWinners","outputs":[],"stateMutability":"nonpayable","type":"function"},{"inputs":[{"internalType":"address","name":"_addr","type":"address"}],"name":"getPendingWithdraw","outputs":[{"internalType":"uint256","name":"","type":"uint256"}],"stateMutability":"view","type":"function"},{"inputs":[],"name":"getPrice","outputs":[{"internalType":"int256","name":"","type":"int256"}],"stateMutability":"view","type":"function"},{"inputs":[],"name":"owner","outputs":[{"internalType":"address","name":"","type":"address"}],"stateMutability":"view","type":"function"},{"inputs":[{"internalType":"address","name":"","type":"address"}],"name":"players_bet","outputs":[{"internalType":"uint256","name":"bet","type":"uint256"},{"internalType":"enum BitcoinUpDown.UP_DOWN","name":"up_down","type":"uint8"},{"internalType":"uint256","name":"round","type":"uint256"},{"internalType":"bool","name":"isExist","type":"bool"}],"stateMutability":"view","type":"function"},{"inputs":[],"name":"price_close","outputs":[{"internalType":"int256","name":"","type":"int256"}],"stateMutability":"view","type":"function"},{"inputs":[],"name":"price_open","outputs":[{"internalType":"int256","name":"","type":"int256"}],"stateMutability":"view","type":"function"},{"inputs":[{"internalType":"uint256","name":"","type":"uint256"}],"name":"prize_pool","outputs":[{"internalType":"uint256","name":"","type":"uint256"}],"stateMutability":"view","type":"function"},{"inputs":[{"internalType":"uint256","name":"","type":"uint256"}],"name":"prize_pool_down","outputs":[{"internalType":"uint256","name":"","type":"uint256"}],"stateMutability":"view","type":"function"},{"inputs":[{"internalType":"uint256","name":"","type":"uint256"}],"name":"prize_pool_up","outputs":[{"internalType":"uint256","name":"","type":"uint256"}],"stateMutability":"view","type":"function"},{"inputs":[],"name":"renounceOwnership","outputs":[],"stateMutability":"nonpayable","type":"function"},{"inputs":[],"name":"round","outputs":[{"internalType":"uint256","name":"","type":"uint256"}],"stateMutability":"view","type":"function"},{"inputs":[{"internalType":"uint256","name":"","type":"uint256"}],"name":"roundWinner","outputs":[{"internalType":"enum BitcoinUpDown.UP_DOWN","name":"","type":"uint8"}],"stateMutability":"view","type":"function"},{"inputs":[{"internalType":"address","name":"newOwner","type":"address"}],"name":"transferOwnership","outputs":[],"stateMutability":"nonpayable","type":"function"},{"inputs":[],"name":"ts_start","outputs":[{"internalType":"uint256","name":"","type":"uint256"}],"stateMutability":"view","type":"function"},{"inputs":[],"name":"withdraw","outputs":[],"stateMutability":"nonpayable","type":"function"},{"inputs":[],"name":"withdrawFee","outputs":[],"stateMutability":"nonpayable","type":"function"}],"bytecode":"60806040523480156200001157600080fd5b506040516200184f3803806200184f833981016040819052620000349162000247565b6200003f3362000079565b600c8054336001600160a01b031991821617909155600280549091166001600160a01b03831617905562000072620000c9565b5062000337565b600080546001600160a01b038381166001600160a01b0319831681178455604051919092169283917f8be0079c531659141344cd1fd0a4f28419497f9722a3daafe3b4186f6b6457e09190a35050565b60078054600181810190925560007fa66cc928b5edb82af9bd49922954155ab7b0942694bea4ce44661d9a8736c688909101819055600880548084019091557ff3f7a9fe364faab93b216da50a3214154f22a0a2b415b23a84c8169e8b636ee30181905560098054928301815581527f6e1540171b6c0c960b71a7020d9f60077f6af931a8bbf590da0223dacf75c7af9091015562000167620001ac565b600581905542600a81905560035460405192835290917f8de78fc030d06c580edae40f56be50d47b03f44cc730caea633405b96388c3b09060200160405180910390a3565b600080600260009054906101000a90046001600160a01b03166001600160a01b031663feaf968c6040518163ffffffff1660e01b815260040160a060405180830381865afa15801562000203573d6000803e3d6000fd5b505050506040513d601f19601f8201168201806040525081019062000229919062000296565b5050509150506305f5e10081620002419190620002eb565b91505090565b6000602082840312156200025a57600080fd5b81516001600160a01b03811681146200027257600080fd5b9392505050565b80516001600160501b03811681146200029157600080fd5b919050565b600080600080600060a08688031215620002af57600080fd5b620002ba8662000279565b9450602086015193506040860151925060608601519150620002df6080870162000279565b90509295509295909350565b6000826200030957634e487b7160e01b600052601260045260246000fd5b600160ff1b8214600019841416156200033257634e487b7160e01b600052601160045260246000fd5b500590565b61150880620003476000396000f3fe6080604052600436106101095760003560e01c80638da5cb5b11610095578063da1a8a6a11610064578063da1a8a6a14610277578063e3380d6914610297578063e941fa78146102ef578063f2fde38b14610304578063fc3ec1aa1461032457600080fd5b80638da5cb5b1461021257806398d5fdca1461023a578063d06da2cb1461024f578063d0821b0e1461026457600080fd5b80634cd3e333116100dc5780634cd3e3331461017a57806352e9a6401461019a5780636ec11f0b146101c7578063715018a6146101dd57806376da5a40146101f257600080fd5b8063146ca5311461010e57806334ef4242146101375780633ccfd60b1461014d57806343e2a4ae14610164575b600080fd5b34801561011a57600080fd5b5061012460035481565b6040519081526020015b60405180910390f35b34801561014357600080fd5b5061012460055481565b34801561015957600080fd5b50610162610344565b005b34801561017057600080fd5b50610124600a5481565b34801561018657600080fd5b506101246101953660046112a3565b6106f5565b3480156101a657600080fd5b506101ba6101b53660046112a3565b610716565b60405161012e91906112f4565b3480156101d357600080fd5b5061012460065481565b3480156101e957600080fd5b5061016261074a565b3480156101fe57600080fd5b5061012461020d3660046112a3565b61075e565b34801561021e57600080fd5b506000546040516001600160a01b03909116815260200161012e565b34801561024657600080fd5b5061012461076e565b34801561025b57600080fd5b50610162610804565b610162610272366004611308565b610a53565b34801561028357600080fd5b50610124610292366004611329565b610d60565b3480156102a357600080fd5b506102df6102b2366004611329565b6001602081905260009182526040909120805491810154600282015460039092015460ff91821692911684565b60405161012e9493929190611352565b3480156102fb57600080fd5b50610162611028565b34801561031057600080fd5b5061016261031f366004611329565b611092565b34801561033057600080fd5b5061012461033f3660046112a3565b611108565b3360009081526001602081905260409091206003015460ff161515146103a85760405162461bcd60e51b8152602060048201526014602482015273141b185e595c88191bd95cdb89dd08195e1a5cdd60621b60448201526064015b60405180910390fd5b60035433600090815260016020526040902060020154106103ff5760405162461bcd60e51b8152602060048201526011602482015270526f756e64207374696c6c20676f696e6760781b604482015260640161039f565b336000908152600160205260409020600201546004805490919081106104275761042761137d565b90600052602060002090602091828204019190069054906101000a900460ff166001811115610458576104586112bc565b33600090815260016020819052604090912081015460ff1690811115610480576104806112bc565b146104b55760405162461bcd60e51b81526020600482015260056024820152642637b9b2b960d91b604482015260640161039f565b336000908152600160208190526040822060038101805460ff19169055810154829160ff909116908111156104ec576104ec6112bc565b036105ac57336000908152600160205260409020600201546007805460649290811061051a5761051a61137d565b9060005260206000200154600860016000336001600160a01b03166001600160a01b0316815260200190815260200160002060020154815481106105605761056061137d565b600091825260208083209091015433835260019091526040909120546105879060646113a9565b61059191906113de565b61059b91906113a9565b6105a591906113de565b9050610663565b33600090815260016020526040902060020154600780546064929081106105d5576105d561137d565b9060005260206000200154600960016000336001600160a01b03166001600160a01b03168152602001908152602001600020600201548154811061061b5761061b61137d565b600091825260208083209091015433835260019091526040909120546106429060646113a9565b61064c91906113de565b61065691906113a9565b61066091906113de565b90505b6040516000908190339084908381818185875af1925050503d80600081146106a7576040519150601f19603f3d011682016040523d82523d6000602084013e6106ac565b606091505b5091509150816106f05760405162461bcd60e51b815260206004820152600f60248201526e15da5d1a191c985dc819985a5b1959608a1b604482015260640161039f565b505050565b6009818154811061070557600080fd5b600091825260209091200154905081565b6004818154811061072657600080fd5b9060005260206000209060209182820401919006915054906101000a900460ff1681565b610752611118565b61075c6000611172565b565b6007818154811061070557600080fd5b600080600260009054906101000a90046001600160a01b03166001600160a01b031663feaf968c6040518163ffffffff1660e01b815260040160a060405180830381865afa1580156107c4573d6000803e3d6000fd5b505050506040513d601f19601f820116820180604052508101906107e89190611411565b5050509150506305f5e100816107fe9190611461565b91505090565b600061080e61076e565b6006556003546007805460649290811061082a5761082a61137d565b9060005260206000200154600161084191906113a9565b61084b91906113de565b6007600354815481106108605761086061137d565b906000526020600020016000828254610879919061148f565b9091555050600554600654126108d857506004805460018101825560009182527f8a35acfbc15ff81a39ae7d344fd709f28e8600b4aa8c65c6b64bfe7fe36bd19b60208204018054601f9092166101000a60ff02199091169055610934565b600554600654121561093457506004805460018082018355600092909252602081047f8a35acfbc15ff81a39ae7d344fd709f28e8600b4aa8c65c6b64bfe7fe36bd19b01805460ff601f9093166101000a928302191690911790555b606460076003548154811061094b5761094b61137d565b9060005260206000200154600161096291906113a9565b61096c91906113de565b600b600082825461097d91906114a6565b92505081905550426003547fea1d825f268e49aa3dd3303f26715a0328f630e5c0110613c0fe5f86c5c0f9b76006546007600354815481106109c1576109c161137d565b90600052602060002001546008600354815481106109e1576109e161137d565b9060005260206000200154600960035481548110610a0157610a0161137d565b600091825260209182902001546040805195865291850193909352830152606082015260800160405180910390a3600160036000828254610a4291906114a6565b90915550610a5090506111c2565b50565b610e10600a5442610a64919061148f565b1115610aab5760405162461bcd60e51b815260206004820152601660248201527513585e080c481a1bdd5c8818599d195c881cdd185c9d60521b604482015260640161039f565b3360009081526001602081905260409091206003015460ff1615159003610be8576003543360009081526001602052604090206002015403610b255760405162461bcd60e51b815260206004820152601360248201527213db9b1e480c4818995d08189e481c9bdd5b99606a1b604482015260640161039f565b33600090815260016020526040902060020154600480549091908110610b4d57610b4d61137d565b90600052602060002090602091828204019190069054906101000a900460ff166001811115610b7e57610b7e6112bc565b33600090815260016020819052604090912081015460ff1690811115610ba657610ba66112bc565b03610be85760405162461bcd60e51b815260206004820152601260248201527114195b991a5b99c81dda5d1a191c985dd85b60721b604482015260640161039f565b33600090815260016020819052604090912034815581018054839260ff19909116908381811115610c1b57610c1b6112bc565b0217905550600380543360009081526001602081905260408220600281019390935591909201805460ff1916821790558290811115610c5c57610c5c6112bc565b03610c9b5734600860035481548110610c7757610c7761137d565b906000526020600020016000828254610c9091906114a6565b90915550610ce99050565b6001816001811115610caf57610caf6112bc565b03610ce95734600960035481548110610cca57610cca61137d565b906000526020600020016000828254610ce391906114a6565b90915550505b34600760035481548110610cff57610cff61137d565b906000526020600020016000828254610d1891906114a6565b90915550506003546040513391907f9a9b1ab57a775ebead5cefe947552da14819ceab35cbce686dde8c688f12aa4a90610d5590349086906114be565b60405180910390a350565b6001600160a01b03811660009081526001602052604081206003015460ff1615158103610d8f57506000919050565b6003546001600160a01b03831660009081526001602052604090206002015403610dbb57506000919050565b6001600160a01b0382166000908152600160205260409020600201546004805482908110610deb57610deb61137d565b90600052602060002090602091828204019190069054906101000a900460ff166001811115610e1c57610e1c6112bc565b6001600160a01b038416600090815260016020819052604090912081015460ff1690811115610e4d57610e4d6112bc565b14610e5b5750600092915050565b6000806001600160a01b038516600090815260016020819052604090912081015460ff1690811115610e8f57610e8f6112bc565b03610f58573360009081526001602052604090206002015460078054606492908110610ebd57610ebd61137d565b9060005260206000200154600860016000336001600160a01b03166001600160a01b031681526020019081526020016000206002015481548110610f0357610f0361137d565b60009182526020808320909101546001600160a01b03891683526001909152604090912054610f339060646113a9565b610f3d91906113de565b610f4791906113a9565b610f5191906113de565b9050611021565b6001600160a01b03841660009081526001602052604090206002015460078054606492908110610f8a57610f8a61137d565b9060005260206000200154600960016000886001600160a01b03166001600160a01b031681526020019081526020016000206002015481548110610fd057610fd061137d565b60009182526020808320909101546001600160a01b038916835260019091526040909120546110009060646113a9565b61100a91906113de565b61101491906113a9565b61101e91906113de565b90505b9392505050565b600c54600b5460405160009283926001600160a01b03909116918381818185875af1925050503d806000811461107a576040519150601f19603f3d011682016040523d82523d6000602084013e61107f565b606091505b50915091508161108e57600080fd5b5050565b61109a611118565b6001600160a01b0381166110ff5760405162461bcd60e51b815260206004820152602660248201527f4f776e61626c653a206e6577206f776e657220697320746865207a65726f206160448201526564647265737360d01b606482015260840161039f565b610a5081611172565b6008818154811061070557600080fd5b6000546001600160a01b0316331461075c5760405162461bcd60e51b815260206004820181905260248201527f4f776e61626c653a2063616c6c6572206973206e6f7420746865206f776e6572604482015260640161039f565b600080546001600160a01b038381166001600160a01b0319831681178455604051919092169283917f8be0079c531659141344cd1fd0a4f28419497f9722a3daafe3b4186f6b6457e09190a35050565b60078054600181810190925560007fa66cc928b5edb82af9bd49922954155ab7b0942694bea4ce44661d9a8736c688909101819055600880548084019091557ff3f7a9fe364faab93b216da50a3214154f22a0a2b415b23a84c8169e8b636ee30181905560098054928301815581527f6e1540171b6c0c960b71a7020d9f60077f6af931a8bbf590da0223dacf75c7af9091015561125e61076e565b600581905542600a81905560035460405192835290917f8de78fc030d06c580edae40f56be50d47b03f44cc730caea633405b96388c3b09060200160405180910390a3565b6000602082840312156112b557600080fd5b5035919050565b634e487b7160e01b600052602160045260246000fd5b600281106112f057634e487b7160e01b600052602160045260246000fd5b9052565b6020810161130282846112d2565b92915050565b60006020828403121561131a57600080fd5b81356002811061102157600080fd5b60006020828403121561133b57600080fd5b81356001600160a01b038116811461102157600080fd5b8481526080810161136660208301866112d2565b836040830152821515606083015295945050505050565b634e487b7160e01b600052603260045260246000fd5b634e487b7160e01b600052601160045260246000fd5b60008160001904831182151516156113c3576113c3611393565b500290565b634e487b7160e01b600052601260045260246000fd5b6000826113ed576113ed6113c8565b500490565b805169ffffffffffffffffffff8116811461140c57600080fd5b919050565b600080600080600060a0868803121561142957600080fd5b611432866113f2565b9450602086015193506040860151925060608601519150611455608087016113f2565b90509295509295909350565b600082611470576114706113c8565b600160ff1b82146000198414161561148a5761148a611393565b500590565b6000828210156114a1576114a1611393565b500390565b600082198211156114b9576114b9611393565b500190565b8281526040810161102160208301846112d256fea264697066735822122051dd7a7d705571b242d96c74f5b2c427d2cc57b0a513ae455da6f4cd96b4d07064736f6c634300080f0033","bytecodeSha1":"47674495416fba7025934aa2e9a29f931e064fb7","compiler":{"evm_version":"istanbul","optimizer":{"enabled":true,"runs":200},"version":"0.8.15+commit.e14f2714"},"contractName":"BitcoinUpDown","language":"Solidity","natspec":{"kind":"dev","methods":{"owner()":{"details":"Returns the address of the current owner."},"renounceOwnership()":{"details":"Leaves the contract without owner. It will not be possible to call `onlyOwner` functions anymore. Can only be called by the current owner. NOTE: Renouncing ownership will leave the contract without an owner, thereby removing any functionality that is only available to the owner."},"transferOwnership(address)":{"details":"Transfers ownership of the contract to a new account (`newOwner`). Can only be called by the current owner."}},"version":1},"opcodes":"PUSH1 0x80 PUSH1 0x40 MSTORE PUSH1 0x4 CALLDATASIZE LT PUSH2 0x109 JUMPI PUSH1 0x0 CALLDATALOAD PUSH1 0xE0 SHR DUP1 PUSH4 0x8DA5CB5B GT PUSH2 0x95 JUMPI DUP1 PUSH4 0xDA1A8A6A GT PUSH2 0x64 JUMPI DUP1 PUSH4 0xDA1A8A6A EQ PUSH2 0x277 JUMPI DUP1 PUSH4 0xE3380D69 EQ PUSH2 0x297 JUMPI DUP1 PUSH4 0xE941FA78 EQ PUSH2 0x2EF JUMPI DUP1 PUSH4 0xF2FDE38B EQ PUSH2 0x304 JUMPI DUP1 PUSH4 0xFC3EC1AA EQ PUSH2 0x324 JUMPI PUSH1 0x0 DUP1 REVERT JUMPDEST DUP1 PUSH4 0x8DA5CB5B EQ PUSH2 0x212 JUMPI DUP1 PUSH4 0x98D5FDCA EQ PUSH2 0x23A JUMPI DUP1 PUSH4 0xD06DA2CB EQ PUSH2 0x24F JUMPI DUP1 PUSH4 0xD0821B0E EQ PUSH2 0x264 JUMPI PUSH1 0x0 DUP1 REVERT JUMPDEST DUP1 PUSH4 0x4CD3E333 GT PUSH2 0xDC JUMPI DUP1 PUSH4 0x4CD3E333 EQ PUSH2 0x17A JUMPI DUP1 PUSH4 0x52E9A640 EQ PUSH2 0x19A JUMPI DUP1 PUSH4 0x6EC11F0B EQ PUSH2 0x1C7 JUMPI DUP1 PUSH4 0x715018A6 EQ PUSH2 0x1DD JUMPI DUP1 PUSH4 0x76DA5A40 EQ PUSH2 0x1F2 JUMPI PUSH1 0x0 DUP1 REVERT JUMPDEST DUP1 PUSH4 0x146CA531 EQ PUSH2 0x10E JUMPI DUP1 PUSH4 0x34EF4242 EQ PUSH2 0x137 JUMPI DUP1 PUSH4 0x3CCFD60B EQ PUSH2 0x14D JUMPI DUP1 PUSH4 0x43E2A4AE EQ PUSH2 0x164 JUMPI JUMPDEST PUSH1 0x0 DUP1 REVERT JUMPDEST CALLVALUE DUP1 ISZERO PUSH2 0x11A JUMPI PUSH1 0x0 DUP1 REVERT JUMPDEST POP PUSH2 0x124 PUSH1 0x3 SLOAD DUP2 JUMP JUMPDEST PUSH1 0x40 MLOAD SWAP1 DUP2 MSTORE PUSH1 0x20 ADD JUMPDEST PUSH1 0x40 MLOAD DUP1 SWAP2 SUB SWAP1 RETURN JUMPDEST CALLVALUE DUP1 ISZERO PUSH2 0x143 JUMPI PUSH1 0x0 DUP1 REVERT JUMPDEST POP PUSH2 0x124 PUSH1 0x5 SLOAD DUP2 JUMP JUMPDEST CALLVALUE DUP1 ISZERO PUSH2 0x159 JUMPI PUSH1 0x0 DUP1 REVERT JUMPDEST POP PUSH2 0x162 PUSH2 0x344 JUMP JUMPDEST STOP JUMPDEST CALLVALUE DUP1 ISZERO PUSH2 0x170 JUMPI PUSH1 0x0 DUP1 REVERT JUMPDEST POP PUSH2 0x124 PUSH1 0xA SLOAD DUP2 JUMP JUMPDEST CALLVALUE DUP1 ISZERO PUSH2 0x186 JUMPI PUSH1 0x0 DUP1 REVERT JUMPDEST POP PUSH2 0x124 PUSH2 0x195 CALLDATASIZE PUSH1 0x4 PUSH2 0x12A3 JUMP JUMPDEST PUSH2 0x6F5 JUMP JUMPDEST CALLVALUE DUP1 ISZERO PUSH2 0x1A6 JUMPI PUSH1 0x0 DUP1 REVERT JUMPDEST POP PUSH2 0x1BA PUSH2 0x1B5 CALLDATASIZE PUSH1 0x4 PUSH2 0x12A3 JUMP JUMPDEST PUSH2 0x716 JUMP JUMPDEST PUSH1 0x40 MLOAD PUSH2 0x12E SWAP2 SWAP1 PUSH2 0x12F4 JUMP JUMPDEST CALLVALUE DUP1 ISZERO PUSH2 0x1D3 JUMPI PUSH1 0x0 DUP1 REVERT JUMPDEST POP PUSH2 0x124 PUSH1 0x6 SLOAD DUP2 JUMP JUMPDEST CALLVALUE DUP1 ISZERO PUSH2 0x1E9 JUMPI PUSH1 0x0 DUP1 REVERT JUMPDEST POP PUSH2 0x162 PUSH2 0x74A JUMP JUMPDEST CALLVALUE DUP1 ISZERO PUSH2 0x1FE JUMPI PUSH1 0x0 DUP1 REVERT JUMPDEST POP PUSH2 0x124 PUSH2 0x20D CALLDATASIZE PUSH1 0x4 PUSH2 0x12A3 JUMP JUMPDEST PUSH2 0x75E JUMP JUMPDEST CALLVALUE DUP1 ISZERO PUSH2 0x21E JUMPI PUSH1 0x0 DUP1 REVERT JUMPDEST POP PUSH1 0x0 SLOAD PUSH1 0x40 MLOAD PUSH1 0x1 PUSH1 0x1 PUSH1 0xA0 SHL SUB SWAP1 SWAP2 AND DUP2 MSTORE PUSH1 0x20 ADD PUSH2 0x12E JUMP JUMPDEST CALLVALUE DUP1 ISZERO PUSH2 0x246 JUMPI PUSH1 0x0 DUP1 REVERT JUMPDEST POP PUSH2 0x124 PUSH2 0x76E JUMP JUMPDEST CALLVALUE DUP1 ISZERO PUSH2 0x25B JUMPI PUSH1 0x0 DUP1 REVERT JUMPDEST POP PUSH2 0x162 PUSH2 0x804 JUMP JUMPDEST PUSH2 0x162 PUSH2 0x272 CALLDATASIZE PUSH1 0x4 PUSH2 0x1308 JUMP JUMPDEST PUSH2 0xA53 JUMP JUMPDEST CALLVALUE DUP1 ISZERO PUSH2 0x283 JUMPI PUSH1 0x0 DUP1 REVERT JUMPDEST POP PUSH2 0x124 PUSH2 0x292 CALLDATASIZE PUSH1 0x4 PUSH2 0x1329 JUMP JUMPDEST PUSH2 0xD60 JUMP JUMPDEST CALLVALUE DUP1 ISZERO PUSH2 0x2A3 JUMPI PUSH1 0x0 DUP1 REVERT JUMPDEST POP PUSH2 0x2DF PUSH2 0x2B2 CALLDATASIZE PUSH1 0x4 PUSH2 0x1329 JUMP JUMPDEST PUSH1 0x1 PUSH1 0x20 DUP2 SWAP1 MSTORE PUSH1 0x0 SWAP2 DUP3 MSTORE PUSH1 0x40 SWAP1 SWAP2 KECCAK256 DUP1 SLOAD SWAP2 DUP2 ADD SLOAD PUSH1 0x2 DUP3 ADD SLOAD PUSH1 0x3 SWAP1 SWAP3 ADD SLOAD PUSH1 0xFF SWAP2 DUP3 AND SWAP3 SWAP2 AND DUP5 JUMP JUMPDEST PUSH1 0x40 MLOAD PUSH2 0x12E SWAP5 SWAP4 SWAP3 SWAP2 SWAP1 PUSH2 0x1352 JUMP JUMPDEST CALLVALUE DUP1 ISZERO PUSH2 0x2FB JUMPI PUSH1 0x0 DUP1 REVERT JUMPDEST POP PUSH2 0x162 PUSH2 0x1028 JUMP JUMPDEST CALLVALUE DUP1 ISZERO PUSH2 0x310 JUMPI PUSH1 0x0 DUP1 REVERT JUMPDEST POP PUSH2 0x162 PUSH2 0x31F CALLDATASIZE PUSH1 0x4 PUSH2 0x1329 JUMP JUMPDEST PUSH2 0x1092 JUMP JUMPDEST CALLVALUE DUP1 ISZERO PUSH2 0x330 JUMPI PUSH1 0x0 DUP1 REVERT JUMPDEST POP PUSH2 0x124 PUSH2 0x33F CALLDATASIZE PUSH1 0x4 PUSH2 0x12A3 JUMP JUMPDEST PUSH2 0x1108 JUMP JUMPDEST CALLER PUSH1 0x0 SWAP1 DUP2 MSTORE PUSH1 0x1 PUSH1 0x20 DUP2 SWAP1 MSTORE PUSH1 0x40 SWAP1 SWAP2 KECCAK256 PUSH1 0x3 ADD SLOAD PUSH1 0xFF AND ISZERO ISZERO EQ PUSH2 0x3A8 JUMPI PUSH1 0x40 MLOAD PUSH3 0x461BCD PUSH1 0xE5 SHL DUP2 MSTORE PUSH1 0x20 PUSH1 0x4 DUP3 ADD MSTORE PUSH1 0x14 PUSH1 0x24 DUP3 ADD MSTORE PUSH20 0x141B185E595C88191BD95CDB89DD08195E1A5CDD PUSH1 0x62 SHL PUSH1 0x44 DUP3 ADD MSTORE PUSH1 0x64 ADD JUMPDEST PUSH1 0x40 MLOAD DUP1 SWAP2 SUB SWAP1 REVERT JUMPDEST PUSH1 0x3 SLOAD CALLER PUSH1 0x0 SWAP1 DUP2 MSTORE PUSH1 0x1 PUSH1 0x20 MSTORE PUSH1 0x40 SWAP1 KECCAK256 PUSH1 0x2 ADD SLOAD LT PUSH2 0x3FF JUMPI PUSH1 0x40 MLOAD PUSH3 0x461BCD PUSH1 0xE5 SHL DUP2 MSTORE PUSH1 0x20 PUSH1 0x4 DUP3 ADD MSTORE PUSH1 0x11 PUSH1 0x24 DUP3 ADD MSTORE PUSH17 0x526F756E64207374696C6C20676F696E67 PUSH1 0x78 SHL PUSH1 0x44 DUP3 ADD MSTORE PUSH1 0x64 ADD PUSH2 0x39F JUMP JUMPDEST CALLER PUSH1 0x0 SWAP1 DUP2 MSTORE PUSH1 0x1 PUSH1 0x20 MSTORE PUSH1 0x40 SWAP1 KECCAK256 PUSH1 0x2 ADD SLOAD PUSH1 0x4 DUP1 SLOAD SWAP1 SWAP2 SWAP1 DUP2 LT PUSH2 0x427 JUMPI PUSH2 0x427 PUSH2 0x137D JUMP JUMPDEST SWAP1 PUSH1 0x0 MSTORE PUSH1 0x20 PUSH1 0x0 KECCAK256 SWAP1 PUSH1 0x20 SWAP2 DUP3 DUP3 DIV ADD SWAP2 SWAP1 MOD SWAP1 SLOAD SWAP1 PUSH2 0x100 EXP SWAP1 DIV PUSH1 0xFF AND PUSH1 0x1 DUP2 GT ISZERO PUSH2 0x458 JUMPI PUSH2 0x458 PUSH2 0x12BC JUMP JUMPDEST CALLER PUSH1 0x0 SWAP1 DUP2 MSTORE PUSH1 0x1 PUSH1 0x20 DUP2 SWAP1 MSTORE PUSH1 0x40 SWAP1 SWAP2 KECCAK256 DUP2 ADD SLOAD PUSH1 0xFF AND SWAP1 DUP2 GT ISZERO PUSH2 0x480 JUMPI PUSH2 0x480 PUSH2 0x12BC JUMP JUMPDEST EQ PUSH2 0x4B5 JUMPI PUSH1 0x40 MLOAD PUSH3 0x461BCD PUSH1 0xE5 SHL DUP2 MSTORE PUSH1 0x20 PUSH1 0x4 DUP3 ADD MSTORE PUSH1 0x5 PUSH1 0x24 DUP3 ADD MSTORE PUSH5 0x2637B9B2B9 PUSH1 0xD9 SHL PUSH1 0x44 DUP3 ADD MSTORE PUSH1 0x64 ADD PUSH2 0x39F JUMP JUMPDEST CALLER PUSH1 0x0 SWAP1 DUP2 MSTORE PUSH1 0x1 PUSH1 0x20 DUP2 SWAP1 MSTORE PUSH1 0x40 DUP3 KECCAK256 PUSH1 0x3 DUP2 ADD DUP1 SLOAD PUSH1 0xFF NOT AND SWAP1 SSTORE DUP2 ADD SLOAD DUP3 SWAP2 PUSH1 0xFF SWAP1 SWAP2 AND SWAP1 DUP2 GT ISZERO PUSH2 0x4EC JUMPI PUSH2 0x4EC PUSH2 0x12BC JUMP JUMPDEST SUB PUSH2 0x5AC JUMPI CALLER PUSH1 0x0 SWAP1 DUP2 MSTORE PUSH1 0x1 PUSH1 0x20 MSTORE PUSH1 0x40 SWAP1 KECCAK256 PUSH1 0x2 ADD SLOAD PUSH1 0x7 DUP1 SLOAD PUSH1 0x64 SWAP3 SWAP1 DUP2 LT PUSH2 0x51A JUMPI PUSH2 0x51A PUSH2 0x137D JUMP JUMPDEST SWAP1 PUSH1 0x0 MSTORE PUSH1 0x20 PUSH1 0x0 KECCAK256 ADD SLOAD PUSH1 0x8 PUSH1 0x1 PUSH1 0x0 CALLER PUSH1 0x1 PUSH1 0x1 PUSH1 0xA0 SHL SUB AND PUSH1 0x1 PUSH1 0x1 PUSH1 0xA0 SHL SUB AND DUP2 MSTORE PUSH1 0x20 ADD SWAP1 DUP2 MSTORE PUSH1 0x20 ADD PUSH1 0x0 KECCAK256 PUSH1 0x2 ADD SLOAD DUP2 SLOAD DUP2 LT PUSH2 0x560 JUMPI PUSH2 0x560 PUSH2 0x137D JUMP JUMPDEST PUSH1 0x0 SWAP2 DUP3 MSTORE PUSH1 0x20 DUP1 DUP4 KECCAK256 SWAP1 SWAP2 ADD SLOAD CALLER DUP4 MSTORE PUSH1 0x1 SWAP1 SWAP2 MSTORE PUSH1 0x40 SWAP1 SWAP2 KECCAK256 SLOAD PUSH2 0x587 SWAP1 PUSH1 0x64 PUSH2 0x13A9 JUMP JUMPDEST PUSH2 0x591 SWAP2 SWAP1 PUSH2 0x13DE JUMP JUMPDEST PUSH2 0x59B SWAP2 SWAP1 PUSH2 0x13A9 JUMP JUMPDEST PUSH2 0x5A5 SWAP2 SWAP1 PUSH2 0x13DE JUMP JUMPDEST SWAP1 POP PUSH2 0x663 JUMP JUMPDEST CALLER PUSH1 0x0 SWAP1 DUP2 MSTORE PUSH1 0x1 PUSH1 0x20 MSTORE PUSH1 0x40 SWAP1 KECCAK256 PUSH1 0x2 ADD SLOAD PUSH1 0x7 DUP1 SLOAD PUSH1 0x64 SWAP3 SWAP1 DUP2 LT PUSH2 0x5D5 JUMPI PUSH2 0x5D5 PUSH2 0x137D JUMP JUMPDEST SWAP1 PUSH1 0x0 MSTORE PUSH1 0x20 PUSH1 0x0 KECCAK256 ADD SLOAD PUSH1 0x9 PUSH1 0x1 PUSH1 0x0 CALLER PUSH1 0x1 PUSH1 0x1 PUSH1 0xA0 SHL SUB AND PUSH1 0x1 PUSH1 0x1 PUSH1 0xA0 SHL SUB AND DUP2 MSTORE PUSH1 0x20 ADD SWAP1 DUP2 MSTORE PUSH1 0x20 ADD PUSH1 0x0 KECCAK256 PUSH1 0x2 ADD SLOAD DUP2 SLOAD DUP2 LT PUSH2 0x61B JUMPI PUSH2 0x61B PUSH2 0x137D JUMP JUMPDEST PUSH1 0x0 SWAP2 DUP3 MSTORE PUSH1 0x20 DUP1 DUP4 KECCAK256 SWAP1 SWAP2 ADD SLOAD CALLER DUP4 MSTORE PUSH1 0x1 SWAP1 SWAP2 MSTORE PUSH1 0x40 SWAP1 SWAP2 KECCAK256 SLOAD PUSH2 0x642 SWAP1 PUSH1 0x64 PUSH2 0x13A9 JUMP JUMPDEST PUSH2 0x64C SWAP2 SWAP1 PUSH2 0x13DE JUMP JUMPDEST PUSH2 0x656 SWAP2 SWAP1 PUSH2 0x13A9 JUMP JUMPDEST PUSH2 0x660 SWAP2 SWAP1 PUSH2 0x13DE JUMP JUMPDEST SWAP1 POP JUMPDEST PUSH1 0x40 MLOAD PUSH1 0x0 SWAP1 DUP2 SWAP1 CALLER SWAP1 DUP5 SWAP1 DUP4 DUP2 DUP2 DUP2 DUP6 DUP8 GAS CALL SWAP3 POP POP POP RETURNDATASIZE DUP1 PUSH1 0x0 DUP2 EQ PUSH2 0x6A7 JUMPI PUSH1 0x40 MLOAD SWAP2 POP PUSH1 0x1F NOT PUSH1 0x3F RETURNDATASIZE ADD AND DUP3 ADD PUSH1 0x40 MSTORE RETURNDATASIZE DUP3 MSTORE RETURNDATASIZE PUSH1 0x0 PUSH1 0x20 DUP5 ADD RETURNDATACOPY PUSH2 0x6AC JUMP JUMPDEST PUSH1 0x60 SWAP2 POP JUMPDEST POP SWAP2 POP SWAP2 POP DUP2 PUSH2 0x6F0 JUMPI PUSH1 0x40 MLOAD PUSH3 0x461BCD PUSH1 0xE5 SHL DUP2 MSTORE PUSH1 0x20 PUSH1 0x4 DUP3 ADD MSTORE PUSH1 0xF PUSH1 0x24 DUP3 ADD MSTORE PUSH15 0x15DA5D1A191C985DC819985A5B1959 PUSH1 0x8A SHL PUSH1 0x44 DUP3 ADD MSTORE PUSH1 0x64 ADD PUSH2 0x39F JUMP JUMPDEST POP POP POP JUMP JUMPDEST PUSH1 0x9 DUP2 DUP2 SLOAD DUP2 LT PUSH2 0x705 JUMPI PUSH1 0x0 DUP1 REVERT JUMPDEST PUSH1 0x0 SWAP2 DUP3 MSTORE PUSH1 0x20 SWAP1 SWAP2 KECCAK256 ADD SLOAD SWAP1 POP DUP2 JUMP JUMPDEST PUSH1 0x4 DUP2 DUP2 SLOAD DUP2 LT PUSH2 0x726 JUMPI PUSH1 0x0 DUP1 REVERT JUMPDEST SWAP1 PUSH1 0x0 MSTORE PUSH1 0x20 PUSH1 0x0 KECCAK256 SWAP1 PUSH1 0x20 SWAP2 DUP3 DUP3 DIV ADD SWAP2 SWAP1 MOD SWAP2 POP SLOAD SWAP1 PUSH2 0x100 EXP SWAP1 DIV PUSH1 0xFF AND DUP2 JUMP JUMPDEST PUSH2 0x752 PUSH2 0x1118 JUMP JUMPDEST PUSH2 0x75C PUSH1 0x0 PUSH2 0x1172 JUMP JUMPDEST JUMP JUMPDEST PUSH1 0x7 DUP2 DUP2 SLOAD DUP2 LT PUSH2 0x705 JUMPI PUSH1 0x0 DUP1 REVERT JUMPDEST PUSH1 0x0 DUP1 PUSH1 0x2 PUSH1 0x0 SWAP1 SLOAD SWAP1 PUSH2 0x100 EXP SWAP1 DIV PUSH1 0x1 PUSH1 0x1 PUSH1 0xA0 SHL SUB AND PUSH1 0x1 PUSH1 0x1 PUSH1 0xA0 SHL SUB AND PUSH4 0xFEAF968C PUSH1 0x40 MLOAD DUP2 PUSH4 0xFFFFFFFF AND PUSH1 0xE0 SHL DUP2 MSTORE PUSH1 0x4 ADD PUSH1 0xA0 PUSH1 0x40 MLOAD DUP1 DUP4 SUB DUP2 DUP7 GAS STATICCALL ISZERO DUP1 ISZERO PUSH2 0x7C4 JUMPI RETURNDATASIZE PUSH1 0x0 DUP1 RETURNDATACOPY RETURNDATASIZE PUSH1 0x0 REVERT JUMPDEST POP POP POP POP PUSH1 0x40 MLOAD RETURNDATASIZE PUSH1 0x1F NOT PUSH1 0x1F DUP3 ADD AND DUP3 ADD DUP1 PUSH1 0x40 MSTORE POP DUP2 ADD SWAP1 PUSH2 0x7E8 SWAP2 SWAP1 PUSH2 0x1411 JUMP JUMPDEST POP POP POP SWAP2 POP POP PUSH4 0x5F5E100 DUP2 PUSH2 0x7FE SWAP2 SWAP1 PUSH2 0x1461 JUMP JUMPDEST SWAP2 POP POP SWAP1 JUMP JUMPDEST PUSH1 0x0 PUSH2 0x80E PUSH2 0x76E JUMP JUMPDEST PUSH1 0x6 SSTORE PUSH1 0x3 SLOAD PUSH1 0x7 DUP1 SLOAD PUSH1 0x64 SWAP3 SWAP1 DUP2 LT PUSH2 0x82A JUMPI PUSH2 0x82A PUSH2 0x137D JUMP JUMPDEST SWAP1 PUSH1 0x0 MSTORE PUSH1 0x20 PUSH1 0x0 KECCAK256 ADD SLOAD PUSH1 0x1 PUSH2 0x841 SWAP2 SWAP1 PUSH2 0x13A9 JUMP JUMPDEST PUSH2 0x84B SWAP2 SWAP1 PUSH2 0x13DE JUMP JUMPDEST PUSH1 0x7 PUSH1 0x3 SLOAD DUP2 SLOAD DUP2 LT PUSH2 0x860 JUMPI PUSH2 0x860 PUSH2 0x137D JUMP JUMPDEST SWAP1 PUSH1 0x0 MSTORE PUSH1 0x20 PUSH1 0x0 KECCAK256 ADD PUSH1 0x0 DUP3 DUP3 SLOAD PUSH2 0x879 SWAP2 SWAP1 PUSH2 0x148F JUMP JUMPDEST SWAP1 SWAP2 SSTORE POP POP PUSH1 0x5 SLOAD PUSH1 0x6 SLOAD SLT PUSH2 0x8D8 JUMPI POP PUSH1 0x4 DUP1 SLOAD PUSH1 0x1 DUP2 ADD DUP3 SSTORE PUSH1 0x0 SWAP2 DUP3 MSTORE PUSH32 0x8A35ACFBC15FF81A39AE7D344FD709F28E8600B4AA8C65C6B64BFE7FE36BD19B PUSH1 0x20 DUP3 DIV ADD DUP1 SLOAD PUSH1 0x1F SWAP1 SWAP3 AND PUSH2 0x100 EXP PUSH1 0xFF MUL NOT SWAP1 SWAP2 AND SWAP1 SSTORE PUSH2 0x934 JUMP JUMPDEST PUSH1 0x5 SLOAD PUSH1 0x6 SLOAD SLT ISZERO PUSH2 0x934 JUMPI POP PUSH1 0x4 DUP1 SLOAD PUSH1 0x1 DUP1 DUP3 ADD DUP4 SSTORE PUSH1 0x0 SWAP3 SWAP1 SWAP3 MSTORE PUSH1 0x20 DUP2 DIV PUSH32 0x8A35ACFBC15FF81A39AE7D344FD709F28E8600B4AA8C65C6B64BFE7FE36BD19B ADD DUP1 SLOAD PUSH1 0xFF PUSH1 0x1F SWAP1 SWAP4 AND PUSH2 0x100 EXP SWAP3 DUP4 MUL NOT AND SWAP1 SWAP2 OR SWAP1 SSTORE JUMPDEST PUSH1 0x64 PUSH1 0x7 PUSH1 0x3 SLOAD DUP2 SLOAD DUP2 LT PUSH2 0x94B JUMPI PUSH2 0x94B PUSH2 0x137D JUMP JUMPDEST SWAP1 PUSH1 0x0 MSTORE PUSH1 0x20 PUSH1 0x0 KECCAK256 ADD SLOAD PUSH1 0x1 PUSH2 0x962 SWAP2 SWAP1 PUSH2 0x13A9 JUMP JUMPDEST PUSH2 0x96C SWAP2 SWAP1 PUSH2 0x13DE JUMP JUMPDEST PUSH1 0xB PUSH1 0x0 DUP3 DUP3 SLOAD PUSH2 0x97D SWAP2 SWAP1 PUSH2 0x14A6 JUMP JUMPDEST SWAP3 POP POP DUP2 SWAP1 SSTORE POP TIMESTAMP PUSH1 0x3 SLOAD PUSH32 0xEA1D825F268E49AA3DD3303F26715A0328F630E5C0110613C0FE5F86C5C0F9B7 PUSH1 0x6 SLOAD PUSH1 0x7 PUSH1 0x3 SLOAD DUP2 SLOAD DUP2 LT PUSH2 0x9C1 JUMPI PUSH2 0x9C1 PUSH2 0x137D JUMP JUMPDEST SWAP1 PUSH1 0x0 MSTORE PUSH1 0x20 PUSH1 0x0 KECCAK256 ADD SLOAD PUSH1 0x8 PUSH1 0x3 SLOAD DUP2 SLOAD DUP2 LT PUSH2 0x9E1 JUMPI PUSH2 0x9E1 PUSH2 0x137D JUMP JUMPDEST SWAP1 PUSH1 0x0 MSTORE PUSH1 0x20 PUSH1 0x0 KECCAK256 ADD SLOAD PUSH1 0x9 PUSH1 0x3 SLOAD DUP2 SLOAD DUP2 LT PUSH2 0xA01 JUMPI PUSH2 0xA01 PUSH2 0x137D JUMP JUMPDEST PUSH1 0x0 SWAP2 DUP3 MSTORE PUSH1 0x20 SWAP2 DUP3 SWAP1 KECCAK256 ADD SLOAD PUSH1 0x40 DUP1 MLOAD SWAP6 DUP7 MSTORE SWAP2 DUP6 ADD SWAP4 SWAP1 SWAP4 MSTORE DUP4 ADD MSTORE PUSH1 0x60 DUP3 ADD MSTORE PUSH1 0x80 ADD PUSH1 0x40 MLOAD DUP1 SWAP2 SUB SWAP1 LOG3 PUSH1 0x1 PUSH1 0x3 PUSH1 0x0 DUP3 DUP3 SLOAD PUSH2 0xA42 SWAP2 SWAP1 PUSH2 0x14A6 JUMP JUMPDEST SWAP1 SWAP2 SSTORE POP PUSH2 0xA50 SWAP1 POP PUSH2 0x11C2 JUMP JUMPDEST POP JUMP JUMPDEST PUSH2 0xE10 PUSH1 0xA SLOAD TIMESTAMP PUSH2 0xA64 SWAP2 SWAP1 PUSH2 0x148F JUMP JUMPDEST GT ISZERO PUSH2 0xAAB JUMPI PUSH1 0x40 MLOAD PUSH3 0x461BCD PUSH1 0xE5 SHL DUP2 MSTORE PUSH1 0x20 PUSH1 0x4 DUP3 ADD MSTORE PUSH1 0x16 PUSH1 0x24 DUP3 ADD MSTORE PUSH22 0x13585E080C481A1BDD5C8818599D195C881CDD185C9D PUSH1 0x52 SHL PUSH1 0x44 DUP3 ADD MSTORE PUSH1 0x64 ADD PUSH2 0x39F JUMP JUMPDEST CALLER PUSH1 0x0 SWAP1 DUP2 MSTORE PUSH1 0x1 PUSH1 0x20 DUP2 SWAP1 MSTORE PUSH1 0x40 SWAP1 SWAP2 KECCAK256 PUSH1 0x3 ADD SLOAD PUSH1 0xFF AND ISZERO ISZERO SWAP1 SUB PUSH2 0xBE8 JUMPI PUSH1 0x3 SLOAD CALLER PUSH1 0x0 SWAP1 DUP2 MSTORE PUSH1 0x1 PUSH1 0x20 MSTORE PUSH1 0x40 SWAP1 KECCAK256 PUSH1 0x2 ADD SLOAD SUB PUSH2 0xB25 JUMPI PUSH1 0x40 MLOAD PUSH3 0x461BCD PUSH1 0xE5 SHL DUP2 MSTORE PUSH1 0x20 PUSH1 0x4 DUP3 ADD MSTORE PUSH1 0x13 PUSH1 0x24 DUP3 ADD MSTORE PUSH19 0x13DB9B1E480C4818995D08189E481C9BDD5B99 PUSH1 0x6A SHL PUSH1 0x44 DUP3 ADD MSTORE PUSH1 0x64 ADD PUSH2 0x39F JUMP JUMPDEST CALLER PUSH1 0x0 SWAP1 DUP2 MSTORE PUSH1 0x1 PUSH1 0x20 MSTORE PUSH1 0x40 SWAP1 KECCAK256 PUSH1 0x2 ADD SLOAD PUSH1 0x4 DUP1 SLOAD SWAP1 SWAP2 SWAP1 DUP2 LT PUSH2 0xB4D JUMPI PUSH2 0xB4D PUSH2 0x137D JUMP JUMPDEST SWAP1 PUSH1 0x0 MSTORE PUSH1 0x20 PUSH1 0x0 KECCAK256 SWAP1 PUSH1 0x20 SWAP2 DUP3 DUP3 DIV ADD SWAP2 SWAP1 MOD SWAP1 SLOAD SWAP1 PUSH2 0x100 EXP SWAP1 DIV PUSH1 0xFF AND PUSH1 0x1 DUP2 GT ISZERO PUSH2 0xB7E JUMPI PUSH2 0xB7E PUSH2 0x12BC JUMP JUMPDEST CALLER PUSH1 0x0 SWAP1 DUP2 MSTORE PUSH1 0x1 PUSH1 0x20 DUP2 SWAP1 MSTORE PUSH1 0x40 SWAP1 SWAP2 KECCAK256 DUP2 ADD SLOAD PUSH1 0xFF AND SWAP1 DUP2 GT ISZERO PUSH2 0xBA6 JUMPI PUSH2 0xBA6 PUSH2 0x12BC JUMP JUMPDEST SUB PUSH2 0xBE8 JUMPI PUSH1 0x40 MLOAD PUSH3 0x461BCD PUSH1 0xE5 SHL DUP2 MSTORE PUSH1 0x20 PUSH1 0x4 DUP3 ADD MSTORE PUSH1 0x12 PUSH1 0x24 DUP3 ADD MSTORE PUSH18 0x14195B991A5B99C81DDA5D1A191C985DD85B PUSH1 0x72 SHL PUSH1 0x44 DUP3 ADD MSTORE PUSH1 0x64 ADD PUSH2 0x39F JUMP JUMPDEST CALLER PUSH1 0x0 SWAP1 DUP2 MSTORE PUSH1 0x1 PUSH1 0x20 DUP2 SWAP1 MSTORE PUSH1 0x40 SWAP1 SWAP2 KECCAK256 CALLVALUE DUP2 SSTORE DUP2 ADD DUP1 SLOAD DUP4 SWAP3 PUSH1 0xFF NOT SWAP1 SWAP2 AND SWAP1 DUP4 DUP2 DUP2 GT ISZERO PUSH2 0xC1B JUMPI PUSH2 0xC1B PUSH2 0x12BC JUMP JUMPDEST MUL OR SWAP1 SSTORE POP PUSH1 0x3 DUP1 SLOAD CALLER PUSH1 0x0 SWAP1 DUP2 MSTORE PUSH1 0x1 PUSH1 0x20 DUP2 SWAP1 MSTORE PUSH1 0x40 DUP3 KECCAK256 PUSH1 0x2 DUP2 ADD SWAP4 SWAP1 SWAP4 SSTORE SWAP2 SWAP1 SWAP3 ADD DUP1 SLOAD PUSH1 0xFF NOT AND DUP3 OR SWAP1 SSTORE DUP3 SWAP1 DUP2 GT ISZERO PUSH2 0xC5C JUMPI PUSH2 0xC5C PUSH2 0x12BC JUMP JUMPDEST SUB PUSH2 0xC9B JUMPI CALLVALUE PUSH1 0x8 PUSH1 0x3 SLOAD DUP2 SLOAD DUP2 LT PUSH2 0xC77 JUMPI PUSH2 0xC77 PUSH2 0x137D JUMP JUMPDEST SWAP1 PUSH1 0x0 MSTORE PUSH1 0x20 PUSH1 0x0 KECCAK256 ADD PUSH1 0x0 DUP3 DUP3 SLOAD PUSH2 0xC90 SWAP2 SWAP1 PUSH2 0x14A6 JUMP JUMPDEST SWAP1 SWAP2 SSTORE POP PUSH2 0xCE9 SWAP1 POP JUMP JUMPDEST PUSH1 0x1 DUP2 PUSH1 0x1 DUP2 GT ISZERO PUSH2 0xCAF JUMPI PUSH2 0xCAF PUSH2 0x12BC JUMP JUMPDEST SUB PUSH2 0xCE9 JUMPI CALLVALUE PUSH1 0x9 PUSH1 0x3 SLOAD DUP2 SLOAD DUP2 LT PUSH2 0xCCA JUMPI PUSH2 0xCCA PUSH2 0x137D JUMP JUMPDEST SWAP1 PUSH1 0x0 MSTORE PUSH1 0x20 PUSH1 0x0 KECCAK256 ADD PUSH1 0x0 DUP3 DUP3 SLOAD PUSH2 0xCE3 SWAP2 SWAP1 PUSH2 0x14A6 JUMP JUMPDEST SWAP1 SWAP2 SSTORE POP POP JUMPDEST CALLVALUE PUSH1 0x7 PUSH1 0x3 SLOAD DUP2 SLOAD DUP2 LT PUSH2 0xCFF JUMPI PUSH2 0xCFF PUSH2 0x137D JUMP JUMPDEST SWAP1 PUSH1 0x0 MSTORE PUSH1 0x20 PUSH1 0x0 KECCAK256 ADD PUSH1 0x0 DUP3 DUP3 SLOAD PUSH2 0xD18 SWAP2 SWAP1 PUSH2 0x14A6 JUMP JUMPDEST SWAP1 SWAP2 SSTORE POP POP PUSH1 0x3 SLOAD PUSH1 0x40 MLOAD CALLER SWAP2 SWAP1 PUSH32 0x9A9B1AB57A775EBEAD5CEFE947552DA14819CEAB35CBCE686DDE8C688F12AA4A SWAP1 PUSH2 0xD55 SWAP1 CALLVALUE SWAP1 DUP7 SWAP1 PUSH2 0x14BE JUMP JUMPDEST PUSH1 0x40 MLOAD DUP1 SWAP2 SUB SWAP1 LOG3 POP JUMP JUMPDEST PUSH1 0x1 PUSH1 0x1 PUSH1 0xA0 SHL SUB DUP2 AND PUSH1 0x0 SWAP1 DUP2 MSTORE PUSH1 0x1 PUSH1 0x20 MSTORE PUSH1 0x40 DUP2 KECCAK256 PUSH1 0x3 ADD SLOAD PUSH1 0xFF AND ISZERO ISZERO DUP2 SUB PUSH2 0xD8F JUMPI POP PUSH1 0x0 SWAP2 SWAP1 POP JUMP JUMPDEST PUSH1 0x3 SLOAD PUSH1 0x1 PUSH1 0x1 PUSH1 0xA0 SHL SUB DUP4 AND PUSH1 0x0 SWAP1 DUP2 MSTORE PUSH1 0x1 PUSH1 0x20 MSTORE PUSH1 0x40 SWAP1 KECCAK256 PUSH1 0x2 ADD SLOAD SUB PUSH2 0xDBB JUMPI POP PUSH1 0x0 SWAP2 SWAP1 POP JUMP JUMPDEST PUSH1 0x1 PUSH1 0x1 PUSH1 0xA0 SHL SUB DUP3 AND PUSH1 0x0 SWAP1 DUP2 MSTORE PUSH1 0x1 PUSH1 0x20 MSTORE PUSH1 0x40 SWAP1 KECCAK256 PUSH1 0x2 ADD SLOAD PUSH1 0x4 DUP1 SLOAD DUP3 SWAP1 DUP2 LT PUSH2 0xDEB JUMPI PUSH2 0xDEB PUSH2 0x137D JUMP JUMPDEST SWAP1 PUSH1 0x0 MSTORE PUSH1 0x20 PUSH1 0x0 KECCAK256 SWAP1 PUSH1 0x20 SWAP2 DUP3 DUP3 DIV ADD SWAP2 SWAP1 MOD SWAP1 SLOAD SWAP1 PUSH2 0x100 EXP SWAP1 DIV PUSH1 0xFF AND PUSH1 0x1 DUP2 GT ISZERO PUSH2 0xE1C JUMPI PUSH2 0xE1C PUSH2 0x12BC JUMP JUMPDEST PUSH1 0x1 PUSH1 0x1 PUSH1 0xA0 SHL SUB DUP5 AND PUSH1 0x0 SWAP1 DUP2 MSTORE PUSH1 0x1 PUSH1 0x20 DUP2 SWAP1 MSTORE PUSH1 0x40 SWAP1 SWAP2 KECCAK256 DUP2 ADD SLOAD PUSH1 0xFF AND SWAP1 DUP2 GT ISZERO PUSH2 0xE4D JUMPI PUSH2 0xE4D PUSH2 0x12BC JUMP JUMPDEST EQ PUSH2 0xE5B JUMPI POP PUSH1 0x0 SWAP3 SWAP2 POP POP JUMP JUMPDEST PUSH1 0x0 DUP1 PUSH1 0x1 PUSH1 0x1 PUSH1 0xA0 SHL SUB DUP6 AND PUSH1 0x0 SWAP1 DUP2 MSTORE PUSH1 0x1 PUSH1 0x20 DUP2 SWAP1 MSTORE PUSH1 0x40 SWAP1 SWAP2 KECCAK256 DUP2 ADD SLOAD PUSH1 0xFF AND SWAP1 DUP2 GT ISZERO PUSH2 0xE8F JUMPI PUSH2 0xE8F PUSH2 0x12BC JUMP JUMPDEST SUB PUSH2 0xF58 JUMPI CALLER PUSH1 0x0 SWAP1 DUP2 MSTORE PUSH1 0x1 PUSH1 0x20 MSTORE PUSH1 0x40 SWAP1 KECCAK256 PUSH1 0x2 ADD SLOAD PUSH1 0x7 DUP1 SLOAD PUSH1 0x64 SWAP3 SWAP1 DUP2 LT PUSH2 0xEBD JUMPI PUSH2 0xEBD PUSH2 0x137D JUMP JUMPDEST SWAP1 PUSH1 0x0 MSTORE PUSH1 0x20 PUSH1 0x0 KECCAK256 ADD SLOAD PUSH1 0x8 PUSH1 0x1 PUSH1 0x0 CALLER PUSH1 0x1 PUSH1 0x1 PUSH1 0xA0 SHL SUB AND PUSH1 0x1 PUSH1 0x1 PUSH1 0xA0 SHL SUB AND DUP2 MSTORE PUSH1 0x20 ADD SWAP1 DUP2 MSTORE PUSH1 0x20 ADD PUSH1 0x0 KECCAK256 PUSH1 0x2 ADD SLOAD DUP2 SLOAD DUP2 LT PUSH2 0xF03 JUMPI PUSH2 0xF03 PUSH2 0x137D JUMP JUMPDEST PUSH1 0x0 SWAP2 DUP3 MSTORE PUSH1 0x20 DUP1 DUP4 KECCAK256 SWAP1 SWAP2 ADD SLOAD PUSH1 0x1 PUSH1 0x1 PUSH1 0xA0 SHL SUB DUP10 AND DUP4 MSTORE PUSH1 0x1 SWAP1 SWAP2 MSTORE PUSH1 0x40 SWAP1 SWAP2 KECCAK256 SLOAD PUSH2 0xF33 SWAP1 PUSH1 0x64 PUSH2 0x13A9 JUMP JUMPDEST PUSH2 0xF3D SWAP2 SWAP1 PUSH2 0x13DE JUMP JUMPDEST PUSH2 0xF47 SWAP2 SWAP1 PUSH2 0x13A9 JUMP JUMPDEST PUSH2 0xF51 SWAP2 SWAP1 PUSH2 0x13DE JUMP JUMPDEST SWAP1 POP PUSH2 0x1021 JUMP JUMPDEST PUSH1 0x1 PUSH1 0x1 PUSH1 0xA0 SHL SUB DUP5 AND PUSH1 0x0 SWAP1 DUP2 MSTORE PUSH1 0x1 PUSH1 0x20 MSTORE PUSH1 0x40 SWAP1 KECCAK256 PUSH1 0x2 ADD SLOAD PUSH1 0x7 DUP1 SLOAD PUSH1 0x64 SWAP3 SWAP1 DUP2 LT PUSH2 0xF8A JUMPI PUSH2 0xF8A PUSH2 0x137D JUMP JUMPDEST SWAP1 PUSH1 0x0 MSTORE PUSH1 0x20 PUSH1 0x0 KECCAK256 ADD SLOAD PUSH1 0x9 PUSH1 0x1 PUSH1 0x0 DUP9 PUSH1 0x1 PUSH1 0x1 PUSH1 0xA0 SHL SUB AND PUSH1 0x1 PUSH1 0x1 PUSH1 0xA0 SHL SUB AND DUP2 MSTORE PUSH1 0x20 ADD SWAP1 DUP2 MSTORE PUSH1 0x20 ADD PUSH1 0x0 KECCAK256 PUSH1 0x2 ADD SLOAD DUP2 SLOAD DUP2 LT PUSH2 0xFD0 JUMPI PUSH2 0xFD0 PUSH2 0x137D JUMP JUMPDEST PUSH1 0x0 SWAP2 DUP3 MSTORE PUSH1 0x20 DUP1 DUP4 KECCAK256 SWAP1 SWAP2 ADD SLOAD PUSH1 0x1 PUSH1 0x1 PUSH1 0xA0 SHL SUB DUP10 AND DUP4 MSTORE PUSH1 0x1 SWAP1 SWAP2 MSTORE PUSH1 0x40 SWAP1 SWAP2 KECCAK256 SLOAD PUSH2 0x1000 SWAP1 PUSH1 0x64 PUSH2 0x13A9 JUMP JUMPDEST PUSH2 0x100A SWAP2 SWAP1 PUSH2 0x13DE JUMP JUMPDEST PUSH2 0x1014 SWAP2 SWAP1 PUSH2 0x13A9 JUMP JUMPDEST PUSH2 0x101E SWAP2 SWAP1 PUSH2 0x13DE JUMP JUMPDEST SWAP1 POP JUMPDEST SWAP4 SWAP3 POP POP POP JUMP JUMPDEST PUSH1 0xC SLOAD PUSH1 0xB SLOAD PUSH1 0x40 MLOAD PUSH1 0x0 SWAP3 DUP4 SWAP3 PUSH1 0x1 PUSH1 0x1 PUSH1 0xA0 SHL SUB SWAP1 SWAP2 AND SWAP2 DUP4 DUP2 DUP2 DUP2 DUP6 DUP8 GAS CALL SWAP3 POP POP POP RETURNDATASIZE DUP1 PUSH1 0x0 DUP2 EQ PUSH2 0x107A JUMPI PUSH1 0x40 MLOAD SWAP2 POP PUSH1 0x1F NOT PUSH1 0x3F RETURNDATASIZE ADD AND DUP3 ADD PUSH1 0x40 MSTORE RETURNDATASIZE DUP3 MSTORE RETURNDATASIZE PUSH1 0x0 PUSH1 0x20 DUP5 ADD RETURNDATACOPY PUSH2 0x107F JUMP JUMPDEST PUSH1 0x60 SWAP2 POP JUMPDEST POP SWAP2 POP SWAP2 POP DUP2 PUSH2 0x108E JUMPI PUSH1 0x0 DUP1 REVERT JUMPDEST POP POP JUMP JUMPDEST PUSH2 0x109A PUSH2 0x1118 JUMP JUMPDEST PUSH1 0x1 PUSH1 0x1 PUSH1 0xA0 SHL SUB DUP2 AND PUSH2 0x10FF JUMPI PUSH1 0x40 MLOAD PUSH3 0x461BCD PUSH1 0xE5 SHL DUP2 MSTORE PUSH1 0x20 PUSH1 0x4 DUP3 ADD MSTORE PUSH1 0x26 PUSH1 0x24 DUP3 ADD MSTORE PUSH32 0x4F776E61626C653A206E6577206F776E657220697320746865207A65726F2061 PUSH1 0x44 DUP3 ADD MSTORE PUSH6 0x646472657373 PUSH1 0xD0 SHL PUSH1 0x64 DUP3 ADD MSTORE PUSH1 0x84 ADD PUSH2 0x39F JUMP JUMPDEST PUSH2 0xA50 DUP2 PUSH2 0x1172 JUMP JUMPDEST PUSH1 0x8 DUP2 DUP2 SLOAD DUP2 LT PUSH2 0x705 JUMPI PUSH1 0x0 DUP1 REVERT JUMPDEST PUSH1 0x0 SLOAD PUSH1 0x1 PUSH1 0x1 PUSH1 0xA0 SHL SUB AND CALLER EQ PUSH2 0x75C JUMPI PUSH1 0x40 MLOAD PUSH3 0x461BCD PUSH1 0xE5 SHL DUP2 MSTORE PUSH1 0x20 PUSH1 0x4 DUP3 ADD DUP2 SWAP1 MSTORE PUSH1 0x24 DUP3 ADD MSTORE PUSH32 0x4F776E61626C653A2063616C6C6572206973206E6F7420746865206F776E6572 PUSH1 0x44 DUP3 ADD MSTORE PUSH1 0x64 ADD PUSH2 0x39F JUMP JUMPDEST PUSH1 0x0 DUP1 SLOAD PUSH1 0x1 PUSH1 0x1 PUSH1 0xA0 SHL SUB DUP4 DUP2 AND PUSH1 0x1 PUSH1 0x1 PUSH1 0xA0 SHL SUB NOT DUP4 AND DUP2 OR DUP5 SSTORE PUSH1 0x40 MLOAD SWAP2 SWAP1 SWAP3 AND SWAP3 DUP4 SWAP2 PUSH32 0x8BE0079C531659141344CD1FD0A4F28419497F9722A3DAAFE3B4186F6B6457E0 SWAP2 SWAP1 LOG3 POP POP JUMP JUMPDEST PUSH1 0x7 DUP1 SLOAD PUSH1 0x1 DUP2 DUP2 ADD SWAP1 SWAP3 SSTORE PUSH1 0x0 PUSH32 0xA66CC928B5EDB82AF9BD49922954155AB7B0942694BEA4CE44661D9A8736C688 SWAP1 SWAP2 ADD DUP2 SWAP1 SSTORE PUSH1 0x8 DUP1 SLOAD DUP1 DUP5 ADD SWAP1 SWAP2 SSTORE PUSH32 0xF3F7A9FE364FAAB93B216DA50A3214154F22A0A2B415B23A84C8169E8B636EE3 ADD DUP2 SWAP1 SSTORE PUSH1 0x9 DUP1 SLOAD SWAP3 DUP4 ADD DUP2 SSTORE DUP2 MSTORE PUSH32 0x6E1540171B6C0C960B71A7020D9F60077F6AF931A8BBF590DA0223DACF75C7AF SWAP1 SWAP2 ADD SSTORE PUSH2 0x125E PUSH2 0x76E JUMP JUMPDEST PUSH1 0x5 DUP2 SWAP1 SSTORE TIMESTAMP PUSH1 0xA DUP2 SWAP1 SSTORE PUSH1 0x3 SLOAD PUSH1 0x40 MLOAD SWAP3 DUP4 MSTORE SWAP1 SWAP2 PUSH32 0x8DE78FC030D06C580EDAE40F56BE50D47B03F44CC730CAEA633405B96388C3B0 SWAP1 PUSH1 0x20 ADD PUSH1 0x40 MLOAD DUP1 SWAP2 SUB SWAP1 LOG3 JUMP JUMPDEST PUSH1 0x0 PUSH1 0x20 DUP3 DUP5 SUB SLT ISZERO PUSH2 0x12B5 JUMPI PUSH1 0x0 DUP1 REVERT JUMPDEST POP CALLDATALOAD SWAP2 SWAP1 POP JUMP JUMPDEST PUSH4 0x4E487B71 PUSH1 0xE0 SHL PUSH1 0x0 MSTORE PUSH1 0x21 PUSH1 0x4 MSTORE PUSH1 0x24 PUSH1 0x0 REVERT JUMPDEST PUSH1 0x2 DUP2 LT PUSH2 0x12F0 JUMPI PUSH4 0x4E487B71 PUSH1 0xE0 SHL PUSH1 0x0 MSTORE PUSH1 0x21 PUSH1 0x4 MSTORE PUSH1 0x24 PUSH1 0x0 REVERT JUMPDEST SWAP1 MSTORE JUMP JUMPDEST PUSH1 0x20 DUP2 ADD PUSH2 0x1302 DUP3 DUP5 PUSH2 0x12D2 JUMP JUMPDEST SWAP3 SWAP2 POP POP JUMP JUMPDEST PUSH1 0x0 PUSH1 0x20 DUP3 DUP5 SUB SLT ISZERO PUSH2 0x131A JUMPI PUSH1 0x0 DUP1 REVERT JUMPDEST DUP2 CALLDATALOAD PUSH1 0x2 DUP2 LT PUSH2 0x1021 JUMPI PUSH1 0x0 DUP1 REVERT JUMPDEST PUSH1 0x0 PUSH1 0x20 DUP3 DUP5 SUB SLT ISZERO PUSH2 0x133B JUMPI PUSH1 0x0 DUP1 REVERT JUMPDEST DUP2 CALLDATALOAD PUSH1 0x1 PUSH1 0x1 PUSH1 0xA0 SHL SUB DUP2 AND DUP2 EQ PUSH2 0x1021 JUMPI PUSH1 0x0 DUP1 REVERT JUMPDEST DUP5 DUP2 MSTORE PUSH1 0x80 DUP2 ADD PUSH2 0x1366 PUSH1 0x20 DUP4 ADD DUP7 PUSH2 0x12D2 JUMP JUMPDEST DUP4 PUSH1 0x40 DUP4 ADD MSTORE DUP3 ISZERO ISZERO PUSH1 0x60 DUP4 ADD MSTORE SWAP6 SWAP5 POP POP POP POP POP JUMP JUMPDEST PUSH4 0x4E487B71 PUSH1 0xE0 SHL PUSH1 0x0 MSTORE PUSH1 0x32 PUSH1 0x4 MSTORE PUSH1 0x24 PUSH1 0x0 REVERT JUMPDEST PUSH4 0x4E487B71 PUSH1 0xE0 SHL PUSH1 0x0 MSTORE PUSH1 0x11 PUSH1 0x4 MSTORE PUSH1 0x24 PUSH1 0x0 REVERT JUMPDEST PUSH1 0x0 DUP2 PUSH1 0x0 NOT DIV DUP4 GT DUP3 ISZERO ISZERO AND ISZERO PUSH2 0x13C3 JUMPI PUSH2 0x13C3 PUSH2 0x1393 JUMP JUMPDEST POP MUL SWAP1 JUMP JUMPDEST PUSH4 0x4E487B71 PUSH1 0xE0 SHL PUSH1 0x0 MSTORE PUSH1 0x12 PUSH1 0x4 MSTORE PUSH1 0x24 PUSH1 0x0 REVERT JUMPDEST PUSH1 0x0 DUP3 PUSH2 0x13ED JUMPI PUSH2 0x13ED PUSH2 0x13C8 JUMP JUMPDEST POP DIV SWAP1 JUMP JUMPDEST DUP1 MLOAD PUSH10 0xFFFFFFFFFFFFFFFFFFFF DUP2 AND DUP2 EQ PUSH2 0x140C JUMPI PUSH1 0x0 DUP1 REVERT JUMPDEST SWAP2 SWAP1 POP JUMP JUMPDEST PUSH1 0x0 DUP1 PUSH1 0x0 DUP1 PUSH1 0x0 PUSH1 0xA0 DUP7 DUP9 SUB SLT ISZERO PUSH2 0x1429 JUMPI PUSH1 0x0 DUP1 REVERT JUMPDEST PUSH2 0x1432 DUP7 PUSH2 0x13F2 JUMP JUMPDEST SWAP5 POP PUSH1 0x20 DUP7 ADD MLOAD SWAP4 POP PUSH1 0x40 DUP7 ADD MLOAD SWAP3 POP PUSH1 0x60 DUP7 ADD MLOAD SWAP2 POP PUSH2 0x1455 PUSH1 0x80 DUP8 ADD PUSH2 0x13F2 JUMP JUMPDEST SWAP1 POP SWAP3 SWAP6 POP SWAP3 SWAP6 SWAP1 SWAP4 POP JUMP JUMPDEST PUSH1 0x0 DUP3 PUSH2 0x1470 JUMPI PUSH2 0x1470 PUSH2 0x13C8 JUMP JUMPDEST PUSH1 0x1 PUSH1 0xFF SHL DUP3 EQ PUSH1 0x0 NOT DUP5 EQ AND ISZERO PUSH2 0x148A JUMPI PUSH2 0x148A PUSH2 0x1393 JUMP JUMPDEST POP SDIV SWAP1 JUMP JUMPDEST PUSH1 0x0 DUP3 DUP3 LT ISZERO PUSH2 0x14A1 JUMPI PUSH2 0x14A1 PUSH2 0x1393 JUMP JUMPDEST POP SUB SWAP1 JUMP JUMPDEST PUSH1 0x0 DUP3 NOT DUP3 GT ISZERO PUSH2 0x14B9 JUMPI PUSH2 0x14B9 PUSH2 0x1393 JUMP JUMPDEST POP ADD SWAP1 JUMP JUMPDEST DUP3 DUP2 MSTORE PUSH1 0x40 DUP2 ADD PUSH2 0x1021 PUSH1 0x20 DUP4 ADD DUP5 PUSH2 0x12D2 JUMP INVALID LOG2 PUSH5 0x6970667358 0x22 SLT KECCAK256 MLOAD 0xDD PUSH27 0x7D705571B242D96C74F5B2C427D2CC57B0A513AE455DA6F4CD96B4 0xD0 PUSH17 0x64736F6C634300080F0033000000000000 ","sha1":"b9818afc70edfa621585b58035eda8dac6994e3a","source":"// SPDX-License-Identifier: MIT\npragma solidity ^0.8.7;\n\nimport \"@chainlink/contracts/src/v0.8/interfaces/AggregatorV3Interface.sol\";\nimport \"@openzeppelin/contracts/access/Ownable.sol\";\n\ncontract BitcoinUpDown is Ownable {\n    enum UP_DOWN {\n        UP,\n        DOWN\n    }\n    struct Players {\n        uint256 bet;\n        UP_DOWN up_down;\n        uint256 round;\n        bool isExist;\n    }\n    mapping(address => Players) public players_bet;\n    AggregatorV3Interface internal btcUsdPriceFeed;\n    uint256 public round;\n    UP_DOWN[] public roundWinner;\n    int256 public price_open;\n    int256 public price_close;\n    uint256[] public prize_pool;\n    uint256[] public prize_pool_up;\n    uint256[] public prize_pool_down;\n    uint256 public ts_start;\n    uint256 private fee;\n    address private dev;\n\n    event eventStartRound(\n        uint256 indexed round,\n        uint256 indexed ts_start,\n        int256 price_open\n    );\n    event eventBet(\n        uint256 indexed round,\n        address indexed from,\n        uint256 amount,\n        UP_DOWN up_down\n    );\n    event eventDeclareWinners(\n        uint256 indexed round,\n        uint256 indexed ts_close,\n        int256 price_close,\n        uint256 prize_pool,\n        uint256 prize_pool_up,\n        uint256 prize_pool_down\n    );\n\n    constructor(address _priceFeedAddress) {\n        dev = msg.sender;\n        btcUsdPriceFeed = AggregatorV3Interface(_priceFeedAddress);\n        _startRound();\n    }\n\n    function getPrice() public view returns (int256) {\n        (, int256 price, , , ) = btcUsdPriceFeed.latestRoundData();\n        return price / (10**8);\n    }\n\n    function getPendingWithdraw(address _addr) public view returns (uint256) {\n        if (players_bet[_addr].isExist == false) {\n            return 0;\n        }\n        if (players_bet[_addr].round == round) {\n            return 0; // Round still going\n        }\n\n        uint256 bet_round = players_bet[_addr].round;\n        if (players_bet[_addr].up_down != roundWinner[bet_round]) {\n            return 0; // Loser\n        }\n\n        // calculate the amount depending of player bet ratio to prizepool\n        uint256 amount;\n        if (players_bet[_addr].up_down == UP_DOWN.UP) {\n            amount =\n                (((players_bet[_addr].bet * 100) /\n                    prize_pool_up[players_bet[msg.sender].round]) *\n                    prize_pool[players_bet[msg.sender].round]) /\n                100;\n        } else {\n            amount =\n                (((players_bet[_addr].bet * 100) /\n                    prize_pool_down[players_bet[_addr].round]) *\n                    prize_pool[players_bet[_addr].round]) /\n                100;\n        }\n\n        return amount;\n    }\n\n    function _startRound() private {\n        prize_pool.push(0);\n        prize_pool_up.push(0);\n        prize_pool_down.push(0);\n        price_open = getPrice();\n        ts_start = block.timestamp;\n        emit eventStartRound(round, ts_start, price_open);\n    }\n\n    function bet(UP_DOWN _up_down) public payable {\n        require(msg.value >= 0, \"Minimum bet = 1 wei\");\n        require(block.timestamp - ts_start <= 3600, \"Max 1 hour after start\");\n\n        if (players_bet[msg.sender].isExist == true) {\n            if (players_bet[msg.sender].round == round) {\n                // Player have aleardy bet this round\n                revert(\"Only 1 bet by round\");\n            } else if (\n                players_bet[msg.sender].up_down ==\n                roundWinner[players_bet[msg.sender].round]\n            ) {\n                // Player have pending withdrawal\n                revert(\"Pending withdrawal\");\n            }\n        }\n\n        // if player doesn't exist yet we add the player\n        players_bet[msg.sender].bet = msg.value;\n        players_bet[msg.sender].up_down = _up_down;\n        players_bet[msg.sender].round = round;\n        players_bet[msg.sender].isExist = true;\n\n        // add the amount to the prizpool\n        if (_up_down == UP_DOWN.UP) {\n            prize_pool_up[round] += msg.value;\n        } else if (_up_down == UP_DOWN.DOWN) {\n            prize_pool_down[round] += msg.value;\n        }\n        prize_pool[round] += msg.value;\n        emit eventBet(round, msg.sender, msg.value, _up_down);\n    }\n\n    function withdraw() public {\n        require(\n            players_bet[msg.sender].isExist == true,\n            \"Player doesn't exist\"\n        );\n        require(players_bet[msg.sender].round < round, \"Round still going\");\n        require(\n            players_bet[msg.sender].up_down ==\n                roundWinner[players_bet[msg.sender].round],\n            \"Loser\"\n        );\n        players_bet[msg.sender].isExist = false;\n        // prize_pool up or down\n        uint256 amount;\n        if (players_bet[msg.sender].up_down == UP_DOWN.UP) {\n            amount =\n                (((players_bet[msg.sender].bet * 100) /\n                    prize_pool_up[players_bet[msg.sender].round]) *\n                    prize_pool[players_bet[msg.sender].round]) /\n                100;\n        } else {\n            amount =\n                (((players_bet[msg.sender].bet * 100) /\n                    prize_pool_down[players_bet[msg.sender].round]) *\n                    prize_pool[players_bet[msg.sender].round]) /\n                100;\n        }\n        (bool sent, bytes memory data) = msg.sender.call{value: amount}(\"\");\n        require(sent, \"Withdraw failed\"); // dev:withdraw failed\n    }\n\n    function withdrawFee() public {\n        (bool sent, bytes memory data) = dev.call{value: fee}(\"\");\n        require(sent); // dev:withdraw fee failed\n    }\n\n    function declareWinners() public {\n        //require(block.timestamp - ts_start >= 1 days, \"Min 1 day after start\");\n        UP_DOWN up_down;\n        price_close = getPrice();\n        prize_pool[round] -= ((1 * prize_pool[round]) / 100); // 1% gas tax\n\n        if (price_close >= price_open) {\n            up_down = UP_DOWN.UP;\n            roundWinner.push(up_down);\n        } else if (price_close < price_open) {\n            up_down = UP_DOWN.DOWN;\n            roundWinner.push(up_down);\n        }\n\n        fee += ((1 * prize_pool[round]) / 100);\n\n        emit eventDeclareWinners(\n            round,\n            block.timestamp,\n            price_close,\n            prize_pool[round],\n            prize_pool_up[round],\n            prize_pool_down[round]\n        );\n\n        // Reset variables for new round\n        round += 1;\n        _startRound(); // New round\n    }\n}\n","sourcePath":"contracts/BitcoinUpDown.sol","type":"contract","deployment":{"address":"0x833B6EbEe2ddcE48a8d83ef09c7F357090c3298c","chainid":"97","blockHeight":22356033}}