{"abi":[{"inputs":[{"internalType":"address","name":"_price_feed_address","type":"address"}],"stateMutability":"nonpayable","type":"constructor","name":"constructor"},{"anonymous":false,"inputs":[{"indexed":true,"internalType":"address","name":"previousOwner","type":"address"},{"indexed":true,"internalType":"address","name":"newOwner","type":"address"}],"name":"OwnershipTransferred","type":"event"},{"anonymous":false,"inputs":[{"indexed":true,"internalType":"uint256","name":"round","type":"uint256"},{"indexed":true,"internalType":"address","name":"from","type":"address"},{"indexed":false,"internalType":"uint256","name":"amount","type":"uint256"}],"name":"eventAddToPrizePool","type":"event"},{"anonymous":false,"inputs":[{"indexed":true,"internalType":"uint256","name":"round","type":"uint256"},{"indexed":true,"internalType":"address","name":"player","type":"address"},{"indexed":false,"internalType":"uint256","name":"amount","type":"uint256"},{"indexed":false,"internalType":"enum BitcoinUpDown.UP_DOWN","name":"up_down","type":"uint8"}],"name":"eventBet","type":"event"},{"anonymous":false,"inputs":[{"indexed":true,"internalType":"uint256","name":"round","type":"uint256"},{"indexed":true,"internalType":"uint256","name":"ts_close","type":"uint256"},{"indexed":false,"internalType":"int256","name":"price_close","type":"int256"},{"indexed":false,"internalType":"uint256","name":"prize_pool","type":"uint256"},{"indexed":false,"internalType":"uint256","name":"prize_pool_up","type":"uint256"},{"indexed":false,"internalType":"uint256","name":"prize_pool_down","type":"uint256"},{"indexed":false,"internalType":"enum BitcoinUpDown.UP_DOWN","name":"winner","type":"uint8"}],"name":"eventEndRound","type":"event"},{"anonymous":false,"inputs":[{"indexed":true,"internalType":"uint256","name":"round","type":"uint256"},{"indexed":true,"internalType":"uint256","name":"ts_start","type":"uint256"},{"indexed":false,"internalType":"int256","name":"price_open","type":"int256"},{"indexed":false,"internalType":"uint256","name":"seed","type":"uint256"}],"name":"eventStartRound","type":"event"},{"stateMutability":"payable","type":"fallback"},{"inputs":[],"name":"ROUND_DURATION","outputs":[{"internalType":"uint256","name":"","type":"uint256"}],"stateMutability":"view","type":"function"},{"inputs":[],"name":"addToPrizePool","outputs":[],"stateMutability":"payable","type":"function"},{"inputs":[{"internalType":"enum BitcoinUpDown.UP_DOWN","name":"_up_down","type":"uint8"}],"name":"bet","outputs":[],"stateMutability":"payable","type":"function"},{"inputs":[],"name":"btc_usd_price_feed","outputs":[{"internalType":"contract AggregatorV3Interface","name":"","type":"address"}],"stateMutability":"view","type":"function"},{"inputs":[],"name":"endRound","outputs":[],"stateMutability":"nonpayable","type":"function"},{"inputs":[{"internalType":"address","name":"_addr","type":"address"}],"name":"getPendingWithdraw","outputs":[{"internalType":"uint256","name":"","type":"uint256"}],"stateMutability":"view","type":"function"},{"inputs":[],"name":"getPrice","outputs":[{"internalType":"int256","name":"","type":"int256"}],"stateMutability":"view","type":"function"},{"inputs":[],"name":"owner","outputs":[{"internalType":"address","name":"","type":"address"}],"stateMutability":"view","type":"function"},{"inputs":[{"internalType":"address","name":"","type":"address"}],"name":"players_bet","outputs":[{"internalType":"uint256","name":"bet","type":"uint256"},{"internalType":"enum BitcoinUpDown.UP_DOWN","name":"up_down","type":"uint8"},{"internalType":"uint256","name":"round","type":"uint256"}],"stateMutability":"view","type":"function"},{"inputs":[],"name":"price_close","outputs":[{"internalType":"int256","name":"","type":"int256"}],"stateMutability":"view","type":"function"},{"inputs":[],"name":"price_open","outputs":[{"internalType":"int256","name":"","type":"int256"}],"stateMutability":"view","type":"function"},{"inputs":[],"name":"renounceOwnership","outputs":[],"stateMutability":"nonpayable","type":"function"},{"inputs":[],"name":"round","outputs":[{"internalType":"uint256","name":"","type":"uint256"}],"stateMutability":"view","type":"function"},{"inputs":[{"internalType":"uint256","name":"","type":"uint256"}],"name":"rounds","outputs":[{"internalType":"uint256","name":"prize_pool","type":"uint256"},{"internalType":"uint256","name":"prize_pool_up","type":"uint256"},{"internalType":"uint256","name":"prize_pool_down","type":"uint256"},{"internalType":"enum BitcoinUpDown.UP_DOWN","name":"winner","type":"uint8"}],"stateMutability":"view","type":"function"},{"inputs":[{"internalType":"address","name":"newOwner","type":"address"}],"name":"transferOwnership","outputs":[],"stateMutability":"nonpayable","type":"function"},{"inputs":[],"name":"ts_start","outputs":[{"internalType":"uint256","name":"","type":"uint256"}],"stateMutability":"view","type":"function"},{"inputs":[],"name":"withdraw","outputs":[],"stateMutability":"nonpayable","type":"function"},{"stateMutability":"payable","type":"receive"}],"bytecode":"60a060405234801561001057600080fd5b506040516112ad3803806112ad83398101604081905261002f916101e0565b610038336100b3565b600180556001600160a01b0381166100965760405162461bcd60e51b815260206004820152601a60248201527f496e76616c696420707269636520666565642061646472657373000000000000604482015260640160405180910390fd5b6001600160a01b0381166080526100ad6000610103565b5061027e565b600080546001600160a01b038381166001600160a01b0319831681178455604051919092169283917f8be0079c531659141344cd1fd0a4f28419497f9722a3daafe3b4186f6b6457e09190a35050565b600454600090815260036020526040902081815561011f61016e565b60068190554260058190556004546040805193845260208401869052919290917f9c968032babecb64d56238f3b471800f713310c82902367f105eb43fcd35404f910160405180910390a35050565b6000806080516001600160a01b031663feaf968c6040518163ffffffff1660e01b815260040160a060405180830381865afa1580156101b1573d6000803e3d6000fd5b505050506040513d601f19601f820116820180604052508101906101d5919061022c565b509195945050505050565b6000602082840312156101f257600080fd5b81516001600160a01b038116811461020957600080fd5b9392505050565b80516001600160501b038116811461022757600080fd5b919050565b600080600080600060a0868803121561024457600080fd5b61024d86610210565b6020870151604088015160608901519297509095509350915061027260808701610210565b90509295509295909350565b60805161100d6102a06000396000818161012b01526107b0015261100d6000f3fe6080604052600436106101025760003560e01c8063749aa2d911610095578063b3ede13f11610064578063b3ede13f14610111578063d0821b0e146102b0578063da1a8a6a146102c3578063e3380d69146102e3578063f2fde38b1461033357610111565b8063749aa2d9146102115780638c65c81f146102265780638da5cb5b1461027d57806398d5fdca1461029b57610111565b806343e2a4ae116100d157806343e2a4ae146101b95780636641ea08146101cf5780636ec11f0b146101e6578063715018a6146101fc57610111565b80630af1248c14610119578063146ca5311461016a57806334ef42421461018e5780633ccfd60b146101a457610111565b366101115761010f610353565b005b61010f610353565b34801561012557600080fd5b5061014d7f000000000000000000000000000000000000000000000000000000000000000081565b6040516001600160a01b0390911681526020015b60405180910390f35b34801561017657600080fd5b5061018060045481565b604051908152602001610161565b34801561019a57600080fd5b5061018060065481565b3480156101b057600080fd5b5061010f610409565b3480156101c557600080fd5b5061018060055481565b3480156101db57600080fd5b506101806201518081565b3480156101f257600080fd5b5061018060075481565b34801561020857600080fd5b5061010f610636565b34801561021d57600080fd5b5061010f61064a565b34801561023257600080fd5b5061026d610241366004610dc3565b600360208190526000918252604090912080546001820154600283015492909301549092919060ff1684565b6040516101619493929190610e14565b34801561028957600080fd5b506000546001600160a01b031661014d565b3480156102a757600080fd5b506101806107ab565b61010f6102be366004610e36565b61083b565b3480156102cf57600080fd5b506101806102de366004610e5e565b610ad5565b3480156102ef57600080fd5b506103246102fe366004610e5e565b600260208190526000918252604090912080546001820154919092015460ff9091169083565b60405161016193929190610e87565b34801561033f57600080fd5b5061010f61034e366004610e5e565b610bcc565b600034116103a85760405162461bcd60e51b815260206004820152601e60248201527f4d696e696d756d20616d6f756e7420746f20616464206973203120776569000060448201526064015b60405180910390fd5b600454600090815260036020526040812080543492906103c9908490610ebf565b90915550506004546040513481523391907fe31a04ca79d0165c2f5994dc2e79b8c923e95fffa40afc9cf7d0ac677fcec68a9060200160405180910390a3565b60026001540361045b5760405162461bcd60e51b815260206004820152601f60248201527f5265656e7472616e637947756172643a207265656e7472616e742063616c6c00604482015260640161039f565b600260018190553360009081526020919091526040902080546104b15760405162461bcd60e51b815260206004820152600e60248201526d4e6f20616374697665206265747360901b604482015260640161039f565b6004548160020154106105065760405162461bcd60e51b815260206004820152601b60248201527f43757272656e7420726f756e64207374696c6c206f6e676f696e670000000000604482015260640161039f565b600281015460009081526003602081905260409091209081015460ff16600181111561053457610534610ddc565b60018084015460ff169081111561054d5761054d610ddc565b1461058e5760405162461bcd60e51b8152602060048201526011602482015270139bdd0818481dda5b9b9a5b99c818995d607a1b604482015260640161039f565b600061059a8383610c45565b600080855560405191925090339083908381818185875af1925050503d80600081146105e2576040519150601f19603f3d011682016040523d82523d6000602084013e6105e7565b606091505b505090508061062c5760405162461bcd60e51b815260206004820152601160248201527015da5d1a191c985dd85b0819985a5b1959607a1b604482015260640161039f565b5050600180555050565b61063e610cae565b6106486000610d08565b565b620151806005544261065c9190610ed2565b10156106b65760405162461bcd60e51b8152602060048201526024808201527f526f756e64206475726174696f6e206973206c657373207468616e20323420686044820152636f75727360e01b606482015260840161039f565b60045460009081526003602052604090206106cf6107ab565b60078190556006546000918291136106fa576000915082600101546000036106f5575081545b61070e565b60019150826002015460000361070e575081545b60038301805483919060ff19166001838181111561072e5761072e610ddc565b0217905550426004547f141c7f95ace6131d31f215fcf5037e1e9e2e602a84e1bb4fd39396192594c5376007548660000154876001015488600201548860405161077c959493929190610ee5565b60405180910390a36001600460008282546107979190610ebf565b909155506107a6905081610d58565b505050565b6000807f00000000000000000000000000000000000000000000000000000000000000006001600160a01b031663feaf968c6040518163ffffffff1660e01b815260040160a060405180830381865afa15801561080c573d6000803e3d6000fd5b505050506040513d601f19601f820116820180604052508101906108309190610f38565b509195945050505050565b600034116108825760405162461bcd60e51b81526020600482015260146024820152734d696e696d756d2062657420697320312077656960601b604482015260640161039f565b610e10600554426108939190610ed2565b11156108d55760405162461bcd60e51b815260206004820152601160248201527010995d1d1a5b99c81a5cc818db1bdcd959607a1b604482015260640161039f565b33600090815260026020908152604080832060045484526003909252909120815415806109085750600454826002015414155b6109545760405162461bcd60e51b815260206004820152601d60248201527f42657420616c726561647920706c61636564207468697320726f756e64000000604482015260640161039f565b815415806109925750600381015460ff16600181111561097657610976610ddc565b60018084015460ff169081111561098f5761098f610ddc565b14155b6109ed5760405162461bcd60e51b815260206004820152602660248201527f50656e64696e67207769746864726177616c2066726f6d2070726576696f7573604482015265081c9bdd5b9960d21b606482015260840161039f565b34825560018083018054859260ff19909116908381811115610a1157610a11610ddc565b02179055506004546002830155805434908290600090610a32908490610ebf565b9091555060009050836001811115610a4c57610a4c610ddc565b03610a705734816001016000828254610a659190610ebf565b90915550610a8a9050565b34816002016000828254610a849190610ebf565b90915550505b336001600160a01b03166004547f9a9b1ab57a775ebead5cefe947552da14819ceab35cbce686dde8c688f12aa4a3486604051610ac8929190610f8a565b60405180910390a3505050565b6001600160a01b038116600090815260026020526040812080541580610b0057506004548160020154145b15610b0e5750600092915050565b600281015460009081526003602081905260409091209081015460ff166001811115610b3c57610b3c610ddc565b60018084015460ff1690811115610b5557610b55610ddc565b14610b64575060009392505050565b60008060018085015460ff1690811115610b8057610b80610ddc565b14610b8f578160020154610b95565b81600101545b905080600003610baa57506000949350505050565b815483548291610bb991610f9e565b610bc39190610fb5565b95945050505050565b610bd4610cae565b6001600160a01b038116610c395760405162461bcd60e51b815260206004820152602660248201527f4f776e61626c653a206e6577206f776e657220697320746865207a65726f206160448201526564647265737360d01b606482015260840161039f565b610c4281610d08565b50565b6000808060018086015460ff1690811115610c6257610c62610ddc565b14610c71578260020154610c77565b82600101545b905080600003610c8b576000915050610ca8565b825484548291610c9a91610f9e565b610ca49190610fb5565b9150505b92915050565b6000546001600160a01b031633146106485760405162461bcd60e51b815260206004820181905260248201527f4f776e61626c653a2063616c6c6572206973206e6f7420746865206f776e6572604482015260640161039f565b600080546001600160a01b038381166001600160a01b0319831681178455604051919092169283917f8be0079c531659141344cd1fd0a4f28419497f9722a3daafe3b4186f6b6457e09190a35050565b6004546000908152600360205260409020818155610d746107ab565b60068190554260058190556004546040805193845260208401869052919290917f9c968032babecb64d56238f3b471800f713310c82902367f105eb43fcd35404f910160405180910390a35050565b600060208284031215610dd557600080fd5b5035919050565b634e487b7160e01b600052602160045260246000fd5b60028110610e1057634e487b7160e01b600052602160045260246000fd5b9052565b848152602081018490526040810183905260808101610bc36060830184610df2565b600060208284031215610e4857600080fd5b813560028110610e5757600080fd5b9392505050565b600060208284031215610e7057600080fd5b81356001600160a01b0381168114610e5757600080fd5b83815260608101610e9b6020830185610df2565b826040830152949350505050565b634e487b7160e01b600052601160045260246000fd5b80820180821115610ca857610ca8610ea9565b81810381811115610ca857610ca8610ea9565b600060a082019050868252856020830152846040830152836060830152610f0f6080830184610df2565b9695505050505050565b805169ffffffffffffffffffff81168114610f3357600080fd5b919050565b600080600080600060a08688031215610f5057600080fd5b610f5986610f19565b60208701516040880151606089015192975090955093509150610f7e60808701610f19565b90509295509295909350565b82815260408101610e576020830184610df2565b8082028115828204841417610ca857610ca8610ea9565b600082610fd257634e487b7160e01b600052601260045260246000fd5b50049056fea2646970667358221220eb9283d41196bdb36cbe513a092076bb1fcc6ab79b0da727dda2d6daf6ae005064736f6c634300081c0033","bytecodeSha1":"e38221920c7494a9c530abe4eeb6e4ae44b28235","compiler":{"evm_version":"istanbul","optimizer":{"enabled":true,"runs":200},"version":"0.8.28+commit.7893614a"},"contractName":"BitcoinUpDown","language":"Solidity","natspec":{"details":"A betting game where players predict whether the price of Bitcoin will go up or down within a round duration.","kind":"dev","methods":{"addToPrizePool()":{"notice":"Adds Ether to the current round's prize pool."},"bet(uint8)":{"notice":"Place a bet for the current round.","params":{"_up_down":"The direction of the bet (UP or DOWN)."}},"endRound()":{"notice":"End the current round and start a new one."},"getPendingWithdraw(address)":{"notice":"Calculates the pending withdrawal amount for a player.","params":{"_addr":"The address of the player."},"returns":{"_0":"The amount in wei the player can withdraw."}},"getPrice()":{"notice":"Get the latest price of Bitcoin in USD","returns":{"_0":"The latest price in int256 format"}},"owner()":{"details":"Returns the address of the current owner."},"renounceOwnership()":{"details":"Leaves the contract without owner. It will not be possible to call `onlyOwner` functions anymore. Can only be called by the current owner. NOTE: Renouncing ownership will leave the contract without an owner, thereby removing any functionality that is only available to the owner."},"transferOwnership(address)":{"details":"Transfers ownership of the contract to a new account (`newOwner`). Can only be called by the current owner."},"withdraw()":{"notice":"Withdraw winnings for a player if they won in a previous round."}},"title":"BitcoinUpDown","version":1},"opcodes":"PUSH1 0x80 PUSH1 0x40 MSTORE PUSH1 0x4 CALLDATASIZE LT PUSH2 0x102 JUMPI PUSH1 0x0 CALLDATALOAD PUSH1 0xE0 SHR DUP1 PUSH4 0x749AA2D9 GT PUSH2 0x95 JUMPI DUP1 PUSH4 0xB3EDE13F GT PUSH2 0x64 JUMPI DUP1 PUSH4 0xB3EDE13F EQ PUSH2 0x111 JUMPI DUP1 PUSH4 0xD0821B0E EQ PUSH2 0x2B0 JUMPI DUP1 PUSH4 0xDA1A8A6A EQ PUSH2 0x2C3 JUMPI DUP1 PUSH4 0xE3380D69 EQ PUSH2 0x2E3 JUMPI DUP1 PUSH4 0xF2FDE38B EQ PUSH2 0x333 JUMPI PUSH2 0x111 JUMP JUMPDEST DUP1 PUSH4 0x749AA2D9 EQ PUSH2 0x211 JUMPI DUP1 PUSH4 0x8C65C81F EQ PUSH2 0x226 JUMPI DUP1 PUSH4 0x8DA5CB5B EQ PUSH2 0x27D JUMPI DUP1 PUSH4 0x98D5FDCA EQ PUSH2 0x29B JUMPI PUSH2 0x111 JUMP JUMPDEST DUP1 PUSH4 0x43E2A4AE GT PUSH2 0xD1 JUMPI DUP1 PUSH4 0x43E2A4AE EQ PUSH2 0x1B9 JUMPI DUP1 PUSH4 0x6641EA08 EQ PUSH2 0x1CF JUMPI DUP1 PUSH4 0x6EC11F0B EQ PUSH2 0x1E6 JUMPI DUP1 PUSH4 0x715018A6 EQ PUSH2 0x1FC JUMPI PUSH2 0x111 JUMP JUMPDEST DUP1 PUSH4 0xAF1248C EQ PUSH2 0x119 JUMPI DUP1 PUSH4 0x146CA531 EQ PUSH2 0x16A JUMPI DUP1 PUSH4 0x34EF4242 EQ PUSH2 0x18E JUMPI DUP1 PUSH4 0x3CCFD60B EQ PUSH2 0x1A4 JUMPI PUSH2 0x111 JUMP JUMPDEST CALLDATASIZE PUSH2 0x111 JUMPI PUSH2 0x10F PUSH2 0x353 JUMP JUMPDEST STOP JUMPDEST PUSH2 0x10F PUSH2 0x353 JUMP JUMPDEST CALLVALUE DUP1 ISZERO PUSH2 0x125 JUMPI PUSH1 0x0 DUP1 REVERT JUMPDEST POP PUSH2 0x14D PUSH32 0x0 DUP2 JUMP JUMPDEST PUSH1 0x40 MLOAD PUSH1 0x1 PUSH1 0x1 PUSH1 0xA0 SHL SUB SWAP1 SWAP2 AND DUP2 MSTORE PUSH1 0x20 ADD JUMPDEST PUSH1 0x40 MLOAD DUP1 SWAP2 SUB SWAP1 RETURN JUMPDEST CALLVALUE DUP1 ISZERO PUSH2 0x176 JUMPI PUSH1 0x0 DUP1 REVERT JUMPDEST POP PUSH2 0x180 PUSH1 0x4 SLOAD DUP2 JUMP JUMPDEST PUSH1 0x40 MLOAD SWAP1 DUP2 MSTORE PUSH1 0x20 ADD PUSH2 0x161 JUMP JUMPDEST CALLVALUE DUP1 ISZERO PUSH2 0x19A JUMPI PUSH1 0x0 DUP1 REVERT JUMPDEST POP PUSH2 0x180 PUSH1 0x6 SLOAD DUP2 JUMP JUMPDEST CALLVALUE DUP1 ISZERO PUSH2 0x1B0 JUMPI PUSH1 0x0 DUP1 REVERT JUMPDEST POP PUSH2 0x10F PUSH2 0x409 JUMP JUMPDEST CALLVALUE DUP1 ISZERO PUSH2 0x1C5 JUMPI PUSH1 0x0 DUP1 REVERT JUMPDEST POP PUSH2 0x180 PUSH1 0x5 SLOAD DUP2 JUMP JUMPDEST CALLVALUE DUP1 ISZERO PUSH2 0x1DB JUMPI PUSH1 0x0 DUP1 REVERT JUMPDEST POP PUSH2 0x180 PUSH3 0x15180 DUP2 JUMP JUMPDEST CALLVALUE DUP1 ISZERO PUSH2 0x1F2 JUMPI PUSH1 0x0 DUP1 REVERT JUMPDEST POP PUSH2 0x180 PUSH1 0x7 SLOAD DUP2 JUMP JUMPDEST CALLVALUE DUP1 ISZERO PUSH2 0x208 JUMPI PUSH1 0x0 DUP1 REVERT JUMPDEST POP PUSH2 0x10F PUSH2 0x636 JUMP JUMPDEST CALLVALUE DUP1 ISZERO PUSH2 0x21D JUMPI PUSH1 0x0 DUP1 REVERT JUMPDEST POP PUSH2 0x10F PUSH2 0x64A JUMP JUMPDEST CALLVALUE DUP1 ISZERO PUSH2 0x232 JUMPI PUSH1 0x0 DUP1 REVERT JUMPDEST POP PUSH2 0x26D PUSH2 0x241 CALLDATASIZE PUSH1 0x4 PUSH2 0xDC3 JUMP JUMPDEST PUSH1 0x3 PUSH1 0x20 DUP2 SWAP1 MSTORE PUSH1 0x0 SWAP2 DUP3 MSTORE PUSH1 0x40 SWAP1 SWAP2 KECCAK256 DUP1 SLOAD PUSH1 0x1 DUP3 ADD SLOAD PUSH1 0x2 DUP4 ADD SLOAD SWAP3 SWAP1 SWAP4 ADD SLOAD SWAP1 SWAP3 SWAP2 SWAP1 PUSH1 0xFF AND DUP5 JUMP JUMPDEST PUSH1 0x40 MLOAD PUSH2 0x161 SWAP5 SWAP4 SWAP3 SWAP2 SWAP1 PUSH2 0xE14 JUMP JUMPDEST CALLVALUE DUP1 ISZERO PUSH2 0x289 JUMPI PUSH1 0x0 DUP1 REVERT JUMPDEST POP PUSH1 0x0 SLOAD PUSH1 0x1 PUSH1 0x1 PUSH1 0xA0 SHL SUB AND PUSH2 0x14D JUMP JUMPDEST CALLVALUE DUP1 ISZERO PUSH2 0x2A7 JUMPI PUSH1 0x0 DUP1 REVERT JUMPDEST POP PUSH2 0x180 PUSH2 0x7AB JUMP JUMPDEST PUSH2 0x10F PUSH2 0x2BE CALLDATASIZE PUSH1 0x4 PUSH2 0xE36 JUMP JUMPDEST PUSH2 0x83B JUMP JUMPDEST CALLVALUE DUP1 ISZERO PUSH2 0x2CF JUMPI PUSH1 0x0 DUP1 REVERT JUMPDEST POP PUSH2 0x180 PUSH2 0x2DE CALLDATASIZE PUSH1 0x4 PUSH2 0xE5E JUMP JUMPDEST PUSH2 0xAD5 JUMP JUMPDEST CALLVALUE DUP1 ISZERO PUSH2 0x2EF JUMPI PUSH1 0x0 DUP1 REVERT JUMPDEST POP PUSH2 0x324 PUSH2 0x2FE CALLDATASIZE PUSH1 0x4 PUSH2 0xE5E JUMP JUMPDEST PUSH1 0x2 PUSH1 0x20 DUP2 SWAP1 MSTORE PUSH1 0x0 SWAP2 DUP3 MSTORE PUSH1 0x40 SWAP1 SWAP2 KECCAK256 DUP1 SLOAD PUSH1 0x1 DUP3 ADD SLOAD SWAP2 SWAP1 SWAP3 ADD SLOAD PUSH1 0xFF SWAP1 SWAP2 AND SWAP1 DUP4 JUMP JUMPDEST PUSH1 0x40 MLOAD PUSH2 0x161 SWAP4 SWAP3 SWAP2 SWAP1 PUSH2 0xE87 JUMP JUMPDEST CALLVALUE DUP1 ISZERO PUSH2 0x33F JUMPI PUSH1 0x0 DUP1 REVERT JUMPDEST POP PUSH2 0x10F PUSH2 0x34E CALLDATASIZE PUSH1 0x4 PUSH2 0xE5E JUMP JUMPDEST PUSH2 0xBCC JUMP JUMPDEST PUSH1 0x0 CALLVALUE GT PUSH2 0x3A8 JUMPI PUSH1 0x40 MLOAD PUSH3 0x461BCD PUSH1 0xE5 SHL DUP2 MSTORE PUSH1 0x20 PUSH1 0x4 DUP3 ADD MSTORE PUSH1 0x1E PUSH1 0x24 DUP3 ADD MSTORE PUSH32 0x4D696E696D756D20616D6F756E7420746F206164642069732031207765690000 PUSH1 0x44 DUP3 ADD MSTORE PUSH1 0x64 ADD JUMPDEST PUSH1 0x40 MLOAD DUP1 SWAP2 SUB SWAP1 REVERT JUMPDEST PUSH1 0x4 SLOAD PUSH1 0x0 SWAP1 DUP2 MSTORE PUSH1 0x3 PUSH1 0x20 MSTORE PUSH1 0x40 DUP2 KECCAK256 DUP1 SLOAD CALLVALUE SWAP3 SWAP1 PUSH2 0x3C9 SWAP1 DUP5 SWAP1 PUSH2 0xEBF JUMP JUMPDEST SWAP1 SWAP2 SSTORE POP POP PUSH1 0x4 SLOAD PUSH1 0x40 MLOAD CALLVALUE DUP2 MSTORE CALLER SWAP2 SWAP1 PUSH32 0xE31A04CA79D0165C2F5994DC2E79B8C923E95FFFA40AFC9CF7D0AC677FCEC68A SWAP1 PUSH1 0x20 ADD PUSH1 0x40 MLOAD DUP1 SWAP2 SUB SWAP1 LOG3 JUMP JUMPDEST PUSH1 0x2 PUSH1 0x1 SLOAD SUB PUSH2 0x45B JUMPI PUSH1 0x40 MLOAD PUSH3 0x461BCD PUSH1 0xE5 SHL DUP2 MSTORE PUSH1 0x20 PUSH1 0x4 DUP3 ADD MSTORE PUSH1 0x1F PUSH1 0x24 DUP3 ADD MSTORE PUSH32 0x5265656E7472616E637947756172643A207265656E7472616E742063616C6C00 PUSH1 0x44 DUP3 ADD MSTORE PUSH1 0x64 ADD PUSH2 0x39F JUMP JUMPDEST PUSH1 0x2 PUSH1 0x1 DUP2 SWAP1 SSTORE CALLER PUSH1 0x0 SWAP1 DUP2 MSTORE PUSH1 0x20 SWAP2 SWAP1 SWAP2 MSTORE PUSH1 0x40 SWAP1 KECCAK256 DUP1 SLOAD PUSH2 0x4B1 JUMPI PUSH1 0x40 MLOAD PUSH3 0x461BCD PUSH1 0xE5 SHL DUP2 MSTORE PUSH1 0x20 PUSH1 0x4 DUP3 ADD MSTORE PUSH1 0xE PUSH1 0x24 DUP3 ADD MSTORE PUSH14 0x4E6F206163746976652062657473 PUSH1 0x90 SHL PUSH1 0x44 DUP3 ADD MSTORE PUSH1 0x64 ADD PUSH2 0x39F JUMP JUMPDEST PUSH1 0x4 SLOAD DUP2 PUSH1 0x2 ADD SLOAD LT PUSH2 0x506 JUMPI PUSH1 0x40 MLOAD PUSH3 0x461BCD PUSH1 0xE5 SHL DUP2 MSTORE PUSH1 0x20 PUSH1 0x4 DUP3 ADD MSTORE PUSH1 0x1B PUSH1 0x24 DUP3 ADD MSTORE PUSH32 0x43757272656E7420726F756E64207374696C6C206F6E676F696E670000000000 PUSH1 0x44 DUP3 ADD MSTORE PUSH1 0x64 ADD PUSH2 0x39F JUMP JUMPDEST PUSH1 0x2 DUP2 ADD SLOAD PUSH1 0x0 SWAP1 DUP2 MSTORE PUSH1 0x3 PUSH1 0x20 DUP2 SWAP1 MSTORE PUSH1 0x40 SWAP1 SWAP2 KECCAK256 SWAP1 DUP2 ADD SLOAD PUSH1 0xFF AND PUSH1 0x1 DUP2 GT ISZERO PUSH2 0x534 JUMPI PUSH2 0x534 PUSH2 0xDDC JUMP JUMPDEST PUSH1 0x1 DUP1 DUP5 ADD SLOAD PUSH1 0xFF AND SWAP1 DUP2 GT ISZERO PUSH2 0x54D JUMPI PUSH2 0x54D PUSH2 0xDDC JUMP JUMPDEST EQ PUSH2 0x58E JUMPI PUSH1 0x40 MLOAD PUSH3 0x461BCD PUSH1 0xE5 SHL DUP2 MSTORE PUSH1 0x20 PUSH1 0x4 DUP3 ADD MSTORE PUSH1 0x11 PUSH1 0x24 DUP3 ADD MSTORE PUSH17 0x139BDD0818481DDA5B9B9A5B99C818995D PUSH1 0x7A SHL PUSH1 0x44 DUP3 ADD MSTORE PUSH1 0x64 ADD PUSH2 0x39F JUMP JUMPDEST PUSH1 0x0 PUSH2 0x59A DUP4 DUP4 PUSH2 0xC45 JUMP JUMPDEST PUSH1 0x0 DUP1 DUP6 SSTORE PUSH1 0x40 MLOAD SWAP2 SWAP3 POP SWAP1 CALLER SWAP1 DUP4 SWAP1 DUP4 DUP2 DUP2 DUP2 DUP6 DUP8 GAS CALL SWAP3 POP POP POP RETURNDATASIZE DUP1 PUSH1 0x0 DUP2 EQ PUSH2 0x5E2 JUMPI PUSH1 0x40 MLOAD SWAP2 POP PUSH1 0x1F NOT PUSH1 0x3F RETURNDATASIZE ADD AND DUP3 ADD PUSH1 0x40 MSTORE RETURNDATASIZE DUP3 MSTORE RETURNDATASIZE PUSH1 0x0 PUSH1 0x20 DUP5 ADD RETURNDATACOPY PUSH2 0x5E7 JUMP JUMPDEST PUSH1 0x60 SWAP2 POP JUMPDEST POP POP SWAP1 POP DUP1 PUSH2 0x62C JUMPI PUSH1 0x40 MLOAD PUSH3 0x461BCD PUSH1 0xE5 SHL DUP2 MSTORE PUSH1 0x20 PUSH1 0x4 DUP3 ADD MSTORE PUSH1 0x11 PUSH1 0x24 DUP3 ADD MSTORE PUSH17 0x15DA5D1A191C985DD85B0819985A5B1959 PUSH1 0x7A SHL PUSH1 0x44 DUP3 ADD MSTORE PUSH1 0x64 ADD PUSH2 0x39F JUMP JUMPDEST POP POP PUSH1 0x1 DUP1 SSTORE POP POP JUMP JUMPDEST PUSH2 0x63E PUSH2 0xCAE JUMP JUMPDEST PUSH2 0x648 PUSH1 0x0 PUSH2 0xD08 JUMP JUMPDEST JUMP JUMPDEST PUSH3 0x15180 PUSH1 0x5 SLOAD TIMESTAMP PUSH2 0x65C SWAP2 SWAP1 PUSH2 0xED2 JUMP JUMPDEST LT ISZERO PUSH2 0x6B6 JUMPI PUSH1 0x40 MLOAD PUSH3 0x461BCD PUSH1 0xE5 SHL DUP2 MSTORE PUSH1 0x20 PUSH1 0x4 DUP3 ADD MSTORE PUSH1 0x24 DUP1 DUP3 ADD MSTORE PUSH32 0x526F756E64206475726174696F6E206973206C657373207468616E2032342068 PUSH1 0x44 DUP3 ADD MSTORE PUSH4 0x6F757273 PUSH1 0xE0 SHL PUSH1 0x64 DUP3 ADD MSTORE PUSH1 0x84 ADD PUSH2 0x39F JUMP JUMPDEST PUSH1 0x4 SLOAD PUSH1 0x0 SWAP1 DUP2 MSTORE PUSH1 0x3 PUSH1 0x20 MSTORE PUSH1 0x40 SWAP1 KECCAK256 PUSH2 0x6CF PUSH2 0x7AB JUMP JUMPDEST PUSH1 0x7 DUP2 SWAP1 SSTORE PUSH1 0x6 SLOAD PUSH1 0x0 SWAP2 DUP3 SWAP2 SGT PUSH2 0x6FA JUMPI PUSH1 0x0 SWAP2 POP DUP3 PUSH1 0x1 ADD SLOAD PUSH1 0x0 SUB PUSH2 0x6F5 JUMPI POP DUP2 SLOAD JUMPDEST PUSH2 0x70E JUMP JUMPDEST PUSH1 0x1 SWAP2 POP DUP3 PUSH1 0x2 ADD SLOAD PUSH1 0x0 SUB PUSH2 0x70E JUMPI POP DUP2 SLOAD JUMPDEST PUSH1 0x3 DUP4 ADD DUP1 SLOAD DUP4 SWAP2 SWAP1 PUSH1 0xFF NOT AND PUSH1 0x1 DUP4 DUP2 DUP2 GT ISZERO PUSH2 0x72E JUMPI PUSH2 0x72E PUSH2 0xDDC JUMP JUMPDEST MUL OR SWAP1 SSTORE POP TIMESTAMP PUSH1 0x4 SLOAD PUSH32 0x141C7F95ACE6131D31F215FCF5037E1E9E2E602A84E1BB4FD39396192594C537 PUSH1 0x7 SLOAD DUP7 PUSH1 0x0 ADD SLOAD DUP8 PUSH1 0x1 ADD SLOAD DUP9 PUSH1 0x2 ADD SLOAD DUP9 PUSH1 0x40 MLOAD PUSH2 0x77C SWAP6 SWAP5 SWAP4 SWAP3 SWAP2 SWAP1 PUSH2 0xEE5 JUMP JUMPDEST PUSH1 0x40 MLOAD DUP1 SWAP2 SUB SWAP1 LOG3 PUSH1 0x1 PUSH1 0x4 PUSH1 0x0 DUP3 DUP3 SLOAD PUSH2 0x797 SWAP2 SWAP1 PUSH2 0xEBF JUMP JUMPDEST SWAP1 SWAP2 SSTORE POP PUSH2 0x7A6 SWAP1 POP DUP2 PUSH2 0xD58 JUMP JUMPDEST POP POP POP JUMP JUMPDEST PUSH1 0x0 DUP1 PUSH32 0x0 PUSH1 0x1 PUSH1 0x1 PUSH1 0xA0 SHL SUB AND PUSH4 0xFEAF968C PUSH1 0x40 MLOAD DUP2 PUSH4 0xFFFFFFFF AND PUSH1 0xE0 SHL DUP2 MSTORE PUSH1 0x4 ADD PUSH1 0xA0 PUSH1 0x40 MLOAD DUP1 DUP4 SUB DUP2 DUP7 GAS STATICCALL ISZERO DUP1 ISZERO PUSH2 0x80C JUMPI RETURNDATASIZE PUSH1 0x0 DUP1 RETURNDATACOPY RETURNDATASIZE PUSH1 0x0 REVERT JUMPDEST POP POP POP POP PUSH1 0x40 MLOAD RETURNDATASIZE PUSH1 0x1F NOT PUSH1 0x1F DUP3 ADD AND DUP3 ADD DUP1 PUSH1 0x40 MSTORE POP DUP2 ADD SWAP1 PUSH2 0x830 SWAP2 SWAP1 PUSH2 0xF38 JUMP JUMPDEST POP SWAP2 SWAP6 SWAP5 POP POP POP POP POP JUMP JUMPDEST PUSH1 0x0 CALLVALUE GT PUSH2 0x882 JUMPI PUSH1 0x40 MLOAD PUSH3 0x461BCD PUSH1 0xE5 SHL DUP2 MSTORE PUSH1 0x20 PUSH1 0x4 DUP3 ADD MSTORE PUSH1 0x14 PUSH1 0x24 DUP3 ADD MSTORE PUSH20 0x4D696E696D756D20626574206973203120776569 PUSH1 0x60 SHL PUSH1 0x44 DUP3 ADD MSTORE PUSH1 0x64 ADD PUSH2 0x39F JUMP JUMPDEST PUSH2 0xE10 PUSH1 0x5 SLOAD TIMESTAMP PUSH2 0x893 SWAP2 SWAP1 PUSH2 0xED2 JUMP JUMPDEST GT ISZERO PUSH2 0x8D5 JUMPI PUSH1 0x40 MLOAD PUSH3 0x461BCD PUSH1 0xE5 SHL DUP2 MSTORE PUSH1 0x20 PUSH1 0x4 DUP3 ADD MSTORE PUSH1 0x11 PUSH1 0x24 DUP3 ADD MSTORE PUSH17 0x10995D1D1A5B99C81A5CC818DB1BDCD959 PUSH1 0x7A SHL PUSH1 0x44 DUP3 ADD MSTORE PUSH1 0x64 ADD PUSH2 0x39F JUMP JUMPDEST CALLER PUSH1 0x0 SWAP1 DUP2 MSTORE PUSH1 0x2 PUSH1 0x20 SWAP1 DUP2 MSTORE PUSH1 0x40 DUP1 DUP4 KECCAK256 PUSH1 0x4 SLOAD DUP5 MSTORE PUSH1 0x3 SWAP1 SWAP3 MSTORE SWAP1 SWAP2 KECCAK256 DUP2 SLOAD ISZERO DUP1 PUSH2 0x908 JUMPI POP PUSH1 0x4 SLOAD DUP3 PUSH1 0x2 ADD SLOAD EQ ISZERO JUMPDEST PUSH2 0x954 JUMPI PUSH1 0x40 MLOAD PUSH3 0x461BCD PUSH1 0xE5 SHL DUP2 MSTORE PUSH1 0x20 PUSH1 0x4 DUP3 ADD MSTORE PUSH1 0x1D PUSH1 0x24 DUP3 ADD MSTORE PUSH32 0x42657420616C726561647920706C61636564207468697320726F756E64000000 PUSH1 0x44 DUP3 ADD MSTORE PUSH1 0x64 ADD PUSH2 0x39F JUMP JUMPDEST DUP2 SLOAD ISZERO DUP1 PUSH2 0x992 JUMPI POP PUSH1 0x3 DUP2 ADD SLOAD PUSH1 0xFF AND PUSH1 0x1 DUP2 GT ISZERO PUSH2 0x976 JUMPI PUSH2 0x976 PUSH2 0xDDC JUMP JUMPDEST PUSH1 0x1 DUP1 DUP5 ADD SLOAD PUSH1 0xFF AND SWAP1 DUP2 GT ISZERO PUSH2 0x98F JUMPI PUSH2 0x98F PUSH2 0xDDC JUMP JUMPDEST EQ ISZERO JUMPDEST PUSH2 0x9ED JUMPI PUSH1 0x40 MLOAD PUSH3 0x461BCD PUSH1 0xE5 SHL DUP2 MSTORE PUSH1 0x20 PUSH1 0x4 DUP3 ADD MSTORE PUSH1 0x26 PUSH1 0x24 DUP3 ADD MSTORE PUSH32 0x50656E64696E67207769746864726177616C2066726F6D2070726576696F7573 PUSH1 0x44 DUP3 ADD MSTORE PUSH6 0x81C9BDD5B99 PUSH1 0xD2 SHL PUSH1 0x64 DUP3 ADD MSTORE PUSH1 0x84 ADD PUSH2 0x39F JUMP JUMPDEST CALLVALUE DUP3 SSTORE PUSH1 0x1 DUP1 DUP4 ADD DUP1 SLOAD DUP6 SWAP3 PUSH1 0xFF NOT SWAP1 SWAP2 AND SWAP1 DUP4 DUP2 DUP2 GT ISZERO PUSH2 0xA11 JUMPI PUSH2 0xA11 PUSH2 0xDDC JUMP JUMPDEST MUL OR SWAP1 SSTORE POP PUSH1 0x4 SLOAD PUSH1 0x2 DUP4 ADD SSTORE DUP1 SLOAD CALLVALUE SWAP1 DUP3 SWAP1 PUSH1 0x0 SWAP1 PUSH2 0xA32 SWAP1 DUP5 SWAP1 PUSH2 0xEBF JUMP JUMPDEST SWAP1 SWAP2 SSTORE POP PUSH1 0x0 SWAP1 POP DUP4 PUSH1 0x1 DUP2 GT ISZERO PUSH2 0xA4C JUMPI PUSH2 0xA4C PUSH2 0xDDC JUMP JUMPDEST SUB PUSH2 0xA70 JUMPI CALLVALUE DUP2 PUSH1 0x1 ADD PUSH1 0x0 DUP3 DUP3 SLOAD PUSH2 0xA65 SWAP2 SWAP1 PUSH2 0xEBF JUMP JUMPDEST SWAP1 SWAP2 SSTORE POP PUSH2 0xA8A SWAP1 POP JUMP JUMPDEST CALLVALUE DUP2 PUSH1 0x2 ADD PUSH1 0x0 DUP3 DUP3 SLOAD PUSH2 0xA84 SWAP2 SWAP1 PUSH2 0xEBF JUMP JUMPDEST SWAP1 SWAP2 SSTORE POP POP JUMPDEST CALLER PUSH1 0x1 PUSH1 0x1 PUSH1 0xA0 SHL SUB AND PUSH1 0x4 SLOAD PUSH32 0x9A9B1AB57A775EBEAD5CEFE947552DA14819CEAB35CBCE686DDE8C688F12AA4A CALLVALUE DUP7 PUSH1 0x40 MLOAD PUSH2 0xAC8 SWAP3 SWAP2 SWAP1 PUSH2 0xF8A JUMP JUMPDEST PUSH1 0x40 MLOAD DUP1 SWAP2 SUB SWAP1 LOG3 POP POP POP JUMP JUMPDEST PUSH1 0x1 PUSH1 0x1 PUSH1 0xA0 SHL SUB DUP2 AND PUSH1 0x0 SWAP1 DUP2 MSTORE PUSH1 0x2 PUSH1 0x20 MSTORE PUSH1 0x40 DUP2 KECCAK256 DUP1 SLOAD ISZERO DUP1 PUSH2 0xB00 JUMPI POP PUSH1 0x4 SLOAD DUP2 PUSH1 0x2 ADD SLOAD EQ JUMPDEST ISZERO PUSH2 0xB0E JUMPI POP PUSH1 0x0 SWAP3 SWAP2 POP POP JUMP JUMPDEST PUSH1 0x2 DUP2 ADD SLOAD PUSH1 0x0 SWAP1 DUP2 MSTORE PUSH1 0x3 PUSH1 0x20 DUP2 SWAP1 MSTORE PUSH1 0x40 SWAP1 SWAP2 KECCAK256 SWAP1 DUP2 ADD SLOAD PUSH1 0xFF AND PUSH1 0x1 DUP2 GT ISZERO PUSH2 0xB3C JUMPI PUSH2 0xB3C PUSH2 0xDDC JUMP JUMPDEST PUSH1 0x1 DUP1 DUP5 ADD SLOAD PUSH1 0xFF AND SWAP1 DUP2 GT ISZERO PUSH2 0xB55 JUMPI PUSH2 0xB55 PUSH2 0xDDC JUMP JUMPDEST EQ PUSH2 0xB64 JUMPI POP PUSH1 0x0 SWAP4 SWAP3 POP POP POP JUMP JUMPDEST PUSH1 0x0 DUP1 PUSH1 0x1 DUP1 DUP6 ADD SLOAD PUSH1 0xFF AND SWAP1 DUP2 GT ISZERO PUSH2 0xB80 JUMPI PUSH2 0xB80 PUSH2 0xDDC JUMP JUMPDEST EQ PUSH2 0xB8F JUMPI DUP2 PUSH1 0x2 ADD SLOAD PUSH2 0xB95 JUMP JUMPDEST DUP2 PUSH1 0x1 ADD SLOAD JUMPDEST SWAP1 POP DUP1 PUSH1 0x0 SUB PUSH2 0xBAA JUMPI POP PUSH1 0x0 SWAP5 SWAP4 POP POP POP POP JUMP JUMPDEST DUP2 SLOAD DUP4 SLOAD DUP3 SWAP2 PUSH2 0xBB9 SWAP2 PUSH2 0xF9E JUMP JUMPDEST PUSH2 0xBC3 SWAP2 SWAP1 PUSH2 0xFB5 JUMP JUMPDEST SWAP6 SWAP5 POP POP POP POP POP JUMP JUMPDEST PUSH2 0xBD4 PUSH2 0xCAE JUMP JUMPDEST PUSH1 0x1 PUSH1 0x1 PUSH1 0xA0 SHL SUB DUP2 AND PUSH2 0xC39 JUMPI PUSH1 0x40 MLOAD PUSH3 0x461BCD PUSH1 0xE5 SHL DUP2 MSTORE PUSH1 0x20 PUSH1 0x4 DUP3 ADD MSTORE PUSH1 0x26 PUSH1 0x24 DUP3 ADD MSTORE PUSH32 0x4F776E61626C653A206E6577206F776E657220697320746865207A65726F2061 PUSH1 0x44 DUP3 ADD MSTORE PUSH6 0x646472657373 PUSH1 0xD0 SHL PUSH1 0x64 DUP3 ADD MSTORE PUSH1 0x84 ADD PUSH2 0x39F JUMP JUMPDEST PUSH2 0xC42 DUP2 PUSH2 0xD08 JUMP JUMPDEST POP JUMP JUMPDEST PUSH1 0x0 DUP1 DUP1 PUSH1 0x1 DUP1 DUP7 ADD SLOAD PUSH1 0xFF AND SWAP1 DUP2 GT ISZERO PUSH2 0xC62 JUMPI PUSH2 0xC62 PUSH2 0xDDC JUMP JUMPDEST EQ PUSH2 0xC71 JUMPI DUP3 PUSH1 0x2 ADD SLOAD PUSH2 0xC77 JUMP JUMPDEST DUP3 PUSH1 0x1 ADD SLOAD JUMPDEST SWAP1 POP DUP1 PUSH1 0x0 SUB PUSH2 0xC8B JUMPI PUSH1 0x0 SWAP2 POP POP PUSH2 0xCA8 JUMP JUMPDEST DUP3 SLOAD DUP5 SLOAD DUP3 SWAP2 PUSH2 0xC9A SWAP2 PUSH2 0xF9E JUMP JUMPDEST PUSH2 0xCA4 SWAP2 SWAP1 PUSH2 0xFB5 JUMP JUMPDEST SWAP2 POP POP JUMPDEST SWAP3 SWAP2 POP POP JUMP JUMPDEST PUSH1 0x0 SLOAD PUSH1 0x1 PUSH1 0x1 PUSH1 0xA0 SHL SUB AND CALLER EQ PUSH2 0x648 JUMPI PUSH1 0x40 MLOAD PUSH3 0x461BCD PUSH1 0xE5 SHL DUP2 MSTORE PUSH1 0x20 PUSH1 0x4 DUP3 ADD DUP2 SWAP1 MSTORE PUSH1 0x24 DUP3 ADD MSTORE PUSH32 0x4F776E61626C653A2063616C6C6572206973206E6F7420746865206F776E6572 PUSH1 0x44 DUP3 ADD MSTORE PUSH1 0x64 ADD PUSH2 0x39F JUMP JUMPDEST PUSH1 0x0 DUP1 SLOAD PUSH1 0x1 PUSH1 0x1 PUSH1 0xA0 SHL SUB DUP4 DUP2 AND PUSH1 0x1 PUSH1 0x1 PUSH1 0xA0 SHL SUB NOT DUP4 AND DUP2 OR DUP5 SSTORE PUSH1 0x40 MLOAD SWAP2 SWAP1 SWAP3 AND SWAP3 DUP4 SWAP2 PUSH32 0x8BE0079C531659141344CD1FD0A4F28419497F9722A3DAAFE3B4186F6B6457E0 SWAP2 SWAP1 LOG3 POP POP JUMP JUMPDEST PUSH1 0x4 SLOAD PUSH1 0x0 SWAP1 DUP2 MSTORE PUSH1 0x3 PUSH1 0x20 MSTORE PUSH1 0x40 SWAP1 KECCAK256 DUP2 DUP2 SSTORE PUSH2 0xD74 PUSH2 0x7AB JUMP JUMPDEST PUSH1 0x6 DUP2 SWAP1 SSTORE TIMESTAMP PUSH1 0x5 DUP2 SWAP1 SSTORE PUSH1 0x4 SLOAD PUSH1 0x40 DUP1 MLOAD SWAP4 DUP5 MSTORE PUSH1 0x20 DUP5 ADD DUP7 SWAP1 MSTORE SWAP2 SWAP3 SWAP1 SWAP2 PUSH32 0x9C968032BABECB64D56238F3B471800F713310C82902367F105EB43FCD35404F SWAP2 ADD PUSH1 0x40 MLOAD DUP1 SWAP2 SUB SWAP1 LOG3 POP POP JUMP JUMPDEST PUSH1 0x0 PUSH1 0x20 DUP3 DUP5 SUB SLT ISZERO PUSH2 0xDD5 JUMPI PUSH1 0x0 DUP1 REVERT JUMPDEST POP CALLDATALOAD SWAP2 SWAP1 POP JUMP JUMPDEST PUSH4 0x4E487B71 PUSH1 0xE0 SHL PUSH1 0x0 MSTORE PUSH1 0x21 PUSH1 0x4 MSTORE PUSH1 0x24 PUSH1 0x0 REVERT JUMPDEST PUSH1 0x2 DUP2 LT PUSH2 0xE10 JUMPI PUSH4 0x4E487B71 PUSH1 0xE0 SHL PUSH1 0x0 MSTORE PUSH1 0x21 PUSH1 0x4 MSTORE PUSH1 0x24 PUSH1 0x0 REVERT JUMPDEST SWAP1 MSTORE JUMP JUMPDEST DUP5 DUP2 MSTORE PUSH1 0x20 DUP2 ADD DUP5 SWAP1 MSTORE PUSH1 0x40 DUP2 ADD DUP4 SWAP1 MSTORE PUSH1 0x80 DUP2 ADD PUSH2 0xBC3 PUSH1 0x60 DUP4 ADD DUP5 PUSH2 0xDF2 JUMP JUMPDEST PUSH1 0x0 PUSH1 0x20 DUP3 DUP5 SUB SLT ISZERO PUSH2 0xE48 JUMPI PUSH1 0x0 DUP1 REVERT JUMPDEST DUP2 CALLDATALOAD PUSH1 0x2 DUP2 LT PUSH2 0xE57 JUMPI PUSH1 0x0 DUP1 REVERT JUMPDEST SWAP4 SWAP3 POP POP POP JUMP JUMPDEST PUSH1 0x0 PUSH1 0x20 DUP3 DUP5 SUB SLT ISZERO PUSH2 0xE70 JUMPI PUSH1 0x0 DUP1 REVERT JUMPDEST DUP2 CALLDATALOAD PUSH1 0x1 PUSH1 0x1 PUSH1 0xA0 SHL SUB DUP2 AND DUP2 EQ PUSH2 0xE57 JUMPI PUSH1 0x0 DUP1 REVERT JUMPDEST DUP4 DUP2 MSTORE PUSH1 0x60 DUP2 ADD PUSH2 0xE9B PUSH1 0x20 DUP4 ADD DUP6 PUSH2 0xDF2 JUMP JUMPDEST DUP3 PUSH1 0x40 DUP4 ADD MSTORE SWAP5 SWAP4 POP POP POP POP JUMP JUMPDEST PUSH4 0x4E487B71 PUSH1 0xE0 SHL PUSH1 0x0 MSTORE PUSH1 0x11 PUSH1 0x4 MSTORE PUSH1 0x24 PUSH1 0x0 REVERT JUMPDEST DUP1 DUP3 ADD DUP1 DUP3 GT ISZERO PUSH2 0xCA8 JUMPI PUSH2 0xCA8 PUSH2 0xEA9 JUMP JUMPDEST DUP2 DUP2 SUB DUP2 DUP2 GT ISZERO PUSH2 0xCA8 JUMPI PUSH2 0xCA8 PUSH2 0xEA9 JUMP JUMPDEST PUSH1 0x0 PUSH1 0xA0 DUP3 ADD SWAP1 POP DUP7 DUP3 MSTORE DUP6 PUSH1 0x20 DUP4 ADD MSTORE DUP5 PUSH1 0x40 DUP4 ADD MSTORE DUP4 PUSH1 0x60 DUP4 ADD MSTORE PUSH2 0xF0F PUSH1 0x80 DUP4 ADD DUP5 PUSH2 0xDF2 JUMP JUMPDEST SWAP7 SWAP6 POP POP POP POP POP POP JUMP JUMPDEST DUP1 MLOAD PUSH10 0xFFFFFFFFFFFFFFFFFFFF DUP2 AND DUP2 EQ PUSH2 0xF33 JUMPI PUSH1 0x0 DUP1 REVERT JUMPDEST SWAP2 SWAP1 POP JUMP JUMPDEST PUSH1 0x0 DUP1 PUSH1 0x0 DUP1 PUSH1 0x0 PUSH1 0xA0 DUP7 DUP9 SUB SLT ISZERO PUSH2 0xF50 JUMPI PUSH1 0x0 DUP1 REVERT JUMPDEST PUSH2 0xF59 DUP7 PUSH2 0xF19 JUMP JUMPDEST PUSH1 0x20 DUP8 ADD MLOAD PUSH1 0x40 DUP9 ADD MLOAD PUSH1 0x60 DUP10 ADD MLOAD SWAP3 SWAP8 POP SWAP1 SWAP6 POP SWAP4 POP SWAP2 POP PUSH2 0xF7E PUSH1 0x80 DUP8 ADD PUSH2 0xF19 JUMP JUMPDEST SWAP1 POP SWAP3 SWAP6 POP SWAP3 SWAP6 SWAP1 SWAP4 POP JUMP JUMPDEST DUP3 DUP2 MSTORE PUSH1 0x40 DUP2 ADD PUSH2 0xE57 PUSH1 0x20 DUP4 ADD DUP5 PUSH2 0xDF2 JUMP JUMPDEST DUP1 DUP3 MUL DUP2 ISZERO DUP3 DUP3 DIV DUP5 EQ OR PUSH2 0xCA8 JUMPI PUSH2 0xCA8 PUSH2 0xEA9 JUMP JUMPDEST PUSH1 0x0 DUP3 PUSH2 0xFD2 JUMPI PUSH4 0x4E487B71 PUSH1 0xE0 SHL PUSH1 0x0 MSTORE PUSH1 0x12 PUSH1 0x4 MSTORE PUSH1 0x24 PUSH1 0x0 REVERT JUMPDEST POP DIV SWAP1 JUMP INVALID LOG2 PUSH5 0x6970667358 0x22 SLT KECCAK256 0xEB SWAP3 DUP4 0xD4 GT SWAP7 0xBD 0xB3 PUSH13 0xBE513A092076BB1FCC6AB79B0D 0xA7 0x27 0xDD LOG2 0xD6 0xDA 0xF6 0xAE STOP POP PUSH5 0x736F6C6343 STOP ADDMOD SHR STOP CALLER ","sha1":"155b68a7169b426361453bb7e4f13883a0308a76","source":"// SPDX-License-Identifier: MIT\npragma solidity ^0.8.18;\n\nimport \"@chainlink/contracts/src/v0.8/interfaces/AggregatorV3Interface.sol\";\nimport \"@openzeppelin/contracts/access/Ownable.sol\";\nimport \"@openzeppelin/contracts/security/ReentrancyGuard.sol\";\n\n/**\n * @title BitcoinUpDown\n * @dev A betting game where players predict whether the price of Bitcoin will go up or down within a round duration.\n */\ncontract BitcoinUpDown is Ownable, ReentrancyGuard {\n    enum UP_DOWN {\n        UP,\n        DOWN\n    }\n\n    struct Player {\n        uint256 bet;\n        UP_DOWN up_down;\n        uint256 round;\n    }\n\n    struct Round {\n        uint256 prize_pool;\n        uint256 prize_pool_up;\n        uint256 prize_pool_down;\n        UP_DOWN winner;\n    }\n\n    mapping(address => Player) public players_bet;\n    mapping(uint256 => Round) public rounds;\n    AggregatorV3Interface public immutable btc_usd_price_feed;\n\n    uint256 public round;\n    uint256 public ts_start;\n    uint256 public constant ROUND_DURATION = 1 days;\n    int256 public price_open;\n    int256 public price_close;\n\n    // Events\n    event eventStartRound(\n        uint256 indexed round,\n        uint256 indexed ts_start,\n        int256 price_open,\n        uint256 seed\n    );\n    event eventBet(\n        uint256 indexed round,\n        address indexed player,\n        uint256 amount,\n        UP_DOWN up_down\n    );\n    event eventEndRound(\n        uint256 indexed round,\n        uint256 indexed ts_close,\n        int256 price_close,\n        uint256 prize_pool,\n        uint256 prize_pool_up,\n        uint256 prize_pool_down,\n        UP_DOWN winner\n    );\n    event eventAddToPrizePool(\n        uint256 indexed round,\n        address indexed from,\n        uint256 amount\n    );\n\n    constructor(address _price_feed_address) {\n        require(\n            _price_feed_address != address(0),\n            \"Invalid price feed address\"\n        );\n        btc_usd_price_feed = AggregatorV3Interface(_price_feed_address);\n        _startRound(0); // Initialize the first round with no seed\n    }\n\n    /**\n     * @notice Get the latest price of Bitcoin in USD\n     * @return The latest price in int256 format\n     */\n    function getPrice() public view returns (int256) {\n        (, int256 price, , , ) = btc_usd_price_feed.latestRoundData();\n        return price;\n    }\n\n    /**\n     * @notice Adds Ether to the current round's prize pool.\n     */\n    function addToPrizePool() public payable {\n        require(msg.value > 0, \"Minimum amount to add is 1 wei\");\n        rounds[round].prize_pool += msg.value;\n        emit eventAddToPrizePool(round, msg.sender, msg.value);\n    }\n\n    /**\n     * @notice Place a bet for the current round.\n     * @param _up_down The direction of the bet (UP or DOWN).\n     */\n    function bet(UP_DOWN _up_down) public payable {\n        require(msg.value > 0, \"Minimum bet is 1 wei\");\n        require(block.timestamp - ts_start <= 3600, \"Betting is closed\");\n\n        Player storage player = players_bet[msg.sender];\n        Round storage current_round = rounds[round];\n\n        // Ensure the player has no pending bets or previous round obligations\n        require(\n            player.bet == 0 || player.round != round,\n            \"Bet already placed this round\"\n        );\n        require(\n            player.bet == 0 || player.up_down != current_round.winner,\n            \"Pending withdrawal from previous round\"\n        );\n\n        // Update player and round data\n        player.bet = msg.value;\n        player.up_down = _up_down;\n        player.round = round;\n\n        current_round.prize_pool += msg.value;\n        if (_up_down == UP_DOWN.UP) {\n            current_round.prize_pool_up += msg.value;\n        } else {\n            current_round.prize_pool_down += msg.value;\n        }\n\n        emit eventBet(round, msg.sender, msg.value, _up_down);\n    }\n\n    /**\n     * @notice Withdraw winnings for a player if they won in a previous round.\n     */\n    function withdraw() public nonReentrant {\n        Player storage player = players_bet[msg.sender];\n        require(player.bet > 0, \"No active bets\");\n        require(player.round < round, \"Current round still ongoing\");\n\n        Round storage player_round = rounds[player.round];\n        require(player.up_down == player_round.winner, \"Not a winning bet\");\n\n        uint256 prize = _calculatePrize(player, player_round);\n        player.bet = 0; // Reset player bet\n        (bool sent, ) = msg.sender.call{value: prize}(\"\");\n        require(sent, \"Withdrawal failed\");\n    }\n\n    /**\n     * @notice End the current round and start a new one.\n     */\n    function endRound() public {\n        require(\n            block.timestamp - ts_start >= ROUND_DURATION,\n            \"Round duration is less than 24 hours\"\n        );\n\n        Round storage current_round = rounds[round];\n        price_close = getPrice();\n\n        // Determine the winner\n        UP_DOWN winner;\n        uint256 seed = 0;\n\n        if (price_close >= price_open) {\n            winner = UP_DOWN.UP;\n            if (current_round.prize_pool_up == 0) {\n                seed = current_round.prize_pool; // Carry forward if no UP bets\n            }\n        } else {\n            winner = UP_DOWN.DOWN;\n            if (current_round.prize_pool_down == 0) {\n                seed = current_round.prize_pool; // Carry forward if no DOWN bets\n            }\n        }\n        current_round.winner = winner;\n\n        emit eventEndRound(\n            round,\n            block.timestamp,\n            price_close,\n            current_round.prize_pool,\n            current_round.prize_pool_up,\n            current_round.prize_pool_down,\n            winner\n        );\n\n        // Start a new round\n        round += 1;\n        _startRound(seed);\n    }\n\n    /**\n     * @dev Internal function to start a new round.\n     * @param seed The amount to seed the new round's prize pool.\n     */\n    function _startRound(uint256 seed) private {\n        Round storage new_round = rounds[round];\n        new_round.prize_pool = seed;\n        price_open = getPrice();\n        ts_start = block.timestamp;\n        emit eventStartRound(round, ts_start, price_open, seed);\n    }\n\n    /**\n     * @dev Internal function to calculate prize for a player.\n     * @param player The player's data.\n     * @param player_round The round data associated with the player.\n     * @return The calculated prize amount.\n     */\n    function _calculatePrize(\n        Player storage player,\n        Round storage player_round\n    ) private view returns (uint256) {\n        uint256 bet_pool = player.up_down == UP_DOWN.UP\n            ? player_round.prize_pool_up\n            : player_round.prize_pool_down;\n\n        if (bet_pool == 0) return 0; // Avoid division by zero\n        return (player.bet * player_round.prize_pool) / bet_pool;\n    }\n\n    /**\n     * @notice Receive Ether to add to the prize pool.\n     */\n    receive() external payable {\n        addToPrizePool();\n    }\n\n    /**\n     * @notice Fallback function to handle unexpected Ether transfers.\n     */\n    fallback() external payable {\n        addToPrizePool();\n    }\n\n    /**\n     * @notice Calculates the pending withdrawal amount for a player.\n     * @param _addr The address of the player.\n     * @return The amount in wei the player can withdraw.\n     */\n    function getPendingWithdraw(address _addr) public view returns (uint256) {\n        Player storage player = players_bet[_addr];\n\n        // If the player has no bet or is still in the current round, return 0\n        if (player.bet == 0 || player.round == round) {\n            return 0;\n        }\n\n        Round storage player_round = rounds[player.round];\n\n        // If the player didn't bet on the winning side, return 0\n        if (player.up_down != player_round.winner) {\n            return 0;\n        }\n\n        // Calculate the player's share of the prize pool\n        uint256 bet_pool = player.up_down == UP_DOWN.UP\n            ? player_round.prize_pool_up\n            : player_round.prize_pool_down;\n\n        if (bet_pool == 0) {\n            return 0; // Avoid division by zero\n        }\n\n        return (player.bet * player_round.prize_pool) / bet_pool;\n    }\n}\n","sourcePath":"contracts/BitcoinUpDown.sol","type":"contract","deployment":{"address":"0xbb953E6364a8B23C4Aa1B5A2A1a65f57fc86EC5f","chainid":"97","blockHeight":46292917}}