{"abi":[{"inputs":[{"internalType":"address","name":"_priceFeed","type":"address"}],"stateMutability":"nonpayable","type":"constructor","name":"constructor"},{"anonymous":false,"inputs":[{"indexed":false,"internalType":"uint256","name":"roundId","type":"uint256"},{"indexed":true,"internalType":"address","name":"bettor","type":"address"},{"indexed":false,"internalType":"int256","name":"predictedPrice","type":"int256"}],"name":"BetPlaced","type":"event"},{"anonymous":false,"inputs":[{"indexed":false,"internalType":"uint256","name":"roundId","type":"uint256"},{"indexed":false,"internalType":"int256","name":"actualPrice","type":"int256"},{"indexed":false,"internalType":"address","name":"winner","type":"address"}],"name":"RoundEnded","type":"event"},{"anonymous":false,"inputs":[{"indexed":false,"internalType":"uint256","name":"roundId","type":"uint256"},{"indexed":false,"internalType":"uint256","name":"startTime","type":"uint256"}],"name":"RoundStarted","type":"event"},{"anonymous":false,"inputs":[{"indexed":true,"internalType":"address","name":"winner","type":"address"},{"indexed":false,"internalType":"uint256","name":"amount","type":"uint256"}],"name":"WinningsWithdrawn","type":"event"},{"inputs":[],"name":"actualPrice","outputs":[{"internalType":"int256","name":"","type":"int256"}],"stateMutability":"view","type":"function"},{"inputs":[],"name":"betAmount","outputs":[{"internalType":"uint256","name":"","type":"uint256"}],"stateMutability":"view","type":"function"},{"inputs":[],"name":"betting_duration","outputs":[{"internalType":"uint256","name":"","type":"uint256"}],"stateMutability":"view","type":"function"},{"inputs":[],"name":"currentRound","outputs":[{"internalType":"uint256","name":"","type":"uint256"}],"stateMutability":"view","type":"function"},{"inputs":[],"name":"endRound","outputs":[],"stateMutability":"nonpayable","type":"function"},{"inputs":[],"name":"getContractBalance","outputs":[{"internalType":"uint256","name":"","type":"uint256"}],"stateMutability":"view","type":"function"},{"inputs":[],"name":"getPrice","outputs":[{"internalType":"int256","name":"","type":"int256"}],"stateMutability":"view","type":"function"},{"inputs":[],"name":"n_bets","outputs":[{"internalType":"uint256","name":"","type":"uint256"}],"stateMutability":"view","type":"function"},{"inputs":[],"name":"owner","outputs":[{"internalType":"address","name":"","type":"address"}],"stateMutability":"view","type":"function"},{"inputs":[{"internalType":"address","name":"","type":"address"}],"name":"pendingWithdrawals","outputs":[{"internalType":"uint256","name":"","type":"uint256"}],"stateMutability":"view","type":"function"},{"inputs":[{"internalType":"int256","name":"_predictedPrice","type":"int256"}],"name":"placeBet","outputs":[],"stateMutability":"payable","type":"function"},{"inputs":[],"name":"priceFeed","outputs":[{"internalType":"contract AggregatorV3Interface","name":"","type":"address"}],"stateMutability":"view","type":"function"},{"inputs":[{"internalType":"uint256","name":"","type":"uint256"},{"internalType":"uint256","name":"","type":"uint256"}],"name":"roundBets","outputs":[{"internalType":"address","name":"bettor","type":"address"},{"internalType":"int256","name":"predictedPrice","type":"int256"}],"stateMutability":"view","type":"function"},{"inputs":[],"name":"roundDuration","outputs":[{"internalType":"uint256","name":"","type":"uint256"}],"stateMutability":"view","type":"function"},{"inputs":[],"name":"roundStartTime","outputs":[{"internalType":"uint256","name":"","type":"uint256"}],"stateMutability":"view","type":"function"},{"inputs":[{"internalType":"uint256","name":"","type":"uint256"}],"name":"roundWinners","outputs":[{"internalType":"address","name":"","type":"address"}],"stateMutability":"view","type":"function"},{"inputs":[],"name":"withdrawWinnings","outputs":[],"stateMutability":"nonpayable","type":"function"}],"bytecode":"6080604052662386f26fc100006005556000600655610e1060075534801561002657600080fd5b50604051610b8d380380610b8d833981016040819052610045916100cc565b60018054336001600160a01b0319918216178255600080549091166001600160a01b038416179055600b5561007861007e565b506100fc565b4260028190556000600455600b546040517f278844837bcf8364a705384bf3a2812901f54155bae86dea81dd52aa5b9ec0e3926100c2928252602082015260400190565b60405180910390a1565b6000602082840312156100de57600080fd5b81516001600160a01b03811681146100f557600080fd5b9392505050565b610a828061010b6000396000f3fe6080604052600436106100fe5760003560e01c80638da5cb5b11610095578063cc42e83a11610064578063cc42e83a14610289578063d24257c01461029e578063dd4f8f74146102b4578063f3f43703146102ca578063f7cb789a146102f757600080fd5b80638da5cb5b1461022857806398d5fdca14610248578063bb42e32e1461025d578063c232302f1461027357600080fd5b806376a4956c116100d157806376a4956c1461018757806381b79267146101bd5780638a19c8bc146101fc5780638c6481171461021257600080fd5b8063133386a4146101035780636f9fb98a14610118578063741bef1a1461013a578063749aa2d914610172575b600080fd5b6101166101113660046108da565b61030d565b005b34801561012457600080fd5b50475b6040519081526020015b60405180910390f35b34801561014657600080fd5b5060005461015a906001600160a01b031681565b6040516001600160a01b039091168152602001610131565b34801561017e57600080fd5b50610116610470565b34801561019357600080fd5b5061015a6101a23660046108da565b6009602052600090815260409020546001600160a01b031681565b3480156101c957600080fd5b506101dd6101d83660046108f3565b6106d7565b604080516001600160a01b039093168352602083019190915201610131565b34801561020857600080fd5b50610127600b5481565b34801561021e57600080fd5b5061012760035481565b34801561023457600080fd5b5060015461015a906001600160a01b031681565b34801561025457600080fd5b5061012761071d565b34801561026957600080fd5b5061012760075481565b34801561027f57600080fd5b5061012760045481565b34801561029557600080fd5b50610116610796565b3480156102aa57600080fd5b5061012760055481565b3480156102c057600080fd5b5061012760025481565b3480156102d657600080fd5b506101276102e5366004610915565b600a6020526000908152604090205481565b34801561030357600080fd5b5061012760065481565b60075460025461031d919061095b565b42111561036a5760405162461bcd60e51b81526020600482015260166024820152752132ba3a34b733903832b934b7b21034b99037bb32b960511b60448201526064015b60405180910390fd5b60055434146103bb5760405162461bcd60e51b815260206004820181905260248201527f42657420616d6f756e74206d7573742062652065786163746c792031204554486044820152606401610361565b600b54600090815260086020908152604080832081518083019092523382528183018581528154600180820184559286529385209251600290940290920180546001600160a01b0319166001600160a01b03909416939093178355905191015560048054916104298361096e565b9091555050600b54604080519182526020820183905233917f0fe8a4f5c8aa725deff1274dcd26cc3d24f93440a9b35ea011509b962f518b1191015b60405180910390a250565b600654600254610480919061095b565b4210156104c75760405162461bcd60e51b81526020600482015260156024820152742937bab7321034b9903737ba103cb2ba1037bb32b960591b6044820152606401610361565b60008060009054906101000a90046001600160a01b03166001600160a01b031663feaf968c6040518163ffffffff1660e01b815260040160a060405180830381865afa15801561051b573d6000803e3d6000fd5b505050506040513d601f19601f8201168201806040525081019061053f91906109a6565b5050506003819055600b54600090815260086020526040812091935091506001600160ff1b0390825b81548110156105e75760006105a2838381548110610588576105886109f8565b906000526020600020906002020160010154600354610861565b9050838112156105de578093508282815481106105c1576105c16109f8565b60009182526020909120600290910201546001600160a01b031694505b50600101610568565b506001600160a01b0383161561066657600554815460009161060891610a0e565b6001600160a01b0385166000908152600a602052604081208054929350839290919061063590849061095b565b9091555050600b54600090815260096020526040902080546001600160a01b0319166001600160a01b038616179055505b600b546003546040805192835260208301919091526001600160a01b03851682820152517fbbc057d42226d2747c9c898fa1be04cd1734cacafeaee5f799bd9e741a8eb03a9181900360600190a1600b80549060006106c48361096e565b91905055506106d161088c565b50505050565b600860205281600052604060002081815481106106f357600080fd5b6000918252602090912060029091020180546001909101546001600160a01b039091169250905082565b6000805460408051633fabe5a360e21b8152905183926001600160a01b03169163feaf968c9160048083019260a09291908290030181865afa158015610767573d6000803e3d6000fd5b505050506040513d601f19601f8201168201806040525081019061078b91906109a6565b509195945050505050565b336000908152600a6020526040902054806107f35760405162461bcd60e51b815260206004820152601760248201527f4e6f2077696e6e696e677320746f2077697468647261770000000000000000006044820152606401610361565b336000818152600a60205260408082208290555183156108fc0291849190818181858888f1935050505015801561082e573d6000803e3d6000fd5b5060405181815233907f24215bbaf0832fa4d6ffef16dee3971d8b714921fef3ad63f793d578983c6dc290602001610465565b6000818313610879576108748383610a25565b610883565b6108838284610a25565b90505b92915050565b4260028190556000600455600b546040517f278844837bcf8364a705384bf3a2812901f54155bae86dea81dd52aa5b9ec0e3926108d0928252602082015260400190565b60405180910390a1565b6000602082840312156108ec57600080fd5b5035919050565b6000806040838503121561090657600080fd5b50508035926020909101359150565b60006020828403121561092757600080fd5b81356001600160a01b038116811461093e57600080fd5b9392505050565b634e487b7160e01b600052601160045260246000fd5b8082018082111561088657610886610945565b60006001820161098057610980610945565b5060010190565b805169ffffffffffffffffffff811681146109a157600080fd5b919050565b600080600080600060a086880312156109be57600080fd5b6109c786610987565b602087015160408801516060890151929750909550935091506109ec60808701610987565b90509295509295909350565b634e487b7160e01b600052603260045260246000fd5b808202811582820484141761088657610886610945565b8181036000831280158383131683831282161715610a4557610a45610945565b509291505056fea264697066735822122075256cd04e20e31c9ec219fce0415734bf8d563a5f52adcefa660477b4db68f964736f6c634300081c0033","bytecodeSha1":"c7ef809d6cc5867f3ded396b627cbd8b6a0ef449","compiler":{"evm_version":"istanbul","optimizer":{"enabled":true,"runs":200},"version":"0.8.28+commit.7893614a"},"contractName":"BitcoinUpDown","language":"Solidity","natspec":{"kind":"dev","methods":{},"version":1},"opcodes":"PUSH1 0x80 PUSH1 0x40 MSTORE PUSH1 0x4 CALLDATASIZE LT PUSH2 0xFE JUMPI PUSH1 0x0 CALLDATALOAD PUSH1 0xE0 SHR DUP1 PUSH4 0x8DA5CB5B GT PUSH2 0x95 JUMPI DUP1 PUSH4 0xCC42E83A GT PUSH2 0x64 JUMPI DUP1 PUSH4 0xCC42E83A EQ PUSH2 0x289 JUMPI DUP1 PUSH4 0xD24257C0 EQ PUSH2 0x29E JUMPI DUP1 PUSH4 0xDD4F8F74 EQ PUSH2 0x2B4 JUMPI DUP1 PUSH4 0xF3F43703 EQ PUSH2 0x2CA JUMPI DUP1 PUSH4 0xF7CB789A EQ PUSH2 0x2F7 JUMPI PUSH1 0x0 DUP1 REVERT JUMPDEST DUP1 PUSH4 0x8DA5CB5B EQ PUSH2 0x228 JUMPI DUP1 PUSH4 0x98D5FDCA EQ PUSH2 0x248 JUMPI DUP1 PUSH4 0xBB42E32E EQ PUSH2 0x25D JUMPI DUP1 PUSH4 0xC232302F EQ PUSH2 0x273 JUMPI PUSH1 0x0 DUP1 REVERT JUMPDEST DUP1 PUSH4 0x76A4956C GT PUSH2 0xD1 JUMPI DUP1 PUSH4 0x76A4956C EQ PUSH2 0x187 JUMPI DUP1 PUSH4 0x81B79267 EQ PUSH2 0x1BD JUMPI DUP1 PUSH4 0x8A19C8BC EQ PUSH2 0x1FC JUMPI DUP1 PUSH4 0x8C648117 EQ PUSH2 0x212 JUMPI PUSH1 0x0 DUP1 REVERT JUMPDEST DUP1 PUSH4 0x133386A4 EQ PUSH2 0x103 JUMPI DUP1 PUSH4 0x6F9FB98A EQ PUSH2 0x118 JUMPI DUP1 PUSH4 0x741BEF1A EQ PUSH2 0x13A JUMPI DUP1 PUSH4 0x749AA2D9 EQ PUSH2 0x172 JUMPI JUMPDEST PUSH1 0x0 DUP1 REVERT JUMPDEST PUSH2 0x116 PUSH2 0x111 CALLDATASIZE PUSH1 0x4 PUSH2 0x8DA JUMP JUMPDEST PUSH2 0x30D JUMP JUMPDEST STOP JUMPDEST CALLVALUE DUP1 ISZERO PUSH2 0x124 JUMPI PUSH1 0x0 DUP1 REVERT JUMPDEST POP SELFBALANCE JUMPDEST PUSH1 0x40 MLOAD SWAP1 DUP2 MSTORE PUSH1 0x20 ADD JUMPDEST PUSH1 0x40 MLOAD DUP1 SWAP2 SUB SWAP1 RETURN JUMPDEST CALLVALUE DUP1 ISZERO PUSH2 0x146 JUMPI PUSH1 0x0 DUP1 REVERT JUMPDEST POP PUSH1 0x0 SLOAD PUSH2 0x15A SWAP1 PUSH1 0x1 PUSH1 0x1 PUSH1 0xA0 SHL SUB AND DUP2 JUMP JUMPDEST PUSH1 0x40 MLOAD PUSH1 0x1 PUSH1 0x1 PUSH1 0xA0 SHL SUB SWAP1 SWAP2 AND DUP2 MSTORE PUSH1 0x20 ADD PUSH2 0x131 JUMP JUMPDEST CALLVALUE DUP1 ISZERO PUSH2 0x17E JUMPI PUSH1 0x0 DUP1 REVERT JUMPDEST POP PUSH2 0x116 PUSH2 0x470 JUMP JUMPDEST CALLVALUE DUP1 ISZERO PUSH2 0x193 JUMPI PUSH1 0x0 DUP1 REVERT JUMPDEST POP PUSH2 0x15A PUSH2 0x1A2 CALLDATASIZE PUSH1 0x4 PUSH2 0x8DA JUMP JUMPDEST PUSH1 0x9 PUSH1 0x20 MSTORE PUSH1 0x0 SWAP1 DUP2 MSTORE PUSH1 0x40 SWAP1 KECCAK256 SLOAD PUSH1 0x1 PUSH1 0x1 PUSH1 0xA0 SHL SUB AND DUP2 JUMP JUMPDEST CALLVALUE DUP1 ISZERO PUSH2 0x1C9 JUMPI PUSH1 0x0 DUP1 REVERT JUMPDEST POP PUSH2 0x1DD PUSH2 0x1D8 CALLDATASIZE PUSH1 0x4 PUSH2 0x8F3 JUMP JUMPDEST PUSH2 0x6D7 JUMP JUMPDEST PUSH1 0x40 DUP1 MLOAD PUSH1 0x1 PUSH1 0x1 PUSH1 0xA0 SHL SUB SWAP1 SWAP4 AND DUP4 MSTORE PUSH1 0x20 DUP4 ADD SWAP2 SWAP1 SWAP2 MSTORE ADD PUSH2 0x131 JUMP JUMPDEST CALLVALUE DUP1 ISZERO PUSH2 0x208 JUMPI PUSH1 0x0 DUP1 REVERT JUMPDEST POP PUSH2 0x127 PUSH1 0xB SLOAD DUP2 JUMP JUMPDEST CALLVALUE DUP1 ISZERO PUSH2 0x21E JUMPI PUSH1 0x0 DUP1 REVERT JUMPDEST POP PUSH2 0x127 PUSH1 0x3 SLOAD DUP2 JUMP JUMPDEST CALLVALUE DUP1 ISZERO PUSH2 0x234 JUMPI PUSH1 0x0 DUP1 REVERT JUMPDEST POP PUSH1 0x1 SLOAD PUSH2 0x15A SWAP1 PUSH1 0x1 PUSH1 0x1 PUSH1 0xA0 SHL SUB AND DUP2 JUMP JUMPDEST CALLVALUE DUP1 ISZERO PUSH2 0x254 JUMPI PUSH1 0x0 DUP1 REVERT JUMPDEST POP PUSH2 0x127 PUSH2 0x71D JUMP JUMPDEST CALLVALUE DUP1 ISZERO PUSH2 0x269 JUMPI PUSH1 0x0 DUP1 REVERT JUMPDEST POP PUSH2 0x127 PUSH1 0x7 SLOAD DUP2 JUMP JUMPDEST CALLVALUE DUP1 ISZERO PUSH2 0x27F JUMPI PUSH1 0x0 DUP1 REVERT JUMPDEST POP PUSH2 0x127 PUSH1 0x4 SLOAD DUP2 JUMP JUMPDEST CALLVALUE DUP1 ISZERO PUSH2 0x295 JUMPI PUSH1 0x0 DUP1 REVERT JUMPDEST POP PUSH2 0x116 PUSH2 0x796 JUMP JUMPDEST CALLVALUE DUP1 ISZERO PUSH2 0x2AA JUMPI PUSH1 0x0 DUP1 REVERT JUMPDEST POP PUSH2 0x127 PUSH1 0x5 SLOAD DUP2 JUMP JUMPDEST CALLVALUE DUP1 ISZERO PUSH2 0x2C0 JUMPI PUSH1 0x0 DUP1 REVERT JUMPDEST POP PUSH2 0x127 PUSH1 0x2 SLOAD DUP2 JUMP JUMPDEST CALLVALUE DUP1 ISZERO PUSH2 0x2D6 JUMPI PUSH1 0x0 DUP1 REVERT JUMPDEST POP PUSH2 0x127 PUSH2 0x2E5 CALLDATASIZE PUSH1 0x4 PUSH2 0x915 JUMP JUMPDEST PUSH1 0xA PUSH1 0x20 MSTORE PUSH1 0x0 SWAP1 DUP2 MSTORE PUSH1 0x40 SWAP1 KECCAK256 SLOAD DUP2 JUMP JUMPDEST CALLVALUE DUP1 ISZERO PUSH2 0x303 JUMPI PUSH1 0x0 DUP1 REVERT JUMPDEST POP PUSH2 0x127 PUSH1 0x6 SLOAD DUP2 JUMP JUMPDEST PUSH1 0x7 SLOAD PUSH1 0x2 SLOAD PUSH2 0x31D SWAP2 SWAP1 PUSH2 0x95B JUMP JUMPDEST TIMESTAMP GT ISZERO PUSH2 0x36A JUMPI PUSH1 0x40 MLOAD PUSH3 0x461BCD PUSH1 0xE5 SHL DUP2 MSTORE PUSH1 0x20 PUSH1 0x4 DUP3 ADD MSTORE PUSH1 0x16 PUSH1 0x24 DUP3 ADD MSTORE PUSH22 0x2132BA3A34B733903832B934B7B21034B99037BB32B9 PUSH1 0x51 SHL PUSH1 0x44 DUP3 ADD MSTORE PUSH1 0x64 ADD JUMPDEST PUSH1 0x40 MLOAD DUP1 SWAP2 SUB SWAP1 REVERT JUMPDEST PUSH1 0x5 SLOAD CALLVALUE EQ PUSH2 0x3BB JUMPI PUSH1 0x40 MLOAD PUSH3 0x461BCD PUSH1 0xE5 SHL DUP2 MSTORE PUSH1 0x20 PUSH1 0x4 DUP3 ADD DUP2 SWAP1 MSTORE PUSH1 0x24 DUP3 ADD MSTORE PUSH32 0x42657420616D6F756E74206D7573742062652065786163746C79203120455448 PUSH1 0x44 DUP3 ADD MSTORE PUSH1 0x64 ADD PUSH2 0x361 JUMP JUMPDEST PUSH1 0xB SLOAD PUSH1 0x0 SWAP1 DUP2 MSTORE PUSH1 0x8 PUSH1 0x20 SWAP1 DUP2 MSTORE PUSH1 0x40 DUP1 DUP4 KECCAK256 DUP2 MLOAD DUP1 DUP4 ADD SWAP1 SWAP3 MSTORE CALLER DUP3 MSTORE DUP2 DUP4 ADD DUP6 DUP2 MSTORE DUP2 SLOAD PUSH1 0x1 DUP1 DUP3 ADD DUP5 SSTORE SWAP3 DUP7 MSTORE SWAP4 DUP6 KECCAK256 SWAP3 MLOAD PUSH1 0x2 SWAP1 SWAP5 MUL SWAP1 SWAP3 ADD DUP1 SLOAD PUSH1 0x1 PUSH1 0x1 PUSH1 0xA0 SHL SUB NOT AND PUSH1 0x1 PUSH1 0x1 PUSH1 0xA0 SHL SUB SWAP1 SWAP5 AND SWAP4 SWAP1 SWAP4 OR DUP4 SSTORE SWAP1 MLOAD SWAP2 ADD SSTORE PUSH1 0x4 DUP1 SLOAD SWAP2 PUSH2 0x429 DUP4 PUSH2 0x96E JUMP JUMPDEST SWAP1 SWAP2 SSTORE POP POP PUSH1 0xB SLOAD PUSH1 0x40 DUP1 MLOAD SWAP2 DUP3 MSTORE PUSH1 0x20 DUP3 ADD DUP4 SWAP1 MSTORE CALLER SWAP2 PUSH32 0xFE8A4F5C8AA725DEFF1274DCD26CC3D24F93440A9B35EA011509B962F518B11 SWAP2 ADD JUMPDEST PUSH1 0x40 MLOAD DUP1 SWAP2 SUB SWAP1 LOG2 POP JUMP JUMPDEST PUSH1 0x6 SLOAD PUSH1 0x2 SLOAD PUSH2 0x480 SWAP2 SWAP1 PUSH2 0x95B JUMP JUMPDEST TIMESTAMP LT ISZERO PUSH2 0x4C7 JUMPI PUSH1 0x40 MLOAD PUSH3 0x461BCD PUSH1 0xE5 SHL DUP2 MSTORE PUSH1 0x20 PUSH1 0x4 DUP3 ADD MSTORE PUSH1 0x15 PUSH1 0x24 DUP3 ADD MSTORE PUSH21 0x2937BAB7321034B9903737BA103CB2BA1037BB32B9 PUSH1 0x59 SHL PUSH1 0x44 DUP3 ADD MSTORE PUSH1 0x64 ADD PUSH2 0x361 JUMP JUMPDEST PUSH1 0x0 DUP1 PUSH1 0x0 SWAP1 SLOAD SWAP1 PUSH2 0x100 EXP SWAP1 DIV PUSH1 0x1 PUSH1 0x1 PUSH1 0xA0 SHL SUB AND PUSH1 0x1 PUSH1 0x1 PUSH1 0xA0 SHL SUB AND PUSH4 0xFEAF968C PUSH1 0x40 MLOAD DUP2 PUSH4 0xFFFFFFFF AND PUSH1 0xE0 SHL DUP2 MSTORE PUSH1 0x4 ADD PUSH1 0xA0 PUSH1 0x40 MLOAD DUP1 DUP4 SUB DUP2 DUP7 GAS STATICCALL ISZERO DUP1 ISZERO PUSH2 0x51B JUMPI RETURNDATASIZE PUSH1 0x0 DUP1 RETURNDATACOPY RETURNDATASIZE PUSH1 0x0 REVERT JUMPDEST POP POP POP POP PUSH1 0x40 MLOAD RETURNDATASIZE PUSH1 0x1F NOT PUSH1 0x1F DUP3 ADD AND DUP3 ADD DUP1 PUSH1 0x40 MSTORE POP DUP2 ADD SWAP1 PUSH2 0x53F SWAP2 SWAP1 PUSH2 0x9A6 JUMP JUMPDEST POP POP POP PUSH1 0x3 DUP2 SWAP1 SSTORE PUSH1 0xB SLOAD PUSH1 0x0 SWAP1 DUP2 MSTORE PUSH1 0x8 PUSH1 0x20 MSTORE PUSH1 0x40 DUP2 KECCAK256 SWAP2 SWAP4 POP SWAP2 POP PUSH1 0x1 PUSH1 0x1 PUSH1 0xFF SHL SUB SWAP1 DUP3 JUMPDEST DUP2 SLOAD DUP2 LT ISZERO PUSH2 0x5E7 JUMPI PUSH1 0x0 PUSH2 0x5A2 DUP4 DUP4 DUP2 SLOAD DUP2 LT PUSH2 0x588 JUMPI PUSH2 0x588 PUSH2 0x9F8 JUMP JUMPDEST SWAP1 PUSH1 0x0 MSTORE PUSH1 0x20 PUSH1 0x0 KECCAK256 SWAP1 PUSH1 0x2 MUL ADD PUSH1 0x1 ADD SLOAD PUSH1 0x3 SLOAD PUSH2 0x861 JUMP JUMPDEST SWAP1 POP DUP4 DUP2 SLT ISZERO PUSH2 0x5DE JUMPI DUP1 SWAP4 POP DUP3 DUP3 DUP2 SLOAD DUP2 LT PUSH2 0x5C1 JUMPI PUSH2 0x5C1 PUSH2 0x9F8 JUMP JUMPDEST PUSH1 0x0 SWAP2 DUP3 MSTORE PUSH1 0x20 SWAP1 SWAP2 KECCAK256 PUSH1 0x2 SWAP1 SWAP2 MUL ADD SLOAD PUSH1 0x1 PUSH1 0x1 PUSH1 0xA0 SHL SUB AND SWAP5 POP JUMPDEST POP PUSH1 0x1 ADD PUSH2 0x568 JUMP JUMPDEST POP PUSH1 0x1 PUSH1 0x1 PUSH1 0xA0 SHL SUB DUP4 AND ISZERO PUSH2 0x666 JUMPI PUSH1 0x5 SLOAD DUP2 SLOAD PUSH1 0x0 SWAP2 PUSH2 0x608 SWAP2 PUSH2 0xA0E JUMP JUMPDEST PUSH1 0x1 PUSH1 0x1 PUSH1 0xA0 SHL SUB DUP6 AND PUSH1 0x0 SWAP1 DUP2 MSTORE PUSH1 0xA PUSH1 0x20 MSTORE PUSH1 0x40 DUP2 KECCAK256 DUP1 SLOAD SWAP3 SWAP4 POP DUP4 SWAP3 SWAP1 SWAP2 SWAP1 PUSH2 0x635 SWAP1 DUP5 SWAP1 PUSH2 0x95B JUMP JUMPDEST SWAP1 SWAP2 SSTORE POP POP PUSH1 0xB SLOAD PUSH1 0x0 SWAP1 DUP2 MSTORE PUSH1 0x9 PUSH1 0x20 MSTORE PUSH1 0x40 SWAP1 KECCAK256 DUP1 SLOAD PUSH1 0x1 PUSH1 0x1 PUSH1 0xA0 SHL SUB NOT AND PUSH1 0x1 PUSH1 0x1 PUSH1 0xA0 SHL SUB DUP7 AND OR SWAP1 SSTORE POP JUMPDEST PUSH1 0xB SLOAD PUSH1 0x3 SLOAD PUSH1 0x40 DUP1 MLOAD SWAP3 DUP4 MSTORE PUSH1 0x20 DUP4 ADD SWAP2 SWAP1 SWAP2 MSTORE PUSH1 0x1 PUSH1 0x1 PUSH1 0xA0 SHL SUB DUP6 AND DUP3 DUP3 ADD MSTORE MLOAD PUSH32 0xBBC057D42226D2747C9C898FA1BE04CD1734CACAFEAEE5F799BD9E741A8EB03A SWAP2 DUP2 SWAP1 SUB PUSH1 0x60 ADD SWAP1 LOG1 PUSH1 0xB DUP1 SLOAD SWAP1 PUSH1 0x0 PUSH2 0x6C4 DUP4 PUSH2 0x96E JUMP JUMPDEST SWAP2 SWAP1 POP SSTORE POP PUSH2 0x6D1 PUSH2 0x88C JUMP JUMPDEST POP POP POP POP JUMP JUMPDEST PUSH1 0x8 PUSH1 0x20 MSTORE DUP2 PUSH1 0x0 MSTORE PUSH1 0x40 PUSH1 0x0 KECCAK256 DUP2 DUP2 SLOAD DUP2 LT PUSH2 0x6F3 JUMPI PUSH1 0x0 DUP1 REVERT JUMPDEST PUSH1 0x0 SWAP2 DUP3 MSTORE PUSH1 0x20 SWAP1 SWAP2 KECCAK256 PUSH1 0x2 SWAP1 SWAP2 MUL ADD DUP1 SLOAD PUSH1 0x1 SWAP1 SWAP2 ADD SLOAD PUSH1 0x1 PUSH1 0x1 PUSH1 0xA0 SHL SUB SWAP1 SWAP2 AND SWAP3 POP SWAP1 POP DUP3 JUMP JUMPDEST PUSH1 0x0 DUP1 SLOAD PUSH1 0x40 DUP1 MLOAD PUSH4 0x3FABE5A3 PUSH1 0xE2 SHL DUP2 MSTORE SWAP1 MLOAD DUP4 SWAP3 PUSH1 0x1 PUSH1 0x1 PUSH1 0xA0 SHL SUB AND SWAP2 PUSH4 0xFEAF968C SWAP2 PUSH1 0x4 DUP1 DUP4 ADD SWAP3 PUSH1 0xA0 SWAP3 SWAP2 SWAP1 DUP3 SWAP1 SUB ADD DUP2 DUP7 GAS STATICCALL ISZERO DUP1 ISZERO PUSH2 0x767 JUMPI RETURNDATASIZE PUSH1 0x0 DUP1 RETURNDATACOPY RETURNDATASIZE PUSH1 0x0 REVERT JUMPDEST POP POP POP POP PUSH1 0x40 MLOAD RETURNDATASIZE PUSH1 0x1F NOT PUSH1 0x1F DUP3 ADD AND DUP3 ADD DUP1 PUSH1 0x40 MSTORE POP DUP2 ADD SWAP1 PUSH2 0x78B SWAP2 SWAP1 PUSH2 0x9A6 JUMP JUMPDEST POP SWAP2 SWAP6 SWAP5 POP POP POP POP POP JUMP JUMPDEST CALLER PUSH1 0x0 SWAP1 DUP2 MSTORE PUSH1 0xA PUSH1 0x20 MSTORE PUSH1 0x40 SWAP1 KECCAK256 SLOAD DUP1 PUSH2 0x7F3 JUMPI PUSH1 0x40 MLOAD PUSH3 0x461BCD PUSH1 0xE5 SHL DUP2 MSTORE PUSH1 0x20 PUSH1 0x4 DUP3 ADD MSTORE PUSH1 0x17 PUSH1 0x24 DUP3 ADD MSTORE PUSH32 0x4E6F2077696E6E696E677320746F207769746864726177000000000000000000 PUSH1 0x44 DUP3 ADD MSTORE PUSH1 0x64 ADD PUSH2 0x361 JUMP JUMPDEST CALLER PUSH1 0x0 DUP2 DUP2 MSTORE PUSH1 0xA PUSH1 0x20 MSTORE PUSH1 0x40 DUP1 DUP3 KECCAK256 DUP3 SWAP1 SSTORE MLOAD DUP4 ISZERO PUSH2 0x8FC MUL SWAP2 DUP5 SWAP2 SWAP1 DUP2 DUP2 DUP2 DUP6 DUP9 DUP9 CALL SWAP4 POP POP POP POP ISZERO DUP1 ISZERO PUSH2 0x82E JUMPI RETURNDATASIZE PUSH1 0x0 DUP1 RETURNDATACOPY RETURNDATASIZE PUSH1 0x0 REVERT JUMPDEST POP PUSH1 0x40 MLOAD DUP2 DUP2 MSTORE CALLER SWAP1 PUSH32 0x24215BBAF0832FA4D6FFEF16DEE3971D8B714921FEF3AD63F793D578983C6DC2 SWAP1 PUSH1 0x20 ADD PUSH2 0x465 JUMP JUMPDEST PUSH1 0x0 DUP2 DUP4 SGT PUSH2 0x879 JUMPI PUSH2 0x874 DUP4 DUP4 PUSH2 0xA25 JUMP JUMPDEST PUSH2 0x883 JUMP JUMPDEST PUSH2 0x883 DUP3 DUP5 PUSH2 0xA25 JUMP JUMPDEST SWAP1 POP JUMPDEST SWAP3 SWAP2 POP POP JUMP JUMPDEST TIMESTAMP PUSH1 0x2 DUP2 SWAP1 SSTORE PUSH1 0x0 PUSH1 0x4 SSTORE PUSH1 0xB SLOAD PUSH1 0x40 MLOAD PUSH32 0x278844837BCF8364A705384BF3A2812901F54155BAE86DEA81DD52AA5B9EC0E3 SWAP3 PUSH2 0x8D0 SWAP3 DUP3 MSTORE PUSH1 0x20 DUP3 ADD MSTORE PUSH1 0x40 ADD SWAP1 JUMP JUMPDEST PUSH1 0x40 MLOAD DUP1 SWAP2 SUB SWAP1 LOG1 JUMP JUMPDEST PUSH1 0x0 PUSH1 0x20 DUP3 DUP5 SUB SLT ISZERO PUSH2 0x8EC JUMPI PUSH1 0x0 DUP1 REVERT JUMPDEST POP CALLDATALOAD SWAP2 SWAP1 POP JUMP JUMPDEST PUSH1 0x0 DUP1 PUSH1 0x40 DUP4 DUP6 SUB SLT ISZERO PUSH2 0x906 JUMPI PUSH1 0x0 DUP1 REVERT JUMPDEST POP POP DUP1 CALLDATALOAD SWAP3 PUSH1 0x20 SWAP1 SWAP2 ADD CALLDATALOAD SWAP2 POP JUMP JUMPDEST PUSH1 0x0 PUSH1 0x20 DUP3 DUP5 SUB SLT ISZERO PUSH2 0x927 JUMPI PUSH1 0x0 DUP1 REVERT JUMPDEST DUP2 CALLDATALOAD PUSH1 0x1 PUSH1 0x1 PUSH1 0xA0 SHL SUB DUP2 AND DUP2 EQ PUSH2 0x93E JUMPI PUSH1 0x0 DUP1 REVERT JUMPDEST SWAP4 SWAP3 POP POP POP JUMP JUMPDEST PUSH4 0x4E487B71 PUSH1 0xE0 SHL PUSH1 0x0 MSTORE PUSH1 0x11 PUSH1 0x4 MSTORE PUSH1 0x24 PUSH1 0x0 REVERT JUMPDEST DUP1 DUP3 ADD DUP1 DUP3 GT ISZERO PUSH2 0x886 JUMPI PUSH2 0x886 PUSH2 0x945 JUMP JUMPDEST PUSH1 0x0 PUSH1 0x1 DUP3 ADD PUSH2 0x980 JUMPI PUSH2 0x980 PUSH2 0x945 JUMP JUMPDEST POP PUSH1 0x1 ADD SWAP1 JUMP JUMPDEST DUP1 MLOAD PUSH10 0xFFFFFFFFFFFFFFFFFFFF DUP2 AND DUP2 EQ PUSH2 0x9A1 JUMPI PUSH1 0x0 DUP1 REVERT JUMPDEST SWAP2 SWAP1 POP JUMP JUMPDEST PUSH1 0x0 DUP1 PUSH1 0x0 DUP1 PUSH1 0x0 PUSH1 0xA0 DUP7 DUP9 SUB SLT ISZERO PUSH2 0x9BE JUMPI PUSH1 0x0 DUP1 REVERT JUMPDEST PUSH2 0x9C7 DUP7 PUSH2 0x987 JUMP JUMPDEST PUSH1 0x20 DUP8 ADD MLOAD PUSH1 0x40 DUP9 ADD MLOAD PUSH1 0x60 DUP10 ADD MLOAD SWAP3 SWAP8 POP SWAP1 SWAP6 POP SWAP4 POP SWAP2 POP PUSH2 0x9EC PUSH1 0x80 DUP8 ADD PUSH2 0x987 JUMP JUMPDEST SWAP1 POP SWAP3 SWAP6 POP SWAP3 SWAP6 SWAP1 SWAP4 POP JUMP JUMPDEST PUSH4 0x4E487B71 PUSH1 0xE0 SHL PUSH1 0x0 MSTORE PUSH1 0x32 PUSH1 0x4 MSTORE PUSH1 0x24 PUSH1 0x0 REVERT JUMPDEST DUP1 DUP3 MUL DUP2 ISZERO DUP3 DUP3 DIV DUP5 EQ OR PUSH2 0x886 JUMPI PUSH2 0x886 PUSH2 0x945 JUMP JUMPDEST DUP2 DUP2 SUB PUSH1 0x0 DUP4 SLT DUP1 ISZERO DUP4 DUP4 SGT AND DUP4 DUP4 SLT DUP3 AND OR ISZERO PUSH2 0xA45 JUMPI PUSH2 0xA45 PUSH2 0x945 JUMP JUMPDEST POP SWAP3 SWAP2 POP POP JUMP INVALID LOG2 PUSH5 0x6970667358 0x22 SLT KECCAK256 PUSH22 0x256CD04E20E31C9EC219FCE0415734BF8D563A5F52AD 0xCE STATICCALL PUSH7 0x477B4DB68F964 PUSH20 0x6F6C634300081C00330000000000000000000000 ","sha1":"a59d02071dd5401f12eba05446b4332db7832eb6","source":"// SPDX-License-Identifier: MIT\npragma solidity ^0.8.7;\n\nimport \"@chainlink/contracts/src/v0.8/interfaces/AggregatorV3Interface.sol\";\n\ncontract BitcoinUpDown {\n    struct Bet {\n        address bettor;\n        int256 predictedPrice; // User's predicted price\n    }\n\n    AggregatorV3Interface public priceFeed;\n    address public owner;\n    uint256 public roundStartTime;\n    int256 public actualPrice; // The actual price fetched at the end of the round\n    uint256 public n_bets;\n    uint256 public betAmount = 0.01 ether; // Fixed bet amount\n    uint256 public roundDuration = 0; // 1 hour\n    uint256 public betting_duration = 3600;\n\n    mapping(uint256 => Bet[]) public roundBets; // Store bets for each round\n    mapping(uint256 => address) public roundWinners; // Store the winner of each round\n    mapping(address => uint256) public pendingWithdrawals; // Winnings available for withdrawal\n\n    uint256 public currentRound; // Current round ID\n\n    event RoundStarted(uint256 roundId, uint256 startTime);\n    event BetPlaced(\n        uint256 roundId,\n        address indexed bettor,\n        int256 predictedPrice\n    );\n    event RoundEnded(uint256 roundId, int256 actualPrice, address winner);\n    event WinningsWithdrawn(address indexed winner, uint256 amount);\n\n    modifier onlyOwner() {\n        require(msg.sender == owner, \"Only owner can call this function\");\n        _;\n    }\n\n    constructor(address _priceFeed) {\n        owner = msg.sender;\n        priceFeed = AggregatorV3Interface(_priceFeed);\n        currentRound = 1;\n        _startNewRound();\n    }\n\n    function getPrice() public view returns (int256) {\n        (, int256 price, , , ) = priceFeed.latestRoundData();\n        return price;\n    }\n\n    function placeBet(int256 _predictedPrice) external payable {\n        require(\n            block.timestamp <= roundStartTime + betting_duration,\n            \"Betting period is over\"\n        );\n        require(msg.value == betAmount, \"Bet amount must be exactly 1 ETH\");\n        roundBets[currentRound].push(Bet(msg.sender, _predictedPrice));\n        n_bets++;\n        emit BetPlaced(currentRound, msg.sender, _predictedPrice);\n    }\n\n    function endRound() external {\n        require(\n            block.timestamp >= roundStartTime + roundDuration,\n            \"Round is not yet over\"\n        );\n\n        (, int256 _actualPrice, , , ) = priceFeed.latestRoundData();\n        actualPrice = _actualPrice;\n\n        // Determine the closest prediction\n        address winner;\n        int256 closestDifference = type(int256).max;\n\n        Bet[] storage bets = roundBets[currentRound];\n        for (uint256 i = 0; i < bets.length; i++) {\n            int256 difference = absoluteDifference(\n                bets[i].predictedPrice,\n                actualPrice\n            );\n            if (difference < closestDifference) {\n                closestDifference = difference;\n                winner = bets[i].bettor;\n            }\n        }\n\n        if (winner != address(0)) {\n            uint256 totalPool = bets.length * betAmount;\n            pendingWithdrawals[winner] += totalPool; // Add winnings to the winner's withdrawal balance\n            roundWinners[currentRound] = winner;\n        }\n\n        emit RoundEnded(currentRound, actualPrice, winner);\n\n        // Automatically start the next round\n        currentRound++;\n        _startNewRound();\n    }\n\n    function withdrawWinnings() external {\n        uint256 amount = pendingWithdrawals[msg.sender];\n        require(amount > 0, \"No winnings to withdraw\");\n\n        pendingWithdrawals[msg.sender] = 0;\n        payable(msg.sender).transfer(amount);\n\n        emit WinningsWithdrawn(msg.sender, amount);\n    }\n\n    function absoluteDifference(\n        int256 a,\n        int256 b\n    ) internal pure returns (int256) {\n        return a > b ? a - b : b - a;\n    }\n\n    function getContractBalance() external view returns (uint256) {\n        return address(this).balance;\n    }\n\n    function _startNewRound() internal {\n        roundStartTime = block.timestamp;\n        n_bets = 0;\n        emit RoundStarted(currentRound, roundStartTime);\n    }\n}\n","sourcePath":"contracts/BitcoinUpDown.sol","type":"contract","deployment":{"address":"0xbD672757A83837b9996E6a6Ffefe8a511c0ED195","chainid":"97","blockHeight":46372054}}