{"abi":[{"inputs":[{"internalType":"address","name":"_priceFeed","type":"address"},{"internalType":"uint256","name":"_initialSeed","type":"uint256"}],"stateMutability":"payable","type":"constructor","name":"constructor"},{"anonymous":false,"inputs":[{"indexed":false,"internalType":"uint256","name":"roundId","type":"uint256"},{"indexed":true,"internalType":"address","name":"bettor","type":"address"},{"indexed":false,"internalType":"int256","name":"predictedPrice","type":"int256"}],"name":"BetPlaced","type":"event"},{"anonymous":false,"inputs":[{"indexed":true,"internalType":"address","name":"owner","type":"address"},{"indexed":false,"internalType":"uint256","name":"amount","type":"uint256"}],"name":"DevFeeWithdrawn","type":"event"},{"anonymous":false,"inputs":[{"indexed":false,"internalType":"uint256","name":"roundId","type":"uint256"},{"indexed":false,"internalType":"int256","name":"actualPrice","type":"int256"},{"indexed":false,"internalType":"address","name":"winner","type":"address"}],"name":"RoundEnded","type":"event"},{"anonymous":false,"inputs":[{"indexed":false,"internalType":"uint256","name":"roundId","type":"uint256"},{"indexed":false,"internalType":"uint256","name":"startTime","type":"uint256"}],"name":"RoundStarted","type":"event"},{"anonymous":false,"inputs":[{"indexed":true,"internalType":"address","name":"winner","type":"address"},{"indexed":false,"internalType":"uint256","name":"amount","type":"uint256"}],"name":"WinningsWithdrawn","type":"event"},{"inputs":[],"name":"actualPrice","outputs":[{"internalType":"int256","name":"","type":"int256"}],"stateMutability":"view","type":"function"},{"inputs":[],"name":"currentRound","outputs":[{"internalType":"uint256","name":"","type":"uint256"}],"stateMutability":"view","type":"function"},{"inputs":[],"name":"devFeeBalance","outputs":[{"internalType":"uint256","name":"","type":"uint256"}],"stateMutability":"view","type":"function"},{"inputs":[],"name":"endRound","outputs":[],"stateMutability":"nonpayable","type":"function"},{"inputs":[],"name":"getPrice","outputs":[{"internalType":"int256","name":"","type":"int256"}],"stateMutability":"view","type":"function"},{"inputs":[{"internalType":"uint256","name":"","type":"uint256"},{"internalType":"int256","name":"","type":"int256"}],"name":"hasBetOnPrice","outputs":[{"internalType":"bool","name":"","type":"bool"}],"stateMutability":"view","type":"function"},{"inputs":[{"internalType":"uint256","name":"","type":"uint256"},{"internalType":"address","name":"","type":"address"}],"name":"hasPlacedBet","outputs":[{"internalType":"bool","name":"","type":"bool"}],"stateMutability":"view","type":"function"},{"inputs":[],"name":"n_bets","outputs":[{"internalType":"uint256","name":"","type":"uint256"}],"stateMutability":"view","type":"function"},{"inputs":[],"name":"owner","outputs":[{"internalType":"address","name":"","type":"address"}],"stateMutability":"view","type":"function"},{"inputs":[{"internalType":"address","name":"","type":"address"}],"name":"pendingWithdrawals","outputs":[{"internalType":"uint256","name":"","type":"uint256"}],"stateMutability":"view","type":"function"},{"inputs":[{"internalType":"int256","name":"_predictedPrice","type":"int256"}],"name":"placeBet","outputs":[],"stateMutability":"payable","type":"function"},{"inputs":[],"name":"priceFeed","outputs":[{"internalType":"contract AggregatorV3Interface","name":"","type":"address"}],"stateMutability":"view","type":"function"},{"inputs":[{"internalType":"uint256","name":"","type":"uint256"},{"internalType":"uint256","name":"","type":"uint256"}],"name":"roundBets","outputs":[{"internalType":"address","name":"bettor","type":"address"},{"internalType":"int256","name":"predictedPrice","type":"int256"}],"stateMutability":"view","type":"function"},{"inputs":[],"name":"roundStartTime","outputs":[{"internalType":"uint256","name":"","type":"uint256"}],"stateMutability":"view","type":"function"},{"inputs":[{"internalType":"uint256","name":"","type":"uint256"}],"name":"roundWinners","outputs":[{"internalType":"address","name":"","type":"address"}],"stateMutability":"view","type":"function"},{"inputs":[],"name":"seedAmount","outputs":[{"internalType":"uint256","name":"","type":"uint256"}],"stateMutability":"view","type":"function"},{"inputs":[],"name":"withdrawDevFee","outputs":[],"stateMutability":"nonpayable","type":"function"},{"inputs":[],"name":"withdrawWinnings","outputs":[],"stateMutability":"nonpayable","type":"function"},{"stateMutability":"payable","type":"receive"}],"bytecode":"60e06040819052662386f26fc10000608052600060a052610e1060c0526111363881900390819083398101604081905261003891610119565b8034101561008c5760405162461bcd60e51b815260206004820152601960248201527f496e73756666696369656e7420696e697469616c207365656400000000000000604482015260640160405180910390fd5b60018054336001600160a01b0319918216178255600080549091166001600160a01b0385161790556005829055600c556100c46100cb565b5050610153565b4260028190556000600455600c546040517f278844837bcf8364a705384bf3a2812901f54155bae86dea81dd52aa5b9ec0e39261010f928252602082015260400190565b60405180910390a1565b6000806040838503121561012c57600080fd5b82516001600160a01b038116811461014357600080fd5b6020939093015192949293505050565b60805160a05160c051610fad61018960003960006103e6015260006106c601526000818161045c015261087a0152610fad6000f3fe60806040526004361061010d5760003560e01c80638c64811711610095578063c5774a3f11610064578063c5774a3f14610361578063cb93f7ef14610377578063cc42e83a1461038c578063dd4f8f74146103a1578063f3f43703146103b757600080fd5b80638c648117146103005780638da5cb5b1461031657806398d5fdca14610336578063c232302f1461034b57600080fd5b8063741bef1a116100dc578063741bef1a14610228578063749aa2d91461026057806376a4956c1461027557806381b79267146102ab5780638a19c8bc146102ea57600080fd5b8063133386a41461016457806314ce7590146101795780635a0753ac146101c957806372e9b172146101ed57600080fd5b3661015f5760405162461bcd60e51b815260206004820181905260248201527f44697265637420455448207472616e7366657273206e6f7420616c6c6f77656460448201526064015b60405180910390fd5b600080fd5b610177610172366004610dc9565b6103e4565b005b34801561018557600080fd5b506101b4610194366004610dfe565b600a60209081526000928352604080842090915290825290205460ff1681565b60405190151581526020015b60405180910390f35b3480156101d557600080fd5b506101df60065481565b6040519081526020016101c0565b3480156101f957600080fd5b506101b4610208366004610e2a565b600b60209081526000928352604080842090915290825290205460ff1681565b34801561023457600080fd5b50600054610248906001600160a01b031681565b6040516001600160a01b0390911681526020016101c0565b34801561026c57600080fd5b506101776106c4565b34801561028157600080fd5b50610248610290366004610dc9565b6008602052600090815260409020546001600160a01b031681565b3480156102b757600080fd5b506102cb6102c6366004610e2a565b6109df565b604080516001600160a01b0390931683526020830191909152016101c0565b3480156102f657600080fd5b506101df600c5481565b34801561030c57600080fd5b506101df60035481565b34801561032257600080fd5b50600154610248906001600160a01b031681565b34801561034257600080fd5b506101df610a25565b34801561035757600080fd5b506101df60045481565b34801561036d57600080fd5b506101df60055481565b34801561038357600080fd5b50610177610a9e565b34801561039857600080fd5b50610177610c35565b3480156103ad57600080fd5b506101df60025481565b3480156103c357600080fd5b506101df6103d2366004610e4c565b60096020526000908152604090205481565b7f00000000000000000000000000000000000000000000000000000000000000006002546104129190610e7d565b42111561045a5760405162461bcd60e51b81526020600482015260166024820152752132ba3a34b733903832b934b7b21034b99037bb32b960511b6044820152606401610156565b7f000000000000000000000000000000000000000000000000000000000000000034146104c95760405162461bcd60e51b815260206004820181905260248201527f42657420616d6f756e74206d7573742062652065786163746c792031204554486044820152606401610156565b600c546000908152600a6020908152604080832033845290915290205460ff16156105515760405162461bcd60e51b815260206004820152603260248201527f596f75206861766520616c726561647920706c616365642061207072656469636044820152711d1a5bdb881a5b881d1a1a5cc81c9bdd5b9960721b6064820152608401610156565b600c546000908152600b6020908152604080832084845290915290205460ff16156105c95760405162461bcd60e51b815260206004820152602260248201527f546869732070726963652068617320616c7265616479206265656e206265742060448201526137b760f11b6064820152608401610156565b600c54600090815260076020908152604080832081518083019092523382528183018581528154600180820184559286529385209251600290940290920180546001600160a01b0319166001600160a01b039094169390931783559051910155600480549161063783610e90565b9091555050600c80546000908152600a60209081526040808320338085529083528184208054600160ff19918216811790925586548652600b85528386208887528552948390208054909516179093559254835190815290810184905290917f0fe8a4f5c8aa725deff1274dcd26cc3d24f93440a9b35ea011509b962f518b11910160405180910390a250565b7f00000000000000000000000000000000000000000000000000000000000000006002546106f29190610e7d565b4210156107395760405162461bcd60e51b81526020600482015260156024820152742937bab7321034b9903737ba103cb2ba1037bb32b960591b6044820152606401610156565b60008060009054906101000a90046001600160a01b03166001600160a01b031663feaf968c6040518163ffffffff1660e01b815260040160a060405180830381865afa15801561078d573d6000803e3d6000fd5b505050506040513d601f19601f820116820180604052508101906107b19190610ec3565b5050506003819055600c54600090815260076020526040812080549294509092506001600160ff1b0391835b8181101561085b5760006108168483815481106107fc576107fc610f15565b906000526020600020906002020160010154600354610d5d565b9050848112156108525780945083828154811061083557610835610f15565b60009182526020909120600290910201546001600160a01b031695505b506001016107dd565b506001600160a01b0384161561096d5760055482546000919061089f907f000000000000000000000000000000000000000000000000000000000000000090610f2b565b6108a99190610e7d565b9050600060646108ba83600a610f2b565b6108c49190610f42565b905060006108d3600a83610f42565b905060006108e18284610f64565b905060006108ef8486610f64565b6001600160a01b038a1660009081526009602052604081208054929350839290919061091c908490610e7d565b9091555050600c54600090815260086020526040812080546001600160a01b0319166001600160a01b038c16179055600583905560068054859290610962908490610e7d565b909155505050505050505b600c546003546040805192835260208301919091526001600160a01b03861682820152517fbbc057d42226d2747c9c898fa1be04cd1734cacafeaee5f799bd9e741a8eb03a9181900360600190a1600c80549060006109cb83610e90565b91905055506109d8610d7b565b5050505050565b600760205281600052604060002081815481106109fb57600080fd5b6000918252602090912060029091020180546001909101546001600160a01b039091169250905082565b6000805460408051633fabe5a360e21b8152905183926001600160a01b03169163feaf968c9160048083019260a09291908290030181865afa158015610a6f573d6000803e3d6000fd5b505050506040513d601f19601f82011682018060405250810190610a939190610ec3565b509195945050505050565b6001546001600160a01b03163314610b025760405162461bcd60e51b815260206004820152602160248201527f4f6e6c79206f776e65722063616e2063616c6c20746869732066756e6374696f6044820152603760f91b6064820152608401610156565b600060065411610b4d5760405162461bcd60e51b81526020600482015260166024820152754e6f206465762066656520746f20776974686472617760501b6044820152606401610156565b600680546000918290556001546040519192916001600160a01b039091169083908381818185875af1925050503d8060008114610ba6576040519150601f19603f3d011682016040523d82523d6000602084013e610bab565b606091505b5050905080610bee5760405162461bcd60e51b815260206004820152600f60248201526e151c985b9cd9995c8819985a5b1959608a1b6044820152606401610156565b6001546040518381526001600160a01b03909116907f6c86cbe8f71dda79a8558f6b509bf627b232a1577720dd7807b4eefa65bd16a5906020015b60405180910390a25050565b3360009081526009602052604090205480610c925760405162461bcd60e51b815260206004820152601760248201527f4e6f2077696e6e696e677320746f2077697468647261770000000000000000006044820152606401610156565b336000818152600960205260408082208290555190919083908381818185875af1925050503d8060008114610ce3576040519150601f19603f3d011682016040523d82523d6000602084013e610ce8565b606091505b5050905080610d2b5760405162461bcd60e51b815260206004820152600f60248201526e151c985b9cd9995c8819985a5b1959608a1b6044820152606401610156565b60405182815233907f24215bbaf0832fa4d6ffef16dee3971d8b714921fef3ad63f793d578983c6dc290602001610c29565b6000818313610d6e57828203610d72565b8183035b90505b92915050565b4260028190556000600455600c546040517f278844837bcf8364a705384bf3a2812901f54155bae86dea81dd52aa5b9ec0e392610dbf928252602082015260400190565b60405180910390a1565b600060208284031215610ddb57600080fd5b5035919050565b80356001600160a01b0381168114610df957600080fd5b919050565b60008060408385031215610e1157600080fd5b82359150610e2160208401610de2565b90509250929050565b60008060408385031215610e3d57600080fd5b50508035926020909101359150565b600060208284031215610e5e57600080fd5b610d7282610de2565b634e487b7160e01b600052601160045260246000fd5b80820180821115610d7557610d75610e67565b600060018201610ea257610ea2610e67565b5060010190565b805169ffffffffffffffffffff81168114610df957600080fd5b600080600080600060a08688031215610edb57600080fd5b610ee486610ea9565b60208701516040880151606089015192975090955093509150610f0960808701610ea9565b90509295509295909350565b634e487b7160e01b600052603260045260246000fd5b8082028115828204841417610d7557610d75610e67565b600082610f5f57634e487b7160e01b600052601260045260246000fd5b500490565b81810381811115610d7557610d75610e6756fea26469706673582212207c28bb8de98e2e21d0b2ad0252986e1335b92d882f19c621389161e4a891781e64736f6c634300081c0033","bytecodeSha1":"b321107ec5e5a5eace19125123c012f76d60e24d","compiler":{"evm_version":"istanbul","optimizer":{"enabled":true,"runs":200},"version":"0.8.28+commit.7893614a"},"contractName":"BitcoinUpDown","language":"Solidity","natspec":{"kind":"dev","methods":{},"version":1},"opcodes":"PUSH1 0x80 PUSH1 0x40 MSTORE PUSH1 0x4 CALLDATASIZE LT PUSH2 0x10D JUMPI PUSH1 0x0 CALLDATALOAD PUSH1 0xE0 SHR DUP1 PUSH4 0x8C648117 GT PUSH2 0x95 JUMPI DUP1 PUSH4 0xC5774A3F GT PUSH2 0x64 JUMPI DUP1 PUSH4 0xC5774A3F EQ PUSH2 0x361 JUMPI DUP1 PUSH4 0xCB93F7EF EQ PUSH2 0x377 JUMPI DUP1 PUSH4 0xCC42E83A EQ PUSH2 0x38C JUMPI DUP1 PUSH4 0xDD4F8F74 EQ PUSH2 0x3A1 JUMPI DUP1 PUSH4 0xF3F43703 EQ PUSH2 0x3B7 JUMPI PUSH1 0x0 DUP1 REVERT JUMPDEST DUP1 PUSH4 0x8C648117 EQ PUSH2 0x300 JUMPI DUP1 PUSH4 0x8DA5CB5B EQ PUSH2 0x316 JUMPI DUP1 PUSH4 0x98D5FDCA EQ PUSH2 0x336 JUMPI DUP1 PUSH4 0xC232302F EQ PUSH2 0x34B JUMPI PUSH1 0x0 DUP1 REVERT JUMPDEST DUP1 PUSH4 0x741BEF1A GT PUSH2 0xDC JUMPI DUP1 PUSH4 0x741BEF1A EQ PUSH2 0x228 JUMPI DUP1 PUSH4 0x749AA2D9 EQ PUSH2 0x260 JUMPI DUP1 PUSH4 0x76A4956C EQ PUSH2 0x275 JUMPI DUP1 PUSH4 0x81B79267 EQ PUSH2 0x2AB JUMPI DUP1 PUSH4 0x8A19C8BC EQ PUSH2 0x2EA JUMPI PUSH1 0x0 DUP1 REVERT JUMPDEST DUP1 PUSH4 0x133386A4 EQ PUSH2 0x164 JUMPI DUP1 PUSH4 0x14CE7590 EQ PUSH2 0x179 JUMPI DUP1 PUSH4 0x5A0753AC EQ PUSH2 0x1C9 JUMPI DUP1 PUSH4 0x72E9B172 EQ PUSH2 0x1ED JUMPI PUSH1 0x0 DUP1 REVERT JUMPDEST CALLDATASIZE PUSH2 0x15F JUMPI PUSH1 0x40 MLOAD PUSH3 0x461BCD PUSH1 0xE5 SHL DUP2 MSTORE PUSH1 0x20 PUSH1 0x4 DUP3 ADD DUP2 SWAP1 MSTORE PUSH1 0x24 DUP3 ADD MSTORE PUSH32 0x44697265637420455448207472616E7366657273206E6F7420616C6C6F776564 PUSH1 0x44 DUP3 ADD MSTORE PUSH1 0x64 ADD JUMPDEST PUSH1 0x40 MLOAD DUP1 SWAP2 SUB SWAP1 REVERT JUMPDEST PUSH1 0x0 DUP1 REVERT JUMPDEST PUSH2 0x177 PUSH2 0x172 CALLDATASIZE PUSH1 0x4 PUSH2 0xDC9 JUMP JUMPDEST PUSH2 0x3E4 JUMP JUMPDEST STOP JUMPDEST CALLVALUE DUP1 ISZERO PUSH2 0x185 JUMPI PUSH1 0x0 DUP1 REVERT JUMPDEST POP PUSH2 0x1B4 PUSH2 0x194 CALLDATASIZE PUSH1 0x4 PUSH2 0xDFE JUMP JUMPDEST PUSH1 0xA PUSH1 0x20 SWAP1 DUP2 MSTORE PUSH1 0x0 SWAP3 DUP4 MSTORE PUSH1 0x40 DUP1 DUP5 KECCAK256 SWAP1 SWAP2 MSTORE SWAP1 DUP3 MSTORE SWAP1 KECCAK256 SLOAD PUSH1 0xFF AND DUP2 JUMP JUMPDEST PUSH1 0x40 MLOAD SWAP1 ISZERO ISZERO DUP2 MSTORE PUSH1 0x20 ADD JUMPDEST PUSH1 0x40 MLOAD DUP1 SWAP2 SUB SWAP1 RETURN JUMPDEST CALLVALUE DUP1 ISZERO PUSH2 0x1D5 JUMPI PUSH1 0x0 DUP1 REVERT JUMPDEST POP PUSH2 0x1DF PUSH1 0x6 SLOAD DUP2 JUMP JUMPDEST PUSH1 0x40 MLOAD SWAP1 DUP2 MSTORE PUSH1 0x20 ADD PUSH2 0x1C0 JUMP JUMPDEST CALLVALUE DUP1 ISZERO PUSH2 0x1F9 JUMPI PUSH1 0x0 DUP1 REVERT JUMPDEST POP PUSH2 0x1B4 PUSH2 0x208 CALLDATASIZE PUSH1 0x4 PUSH2 0xE2A JUMP JUMPDEST PUSH1 0xB PUSH1 0x20 SWAP1 DUP2 MSTORE PUSH1 0x0 SWAP3 DUP4 MSTORE PUSH1 0x40 DUP1 DUP5 KECCAK256 SWAP1 SWAP2 MSTORE SWAP1 DUP3 MSTORE SWAP1 KECCAK256 SLOAD PUSH1 0xFF AND DUP2 JUMP JUMPDEST CALLVALUE DUP1 ISZERO PUSH2 0x234 JUMPI PUSH1 0x0 DUP1 REVERT JUMPDEST POP PUSH1 0x0 SLOAD PUSH2 0x248 SWAP1 PUSH1 0x1 PUSH1 0x1 PUSH1 0xA0 SHL SUB AND DUP2 JUMP JUMPDEST PUSH1 0x40 MLOAD PUSH1 0x1 PUSH1 0x1 PUSH1 0xA0 SHL SUB SWAP1 SWAP2 AND DUP2 MSTORE PUSH1 0x20 ADD PUSH2 0x1C0 JUMP JUMPDEST CALLVALUE DUP1 ISZERO PUSH2 0x26C JUMPI PUSH1 0x0 DUP1 REVERT JUMPDEST POP PUSH2 0x177 PUSH2 0x6C4 JUMP JUMPDEST CALLVALUE DUP1 ISZERO PUSH2 0x281 JUMPI PUSH1 0x0 DUP1 REVERT JUMPDEST POP PUSH2 0x248 PUSH2 0x290 CALLDATASIZE PUSH1 0x4 PUSH2 0xDC9 JUMP JUMPDEST PUSH1 0x8 PUSH1 0x20 MSTORE PUSH1 0x0 SWAP1 DUP2 MSTORE PUSH1 0x40 SWAP1 KECCAK256 SLOAD PUSH1 0x1 PUSH1 0x1 PUSH1 0xA0 SHL SUB AND DUP2 JUMP JUMPDEST CALLVALUE DUP1 ISZERO PUSH2 0x2B7 JUMPI PUSH1 0x0 DUP1 REVERT JUMPDEST POP PUSH2 0x2CB PUSH2 0x2C6 CALLDATASIZE PUSH1 0x4 PUSH2 0xE2A JUMP JUMPDEST PUSH2 0x9DF JUMP JUMPDEST PUSH1 0x40 DUP1 MLOAD PUSH1 0x1 PUSH1 0x1 PUSH1 0xA0 SHL SUB SWAP1 SWAP4 AND DUP4 MSTORE PUSH1 0x20 DUP4 ADD SWAP2 SWAP1 SWAP2 MSTORE ADD PUSH2 0x1C0 JUMP JUMPDEST CALLVALUE DUP1 ISZERO PUSH2 0x2F6 JUMPI PUSH1 0x0 DUP1 REVERT JUMPDEST POP PUSH2 0x1DF PUSH1 0xC SLOAD DUP2 JUMP JUMPDEST CALLVALUE DUP1 ISZERO PUSH2 0x30C JUMPI PUSH1 0x0 DUP1 REVERT JUMPDEST POP PUSH2 0x1DF PUSH1 0x3 SLOAD DUP2 JUMP JUMPDEST CALLVALUE DUP1 ISZERO PUSH2 0x322 JUMPI PUSH1 0x0 DUP1 REVERT JUMPDEST POP PUSH1 0x1 SLOAD PUSH2 0x248 SWAP1 PUSH1 0x1 PUSH1 0x1 PUSH1 0xA0 SHL SUB AND DUP2 JUMP JUMPDEST CALLVALUE DUP1 ISZERO PUSH2 0x342 JUMPI PUSH1 0x0 DUP1 REVERT JUMPDEST POP PUSH2 0x1DF PUSH2 0xA25 JUMP JUMPDEST CALLVALUE DUP1 ISZERO PUSH2 0x357 JUMPI PUSH1 0x0 DUP1 REVERT JUMPDEST POP PUSH2 0x1DF PUSH1 0x4 SLOAD DUP2 JUMP JUMPDEST CALLVALUE DUP1 ISZERO PUSH2 0x36D JUMPI PUSH1 0x0 DUP1 REVERT JUMPDEST POP PUSH2 0x1DF PUSH1 0x5 SLOAD DUP2 JUMP JUMPDEST CALLVALUE DUP1 ISZERO PUSH2 0x383 JUMPI PUSH1 0x0 DUP1 REVERT JUMPDEST POP PUSH2 0x177 PUSH2 0xA9E JUMP JUMPDEST CALLVALUE DUP1 ISZERO PUSH2 0x398 JUMPI PUSH1 0x0 DUP1 REVERT JUMPDEST POP PUSH2 0x177 PUSH2 0xC35 JUMP JUMPDEST CALLVALUE DUP1 ISZERO PUSH2 0x3AD JUMPI PUSH1 0x0 DUP1 REVERT JUMPDEST POP PUSH2 0x1DF PUSH1 0x2 SLOAD DUP2 JUMP JUMPDEST CALLVALUE DUP1 ISZERO PUSH2 0x3C3 JUMPI PUSH1 0x0 DUP1 REVERT JUMPDEST POP PUSH2 0x1DF PUSH2 0x3D2 CALLDATASIZE PUSH1 0x4 PUSH2 0xE4C JUMP JUMPDEST PUSH1 0x9 PUSH1 0x20 MSTORE PUSH1 0x0 SWAP1 DUP2 MSTORE PUSH1 0x40 SWAP1 KECCAK256 SLOAD DUP2 JUMP JUMPDEST PUSH32 0x0 PUSH1 0x2 SLOAD PUSH2 0x412 SWAP2 SWAP1 PUSH2 0xE7D JUMP JUMPDEST TIMESTAMP GT ISZERO PUSH2 0x45A JUMPI PUSH1 0x40 MLOAD PUSH3 0x461BCD PUSH1 0xE5 SHL DUP2 MSTORE PUSH1 0x20 PUSH1 0x4 DUP3 ADD MSTORE PUSH1 0x16 PUSH1 0x24 DUP3 ADD MSTORE PUSH22 0x2132BA3A34B733903832B934B7B21034B99037BB32B9 PUSH1 0x51 SHL PUSH1 0x44 DUP3 ADD MSTORE PUSH1 0x64 ADD PUSH2 0x156 JUMP JUMPDEST PUSH32 0x0 CALLVALUE EQ PUSH2 0x4C9 JUMPI PUSH1 0x40 MLOAD PUSH3 0x461BCD PUSH1 0xE5 SHL DUP2 MSTORE PUSH1 0x20 PUSH1 0x4 DUP3 ADD DUP2 SWAP1 MSTORE PUSH1 0x24 DUP3 ADD MSTORE PUSH32 0x42657420616D6F756E74206D7573742062652065786163746C79203120455448 PUSH1 0x44 DUP3 ADD MSTORE PUSH1 0x64 ADD PUSH2 0x156 JUMP JUMPDEST PUSH1 0xC SLOAD PUSH1 0x0 SWAP1 DUP2 MSTORE PUSH1 0xA PUSH1 0x20 SWAP1 DUP2 MSTORE PUSH1 0x40 DUP1 DUP4 KECCAK256 CALLER DUP5 MSTORE SWAP1 SWAP2 MSTORE SWAP1 KECCAK256 SLOAD PUSH1 0xFF AND ISZERO PUSH2 0x551 JUMPI PUSH1 0x40 MLOAD PUSH3 0x461BCD PUSH1 0xE5 SHL DUP2 MSTORE PUSH1 0x20 PUSH1 0x4 DUP3 ADD MSTORE PUSH1 0x32 PUSH1 0x24 DUP3 ADD MSTORE PUSH32 0x596F75206861766520616C726561647920706C61636564206120707265646963 PUSH1 0x44 DUP3 ADD MSTORE PUSH18 0x1D1A5BDB881A5B881D1A1A5CC81C9BDD5B99 PUSH1 0x72 SHL PUSH1 0x64 DUP3 ADD MSTORE PUSH1 0x84 ADD PUSH2 0x156 JUMP JUMPDEST PUSH1 0xC SLOAD PUSH1 0x0 SWAP1 DUP2 MSTORE PUSH1 0xB PUSH1 0x20 SWAP1 DUP2 MSTORE PUSH1 0x40 DUP1 DUP4 KECCAK256 DUP5 DUP5 MSTORE SWAP1 SWAP2 MSTORE SWAP1 KECCAK256 SLOAD PUSH1 0xFF AND ISZERO PUSH2 0x5C9 JUMPI PUSH1 0x40 MLOAD PUSH3 0x461BCD PUSH1 0xE5 SHL DUP2 MSTORE PUSH1 0x20 PUSH1 0x4 DUP3 ADD MSTORE PUSH1 0x22 PUSH1 0x24 DUP3 ADD MSTORE PUSH32 0x546869732070726963652068617320616C7265616479206265656E2062657420 PUSH1 0x44 DUP3 ADD MSTORE PUSH2 0x37B7 PUSH1 0xF1 SHL PUSH1 0x64 DUP3 ADD MSTORE PUSH1 0x84 ADD PUSH2 0x156 JUMP JUMPDEST PUSH1 0xC SLOAD PUSH1 0x0 SWAP1 DUP2 MSTORE PUSH1 0x7 PUSH1 0x20 SWAP1 DUP2 MSTORE PUSH1 0x40 DUP1 DUP4 KECCAK256 DUP2 MLOAD DUP1 DUP4 ADD SWAP1 SWAP3 MSTORE CALLER DUP3 MSTORE DUP2 DUP4 ADD DUP6 DUP2 MSTORE DUP2 SLOAD PUSH1 0x1 DUP1 DUP3 ADD DUP5 SSTORE SWAP3 DUP7 MSTORE SWAP4 DUP6 KECCAK256 SWAP3 MLOAD PUSH1 0x2 SWAP1 SWAP5 MUL SWAP1 SWAP3 ADD DUP1 SLOAD PUSH1 0x1 PUSH1 0x1 PUSH1 0xA0 SHL SUB NOT AND PUSH1 0x1 PUSH1 0x1 PUSH1 0xA0 SHL SUB SWAP1 SWAP5 AND SWAP4 SWAP1 SWAP4 OR DUP4 SSTORE SWAP1 MLOAD SWAP2 ADD SSTORE PUSH1 0x4 DUP1 SLOAD SWAP2 PUSH2 0x637 DUP4 PUSH2 0xE90 JUMP JUMPDEST SWAP1 SWAP2 SSTORE POP POP PUSH1 0xC DUP1 SLOAD PUSH1 0x0 SWAP1 DUP2 MSTORE PUSH1 0xA PUSH1 0x20 SWAP1 DUP2 MSTORE PUSH1 0x40 DUP1 DUP4 KECCAK256 CALLER DUP1 DUP6 MSTORE SWAP1 DUP4 MSTORE DUP2 DUP5 KECCAK256 DUP1 SLOAD PUSH1 0x1 PUSH1 0xFF NOT SWAP2 DUP3 AND DUP2 OR SWAP1 SWAP3 SSTORE DUP7 SLOAD DUP7 MSTORE PUSH1 0xB DUP6 MSTORE DUP4 DUP7 KECCAK256 DUP9 DUP8 MSTORE DUP6 MSTORE SWAP5 DUP4 SWAP1 KECCAK256 DUP1 SLOAD SWAP1 SWAP6 AND OR SWAP1 SWAP4 SSTORE SWAP3 SLOAD DUP4 MLOAD SWAP1 DUP2 MSTORE SWAP1 DUP2 ADD DUP5 SWAP1 MSTORE SWAP1 SWAP2 PUSH32 0xFE8A4F5C8AA725DEFF1274DCD26CC3D24F93440A9B35EA011509B962F518B11 SWAP2 ADD PUSH1 0x40 MLOAD DUP1 SWAP2 SUB SWAP1 LOG2 POP JUMP JUMPDEST PUSH32 0x0 PUSH1 0x2 SLOAD PUSH2 0x6F2 SWAP2 SWAP1 PUSH2 0xE7D JUMP JUMPDEST TIMESTAMP LT ISZERO PUSH2 0x739 JUMPI PUSH1 0x40 MLOAD PUSH3 0x461BCD PUSH1 0xE5 SHL DUP2 MSTORE PUSH1 0x20 PUSH1 0x4 DUP3 ADD MSTORE PUSH1 0x15 PUSH1 0x24 DUP3 ADD MSTORE PUSH21 0x2937BAB7321034B9903737BA103CB2BA1037BB32B9 PUSH1 0x59 SHL PUSH1 0x44 DUP3 ADD MSTORE PUSH1 0x64 ADD PUSH2 0x156 JUMP JUMPDEST PUSH1 0x0 DUP1 PUSH1 0x0 SWAP1 SLOAD SWAP1 PUSH2 0x100 EXP SWAP1 DIV PUSH1 0x1 PUSH1 0x1 PUSH1 0xA0 SHL SUB AND PUSH1 0x1 PUSH1 0x1 PUSH1 0xA0 SHL SUB AND PUSH4 0xFEAF968C PUSH1 0x40 MLOAD DUP2 PUSH4 0xFFFFFFFF AND PUSH1 0xE0 SHL DUP2 MSTORE PUSH1 0x4 ADD PUSH1 0xA0 PUSH1 0x40 MLOAD DUP1 DUP4 SUB DUP2 DUP7 GAS STATICCALL ISZERO DUP1 ISZERO PUSH2 0x78D JUMPI RETURNDATASIZE PUSH1 0x0 DUP1 RETURNDATACOPY RETURNDATASIZE PUSH1 0x0 REVERT JUMPDEST POP POP POP POP PUSH1 0x40 MLOAD RETURNDATASIZE PUSH1 0x1F NOT PUSH1 0x1F DUP3 ADD AND DUP3 ADD DUP1 PUSH1 0x40 MSTORE POP DUP2 ADD SWAP1 PUSH2 0x7B1 SWAP2 SWAP1 PUSH2 0xEC3 JUMP JUMPDEST POP POP POP PUSH1 0x3 DUP2 SWAP1 SSTORE PUSH1 0xC SLOAD PUSH1 0x0 SWAP1 DUP2 MSTORE PUSH1 0x7 PUSH1 0x20 MSTORE PUSH1 0x40 DUP2 KECCAK256 DUP1 SLOAD SWAP3 SWAP5 POP SWAP1 SWAP3 POP PUSH1 0x1 PUSH1 0x1 PUSH1 0xFF SHL SUB SWAP2 DUP4 JUMPDEST DUP2 DUP2 LT ISZERO PUSH2 0x85B JUMPI PUSH1 0x0 PUSH2 0x816 DUP5 DUP4 DUP2 SLOAD DUP2 LT PUSH2 0x7FC JUMPI PUSH2 0x7FC PUSH2 0xF15 JUMP JUMPDEST SWAP1 PUSH1 0x0 MSTORE PUSH1 0x20 PUSH1 0x0 KECCAK256 SWAP1 PUSH1 0x2 MUL ADD PUSH1 0x1 ADD SLOAD PUSH1 0x3 SLOAD PUSH2 0xD5D JUMP JUMPDEST SWAP1 POP DUP5 DUP2 SLT ISZERO PUSH2 0x852 JUMPI DUP1 SWAP5 POP DUP4 DUP3 DUP2 SLOAD DUP2 LT PUSH2 0x835 JUMPI PUSH2 0x835 PUSH2 0xF15 JUMP JUMPDEST PUSH1 0x0 SWAP2 DUP3 MSTORE PUSH1 0x20 SWAP1 SWAP2 KECCAK256 PUSH1 0x2 SWAP1 SWAP2 MUL ADD SLOAD PUSH1 0x1 PUSH1 0x1 PUSH1 0xA0 SHL SUB AND SWAP6 POP JUMPDEST POP PUSH1 0x1 ADD PUSH2 0x7DD JUMP JUMPDEST POP PUSH1 0x1 PUSH1 0x1 PUSH1 0xA0 SHL SUB DUP5 AND ISZERO PUSH2 0x96D JUMPI PUSH1 0x5 SLOAD DUP3 SLOAD PUSH1 0x0 SWAP2 SWAP1 PUSH2 0x89F SWAP1 PUSH32 0x0 SWAP1 PUSH2 0xF2B JUMP JUMPDEST PUSH2 0x8A9 SWAP2 SWAP1 PUSH2 0xE7D JUMP JUMPDEST SWAP1 POP PUSH1 0x0 PUSH1 0x64 PUSH2 0x8BA DUP4 PUSH1 0xA PUSH2 0xF2B JUMP JUMPDEST PUSH2 0x8C4 SWAP2 SWAP1 PUSH2 0xF42 JUMP JUMPDEST SWAP1 POP PUSH1 0x0 PUSH2 0x8D3 PUSH1 0xA DUP4 PUSH2 0xF42 JUMP JUMPDEST SWAP1 POP PUSH1 0x0 PUSH2 0x8E1 DUP3 DUP5 PUSH2 0xF64 JUMP JUMPDEST SWAP1 POP PUSH1 0x0 PUSH2 0x8EF DUP5 DUP7 PUSH2 0xF64 JUMP JUMPDEST PUSH1 0x1 PUSH1 0x1 PUSH1 0xA0 SHL SUB DUP11 AND PUSH1 0x0 SWAP1 DUP2 MSTORE PUSH1 0x9 PUSH1 0x20 MSTORE PUSH1 0x40 DUP2 KECCAK256 DUP1 SLOAD SWAP3 SWAP4 POP DUP4 SWAP3 SWAP1 SWAP2 SWAP1 PUSH2 0x91C SWAP1 DUP5 SWAP1 PUSH2 0xE7D JUMP JUMPDEST SWAP1 SWAP2 SSTORE POP POP PUSH1 0xC SLOAD PUSH1 0x0 SWAP1 DUP2 MSTORE PUSH1 0x8 PUSH1 0x20 MSTORE PUSH1 0x40 DUP2 KECCAK256 DUP1 SLOAD PUSH1 0x1 PUSH1 0x1 PUSH1 0xA0 SHL SUB NOT AND PUSH1 0x1 PUSH1 0x1 PUSH1 0xA0 SHL SUB DUP13 AND OR SWAP1 SSTORE PUSH1 0x5 DUP4 SWAP1 SSTORE PUSH1 0x6 DUP1 SLOAD DUP6 SWAP3 SWAP1 PUSH2 0x962 SWAP1 DUP5 SWAP1 PUSH2 0xE7D JUMP JUMPDEST SWAP1 SWAP2 SSTORE POP POP POP POP POP POP POP JUMPDEST PUSH1 0xC SLOAD PUSH1 0x3 SLOAD PUSH1 0x40 DUP1 MLOAD SWAP3 DUP4 MSTORE PUSH1 0x20 DUP4 ADD SWAP2 SWAP1 SWAP2 MSTORE PUSH1 0x1 PUSH1 0x1 PUSH1 0xA0 SHL SUB DUP7 AND DUP3 DUP3 ADD MSTORE MLOAD PUSH32 0xBBC057D42226D2747C9C898FA1BE04CD1734CACAFEAEE5F799BD9E741A8EB03A SWAP2 DUP2 SWAP1 SUB PUSH1 0x60 ADD SWAP1 LOG1 PUSH1 0xC DUP1 SLOAD SWAP1 PUSH1 0x0 PUSH2 0x9CB DUP4 PUSH2 0xE90 JUMP JUMPDEST SWAP2 SWAP1 POP SSTORE POP PUSH2 0x9D8 PUSH2 0xD7B JUMP JUMPDEST POP POP POP POP POP JUMP JUMPDEST PUSH1 0x7 PUSH1 0x20 MSTORE DUP2 PUSH1 0x0 MSTORE PUSH1 0x40 PUSH1 0x0 KECCAK256 DUP2 DUP2 SLOAD DUP2 LT PUSH2 0x9FB JUMPI PUSH1 0x0 DUP1 REVERT JUMPDEST PUSH1 0x0 SWAP2 DUP3 MSTORE PUSH1 0x20 SWAP1 SWAP2 KECCAK256 PUSH1 0x2 SWAP1 SWAP2 MUL ADD DUP1 SLOAD PUSH1 0x1 SWAP1 SWAP2 ADD SLOAD PUSH1 0x1 PUSH1 0x1 PUSH1 0xA0 SHL SUB SWAP1 SWAP2 AND SWAP3 POP SWAP1 POP DUP3 JUMP JUMPDEST PUSH1 0x0 DUP1 SLOAD PUSH1 0x40 DUP1 MLOAD PUSH4 0x3FABE5A3 PUSH1 0xE2 SHL DUP2 MSTORE SWAP1 MLOAD DUP4 SWAP3 PUSH1 0x1 PUSH1 0x1 PUSH1 0xA0 SHL SUB AND SWAP2 PUSH4 0xFEAF968C SWAP2 PUSH1 0x4 DUP1 DUP4 ADD SWAP3 PUSH1 0xA0 SWAP3 SWAP2 SWAP1 DUP3 SWAP1 SUB ADD DUP2 DUP7 GAS STATICCALL ISZERO DUP1 ISZERO PUSH2 0xA6F JUMPI RETURNDATASIZE PUSH1 0x0 DUP1 RETURNDATACOPY RETURNDATASIZE PUSH1 0x0 REVERT JUMPDEST POP POP POP POP PUSH1 0x40 MLOAD RETURNDATASIZE PUSH1 0x1F NOT PUSH1 0x1F DUP3 ADD AND DUP3 ADD DUP1 PUSH1 0x40 MSTORE POP DUP2 ADD SWAP1 PUSH2 0xA93 SWAP2 SWAP1 PUSH2 0xEC3 JUMP JUMPDEST POP SWAP2 SWAP6 SWAP5 POP POP POP POP POP JUMP JUMPDEST PUSH1 0x1 SLOAD PUSH1 0x1 PUSH1 0x1 PUSH1 0xA0 SHL SUB AND CALLER EQ PUSH2 0xB02 JUMPI PUSH1 0x40 MLOAD PUSH3 0x461BCD PUSH1 0xE5 SHL DUP2 MSTORE PUSH1 0x20 PUSH1 0x4 DUP3 ADD MSTORE PUSH1 0x21 PUSH1 0x24 DUP3 ADD MSTORE PUSH32 0x4F6E6C79206F776E65722063616E2063616C6C20746869732066756E6374696F PUSH1 0x44 DUP3 ADD MSTORE PUSH1 0x37 PUSH1 0xF9 SHL PUSH1 0x64 DUP3 ADD MSTORE PUSH1 0x84 ADD PUSH2 0x156 JUMP JUMPDEST PUSH1 0x0 PUSH1 0x6 SLOAD GT PUSH2 0xB4D JUMPI PUSH1 0x40 MLOAD PUSH3 0x461BCD PUSH1 0xE5 SHL DUP2 MSTORE PUSH1 0x20 PUSH1 0x4 DUP3 ADD MSTORE PUSH1 0x16 PUSH1 0x24 DUP3 ADD MSTORE PUSH22 0x4E6F206465762066656520746F207769746864726177 PUSH1 0x50 SHL PUSH1 0x44 DUP3 ADD MSTORE PUSH1 0x64 ADD PUSH2 0x156 JUMP JUMPDEST PUSH1 0x6 DUP1 SLOAD PUSH1 0x0 SWAP2 DUP3 SWAP1 SSTORE PUSH1 0x1 SLOAD PUSH1 0x40 MLOAD SWAP2 SWAP3 SWAP2 PUSH1 0x1 PUSH1 0x1 PUSH1 0xA0 SHL SUB SWAP1 SWAP2 AND SWAP1 DUP4 SWAP1 DUP4 DUP2 DUP2 DUP2 DUP6 DUP8 GAS CALL SWAP3 POP POP POP RETURNDATASIZE DUP1 PUSH1 0x0 DUP2 EQ PUSH2 0xBA6 JUMPI PUSH1 0x40 MLOAD SWAP2 POP PUSH1 0x1F NOT PUSH1 0x3F RETURNDATASIZE ADD AND DUP3 ADD PUSH1 0x40 MSTORE RETURNDATASIZE DUP3 MSTORE RETURNDATASIZE PUSH1 0x0 PUSH1 0x20 DUP5 ADD RETURNDATACOPY PUSH2 0xBAB JUMP JUMPDEST PUSH1 0x60 SWAP2 POP JUMPDEST POP POP SWAP1 POP DUP1 PUSH2 0xBEE JUMPI PUSH1 0x40 MLOAD PUSH3 0x461BCD PUSH1 0xE5 SHL DUP2 MSTORE PUSH1 0x20 PUSH1 0x4 DUP3 ADD MSTORE PUSH1 0xF PUSH1 0x24 DUP3 ADD MSTORE PUSH15 0x151C985B9CD9995C8819985A5B1959 PUSH1 0x8A SHL PUSH1 0x44 DUP3 ADD MSTORE PUSH1 0x64 ADD PUSH2 0x156 JUMP JUMPDEST PUSH1 0x1 SLOAD PUSH1 0x40 MLOAD DUP4 DUP2 MSTORE PUSH1 0x1 PUSH1 0x1 PUSH1 0xA0 SHL SUB SWAP1 SWAP2 AND SWAP1 PUSH32 0x6C86CBE8F71DDA79A8558F6B509BF627B232A1577720DD7807B4EEFA65BD16A5 SWAP1 PUSH1 0x20 ADD JUMPDEST PUSH1 0x40 MLOAD DUP1 SWAP2 SUB SWAP1 LOG2 POP POP JUMP JUMPDEST CALLER PUSH1 0x0 SWAP1 DUP2 MSTORE PUSH1 0x9 PUSH1 0x20 MSTORE PUSH1 0x40 SWAP1 KECCAK256 SLOAD DUP1 PUSH2 0xC92 JUMPI PUSH1 0x40 MLOAD PUSH3 0x461BCD PUSH1 0xE5 SHL DUP2 MSTORE PUSH1 0x20 PUSH1 0x4 DUP3 ADD MSTORE PUSH1 0x17 PUSH1 0x24 DUP3 ADD MSTORE PUSH32 0x4E6F2077696E6E696E677320746F207769746864726177000000000000000000 PUSH1 0x44 DUP3 ADD MSTORE PUSH1 0x64 ADD PUSH2 0x156 JUMP JUMPDEST CALLER PUSH1 0x0 DUP2 DUP2 MSTORE PUSH1 0x9 PUSH1 0x20 MSTORE PUSH1 0x40 DUP1 DUP3 KECCAK256 DUP3 SWAP1 SSTORE MLOAD SWAP1 SWAP2 SWAP1 DUP4 SWAP1 DUP4 DUP2 DUP2 DUP2 DUP6 DUP8 GAS CALL SWAP3 POP POP POP RETURNDATASIZE DUP1 PUSH1 0x0 DUP2 EQ PUSH2 0xCE3 JUMPI PUSH1 0x40 MLOAD SWAP2 POP PUSH1 0x1F NOT PUSH1 0x3F RETURNDATASIZE ADD AND DUP3 ADD PUSH1 0x40 MSTORE RETURNDATASIZE DUP3 MSTORE RETURNDATASIZE PUSH1 0x0 PUSH1 0x20 DUP5 ADD RETURNDATACOPY PUSH2 0xCE8 JUMP JUMPDEST PUSH1 0x60 SWAP2 POP JUMPDEST POP POP SWAP1 POP DUP1 PUSH2 0xD2B JUMPI PUSH1 0x40 MLOAD PUSH3 0x461BCD PUSH1 0xE5 SHL DUP2 MSTORE PUSH1 0x20 PUSH1 0x4 DUP3 ADD MSTORE PUSH1 0xF PUSH1 0x24 DUP3 ADD MSTORE PUSH15 0x151C985B9CD9995C8819985A5B1959 PUSH1 0x8A SHL PUSH1 0x44 DUP3 ADD MSTORE PUSH1 0x64 ADD PUSH2 0x156 JUMP JUMPDEST PUSH1 0x40 MLOAD DUP3 DUP2 MSTORE CALLER SWAP1 PUSH32 0x24215BBAF0832FA4D6FFEF16DEE3971D8B714921FEF3AD63F793D578983C6DC2 SWAP1 PUSH1 0x20 ADD PUSH2 0xC29 JUMP JUMPDEST PUSH1 0x0 DUP2 DUP4 SGT PUSH2 0xD6E JUMPI DUP3 DUP3 SUB PUSH2 0xD72 JUMP JUMPDEST DUP2 DUP4 SUB JUMPDEST SWAP1 POP JUMPDEST SWAP3 SWAP2 POP POP JUMP JUMPDEST TIMESTAMP PUSH1 0x2 DUP2 SWAP1 SSTORE PUSH1 0x0 PUSH1 0x4 SSTORE PUSH1 0xC SLOAD PUSH1 0x40 MLOAD PUSH32 0x278844837BCF8364A705384BF3A2812901F54155BAE86DEA81DD52AA5B9EC0E3 SWAP3 PUSH2 0xDBF SWAP3 DUP3 MSTORE PUSH1 0x20 DUP3 ADD MSTORE PUSH1 0x40 ADD SWAP1 JUMP JUMPDEST PUSH1 0x40 MLOAD DUP1 SWAP2 SUB SWAP1 LOG1 JUMP JUMPDEST PUSH1 0x0 PUSH1 0x20 DUP3 DUP5 SUB SLT ISZERO PUSH2 0xDDB JUMPI PUSH1 0x0 DUP1 REVERT JUMPDEST POP CALLDATALOAD SWAP2 SWAP1 POP JUMP JUMPDEST DUP1 CALLDATALOAD PUSH1 0x1 PUSH1 0x1 PUSH1 0xA0 SHL SUB DUP2 AND DUP2 EQ PUSH2 0xDF9 JUMPI PUSH1 0x0 DUP1 REVERT JUMPDEST SWAP2 SWAP1 POP JUMP JUMPDEST PUSH1 0x0 DUP1 PUSH1 0x40 DUP4 DUP6 SUB SLT ISZERO PUSH2 0xE11 JUMPI PUSH1 0x0 DUP1 REVERT JUMPDEST DUP3 CALLDATALOAD SWAP2 POP PUSH2 0xE21 PUSH1 0x20 DUP5 ADD PUSH2 0xDE2 JUMP JUMPDEST SWAP1 POP SWAP3 POP SWAP3 SWAP1 POP JUMP JUMPDEST PUSH1 0x0 DUP1 PUSH1 0x40 DUP4 DUP6 SUB SLT ISZERO PUSH2 0xE3D JUMPI PUSH1 0x0 DUP1 REVERT JUMPDEST POP POP DUP1 CALLDATALOAD SWAP3 PUSH1 0x20 SWAP1 SWAP2 ADD CALLDATALOAD SWAP2 POP JUMP JUMPDEST PUSH1 0x0 PUSH1 0x20 DUP3 DUP5 SUB SLT ISZERO PUSH2 0xE5E JUMPI PUSH1 0x0 DUP1 REVERT JUMPDEST PUSH2 0xD72 DUP3 PUSH2 0xDE2 JUMP JUMPDEST PUSH4 0x4E487B71 PUSH1 0xE0 SHL PUSH1 0x0 MSTORE PUSH1 0x11 PUSH1 0x4 MSTORE PUSH1 0x24 PUSH1 0x0 REVERT JUMPDEST DUP1 DUP3 ADD DUP1 DUP3 GT ISZERO PUSH2 0xD75 JUMPI PUSH2 0xD75 PUSH2 0xE67 JUMP JUMPDEST PUSH1 0x0 PUSH1 0x1 DUP3 ADD PUSH2 0xEA2 JUMPI PUSH2 0xEA2 PUSH2 0xE67 JUMP JUMPDEST POP PUSH1 0x1 ADD SWAP1 JUMP JUMPDEST DUP1 MLOAD PUSH10 0xFFFFFFFFFFFFFFFFFFFF DUP2 AND DUP2 EQ PUSH2 0xDF9 JUMPI PUSH1 0x0 DUP1 REVERT JUMPDEST PUSH1 0x0 DUP1 PUSH1 0x0 DUP1 PUSH1 0x0 PUSH1 0xA0 DUP7 DUP9 SUB SLT ISZERO PUSH2 0xEDB JUMPI PUSH1 0x0 DUP1 REVERT JUMPDEST PUSH2 0xEE4 DUP7 PUSH2 0xEA9 JUMP JUMPDEST PUSH1 0x20 DUP8 ADD MLOAD PUSH1 0x40 DUP9 ADD MLOAD PUSH1 0x60 DUP10 ADD MLOAD SWAP3 SWAP8 POP SWAP1 SWAP6 POP SWAP4 POP SWAP2 POP PUSH2 0xF09 PUSH1 0x80 DUP8 ADD PUSH2 0xEA9 JUMP JUMPDEST SWAP1 POP SWAP3 SWAP6 POP SWAP3 SWAP6 SWAP1 SWAP4 POP JUMP JUMPDEST PUSH4 0x4E487B71 PUSH1 0xE0 SHL PUSH1 0x0 MSTORE PUSH1 0x32 PUSH1 0x4 MSTORE PUSH1 0x24 PUSH1 0x0 REVERT JUMPDEST DUP1 DUP3 MUL DUP2 ISZERO DUP3 DUP3 DIV DUP5 EQ OR PUSH2 0xD75 JUMPI PUSH2 0xD75 PUSH2 0xE67 JUMP JUMPDEST PUSH1 0x0 DUP3 PUSH2 0xF5F JUMPI PUSH4 0x4E487B71 PUSH1 0xE0 SHL PUSH1 0x0 MSTORE PUSH1 0x12 PUSH1 0x4 MSTORE PUSH1 0x24 PUSH1 0x0 REVERT JUMPDEST POP DIV SWAP1 JUMP JUMPDEST DUP2 DUP2 SUB DUP2 DUP2 GT ISZERO PUSH2 0xD75 JUMPI PUSH2 0xD75 PUSH2 0xE67 JUMP INVALID LOG2 PUSH5 0x6970667358 0x22 SLT KECCAK256 PUSH29 0x28BB8DE98E2E21D0B2AD0252986E1335B92D882F19C621389161E4A891 PUSH25 0x1E64736F6C634300081C003300000000000000000000000000 ","sha1":"d09d5744aaab778435ecd438a2c6d5ed2bce0991","source":"// SPDX-License-Identifier: MIT\npragma solidity ^0.8.7;\n\nimport \"@chainlink/contracts/src/v0.8/interfaces/AggregatorV3Interface.sol\";\n\ncontract BitcoinUpDown {\n    struct Bet {\n        address bettor;\n        int256 predictedPrice; // User's predicted price\n    }\n\n    AggregatorV3Interface public priceFeed;\n    address public owner;\n    uint256 public roundStartTime;\n    int256 public actualPrice; // The actual price fetched at the end of the round\n    uint256 public n_bets;\n    uint256 immutable betAmount = 0.01 ether; // Fixed bet amount\n    uint256 immutable roundDuration = 0 hours;\n    uint256 immutable betting_duration = 1 hours;\n    uint256 public seedAmount; // Current seed for the next round\n    uint256 public devFeeBalance; // Accumulated developer fee\n\n    mapping(uint256 => Bet[]) public roundBets; // Store bets for each round\n    mapping(uint256 => address) public roundWinners; // Store the winner of each round\n    mapping(address => uint256) public pendingWithdrawals; // Winnings available for withdrawal\n    // Track if a user has already placed a bet in the current round\n    mapping(uint256 => mapping(address => bool)) public hasPlacedBet;\n    // Tracks whether a specific price has been bet on in a particular round\n    mapping(uint256 => mapping(int256 => bool)) public hasBetOnPrice;\n\n    uint256 public currentRound; // Current round ID\n\n    event RoundStarted(uint256 roundId, uint256 startTime);\n    event BetPlaced(\n        uint256 roundId,\n        address indexed bettor,\n        int256 predictedPrice\n    );\n    event RoundEnded(uint256 roundId, int256 actualPrice, address winner);\n    event WinningsWithdrawn(address indexed winner, uint256 amount);\n    event DevFeeWithdrawn(address indexed owner, uint256 amount);\n\n    modifier onlyOwner() {\n        require(msg.sender == owner, \"Only owner can call this function\");\n        _;\n    }\n\n    constructor(address _priceFeed, uint256 _initialSeed) payable {\n        require(msg.value >= _initialSeed, \"Insufficient initial seed\");\n        owner = msg.sender;\n        priceFeed = AggregatorV3Interface(_priceFeed);\n        seedAmount = _initialSeed;\n        currentRound = 1;\n        _startNewRound();\n    }\n\n    function getPrice() public view returns (int256) {\n        (, int256 price, , , ) = priceFeed.latestRoundData();\n        return price;\n    }\n\n    function placeBet(int256 _predictedPrice) external payable {\n        require(\n            block.timestamp <= roundStartTime + betting_duration,\n            \"Betting period is over\"\n        );\n        require(msg.value == betAmount, \"Bet amount must be exactly 1 ETH\");\n        require(\n            !hasPlacedBet[currentRound][msg.sender],\n            \"You have already placed a prediction in this round\"\n        );\n        require(\n            !hasBetOnPrice[currentRound][_predictedPrice],\n            \"This price has already been bet on\"\n        );\n        roundBets[currentRound].push(Bet(msg.sender, _predictedPrice));\n        n_bets++;\n        hasPlacedBet[currentRound][msg.sender] = true;\n        hasBetOnPrice[currentRound][_predictedPrice] = true;\n        emit BetPlaced(currentRound, msg.sender, _predictedPrice);\n    }\n\n    function endRound() external {\n        require(\n            block.timestamp >= roundStartTime + roundDuration,\n            \"Round is not yet over\"\n        );\n\n        (, int256 _actualPrice, , , ) = priceFeed.latestRoundData();\n        actualPrice = _actualPrice;\n\n        // Determine the closest prediction\n        address winner;\n        int256 closestDifference = type(int256).max;\n\n        Bet[] storage bets = roundBets[currentRound];\n        uint256 length = bets.length;\n        for (uint256 i = 0; i < length; i++) {\n            int256 difference = absoluteDifference(\n                bets[i].predictedPrice,\n                actualPrice\n            );\n            if (difference < closestDifference) {\n                closestDifference = difference;\n                winner = bets[i].bettor;\n            }\n        }\n\n        // Distribute prize pool\n        if (winner != address(0)) {\n            uint256 totalPool = bets.length * betAmount + seedAmount;\n            // Calculate fees\n            uint256 fee = (totalPool * 10) / 100; // 10% fee\n            uint256 devFee = fee / 10; // 1% for dev\n            uint256 nextSeed = fee - devFee; // 9% for next round seed\n            uint256 prize = totalPool - fee;\n            pendingWithdrawals[winner] += prize;\n            roundWinners[currentRound] = winner;\n            // Update seed and dev fee\n            seedAmount = nextSeed;\n            devFeeBalance += devFee;\n        }\n\n        emit RoundEnded(currentRound, actualPrice, winner);\n\n        // Automatically start the next round\n        currentRound++;\n        _startNewRound();\n    }\n\n    function withdrawWinnings() external {\n        uint256 amount = pendingWithdrawals[msg.sender];\n        require(amount > 0, \"No winnings to withdraw\");\n\n        pendingWithdrawals[msg.sender] = 0;\n        (bool success, ) = payable(msg.sender).call{value: amount}(\"\");\n        require(success, \"Transfer failed\");\n\n        emit WinningsWithdrawn(msg.sender, amount);\n    }\n\n    function withdrawDevFee() external onlyOwner {\n        require(devFeeBalance > 0, \"No dev fee to withdraw\");\n\n        uint256 amount = devFeeBalance;\n        devFeeBalance = 0;\n        (bool success, ) = payable(owner).call{value: amount}(\"\");\n        require(success, \"Transfer failed\");\n        emit DevFeeWithdrawn(owner, amount);\n    }\n\n    function absoluteDifference(\n        int256 a,\n        int256 b\n    ) internal pure returns (int256) {\n        unchecked {\n            return a > b ? a - b : b - a;\n        }\n    }\n\n    function _startNewRound() internal {\n        roundStartTime = block.timestamp;\n        n_bets = 0;\n        emit RoundStarted(currentRound, roundStartTime);\n    }\n\n    receive() external payable {\n        revert(\"Direct ETH transfers not allowed\");\n    }\n}\n","sourcePath":"contracts/BitcoinUpDown.sol","type":"contract","deployment":{"address":"0xc95Ff317b6Ed0A21B2B0232941e7eC2a387Cb77D","chainid":"97","blockHeight":46399907}}