{"abi":[{"inputs":[{"internalType":"address","name":"_priceFeed","type":"address"}],"stateMutability":"nonpayable","type":"constructor","name":"constructor"},{"anonymous":false,"inputs":[{"indexed":false,"internalType":"uint256","name":"roundId","type":"uint256"},{"indexed":true,"internalType":"address","name":"bettor","type":"address"},{"indexed":false,"internalType":"int256","name":"predictedPrice","type":"int256"}],"name":"BetPlaced","type":"event"},{"anonymous":false,"inputs":[{"indexed":false,"internalType":"uint256","name":"roundId","type":"uint256"},{"indexed":false,"internalType":"int256","name":"actualPrice","type":"int256"},{"indexed":false,"internalType":"address","name":"winner","type":"address"}],"name":"RoundEnded","type":"event"},{"anonymous":false,"inputs":[{"indexed":false,"internalType":"uint256","name":"roundId","type":"uint256"},{"indexed":false,"internalType":"uint256","name":"startTime","type":"uint256"}],"name":"RoundStarted","type":"event"},{"anonymous":false,"inputs":[{"indexed":true,"internalType":"address","name":"winner","type":"address"},{"indexed":false,"internalType":"uint256","name":"amount","type":"uint256"}],"name":"WinningsWithdrawn","type":"event"},{"inputs":[],"name":"actualPrice","outputs":[{"internalType":"int256","name":"","type":"int256"}],"stateMutability":"view","type":"function"},{"inputs":[],"name":"betAmount","outputs":[{"internalType":"uint256","name":"","type":"uint256"}],"stateMutability":"view","type":"function"},{"inputs":[],"name":"betting_duration","outputs":[{"internalType":"uint256","name":"","type":"uint256"}],"stateMutability":"view","type":"function"},{"inputs":[],"name":"currentRound","outputs":[{"internalType":"uint256","name":"","type":"uint256"}],"stateMutability":"view","type":"function"},{"inputs":[],"name":"endRound","outputs":[],"stateMutability":"nonpayable","type":"function"},{"inputs":[],"name":"getContractBalance","outputs":[{"internalType":"uint256","name":"","type":"uint256"}],"stateMutability":"view","type":"function"},{"inputs":[],"name":"getPrice","outputs":[{"internalType":"int256","name":"","type":"int256"}],"stateMutability":"view","type":"function"},{"inputs":[{"internalType":"uint256","name":"","type":"uint256"},{"internalType":"int256","name":"","type":"int256"}],"name":"hasBetOnPrice","outputs":[{"internalType":"bool","name":"","type":"bool"}],"stateMutability":"view","type":"function"},{"inputs":[{"internalType":"uint256","name":"","type":"uint256"},{"internalType":"address","name":"","type":"address"}],"name":"hasPlacedBet","outputs":[{"internalType":"bool","name":"","type":"bool"}],"stateMutability":"view","type":"function"},{"inputs":[],"name":"n_bets","outputs":[{"internalType":"uint256","name":"","type":"uint256"}],"stateMutability":"view","type":"function"},{"inputs":[],"name":"owner","outputs":[{"internalType":"address","name":"","type":"address"}],"stateMutability":"view","type":"function"},{"inputs":[{"internalType":"address","name":"","type":"address"}],"name":"pendingWithdrawals","outputs":[{"internalType":"uint256","name":"","type":"uint256"}],"stateMutability":"view","type":"function"},{"inputs":[{"internalType":"int256","name":"_predictedPrice","type":"int256"}],"name":"placeBet","outputs":[],"stateMutability":"payable","type":"function"},{"inputs":[],"name":"priceFeed","outputs":[{"internalType":"contract AggregatorV3Interface","name":"","type":"address"}],"stateMutability":"view","type":"function"},{"inputs":[{"internalType":"uint256","name":"","type":"uint256"},{"internalType":"uint256","name":"","type":"uint256"}],"name":"roundBets","outputs":[{"internalType":"address","name":"bettor","type":"address"},{"internalType":"int256","name":"predictedPrice","type":"int256"}],"stateMutability":"view","type":"function"},{"inputs":[],"name":"roundDuration","outputs":[{"internalType":"uint256","name":"","type":"uint256"}],"stateMutability":"view","type":"function"},{"inputs":[],"name":"roundStartTime","outputs":[{"internalType":"uint256","name":"","type":"uint256"}],"stateMutability":"view","type":"function"},{"inputs":[{"internalType":"uint256","name":"","type":"uint256"}],"name":"roundWinners","outputs":[{"internalType":"address","name":"","type":"address"}],"stateMutability":"view","type":"function"},{"inputs":[],"name":"withdrawWinnings","outputs":[],"stateMutability":"nonpayable","type":"function"}],"bytecode":"6080604052662386f26fc100006005556000600655610e1060075534801561002657600080fd5b50604051610d9e380380610d9e833981016040819052610045916100cc565b60018054336001600160a01b0319918216178255600080549091166001600160a01b038416179055600d5561007861007e565b506100fc565b4260028190556000600455600d546040517f278844837bcf8364a705384bf3a2812901f54155bae86dea81dd52aa5b9ec0e3926100c2928252602082015260400190565b60405180910390a1565b6000602082840312156100de57600080fd5b81516001600160a01b03811681146100f557600080fd5b9392505050565b610c938061010b6000396000f3fe6080604052600436106101145760003560e01c80638c648117116100a0578063cc42e83a11610064578063cc42e83a14610325578063d24257c01461033a578063dd4f8f7414610350578063f3f4370314610366578063f7cb789a1461039357600080fd5b80638c648117146102ae5780638da5cb5b146102c457806398d5fdca146102e4578063bb42e32e146102f9578063c232302f1461030f57600080fd5b8063741bef1a116100e7578063741bef1a146101d6578063749aa2d91461020e57806376a4956c1461022357806381b79267146102595780638a19c8bc1461029857600080fd5b8063133386a41461011957806314ce75901461012e5780636f9fb98a1461017e57806372e9b1721461019b575b600080fd5b61012c610127366004610abd565b6103a9565b005b34801561013a57600080fd5b50610169610149366004610af2565b600b60209081526000928352604080842090915290825290205460ff1681565b60405190151581526020015b60405180910390f35b34801561018a57600080fd5b50475b604051908152602001610175565b3480156101a757600080fd5b506101696101b6366004610b1e565b600c60209081526000928352604080842090915290825290205460ff1681565b3480156101e257600080fd5b506000546101f6906001600160a01b031681565b6040516001600160a01b039091168152602001610175565b34801561021a57600080fd5b5061012c610653565b34801561022f57600080fd5b506101f661023e366004610abd565b6009602052600090815260409020546001600160a01b031681565b34801561026557600080fd5b50610279610274366004610b1e565b6108ba565b604080516001600160a01b039093168352602083019190915201610175565b3480156102a457600080fd5b5061018d600d5481565b3480156102ba57600080fd5b5061018d60035481565b3480156102d057600080fd5b506001546101f6906001600160a01b031681565b3480156102f057600080fd5b5061018d610900565b34801561030557600080fd5b5061018d60075481565b34801561031b57600080fd5b5061018d60045481565b34801561033157600080fd5b5061012c610979565b34801561034657600080fd5b5061018d60055481565b34801561035c57600080fd5b5061018d60025481565b34801561037257600080fd5b5061018d610381366004610b40565b600a6020526000908152604090205481565b34801561039f57600080fd5b5061018d60065481565b6007546002546103b99190610b71565b4211156104065760405162461bcd60e51b81526020600482015260166024820152752132ba3a34b733903832b934b7b21034b99037bb32b960511b60448201526064015b60405180910390fd5b60055434146104575760405162461bcd60e51b815260206004820181905260248201527f42657420616d6f756e74206d7573742062652065786163746c7920312045544860448201526064016103fd565b600d546000908152600b6020908152604080832033845290915290205460ff16156104df5760405162461bcd60e51b815260206004820152603260248201527f596f75206861766520616c726561647920706c616365642061207072656469636044820152711d1a5bdb881a5b881d1a1a5cc81c9bdd5b9960721b60648201526084016103fd565b600d546000908152600c6020908152604080832084845290915290205460ff16156105575760405162461bcd60e51b815260206004820152602260248201527f546869732070726963652068617320616c7265616479206265656e206265742060448201526137b760f11b60648201526084016103fd565b600d54600090815260086020908152604080832081518083019092523382528183018581528154600180820184559286529385209251600290940290920180546001600160a01b0319166001600160a01b03909416939093178355905191015560048054916105c583610b84565b9091555050600d80546000908152600b60209081526040808320338085529083528184208054600160ff19918216811790925586548652600c85528386208887528552948390208054909516179093559254835190815290810184905290917f0fe8a4f5c8aa725deff1274dcd26cc3d24f93440a9b35ea011509b962f518b1191015b60405180910390a250565b6006546002546106639190610b71565b4210156106aa5760405162461bcd60e51b81526020600482015260156024820152742937bab7321034b9903737ba103cb2ba1037bb32b960591b60448201526064016103fd565b60008060009054906101000a90046001600160a01b03166001600160a01b031663feaf968c6040518163ffffffff1660e01b815260040160a060405180830381865afa1580156106fe573d6000803e3d6000fd5b505050506040513d601f19601f820116820180604052508101906107229190610bb7565b5050506003819055600d54600090815260086020526040812091935091506001600160ff1b0390825b81548110156107ca57600061078583838154811061076b5761076b610c09565b906000526020600020906002020160010154600354610a44565b9050838112156107c1578093508282815481106107a4576107a4610c09565b60009182526020909120600290910201546001600160a01b031694505b5060010161074b565b506001600160a01b038316156108495760055481546000916107eb91610c1f565b6001600160a01b0385166000908152600a6020526040812080549293508392909190610818908490610b71565b9091555050600d54600090815260096020526040902080546001600160a01b0319166001600160a01b038616179055505b600d546003546040805192835260208301919091526001600160a01b03851682820152517fbbc057d42226d2747c9c898fa1be04cd1734cacafeaee5f799bd9e741a8eb03a9181900360600190a1600d80549060006108a783610b84565b91905055506108b4610a6f565b50505050565b600860205281600052604060002081815481106108d657600080fd5b6000918252602090912060029091020180546001909101546001600160a01b039091169250905082565b6000805460408051633fabe5a360e21b8152905183926001600160a01b03169163feaf968c9160048083019260a09291908290030181865afa15801561094a573d6000803e3d6000fd5b505050506040513d601f19601f8201168201806040525081019061096e9190610bb7565b509195945050505050565b336000908152600a6020526040902054806109d65760405162461bcd60e51b815260206004820152601760248201527f4e6f2077696e6e696e677320746f20776974686472617700000000000000000060448201526064016103fd565b336000818152600a60205260408082208290555183156108fc0291849190818181858888f19350505050158015610a11573d6000803e3d6000fd5b5060405181815233907f24215bbaf0832fa4d6ffef16dee3971d8b714921fef3ad63f793d578983c6dc290602001610648565b6000818313610a5c57610a578383610c36565b610a66565b610a668284610c36565b90505b92915050565b4260028190556000600455600d546040517f278844837bcf8364a705384bf3a2812901f54155bae86dea81dd52aa5b9ec0e392610ab3928252602082015260400190565b60405180910390a1565b600060208284031215610acf57600080fd5b5035919050565b80356001600160a01b0381168114610aed57600080fd5b919050565b60008060408385031215610b0557600080fd5b82359150610b1560208401610ad6565b90509250929050565b60008060408385031215610b3157600080fd5b50508035926020909101359150565b600060208284031215610b5257600080fd5b610a6682610ad6565b634e487b7160e01b600052601160045260246000fd5b80820180821115610a6957610a69610b5b565b600060018201610b9657610b96610b5b565b5060010190565b805169ffffffffffffffffffff81168114610aed57600080fd5b600080600080600060a08688031215610bcf57600080fd5b610bd886610b9d565b60208701516040880151606089015192975090955093509150610bfd60808701610b9d565b90509295509295909350565b634e487b7160e01b600052603260045260246000fd5b8082028115828204841417610a6957610a69610b5b565b8181036000831280158383131683831282161715610c5657610c56610b5b565b509291505056fea26469706673582212208274b2104c100ac4aa09ef05d3470c8aee808478660da3eb627f93333b061a9164736f6c634300081c0033","bytecodeSha1":"fda15cf7f1f0bc71cde262849e60b3cf16dfa265","compiler":{"evm_version":"istanbul","optimizer":{"enabled":true,"runs":200},"version":"0.8.28+commit.7893614a"},"contractName":"BitcoinUpDown","language":"Solidity","natspec":{"kind":"dev","methods":{},"version":1},"opcodes":"PUSH1 0x80 PUSH1 0x40 MSTORE PUSH1 0x4 CALLDATASIZE LT PUSH2 0x114 JUMPI PUSH1 0x0 CALLDATALOAD PUSH1 0xE0 SHR DUP1 PUSH4 0x8C648117 GT PUSH2 0xA0 JUMPI DUP1 PUSH4 0xCC42E83A GT PUSH2 0x64 JUMPI DUP1 PUSH4 0xCC42E83A EQ PUSH2 0x325 JUMPI DUP1 PUSH4 0xD24257C0 EQ PUSH2 0x33A JUMPI DUP1 PUSH4 0xDD4F8F74 EQ PUSH2 0x350 JUMPI DUP1 PUSH4 0xF3F43703 EQ PUSH2 0x366 JUMPI DUP1 PUSH4 0xF7CB789A EQ PUSH2 0x393 JUMPI PUSH1 0x0 DUP1 REVERT JUMPDEST DUP1 PUSH4 0x8C648117 EQ PUSH2 0x2AE JUMPI DUP1 PUSH4 0x8DA5CB5B EQ PUSH2 0x2C4 JUMPI DUP1 PUSH4 0x98D5FDCA EQ PUSH2 0x2E4 JUMPI DUP1 PUSH4 0xBB42E32E EQ PUSH2 0x2F9 JUMPI DUP1 PUSH4 0xC232302F EQ PUSH2 0x30F JUMPI PUSH1 0x0 DUP1 REVERT JUMPDEST DUP1 PUSH4 0x741BEF1A GT PUSH2 0xE7 JUMPI DUP1 PUSH4 0x741BEF1A EQ PUSH2 0x1D6 JUMPI DUP1 PUSH4 0x749AA2D9 EQ PUSH2 0x20E JUMPI DUP1 PUSH4 0x76A4956C EQ PUSH2 0x223 JUMPI DUP1 PUSH4 0x81B79267 EQ PUSH2 0x259 JUMPI DUP1 PUSH4 0x8A19C8BC EQ PUSH2 0x298 JUMPI PUSH1 0x0 DUP1 REVERT JUMPDEST DUP1 PUSH4 0x133386A4 EQ PUSH2 0x119 JUMPI DUP1 PUSH4 0x14CE7590 EQ PUSH2 0x12E JUMPI DUP1 PUSH4 0x6F9FB98A EQ PUSH2 0x17E JUMPI DUP1 PUSH4 0x72E9B172 EQ PUSH2 0x19B JUMPI JUMPDEST PUSH1 0x0 DUP1 REVERT JUMPDEST PUSH2 0x12C PUSH2 0x127 CALLDATASIZE PUSH1 0x4 PUSH2 0xABD JUMP JUMPDEST PUSH2 0x3A9 JUMP JUMPDEST STOP JUMPDEST CALLVALUE DUP1 ISZERO PUSH2 0x13A JUMPI PUSH1 0x0 DUP1 REVERT JUMPDEST POP PUSH2 0x169 PUSH2 0x149 CALLDATASIZE PUSH1 0x4 PUSH2 0xAF2 JUMP JUMPDEST PUSH1 0xB PUSH1 0x20 SWAP1 DUP2 MSTORE PUSH1 0x0 SWAP3 DUP4 MSTORE PUSH1 0x40 DUP1 DUP5 KECCAK256 SWAP1 SWAP2 MSTORE SWAP1 DUP3 MSTORE SWAP1 KECCAK256 SLOAD PUSH1 0xFF AND DUP2 JUMP JUMPDEST PUSH1 0x40 MLOAD SWAP1 ISZERO ISZERO DUP2 MSTORE PUSH1 0x20 ADD JUMPDEST PUSH1 0x40 MLOAD DUP1 SWAP2 SUB SWAP1 RETURN JUMPDEST CALLVALUE DUP1 ISZERO PUSH2 0x18A JUMPI PUSH1 0x0 DUP1 REVERT JUMPDEST POP SELFBALANCE JUMPDEST PUSH1 0x40 MLOAD SWAP1 DUP2 MSTORE PUSH1 0x20 ADD PUSH2 0x175 JUMP JUMPDEST CALLVALUE DUP1 ISZERO PUSH2 0x1A7 JUMPI PUSH1 0x0 DUP1 REVERT JUMPDEST POP PUSH2 0x169 PUSH2 0x1B6 CALLDATASIZE PUSH1 0x4 PUSH2 0xB1E JUMP JUMPDEST PUSH1 0xC PUSH1 0x20 SWAP1 DUP2 MSTORE PUSH1 0x0 SWAP3 DUP4 MSTORE PUSH1 0x40 DUP1 DUP5 KECCAK256 SWAP1 SWAP2 MSTORE SWAP1 DUP3 MSTORE SWAP1 KECCAK256 SLOAD PUSH1 0xFF AND DUP2 JUMP JUMPDEST CALLVALUE DUP1 ISZERO PUSH2 0x1E2 JUMPI PUSH1 0x0 DUP1 REVERT JUMPDEST POP PUSH1 0x0 SLOAD PUSH2 0x1F6 SWAP1 PUSH1 0x1 PUSH1 0x1 PUSH1 0xA0 SHL SUB AND DUP2 JUMP JUMPDEST PUSH1 0x40 MLOAD PUSH1 0x1 PUSH1 0x1 PUSH1 0xA0 SHL SUB SWAP1 SWAP2 AND DUP2 MSTORE PUSH1 0x20 ADD PUSH2 0x175 JUMP JUMPDEST CALLVALUE DUP1 ISZERO PUSH2 0x21A JUMPI PUSH1 0x0 DUP1 REVERT JUMPDEST POP PUSH2 0x12C PUSH2 0x653 JUMP JUMPDEST CALLVALUE DUP1 ISZERO PUSH2 0x22F JUMPI PUSH1 0x0 DUP1 REVERT JUMPDEST POP PUSH2 0x1F6 PUSH2 0x23E CALLDATASIZE PUSH1 0x4 PUSH2 0xABD JUMP JUMPDEST PUSH1 0x9 PUSH1 0x20 MSTORE PUSH1 0x0 SWAP1 DUP2 MSTORE PUSH1 0x40 SWAP1 KECCAK256 SLOAD PUSH1 0x1 PUSH1 0x1 PUSH1 0xA0 SHL SUB AND DUP2 JUMP JUMPDEST CALLVALUE DUP1 ISZERO PUSH2 0x265 JUMPI PUSH1 0x0 DUP1 REVERT JUMPDEST POP PUSH2 0x279 PUSH2 0x274 CALLDATASIZE PUSH1 0x4 PUSH2 0xB1E JUMP JUMPDEST PUSH2 0x8BA JUMP JUMPDEST PUSH1 0x40 DUP1 MLOAD PUSH1 0x1 PUSH1 0x1 PUSH1 0xA0 SHL SUB SWAP1 SWAP4 AND DUP4 MSTORE PUSH1 0x20 DUP4 ADD SWAP2 SWAP1 SWAP2 MSTORE ADD PUSH2 0x175 JUMP JUMPDEST CALLVALUE DUP1 ISZERO PUSH2 0x2A4 JUMPI PUSH1 0x0 DUP1 REVERT JUMPDEST POP PUSH2 0x18D PUSH1 0xD SLOAD DUP2 JUMP JUMPDEST CALLVALUE DUP1 ISZERO PUSH2 0x2BA JUMPI PUSH1 0x0 DUP1 REVERT JUMPDEST POP PUSH2 0x18D PUSH1 0x3 SLOAD DUP2 JUMP JUMPDEST CALLVALUE DUP1 ISZERO PUSH2 0x2D0 JUMPI PUSH1 0x0 DUP1 REVERT JUMPDEST POP PUSH1 0x1 SLOAD PUSH2 0x1F6 SWAP1 PUSH1 0x1 PUSH1 0x1 PUSH1 0xA0 SHL SUB AND DUP2 JUMP JUMPDEST CALLVALUE DUP1 ISZERO PUSH2 0x2F0 JUMPI PUSH1 0x0 DUP1 REVERT JUMPDEST POP PUSH2 0x18D PUSH2 0x900 JUMP JUMPDEST CALLVALUE DUP1 ISZERO PUSH2 0x305 JUMPI PUSH1 0x0 DUP1 REVERT JUMPDEST POP PUSH2 0x18D PUSH1 0x7 SLOAD DUP2 JUMP JUMPDEST CALLVALUE DUP1 ISZERO PUSH2 0x31B JUMPI PUSH1 0x0 DUP1 REVERT JUMPDEST POP PUSH2 0x18D PUSH1 0x4 SLOAD DUP2 JUMP JUMPDEST CALLVALUE DUP1 ISZERO PUSH2 0x331 JUMPI PUSH1 0x0 DUP1 REVERT JUMPDEST POP PUSH2 0x12C PUSH2 0x979 JUMP JUMPDEST CALLVALUE DUP1 ISZERO PUSH2 0x346 JUMPI PUSH1 0x0 DUP1 REVERT JUMPDEST POP PUSH2 0x18D PUSH1 0x5 SLOAD DUP2 JUMP JUMPDEST CALLVALUE DUP1 ISZERO PUSH2 0x35C JUMPI PUSH1 0x0 DUP1 REVERT JUMPDEST POP PUSH2 0x18D PUSH1 0x2 SLOAD DUP2 JUMP JUMPDEST CALLVALUE DUP1 ISZERO PUSH2 0x372 JUMPI PUSH1 0x0 DUP1 REVERT JUMPDEST POP PUSH2 0x18D PUSH2 0x381 CALLDATASIZE PUSH1 0x4 PUSH2 0xB40 JUMP JUMPDEST PUSH1 0xA PUSH1 0x20 MSTORE PUSH1 0x0 SWAP1 DUP2 MSTORE PUSH1 0x40 SWAP1 KECCAK256 SLOAD DUP2 JUMP JUMPDEST CALLVALUE DUP1 ISZERO PUSH2 0x39F JUMPI PUSH1 0x0 DUP1 REVERT JUMPDEST POP PUSH2 0x18D PUSH1 0x6 SLOAD DUP2 JUMP JUMPDEST PUSH1 0x7 SLOAD PUSH1 0x2 SLOAD PUSH2 0x3B9 SWAP2 SWAP1 PUSH2 0xB71 JUMP JUMPDEST TIMESTAMP GT ISZERO PUSH2 0x406 JUMPI PUSH1 0x40 MLOAD PUSH3 0x461BCD PUSH1 0xE5 SHL DUP2 MSTORE PUSH1 0x20 PUSH1 0x4 DUP3 ADD MSTORE PUSH1 0x16 PUSH1 0x24 DUP3 ADD MSTORE PUSH22 0x2132BA3A34B733903832B934B7B21034B99037BB32B9 PUSH1 0x51 SHL PUSH1 0x44 DUP3 ADD MSTORE PUSH1 0x64 ADD JUMPDEST PUSH1 0x40 MLOAD DUP1 SWAP2 SUB SWAP1 REVERT JUMPDEST PUSH1 0x5 SLOAD CALLVALUE EQ PUSH2 0x457 JUMPI PUSH1 0x40 MLOAD PUSH3 0x461BCD PUSH1 0xE5 SHL DUP2 MSTORE PUSH1 0x20 PUSH1 0x4 DUP3 ADD DUP2 SWAP1 MSTORE PUSH1 0x24 DUP3 ADD MSTORE PUSH32 0x42657420616D6F756E74206D7573742062652065786163746C79203120455448 PUSH1 0x44 DUP3 ADD MSTORE PUSH1 0x64 ADD PUSH2 0x3FD JUMP JUMPDEST PUSH1 0xD SLOAD PUSH1 0x0 SWAP1 DUP2 MSTORE PUSH1 0xB PUSH1 0x20 SWAP1 DUP2 MSTORE PUSH1 0x40 DUP1 DUP4 KECCAK256 CALLER DUP5 MSTORE SWAP1 SWAP2 MSTORE SWAP1 KECCAK256 SLOAD PUSH1 0xFF AND ISZERO PUSH2 0x4DF JUMPI PUSH1 0x40 MLOAD PUSH3 0x461BCD PUSH1 0xE5 SHL DUP2 MSTORE PUSH1 0x20 PUSH1 0x4 DUP3 ADD MSTORE PUSH1 0x32 PUSH1 0x24 DUP3 ADD MSTORE PUSH32 0x596F75206861766520616C726561647920706C61636564206120707265646963 PUSH1 0x44 DUP3 ADD MSTORE PUSH18 0x1D1A5BDB881A5B881D1A1A5CC81C9BDD5B99 PUSH1 0x72 SHL PUSH1 0x64 DUP3 ADD MSTORE PUSH1 0x84 ADD PUSH2 0x3FD JUMP JUMPDEST PUSH1 0xD SLOAD PUSH1 0x0 SWAP1 DUP2 MSTORE PUSH1 0xC PUSH1 0x20 SWAP1 DUP2 MSTORE PUSH1 0x40 DUP1 DUP4 KECCAK256 DUP5 DUP5 MSTORE SWAP1 SWAP2 MSTORE SWAP1 KECCAK256 SLOAD PUSH1 0xFF AND ISZERO PUSH2 0x557 JUMPI PUSH1 0x40 MLOAD PUSH3 0x461BCD PUSH1 0xE5 SHL DUP2 MSTORE PUSH1 0x20 PUSH1 0x4 DUP3 ADD MSTORE PUSH1 0x22 PUSH1 0x24 DUP3 ADD MSTORE PUSH32 0x546869732070726963652068617320616C7265616479206265656E2062657420 PUSH1 0x44 DUP3 ADD MSTORE PUSH2 0x37B7 PUSH1 0xF1 SHL PUSH1 0x64 DUP3 ADD MSTORE PUSH1 0x84 ADD PUSH2 0x3FD JUMP JUMPDEST PUSH1 0xD SLOAD PUSH1 0x0 SWAP1 DUP2 MSTORE PUSH1 0x8 PUSH1 0x20 SWAP1 DUP2 MSTORE PUSH1 0x40 DUP1 DUP4 KECCAK256 DUP2 MLOAD DUP1 DUP4 ADD SWAP1 SWAP3 MSTORE CALLER DUP3 MSTORE DUP2 DUP4 ADD DUP6 DUP2 MSTORE DUP2 SLOAD PUSH1 0x1 DUP1 DUP3 ADD DUP5 SSTORE SWAP3 DUP7 MSTORE SWAP4 DUP6 KECCAK256 SWAP3 MLOAD PUSH1 0x2 SWAP1 SWAP5 MUL SWAP1 SWAP3 ADD DUP1 SLOAD PUSH1 0x1 PUSH1 0x1 PUSH1 0xA0 SHL SUB NOT AND PUSH1 0x1 PUSH1 0x1 PUSH1 0xA0 SHL SUB SWAP1 SWAP5 AND SWAP4 SWAP1 SWAP4 OR DUP4 SSTORE SWAP1 MLOAD SWAP2 ADD SSTORE PUSH1 0x4 DUP1 SLOAD SWAP2 PUSH2 0x5C5 DUP4 PUSH2 0xB84 JUMP JUMPDEST SWAP1 SWAP2 SSTORE POP POP PUSH1 0xD DUP1 SLOAD PUSH1 0x0 SWAP1 DUP2 MSTORE PUSH1 0xB PUSH1 0x20 SWAP1 DUP2 MSTORE PUSH1 0x40 DUP1 DUP4 KECCAK256 CALLER DUP1 DUP6 MSTORE SWAP1 DUP4 MSTORE DUP2 DUP5 KECCAK256 DUP1 SLOAD PUSH1 0x1 PUSH1 0xFF NOT SWAP2 DUP3 AND DUP2 OR SWAP1 SWAP3 SSTORE DUP7 SLOAD DUP7 MSTORE PUSH1 0xC DUP6 MSTORE DUP4 DUP7 KECCAK256 DUP9 DUP8 MSTORE DUP6 MSTORE SWAP5 DUP4 SWAP1 KECCAK256 DUP1 SLOAD SWAP1 SWAP6 AND OR SWAP1 SWAP4 SSTORE SWAP3 SLOAD DUP4 MLOAD SWAP1 DUP2 MSTORE SWAP1 DUP2 ADD DUP5 SWAP1 MSTORE SWAP1 SWAP2 PUSH32 0xFE8A4F5C8AA725DEFF1274DCD26CC3D24F93440A9B35EA011509B962F518B11 SWAP2 ADD JUMPDEST PUSH1 0x40 MLOAD DUP1 SWAP2 SUB SWAP1 LOG2 POP JUMP JUMPDEST PUSH1 0x6 SLOAD PUSH1 0x2 SLOAD PUSH2 0x663 SWAP2 SWAP1 PUSH2 0xB71 JUMP JUMPDEST TIMESTAMP LT ISZERO PUSH2 0x6AA JUMPI PUSH1 0x40 MLOAD PUSH3 0x461BCD PUSH1 0xE5 SHL DUP2 MSTORE PUSH1 0x20 PUSH1 0x4 DUP3 ADD MSTORE PUSH1 0x15 PUSH1 0x24 DUP3 ADD MSTORE PUSH21 0x2937BAB7321034B9903737BA103CB2BA1037BB32B9 PUSH1 0x59 SHL PUSH1 0x44 DUP3 ADD MSTORE PUSH1 0x64 ADD PUSH2 0x3FD JUMP JUMPDEST PUSH1 0x0 DUP1 PUSH1 0x0 SWAP1 SLOAD SWAP1 PUSH2 0x100 EXP SWAP1 DIV PUSH1 0x1 PUSH1 0x1 PUSH1 0xA0 SHL SUB AND PUSH1 0x1 PUSH1 0x1 PUSH1 0xA0 SHL SUB AND PUSH4 0xFEAF968C PUSH1 0x40 MLOAD DUP2 PUSH4 0xFFFFFFFF AND PUSH1 0xE0 SHL DUP2 MSTORE PUSH1 0x4 ADD PUSH1 0xA0 PUSH1 0x40 MLOAD DUP1 DUP4 SUB DUP2 DUP7 GAS STATICCALL ISZERO DUP1 ISZERO PUSH2 0x6FE JUMPI RETURNDATASIZE PUSH1 0x0 DUP1 RETURNDATACOPY RETURNDATASIZE PUSH1 0x0 REVERT JUMPDEST POP POP POP POP PUSH1 0x40 MLOAD RETURNDATASIZE PUSH1 0x1F NOT PUSH1 0x1F DUP3 ADD AND DUP3 ADD DUP1 PUSH1 0x40 MSTORE POP DUP2 ADD SWAP1 PUSH2 0x722 SWAP2 SWAP1 PUSH2 0xBB7 JUMP JUMPDEST POP POP POP PUSH1 0x3 DUP2 SWAP1 SSTORE PUSH1 0xD SLOAD PUSH1 0x0 SWAP1 DUP2 MSTORE PUSH1 0x8 PUSH1 0x20 MSTORE PUSH1 0x40 DUP2 KECCAK256 SWAP2 SWAP4 POP SWAP2 POP PUSH1 0x1 PUSH1 0x1 PUSH1 0xFF SHL SUB SWAP1 DUP3 JUMPDEST DUP2 SLOAD DUP2 LT ISZERO PUSH2 0x7CA JUMPI PUSH1 0x0 PUSH2 0x785 DUP4 DUP4 DUP2 SLOAD DUP2 LT PUSH2 0x76B JUMPI PUSH2 0x76B PUSH2 0xC09 JUMP JUMPDEST SWAP1 PUSH1 0x0 MSTORE PUSH1 0x20 PUSH1 0x0 KECCAK256 SWAP1 PUSH1 0x2 MUL ADD PUSH1 0x1 ADD SLOAD PUSH1 0x3 SLOAD PUSH2 0xA44 JUMP JUMPDEST SWAP1 POP DUP4 DUP2 SLT ISZERO PUSH2 0x7C1 JUMPI DUP1 SWAP4 POP DUP3 DUP3 DUP2 SLOAD DUP2 LT PUSH2 0x7A4 JUMPI PUSH2 0x7A4 PUSH2 0xC09 JUMP JUMPDEST PUSH1 0x0 SWAP2 DUP3 MSTORE PUSH1 0x20 SWAP1 SWAP2 KECCAK256 PUSH1 0x2 SWAP1 SWAP2 MUL ADD SLOAD PUSH1 0x1 PUSH1 0x1 PUSH1 0xA0 SHL SUB AND SWAP5 POP JUMPDEST POP PUSH1 0x1 ADD PUSH2 0x74B JUMP JUMPDEST POP PUSH1 0x1 PUSH1 0x1 PUSH1 0xA0 SHL SUB DUP4 AND ISZERO PUSH2 0x849 JUMPI PUSH1 0x5 SLOAD DUP2 SLOAD PUSH1 0x0 SWAP2 PUSH2 0x7EB SWAP2 PUSH2 0xC1F JUMP JUMPDEST PUSH1 0x1 PUSH1 0x1 PUSH1 0xA0 SHL SUB DUP6 AND PUSH1 0x0 SWAP1 DUP2 MSTORE PUSH1 0xA PUSH1 0x20 MSTORE PUSH1 0x40 DUP2 KECCAK256 DUP1 SLOAD SWAP3 SWAP4 POP DUP4 SWAP3 SWAP1 SWAP2 SWAP1 PUSH2 0x818 SWAP1 DUP5 SWAP1 PUSH2 0xB71 JUMP JUMPDEST SWAP1 SWAP2 SSTORE POP POP PUSH1 0xD SLOAD PUSH1 0x0 SWAP1 DUP2 MSTORE PUSH1 0x9 PUSH1 0x20 MSTORE PUSH1 0x40 SWAP1 KECCAK256 DUP1 SLOAD PUSH1 0x1 PUSH1 0x1 PUSH1 0xA0 SHL SUB NOT AND PUSH1 0x1 PUSH1 0x1 PUSH1 0xA0 SHL SUB DUP7 AND OR SWAP1 SSTORE POP JUMPDEST PUSH1 0xD SLOAD PUSH1 0x3 SLOAD PUSH1 0x40 DUP1 MLOAD SWAP3 DUP4 MSTORE PUSH1 0x20 DUP4 ADD SWAP2 SWAP1 SWAP2 MSTORE PUSH1 0x1 PUSH1 0x1 PUSH1 0xA0 SHL SUB DUP6 AND DUP3 DUP3 ADD MSTORE MLOAD PUSH32 0xBBC057D42226D2747C9C898FA1BE04CD1734CACAFEAEE5F799BD9E741A8EB03A SWAP2 DUP2 SWAP1 SUB PUSH1 0x60 ADD SWAP1 LOG1 PUSH1 0xD DUP1 SLOAD SWAP1 PUSH1 0x0 PUSH2 0x8A7 DUP4 PUSH2 0xB84 JUMP JUMPDEST SWAP2 SWAP1 POP SSTORE POP PUSH2 0x8B4 PUSH2 0xA6F JUMP JUMPDEST POP POP POP POP JUMP JUMPDEST PUSH1 0x8 PUSH1 0x20 MSTORE DUP2 PUSH1 0x0 MSTORE PUSH1 0x40 PUSH1 0x0 KECCAK256 DUP2 DUP2 SLOAD DUP2 LT PUSH2 0x8D6 JUMPI PUSH1 0x0 DUP1 REVERT JUMPDEST PUSH1 0x0 SWAP2 DUP3 MSTORE PUSH1 0x20 SWAP1 SWAP2 KECCAK256 PUSH1 0x2 SWAP1 SWAP2 MUL ADD DUP1 SLOAD PUSH1 0x1 SWAP1 SWAP2 ADD SLOAD PUSH1 0x1 PUSH1 0x1 PUSH1 0xA0 SHL SUB SWAP1 SWAP2 AND SWAP3 POP SWAP1 POP DUP3 JUMP JUMPDEST PUSH1 0x0 DUP1 SLOAD PUSH1 0x40 DUP1 MLOAD PUSH4 0x3FABE5A3 PUSH1 0xE2 SHL DUP2 MSTORE SWAP1 MLOAD DUP4 SWAP3 PUSH1 0x1 PUSH1 0x1 PUSH1 0xA0 SHL SUB AND SWAP2 PUSH4 0xFEAF968C SWAP2 PUSH1 0x4 DUP1 DUP4 ADD SWAP3 PUSH1 0xA0 SWAP3 SWAP2 SWAP1 DUP3 SWAP1 SUB ADD DUP2 DUP7 GAS STATICCALL ISZERO DUP1 ISZERO PUSH2 0x94A JUMPI RETURNDATASIZE PUSH1 0x0 DUP1 RETURNDATACOPY RETURNDATASIZE PUSH1 0x0 REVERT JUMPDEST POP POP POP POP PUSH1 0x40 MLOAD RETURNDATASIZE PUSH1 0x1F NOT PUSH1 0x1F DUP3 ADD AND DUP3 ADD DUP1 PUSH1 0x40 MSTORE POP DUP2 ADD SWAP1 PUSH2 0x96E SWAP2 SWAP1 PUSH2 0xBB7 JUMP JUMPDEST POP SWAP2 SWAP6 SWAP5 POP POP POP POP POP JUMP JUMPDEST CALLER PUSH1 0x0 SWAP1 DUP2 MSTORE PUSH1 0xA PUSH1 0x20 MSTORE PUSH1 0x40 SWAP1 KECCAK256 SLOAD DUP1 PUSH2 0x9D6 JUMPI PUSH1 0x40 MLOAD PUSH3 0x461BCD PUSH1 0xE5 SHL DUP2 MSTORE PUSH1 0x20 PUSH1 0x4 DUP3 ADD MSTORE PUSH1 0x17 PUSH1 0x24 DUP3 ADD MSTORE PUSH32 0x4E6F2077696E6E696E677320746F207769746864726177000000000000000000 PUSH1 0x44 DUP3 ADD MSTORE PUSH1 0x64 ADD PUSH2 0x3FD JUMP JUMPDEST CALLER PUSH1 0x0 DUP2 DUP2 MSTORE PUSH1 0xA PUSH1 0x20 MSTORE PUSH1 0x40 DUP1 DUP3 KECCAK256 DUP3 SWAP1 SSTORE MLOAD DUP4 ISZERO PUSH2 0x8FC MUL SWAP2 DUP5 SWAP2 SWAP1 DUP2 DUP2 DUP2 DUP6 DUP9 DUP9 CALL SWAP4 POP POP POP POP ISZERO DUP1 ISZERO PUSH2 0xA11 JUMPI RETURNDATASIZE PUSH1 0x0 DUP1 RETURNDATACOPY RETURNDATASIZE PUSH1 0x0 REVERT JUMPDEST POP PUSH1 0x40 MLOAD DUP2 DUP2 MSTORE CALLER SWAP1 PUSH32 0x24215BBAF0832FA4D6FFEF16DEE3971D8B714921FEF3AD63F793D578983C6DC2 SWAP1 PUSH1 0x20 ADD PUSH2 0x648 JUMP JUMPDEST PUSH1 0x0 DUP2 DUP4 SGT PUSH2 0xA5C JUMPI PUSH2 0xA57 DUP4 DUP4 PUSH2 0xC36 JUMP JUMPDEST PUSH2 0xA66 JUMP JUMPDEST PUSH2 0xA66 DUP3 DUP5 PUSH2 0xC36 JUMP JUMPDEST SWAP1 POP JUMPDEST SWAP3 SWAP2 POP POP JUMP JUMPDEST TIMESTAMP PUSH1 0x2 DUP2 SWAP1 SSTORE PUSH1 0x0 PUSH1 0x4 SSTORE PUSH1 0xD SLOAD PUSH1 0x40 MLOAD PUSH32 0x278844837BCF8364A705384BF3A2812901F54155BAE86DEA81DD52AA5B9EC0E3 SWAP3 PUSH2 0xAB3 SWAP3 DUP3 MSTORE PUSH1 0x20 DUP3 ADD MSTORE PUSH1 0x40 ADD SWAP1 JUMP JUMPDEST PUSH1 0x40 MLOAD DUP1 SWAP2 SUB SWAP1 LOG1 JUMP JUMPDEST PUSH1 0x0 PUSH1 0x20 DUP3 DUP5 SUB SLT ISZERO PUSH2 0xACF JUMPI PUSH1 0x0 DUP1 REVERT JUMPDEST POP CALLDATALOAD SWAP2 SWAP1 POP JUMP JUMPDEST DUP1 CALLDATALOAD PUSH1 0x1 PUSH1 0x1 PUSH1 0xA0 SHL SUB DUP2 AND DUP2 EQ PUSH2 0xAED JUMPI PUSH1 0x0 DUP1 REVERT JUMPDEST SWAP2 SWAP1 POP JUMP JUMPDEST PUSH1 0x0 DUP1 PUSH1 0x40 DUP4 DUP6 SUB SLT ISZERO PUSH2 0xB05 JUMPI PUSH1 0x0 DUP1 REVERT JUMPDEST DUP3 CALLDATALOAD SWAP2 POP PUSH2 0xB15 PUSH1 0x20 DUP5 ADD PUSH2 0xAD6 JUMP JUMPDEST SWAP1 POP SWAP3 POP SWAP3 SWAP1 POP JUMP JUMPDEST PUSH1 0x0 DUP1 PUSH1 0x40 DUP4 DUP6 SUB SLT ISZERO PUSH2 0xB31 JUMPI PUSH1 0x0 DUP1 REVERT JUMPDEST POP POP DUP1 CALLDATALOAD SWAP3 PUSH1 0x20 SWAP1 SWAP2 ADD CALLDATALOAD SWAP2 POP JUMP JUMPDEST PUSH1 0x0 PUSH1 0x20 DUP3 DUP5 SUB SLT ISZERO PUSH2 0xB52 JUMPI PUSH1 0x0 DUP1 REVERT JUMPDEST PUSH2 0xA66 DUP3 PUSH2 0xAD6 JUMP JUMPDEST PUSH4 0x4E487B71 PUSH1 0xE0 SHL PUSH1 0x0 MSTORE PUSH1 0x11 PUSH1 0x4 MSTORE PUSH1 0x24 PUSH1 0x0 REVERT JUMPDEST DUP1 DUP3 ADD DUP1 DUP3 GT ISZERO PUSH2 0xA69 JUMPI PUSH2 0xA69 PUSH2 0xB5B JUMP JUMPDEST PUSH1 0x0 PUSH1 0x1 DUP3 ADD PUSH2 0xB96 JUMPI PUSH2 0xB96 PUSH2 0xB5B JUMP JUMPDEST POP PUSH1 0x1 ADD SWAP1 JUMP JUMPDEST DUP1 MLOAD PUSH10 0xFFFFFFFFFFFFFFFFFFFF DUP2 AND DUP2 EQ PUSH2 0xAED JUMPI PUSH1 0x0 DUP1 REVERT JUMPDEST PUSH1 0x0 DUP1 PUSH1 0x0 DUP1 PUSH1 0x0 PUSH1 0xA0 DUP7 DUP9 SUB SLT ISZERO PUSH2 0xBCF JUMPI PUSH1 0x0 DUP1 REVERT JUMPDEST PUSH2 0xBD8 DUP7 PUSH2 0xB9D JUMP JUMPDEST PUSH1 0x20 DUP8 ADD MLOAD PUSH1 0x40 DUP9 ADD MLOAD PUSH1 0x60 DUP10 ADD MLOAD SWAP3 SWAP8 POP SWAP1 SWAP6 POP SWAP4 POP SWAP2 POP PUSH2 0xBFD PUSH1 0x80 DUP8 ADD PUSH2 0xB9D JUMP JUMPDEST SWAP1 POP SWAP3 SWAP6 POP SWAP3 SWAP6 SWAP1 SWAP4 POP JUMP JUMPDEST PUSH4 0x4E487B71 PUSH1 0xE0 SHL PUSH1 0x0 MSTORE PUSH1 0x32 PUSH1 0x4 MSTORE PUSH1 0x24 PUSH1 0x0 REVERT JUMPDEST DUP1 DUP3 MUL DUP2 ISZERO DUP3 DUP3 DIV DUP5 EQ OR PUSH2 0xA69 JUMPI PUSH2 0xA69 PUSH2 0xB5B JUMP JUMPDEST DUP2 DUP2 SUB PUSH1 0x0 DUP4 SLT DUP1 ISZERO DUP4 DUP4 SGT AND DUP4 DUP4 SLT DUP3 AND OR ISZERO PUSH2 0xC56 JUMPI PUSH2 0xC56 PUSH2 0xB5B JUMP JUMPDEST POP SWAP3 SWAP2 POP POP JUMP INVALID LOG2 PUSH5 0x6970667358 0x22 SLT KECCAK256 DUP3 PUSH21 0xB2104C100AC4AA09EF05D3470C8AEE808478660DA3 0xEB PUSH3 0x7F9333 EXTCODESIZE MOD BYTE SWAP2 PUSH5 0x736F6C6343 STOP ADDMOD SHR STOP CALLER ","sha1":"4aaadd0fbc60971def560a06eb7be33dc0890c2d","source":"// SPDX-License-Identifier: MIT\npragma solidity ^0.8.7;\n\nimport \"@chainlink/contracts/src/v0.8/interfaces/AggregatorV3Interface.sol\";\n\ncontract BitcoinUpDown {\n    struct Bet {\n        address bettor;\n        int256 predictedPrice; // User's predicted price\n    }\n\n    AggregatorV3Interface public priceFeed;\n    address public owner;\n    uint256 public roundStartTime;\n    int256 public actualPrice; // The actual price fetched at the end of the round\n    uint256 public n_bets;\n    uint256 public betAmount = 0.01 ether; // Fixed bet amount\n    uint256 public roundDuration = 0; // 1 hour\n    uint256 public betting_duration = 3600;\n\n    mapping(uint256 => Bet[]) public roundBets; // Store bets for each round\n    mapping(uint256 => address) public roundWinners; // Store the winner of each round\n    mapping(address => uint256) public pendingWithdrawals; // Winnings available for withdrawal\n    // Track if a user has already placed a bet in the current round\n    mapping(uint256 => mapping(address => bool)) public hasPlacedBet;\n    // Tracks whether a specific price has been bet on in a particular round\n    mapping(uint256 => mapping(int256 => bool)) public hasBetOnPrice;\n\n    uint256 public currentRound; // Current round ID\n\n    event RoundStarted(uint256 roundId, uint256 startTime);\n    event BetPlaced(\n        uint256 roundId,\n        address indexed bettor,\n        int256 predictedPrice\n    );\n    event RoundEnded(uint256 roundId, int256 actualPrice, address winner);\n    event WinningsWithdrawn(address indexed winner, uint256 amount);\n\n    modifier onlyOwner() {\n        require(msg.sender == owner, \"Only owner can call this function\");\n        _;\n    }\n\n    constructor(address _priceFeed) {\n        owner = msg.sender;\n        priceFeed = AggregatorV3Interface(_priceFeed);\n        currentRound = 1;\n        _startNewRound();\n    }\n\n    function getPrice() public view returns (int256) {\n        (, int256 price, , , ) = priceFeed.latestRoundData();\n        return price;\n    }\n\n    function placeBet(int256 _predictedPrice) external payable {\n        require(\n            block.timestamp <= roundStartTime + betting_duration,\n            \"Betting period is over\"\n        );\n        require(msg.value == betAmount, \"Bet amount must be exactly 1 ETH\");\n        require(\n            !hasPlacedBet[currentRound][msg.sender],\n            \"You have already placed a prediction in this round\"\n        );\n        require(\n            !hasBetOnPrice[currentRound][_predictedPrice],\n            \"This price has already been bet on\"\n        );\n        roundBets[currentRound].push(Bet(msg.sender, _predictedPrice));\n        n_bets++;\n        hasPlacedBet[currentRound][msg.sender] = true;\n        hasBetOnPrice[currentRound][_predictedPrice] = true;\n        emit BetPlaced(currentRound, msg.sender, _predictedPrice);\n    }\n\n    function endRound() external {\n        require(\n            block.timestamp >= roundStartTime + roundDuration,\n            \"Round is not yet over\"\n        );\n\n        (, int256 _actualPrice, , , ) = priceFeed.latestRoundData();\n        actualPrice = _actualPrice;\n\n        // Determine the closest prediction\n        address winner;\n        int256 closestDifference = type(int256).max;\n\n        Bet[] storage bets = roundBets[currentRound];\n        for (uint256 i = 0; i < bets.length; i++) {\n            int256 difference = absoluteDifference(\n                bets[i].predictedPrice,\n                actualPrice\n            );\n            if (difference < closestDifference) {\n                closestDifference = difference;\n                winner = bets[i].bettor;\n            }\n        }\n\n        if (winner != address(0)) {\n            uint256 totalPool = bets.length * betAmount;\n            pendingWithdrawals[winner] += totalPool; // Add winnings to the winner's withdrawal balance\n            roundWinners[currentRound] = winner;\n        }\n\n        emit RoundEnded(currentRound, actualPrice, winner);\n\n        // Automatically start the next round\n        currentRound++;\n        _startNewRound();\n    }\n\n    function withdrawWinnings() external {\n        uint256 amount = pendingWithdrawals[msg.sender];\n        require(amount > 0, \"No winnings to withdraw\");\n\n        pendingWithdrawals[msg.sender] = 0;\n        payable(msg.sender).transfer(amount);\n\n        emit WinningsWithdrawn(msg.sender, amount);\n    }\n\n    function absoluteDifference(\n        int256 a,\n        int256 b\n    ) internal pure returns (int256) {\n        return a > b ? a - b : b - a;\n    }\n\n    function getContractBalance() external view returns (uint256) {\n        return address(this).balance;\n    }\n\n    function _startNewRound() internal {\n        roundStartTime = block.timestamp;\n        n_bets = 0;\n        emit RoundStarted(currentRound, roundStartTime);\n    }\n}\n","sourcePath":"contracts/BitcoinUpDown.sol","type":"contract","deployment":{"address":"0xd9703D7DE11215D50D1a377ABf447f17bbA8EDd3","chainid":"97","blockHeight":46373911}}