{"bytecode":"60806040523480156200001157600080fd5b50604051620016b8380380620016b8833981016040819052620000349162000247565b6200003f3362000079565b600c8054336001600160a01b031991821617909155600280549091166001600160a01b03831617905562000072620000c9565b5062000337565b600080546001600160a01b038381166001600160a01b0319831681178455604051919092169283917f8be0079c531659141344cd1fd0a4f28419497f9722a3daafe3b4186f6b6457e09190a35050565b60078054600181810190925560007fa66cc928b5edb82af9bd49922954155ab7b0942694bea4ce44661d9a8736c688909101819055600880548084019091557ff3f7a9fe364faab93b216da50a3214154f22a0a2b415b23a84c8169e8b636ee30181905560098054928301815581527f6e1540171b6c0c960b71a7020d9f60077f6af931a8bbf590da0223dacf75c7af9091015562000167620001ac565b600581905542600a81905560035460405192835290917fe9ec0ed6586678a63c4b348023c41675dd303d6084c8a2283bd9da983edc24b89060200160405180910390a3565b600080600260009054906101000a90046001600160a01b03166001600160a01b031663feaf968c6040518163ffffffff1660e01b815260040160a060405180830381865afa15801562000203573d6000803e3d6000fd5b505050506040513d601f19601f8201168201806040525081019062000229919062000296565b5050509150506305f5e10081620002419190620002eb565b91505090565b6000602082840312156200025a57600080fd5b81516001600160a01b03811681146200027257600080fd5b9392505050565b80516001600160501b03811681146200029157600080fd5b919050565b600080600080600060a08688031215620002af57600080fd5b620002ba8662000279565b9450602086015193506040860151925060608601519150620002df6080870162000279565b90509295509295909350565b6000826200030957634e487b7160e01b600052601260045260246000fd5b600160ff1b8214600019841416156200033257634e487b7160e01b600052601160045260246000fd5b500590565b61137180620003476000396000f3fe6080604052600436106101145760003560e01c8063715018a6116100a0578063d0821b0e11610064578063d0821b0e146102af578063e3380d69146102c2578063e941fa781461031a578063f2fde38b1461032f578063fc3ec1aa1461034f57600080fd5b8063715018a61461022857806376da5a401461023d5780638da5cb5b1461025d57806398d5fdca14610285578063d06da2cb1461029a57600080fd5b8063438dd939116100e7578063438dd9391461019c57806343e2a4ae146101bc5780634cd3e333146101d257806352e9a640146101f25780636ec11f0b1461021257600080fd5b8063146ca5311461011957806316829f6d1461014257806334ef42421461016f5780633ccfd60b14610185575b600080fd5b34801561012557600080fd5b5061012f60035481565b6040519081526020015b60405180910390f35b34801561014e57600080fd5b5061016261015d36600461110a565b61036f565b6040516101399190611172565b34801561017b57600080fd5b5061012f60055481565b34801561019157600080fd5b5061019a6103c0565b005b3480156101a857600080fd5b5061012f6101b736600461110a565b610771565b3480156101c857600080fd5b5061012f600a5481565b3480156101de57600080fd5b5061012f6101ed366004611186565b6107be565b3480156101fe57600080fd5b5061016261020d366004611186565b6107df565b34801561021e57600080fd5b5061012f60065481565b34801561023457600080fd5b5061019a610813565b34801561024957600080fd5b5061012f610258366004611186565b610827565b34801561026957600080fd5b506000546040516001600160a01b039091168152602001610139565b34801561029157600080fd5b5061012f610837565b3480156102a657600080fd5b5061019a6108cd565b61019a6102bd36600461119f565b610b82565b3480156102ce57600080fd5b5061030a6102dd36600461110a565b6001602081905260009182526040909120805491810154600282015460039092015460ff91821692911684565b60405161013994939291906111c0565b34801561032657600080fd5b5061019a610e8f565b34801561033b57600080fd5b5061019a61034a36600461110a565b610ef9565b34801561035b57600080fd5b5061012f61036a366004611186565b610f6f565b6001600160a01b038116600090815260016020819052604082206003015460ff16151590036103bb57506001600160a01b03166000908152600160208190526040909120015460ff1690565b919050565b3360009081526001602081905260409091206003015460ff161515146104245760405162461bcd60e51b8152602060048201526014602482015273141b185e595c88191bd95cdb89dd08195e1a5cdd60621b60448201526064015b60405180910390fd5b600354336000908152600160205260409020600201541061047b5760405162461bcd60e51b8152602060048201526011602482015270526f756e64207374696c6c20676f696e6760781b604482015260640161041b565b336000908152600160205260409020600201546004805490919081106104a3576104a36111eb565b90600052602060002090602091828204019190069054906101000a900460ff1660018111156104d4576104d461113a565b33600090815260016020819052604090912081015460ff16908111156104fc576104fc61113a565b146105315760405162461bcd60e51b81526020600482015260056024820152642637b9b2b960d91b604482015260640161041b565b336000908152600160208190526040822060038101805460ff19169055810154829160ff909116908111156105685761056861113a565b03610628573360009081526001602052604090206002015460078054606492908110610596576105966111eb565b9060005260206000200154600860016000336001600160a01b03166001600160a01b0316815260200190815260200160002060020154815481106105dc576105dc6111eb565b60009182526020808320909101543383526001909152604090912054610603906064611217565b61060d919061124c565b6106179190611217565b610621919061124c565b90506106df565b3360009081526001602052604090206002015460078054606492908110610651576106516111eb565b9060005260206000200154600960016000336001600160a01b03166001600160a01b031681526020019081526020016000206002015481548110610697576106976111eb565b600091825260208083209091015433835260019091526040909120546106be906064611217565b6106c8919061124c565b6106d29190611217565b6106dc919061124c565b90505b6040516000908190339084908381818185875af1925050503d8060008114610723576040519150601f19603f3d011682016040523d82523d6000602084013e610728565b606091505b50915091508161076c5760405162461bcd60e51b815260206004820152600f60248201526e15da5d1a191c985dc819985a5b1959608a1b604482015260640161041b565b505050565b6001600160a01b038116600090815260016020819052604082206003015460ff16151590036107b657506001600160a01b031660009081526001602052604090205490565b506000919050565b600981815481106107ce57600080fd5b600091825260209091200154905081565b600481815481106107ef57600080fd5b9060005260206000209060209182820401919006915054906101000a900460ff1681565b61081b610f7f565b6108256000610fd9565b565b600781815481106107ce57600080fd5b600080600260009054906101000a90046001600160a01b03166001600160a01b031663feaf968c6040518163ffffffff1660e01b815260040160a060405180830381865afa15801561088d573d6000803e3d6000fd5b505050506040513d601f19601f820116820180604052508101906108b1919061127a565b5050509150506305f5e100816108c791906112ca565b91505090565b62015180600a54426108df91906112f8565b10156109255760405162461bcd60e51b8152602060048201526015602482015274135a5b880c4819185e4818599d195c881cdd185c9d605a1b604482015260640161041b565b600061092f610837565b6006556003546007805460649290811061094b5761094b6111eb565b906000526020600020015460016109629190611217565b61096c919061124c565b600760035481548110610981576109816111eb565b90600052602060002001600082825461099a91906112f8565b9091555050600554600654126109f957506004805460018101825560009182527f8a35acfbc15ff81a39ae7d344fd709f28e8600b4aa8c65c6b64bfe7fe36bd19b60208204018054601f9092166101000a60ff02199091169055610a55565b6005546006541215610a5557506004805460018082018355600092909252602081047f8a35acfbc15ff81a39ae7d344fd709f28e8600b4aa8c65c6b64bfe7fe36bd19b01805460ff601f9093166101000a928302191690911790555b6064600760035481548110610a6c57610a6c6111eb565b90600052602060002001546001610a839190611217565b610a8d919061124c565b600b6000828254610a9e919061130f565b9250508190555042600a546003547ff30110a23939e204ea2ee835e455adb360ff938b9f4dfeb72a08f4b03c0b9c7e600554600654600760035481548110610ae857610ae86111eb565b9060005260206000200154600860035481548110610b0857610b086111eb565b9060005260206000200154600960035481548110610b2857610b286111eb565b6000918252602091829020015460408051968752918601949094528401919091526060830152608082015260a00160405180910390a4600160036000828254610b71919061130f565b90915550610b7f9050611029565b50565b610e10600a5442610b9391906112f8565b1115610bda5760405162461bcd60e51b815260206004820152601660248201527513585e080c481a1bdd5c8818599d195c881cdd185c9d60521b604482015260640161041b565b3360009081526001602081905260409091206003015460ff1615159003610d17576003543360009081526001602052604090206002015403610c545760405162461bcd60e51b815260206004820152601360248201527213db9b1e480c4818995d08189e481c9bdd5b99606a1b604482015260640161041b565b33600090815260016020526040902060020154600480549091908110610c7c57610c7c6111eb565b90600052602060002090602091828204019190069054906101000a900460ff166001811115610cad57610cad61113a565b33600090815260016020819052604090912081015460ff1690811115610cd557610cd561113a565b03610d175760405162461bcd60e51b815260206004820152601260248201527114195b991a5b99c81dda5d1a191c985dd85b60721b604482015260640161041b565b33600090815260016020819052604090912034815581018054839260ff19909116908381811115610d4a57610d4a61113a565b0217905550600380543360009081526001602081905260408220600281019390935591909201805460ff1916821790558290811115610d8b57610d8b61113a565b03610dca5734600860035481548110610da657610da66111eb565b906000526020600020016000828254610dbf919061130f565b90915550610e189050565b6001816001811115610dde57610dde61113a565b03610e185734600960035481548110610df957610df96111eb565b906000526020600020016000828254610e12919061130f565b90915550505b34600760035481548110610e2e57610e2e6111eb565b906000526020600020016000828254610e47919061130f565b90915550506003546040513391907f9a9b1ab57a775ebead5cefe947552da14819ceab35cbce686dde8c688f12aa4a90610e849034908690611327565b60405180910390a350565b600c54600b5460405160009283926001600160a01b03909116918381818185875af1925050503d8060008114610ee1576040519150601f19603f3d011682016040523d82523d6000602084013e610ee6565b606091505b509150915081610ef557600080fd5b5050565b610f01610f7f565b6001600160a01b038116610f665760405162461bcd60e51b815260206004820152602660248201527f4f776e61626c653a206e6577206f776e657220697320746865207a65726f206160448201526564647265737360d01b606482015260840161041b565b610b7f81610fd9565b600881815481106107ce57600080fd5b6000546001600160a01b031633146108255760405162461bcd60e51b815260206004820181905260248201527f4f776e61626c653a2063616c6c6572206973206e6f7420746865206f776e6572604482015260640161041b565b600080546001600160a01b038381166001600160a01b0319831681178455604051919092169283917f8be0079c531659141344cd1fd0a4f28419497f9722a3daafe3b4186f6b6457e09190a35050565b60078054600181810190925560007fa66cc928b5edb82af9bd49922954155ab7b0942694bea4ce44661d9a8736c688909101819055600880548084019091557ff3f7a9fe364faab93b216da50a3214154f22a0a2b415b23a84c8169e8b636ee30181905560098054928301815581527f6e1540171b6c0c960b71a7020d9f60077f6af931a8bbf590da0223dacf75c7af909101556110c5610837565b600581905542600a81905560035460405192835290917fe9ec0ed6586678a63c4b348023c41675dd303d6084c8a2283bd9da983edc24b89060200160405180910390a3565b60006020828403121561111c57600080fd5b81356001600160a01b038116811461113357600080fd5b9392505050565b634e487b7160e01b600052602160045260246000fd5b6002811061116e57634e487b7160e01b600052602160045260246000fd5b9052565b602081016111808284611150565b92915050565b60006020828403121561119857600080fd5b5035919050565b6000602082840312156111b157600080fd5b81356002811061113357600080fd5b848152608081016111d46020830186611150565b836040830152821515606083015295945050505050565b634e487b7160e01b600052603260045260246000fd5b634e487b7160e01b600052601160045260246000fd5b600081600019048311821515161561123157611231611201565b500290565b634e487b7160e01b600052601260045260246000fd5b60008261125b5761125b611236565b500490565b805169ffffffffffffffffffff811681146103bb57600080fd5b600080600080600060a0868803121561129257600080fd5b61129b86611260565b94506020860151935060408601519250606086015191506112be60808701611260565b90509295509295909350565b6000826112d9576112d9611236565b600160ff1b8214600019841416156112f3576112f3611201565b500590565b60008282101561130a5761130a611201565b500390565b6000821982111561132257611322611201565b500190565b82815260408101611133602083018461115056fea264697066735822122042b88c8942ecc4ac97c2787adbdf56223fdca850622660d1f3d801f18e15add964736f6c634300080f0033","bytecodeSha1":"e694eacbe06ac715bafb4c4e1b87042416d8cab4","type":"contract","abi":[{"inputs":[{"internalType":"address","name":"_priceFeedAddress","type":"address"}],"stateMutability":"nonpayable","type":"constructor","name":"constructor"},{"anonymous":false,"inputs":[{"indexed":true,"internalType":"address","name":"previousOwner","type":"address"},{"indexed":true,"internalType":"address","name":"newOwner","type":"address"}],"name":"OwnershipTransferred","type":"event"},{"anonymous":false,"inputs":[{"indexed":true,"internalType":"uint256","name":"round","type":"uint256"},{"indexed":true,"internalType":"address","name":"from","type":"address"},{"indexed":false,"internalType":"uint256","name":"amount","type":"uint256"},{"indexed":false,"internalType":"enum BitcoinUpDown.UP_DOWN","name":"up_down","type":"uint8"}],"name":"eventBet","type":"event"},{"anonymous":false,"inputs":[{"indexed":true,"internalType":"uint256","name":"round","type":"uint256"},{"indexed":true,"internalType":"uint256","name":"ts_start","type":"uint256"},{"indexed":true,"internalType":"uint256","name":"ts_close","type":"uint256"},{"indexed":false,"internalType":"int256","name":"price_open","type":"int256"},{"indexed":false,"internalType":"int256","name":"price_close","type":"int256"},{"indexed":false,"internalType":"uint256","name":"prize_pool","type":"uint256"},{"indexed":false,"internalType":"uint256","name":"prize_pool_up","type":"uint256"},{"indexed":false,"internalType":"uint256","name":"prize_pool_down","type":"uint256"}],"name":"eventDeclareWinners","type":"event"},{"anonymous":false,"inputs":[{"indexed":true,"internalType":"uint256","name":"round","type":"uint256"},{"indexed":true,"internalType":"uint256","name":"ts_start","type":"uint256"},{"indexed":false,"internalType":"int256","name":"price_open","type":"int256"}],"name":"eventStartBet","type":"event"},{"inputs":[{"internalType":"enum BitcoinUpDown.UP_DOWN","name":"_up_down","type":"uint8"}],"name":"bet","outputs":[],"stateMutability":"payable","type":"function"},{"inputs":[],"name":"declareWinners","outputs":[],"stateMutability":"nonpayable","type":"function"},{"inputs":[{"internalType":"address","name":"_addr","type":"address"}],"name":"getIsExist","outputs":[{"internalType":"uint256","name":"","type":"uint256"}],"stateMutability":"view","type":"function"},{"inputs":[],"name":"getPrice","outputs":[{"internalType":"int256","name":"","type":"int256"}],"stateMutability":"view","type":"function"},{"inputs":[{"internalType":"address","name":"_addr","type":"address"}],"name":"getUpDown","outputs":[{"internalType":"enum BitcoinUpDown.UP_DOWN","name":"","type":"uint8"}],"stateMutability":"view","type":"function"},{"inputs":[],"name":"owner","outputs":[{"internalType":"address","name":"","type":"address"}],"stateMutability":"view","type":"function"},{"inputs":[{"internalType":"address","name":"","type":"address"}],"name":"players_bet","outputs":[{"internalType":"uint256","name":"bet","type":"uint256"},{"internalType":"enum BitcoinUpDown.UP_DOWN","name":"up_down","type":"uint8"},{"internalType":"uint256","name":"round","type":"uint256"},{"internalType":"bool","name":"isExist","type":"bool"}],"stateMutability":"view","type":"function"},{"inputs":[],"name":"price_close","outputs":[{"internalType":"int256","name":"","type":"int256"}],"stateMutability":"view","type":"function"},{"inputs":[],"name":"price_open","outputs":[{"internalType":"int256","name":"","type":"int256"}],"stateMutability":"view","type":"function"},{"inputs":[{"internalType":"uint256","name":"","type":"uint256"}],"name":"prize_pool","outputs":[{"internalType":"uint256","name":"","type":"uint256"}],"stateMutability":"view","type":"function"},{"inputs":[{"internalType":"uint256","name":"","type":"uint256"}],"name":"prize_pool_down","outputs":[{"internalType":"uint256","name":"","type":"uint256"}],"stateMutability":"view","type":"function"},{"inputs":[{"internalType":"uint256","name":"","type":"uint256"}],"name":"prize_pool_up","outputs":[{"internalType":"uint256","name":"","type":"uint256"}],"stateMutability":"view","type":"function"},{"inputs":[],"name":"renounceOwnership","outputs":[],"stateMutability":"nonpayable","type":"function"},{"inputs":[],"name":"round","outputs":[{"internalType":"uint256","name":"","type":"uint256"}],"stateMutability":"view","type":"function"},{"inputs":[{"internalType":"uint256","name":"","type":"uint256"}],"name":"roundWinner","outputs":[{"internalType":"enum BitcoinUpDown.UP_DOWN","name":"","type":"uint8"}],"stateMutability":"view","type":"function"},{"inputs":[{"internalType":"address","name":"newOwner","type":"address"}],"name":"transferOwnership","outputs":[],"stateMutability":"nonpayable","type":"function"},{"inputs":[],"name":"ts_start","outputs":[{"internalType":"uint256","name":"","type":"uint256"}],"stateMutability":"view","type":"function"},{"inputs":[],"name":"withdraw","outputs":[],"stateMutability":"nonpayable","type":"function"},{"inputs":[],"name":"withdrawFee","outputs":[],"stateMutability":"nonpayable","type":"function"}],"compiler":{"version":"0.8.15+commit.e14f2714","evm_version":"istanbul","optimizer":{"enabled":true,"runs":200}},"contractName":"BitcoinUpDown","language":"Solidity","natspec":{"methods":{"owner()":{"details":"Returns the address of the current owner."},"renounceOwnership()":{"details":"Leaves the contract without owner. It will not be possible to call `onlyOwner` functions anymore. Can only be called by the current owner. NOTE: Renouncing ownership will leave the contract without an owner, thereby removing any functionality that is only available to the owner."},"transferOwnership(address)":{"details":"Transfers ownership of the contract to a new account (`newOwner`). Can only be called by the current owner."}},"kind":"dev","version":1},"opcodes":"PUSH1 0x80 PUSH1 0x40 MSTORE PUSH1 0x4 CALLDATASIZE LT PUSH2 0x114 JUMPI PUSH1 0x0 CALLDATALOAD PUSH1 0xE0 SHR DUP1 PUSH4 0x715018A6 GT PUSH2 0xA0 JUMPI DUP1 PUSH4 0xD0821B0E GT PUSH2 0x64 JUMPI DUP1 PUSH4 0xD0821B0E EQ PUSH2 0x2AF JUMPI DUP1 PUSH4 0xE3380D69 EQ PUSH2 0x2C2 JUMPI DUP1 PUSH4 0xE941FA78 EQ PUSH2 0x31A JUMPI DUP1 PUSH4 0xF2FDE38B EQ PUSH2 0x32F JUMPI DUP1 PUSH4 0xFC3EC1AA EQ PUSH2 0x34F JUMPI PUSH1 0x0 DUP1 REVERT JUMPDEST DUP1 PUSH4 0x715018A6 EQ PUSH2 0x228 JUMPI DUP1 PUSH4 0x76DA5A40 EQ PUSH2 0x23D JUMPI DUP1 PUSH4 0x8DA5CB5B EQ PUSH2 0x25D JUMPI DUP1 PUSH4 0x98D5FDCA EQ PUSH2 0x285 JUMPI DUP1 PUSH4 0xD06DA2CB EQ PUSH2 0x29A JUMPI PUSH1 0x0 DUP1 REVERT JUMPDEST DUP1 PUSH4 0x438DD939 GT PUSH2 0xE7 JUMPI DUP1 PUSH4 0x438DD939 EQ PUSH2 0x19C JUMPI DUP1 PUSH4 0x43E2A4AE EQ PUSH2 0x1BC JUMPI DUP1 PUSH4 0x4CD3E333 EQ PUSH2 0x1D2 JUMPI DUP1 PUSH4 0x52E9A640 EQ PUSH2 0x1F2 JUMPI DUP1 PUSH4 0x6EC11F0B EQ PUSH2 0x212 JUMPI PUSH1 0x0 DUP1 REVERT JUMPDEST DUP1 PUSH4 0x146CA531 EQ PUSH2 0x119 JUMPI DUP1 PUSH4 0x16829F6D EQ PUSH2 0x142 JUMPI DUP1 PUSH4 0x34EF4242 EQ PUSH2 0x16F JUMPI DUP1 PUSH4 0x3CCFD60B EQ PUSH2 0x185 JUMPI JUMPDEST PUSH1 0x0 DUP1 REVERT JUMPDEST CALLVALUE DUP1 ISZERO PUSH2 0x125 JUMPI PUSH1 0x0 DUP1 REVERT JUMPDEST POP PUSH2 0x12F PUSH1 0x3 SLOAD DUP2 JUMP JUMPDEST PUSH1 0x40 MLOAD SWAP1 DUP2 MSTORE PUSH1 0x20 ADD JUMPDEST PUSH1 0x40 MLOAD DUP1 SWAP2 SUB SWAP1 RETURN JUMPDEST CALLVALUE DUP1 ISZERO PUSH2 0x14E JUMPI PUSH1 0x0 DUP1 REVERT JUMPDEST POP PUSH2 0x162 PUSH2 0x15D CALLDATASIZE PUSH1 0x4 PUSH2 0x110A JUMP JUMPDEST PUSH2 0x36F JUMP JUMPDEST PUSH1 0x40 MLOAD PUSH2 0x139 SWAP2 SWAP1 PUSH2 0x1172 JUMP JUMPDEST CALLVALUE DUP1 ISZERO PUSH2 0x17B JUMPI PUSH1 0x0 DUP1 REVERT JUMPDEST POP PUSH2 0x12F PUSH1 0x5 SLOAD DUP2 JUMP JUMPDEST CALLVALUE DUP1 ISZERO PUSH2 0x191 JUMPI PUSH1 0x0 DUP1 REVERT JUMPDEST POP PUSH2 0x19A PUSH2 0x3C0 JUMP JUMPDEST STOP JUMPDEST CALLVALUE DUP1 ISZERO PUSH2 0x1A8 JUMPI PUSH1 0x0 DUP1 REVERT JUMPDEST POP PUSH2 0x12F PUSH2 0x1B7 CALLDATASIZE PUSH1 0x4 PUSH2 0x110A JUMP JUMPDEST PUSH2 0x771 JUMP JUMPDEST CALLVALUE DUP1 ISZERO PUSH2 0x1C8 JUMPI PUSH1 0x0 DUP1 REVERT JUMPDEST POP PUSH2 0x12F PUSH1 0xA SLOAD DUP2 JUMP JUMPDEST CALLVALUE DUP1 ISZERO PUSH2 0x1DE JUMPI PUSH1 0x0 DUP1 REVERT JUMPDEST POP PUSH2 0x12F PUSH2 0x1ED CALLDATASIZE PUSH1 0x4 PUSH2 0x1186 JUMP JUMPDEST PUSH2 0x7BE JUMP JUMPDEST CALLVALUE DUP1 ISZERO PUSH2 0x1FE JUMPI PUSH1 0x0 DUP1 REVERT JUMPDEST POP PUSH2 0x162 PUSH2 0x20D CALLDATASIZE PUSH1 0x4 PUSH2 0x1186 JUMP JUMPDEST PUSH2 0x7DF JUMP JUMPDEST CALLVALUE DUP1 ISZERO PUSH2 0x21E JUMPI PUSH1 0x0 DUP1 REVERT JUMPDEST POP PUSH2 0x12F PUSH1 0x6 SLOAD DUP2 JUMP JUMPDEST CALLVALUE DUP1 ISZERO PUSH2 0x234 JUMPI PUSH1 0x0 DUP1 REVERT JUMPDEST POP PUSH2 0x19A PUSH2 0x813 JUMP JUMPDEST CALLVALUE DUP1 ISZERO PUSH2 0x249 JUMPI PUSH1 0x0 DUP1 REVERT JUMPDEST POP PUSH2 0x12F PUSH2 0x258 CALLDATASIZE PUSH1 0x4 PUSH2 0x1186 JUMP JUMPDEST PUSH2 0x827 JUMP JUMPDEST CALLVALUE DUP1 ISZERO PUSH2 0x269 JUMPI PUSH1 0x0 DUP1 REVERT JUMPDEST POP PUSH1 0x0 SLOAD PUSH1 0x40 MLOAD PUSH1 0x1 PUSH1 0x1 PUSH1 0xA0 SHL SUB SWAP1 SWAP2 AND DUP2 MSTORE PUSH1 0x20 ADD PUSH2 0x139 JUMP JUMPDEST CALLVALUE DUP1 ISZERO PUSH2 0x291 JUMPI PUSH1 0x0 DUP1 REVERT JUMPDEST POP PUSH2 0x12F PUSH2 0x837 JUMP JUMPDEST CALLVALUE DUP1 ISZERO PUSH2 0x2A6 JUMPI PUSH1 0x0 DUP1 REVERT JUMPDEST POP PUSH2 0x19A PUSH2 0x8CD JUMP JUMPDEST PUSH2 0x19A PUSH2 0x2BD CALLDATASIZE PUSH1 0x4 PUSH2 0x119F JUMP JUMPDEST PUSH2 0xB82 JUMP JUMPDEST CALLVALUE DUP1 ISZERO PUSH2 0x2CE JUMPI PUSH1 0x0 DUP1 REVERT JUMPDEST POP PUSH2 0x30A PUSH2 0x2DD CALLDATASIZE PUSH1 0x4 PUSH2 0x110A JUMP JUMPDEST PUSH1 0x1 PUSH1 0x20 DUP2 SWAP1 MSTORE PUSH1 0x0 SWAP2 DUP3 MSTORE PUSH1 0x40 SWAP1 SWAP2 KECCAK256 DUP1 SLOAD SWAP2 DUP2 ADD SLOAD PUSH1 0x2 DUP3 ADD SLOAD PUSH1 0x3 SWAP1 SWAP3 ADD SLOAD PUSH1 0xFF SWAP2 DUP3 AND SWAP3 SWAP2 AND DUP5 JUMP JUMPDEST PUSH1 0x40 MLOAD PUSH2 0x139 SWAP5 SWAP4 SWAP3 SWAP2 SWAP1 PUSH2 0x11C0 JUMP JUMPDEST CALLVALUE DUP1 ISZERO PUSH2 0x326 JUMPI PUSH1 0x0 DUP1 REVERT JUMPDEST POP PUSH2 0x19A PUSH2 0xE8F JUMP JUMPDEST CALLVALUE DUP1 ISZERO PUSH2 0x33B JUMPI PUSH1 0x0 DUP1 REVERT JUMPDEST POP PUSH2 0x19A PUSH2 0x34A CALLDATASIZE PUSH1 0x4 PUSH2 0x110A JUMP JUMPDEST PUSH2 0xEF9 JUMP JUMPDEST CALLVALUE DUP1 ISZERO PUSH2 0x35B JUMPI PUSH1 0x0 DUP1 REVERT JUMPDEST POP PUSH2 0x12F PUSH2 0x36A CALLDATASIZE PUSH1 0x4 PUSH2 0x1186 JUMP JUMPDEST PUSH2 0xF6F JUMP JUMPDEST PUSH1 0x1 PUSH1 0x1 PUSH1 0xA0 SHL SUB DUP2 AND PUSH1 0x0 SWAP1 DUP2 MSTORE PUSH1 0x1 PUSH1 0x20 DUP2 SWAP1 MSTORE PUSH1 0x40 DUP3 KECCAK256 PUSH1 0x3 ADD SLOAD PUSH1 0xFF AND ISZERO ISZERO SWAP1 SUB PUSH2 0x3BB JUMPI POP PUSH1 0x1 PUSH1 0x1 PUSH1 0xA0 SHL SUB AND PUSH1 0x0 SWAP1 DUP2 MSTORE PUSH1 0x1 PUSH1 0x20 DUP2 SWAP1 MSTORE PUSH1 0x40 SWAP1 SWAP2 KECCAK256 ADD SLOAD PUSH1 0xFF AND SWAP1 JUMP JUMPDEST SWAP2 SWAP1 POP JUMP JUMPDEST CALLER PUSH1 0x0 SWAP1 DUP2 MSTORE PUSH1 0x1 PUSH1 0x20 DUP2 SWAP1 MSTORE PUSH1 0x40 SWAP1 SWAP2 KECCAK256 PUSH1 0x3 ADD SLOAD PUSH1 0xFF AND ISZERO ISZERO EQ PUSH2 0x424 JUMPI PUSH1 0x40 MLOAD PUSH3 0x461BCD PUSH1 0xE5 SHL DUP2 MSTORE PUSH1 0x20 PUSH1 0x4 DUP3 ADD MSTORE PUSH1 0x14 PUSH1 0x24 DUP3 ADD MSTORE PUSH20 0x141B185E595C88191BD95CDB89DD08195E1A5CDD PUSH1 0x62 SHL PUSH1 0x44 DUP3 ADD MSTORE PUSH1 0x64 ADD JUMPDEST PUSH1 0x40 MLOAD DUP1 SWAP2 SUB SWAP1 REVERT JUMPDEST PUSH1 0x3 SLOAD CALLER PUSH1 0x0 SWAP1 DUP2 MSTORE PUSH1 0x1 PUSH1 0x20 MSTORE PUSH1 0x40 SWAP1 KECCAK256 PUSH1 0x2 ADD SLOAD LT PUSH2 0x47B JUMPI PUSH1 0x40 MLOAD PUSH3 0x461BCD PUSH1 0xE5 SHL DUP2 MSTORE PUSH1 0x20 PUSH1 0x4 DUP3 ADD MSTORE PUSH1 0x11 PUSH1 0x24 DUP3 ADD MSTORE PUSH17 0x526F756E64207374696C6C20676F696E67 PUSH1 0x78 SHL PUSH1 0x44 DUP3 ADD MSTORE PUSH1 0x64 ADD PUSH2 0x41B JUMP JUMPDEST CALLER PUSH1 0x0 SWAP1 DUP2 MSTORE PUSH1 0x1 PUSH1 0x20 MSTORE PUSH1 0x40 SWAP1 KECCAK256 PUSH1 0x2 ADD SLOAD PUSH1 0x4 DUP1 SLOAD SWAP1 SWAP2 SWAP1 DUP2 LT PUSH2 0x4A3 JUMPI PUSH2 0x4A3 PUSH2 0x11EB JUMP JUMPDEST SWAP1 PUSH1 0x0 MSTORE PUSH1 0x20 PUSH1 0x0 KECCAK256 SWAP1 PUSH1 0x20 SWAP2 DUP3 DUP3 DIV ADD SWAP2 SWAP1 MOD SWAP1 SLOAD SWAP1 PUSH2 0x100 EXP SWAP1 DIV PUSH1 0xFF AND PUSH1 0x1 DUP2 GT ISZERO PUSH2 0x4D4 JUMPI PUSH2 0x4D4 PUSH2 0x113A JUMP JUMPDEST CALLER PUSH1 0x0 SWAP1 DUP2 MSTORE PUSH1 0x1 PUSH1 0x20 DUP2 SWAP1 MSTORE PUSH1 0x40 SWAP1 SWAP2 KECCAK256 DUP2 ADD SLOAD PUSH1 0xFF AND SWAP1 DUP2 GT ISZERO PUSH2 0x4FC JUMPI PUSH2 0x4FC PUSH2 0x113A JUMP JUMPDEST EQ PUSH2 0x531 JUMPI PUSH1 0x40 MLOAD PUSH3 0x461BCD PUSH1 0xE5 SHL DUP2 MSTORE PUSH1 0x20 PUSH1 0x4 DUP3 ADD MSTORE PUSH1 0x5 PUSH1 0x24 DUP3 ADD MSTORE PUSH5 0x2637B9B2B9 PUSH1 0xD9 SHL PUSH1 0x44 DUP3 ADD MSTORE PUSH1 0x64 ADD PUSH2 0x41B JUMP JUMPDEST CALLER PUSH1 0x0 SWAP1 DUP2 MSTORE PUSH1 0x1 PUSH1 0x20 DUP2 SWAP1 MSTORE PUSH1 0x40 DUP3 KECCAK256 PUSH1 0x3 DUP2 ADD DUP1 SLOAD PUSH1 0xFF NOT AND SWAP1 SSTORE DUP2 ADD SLOAD DUP3 SWAP2 PUSH1 0xFF SWAP1 SWAP2 AND SWAP1 DUP2 GT ISZERO PUSH2 0x568 JUMPI PUSH2 0x568 PUSH2 0x113A JUMP JUMPDEST SUB PUSH2 0x628 JUMPI CALLER PUSH1 0x0 SWAP1 DUP2 MSTORE PUSH1 0x1 PUSH1 0x20 MSTORE PUSH1 0x40 SWAP1 KECCAK256 PUSH1 0x2 ADD SLOAD PUSH1 0x7 DUP1 SLOAD PUSH1 0x64 SWAP3 SWAP1 DUP2 LT PUSH2 0x596 JUMPI PUSH2 0x596 PUSH2 0x11EB JUMP JUMPDEST SWAP1 PUSH1 0x0 MSTORE PUSH1 0x20 PUSH1 0x0 KECCAK256 ADD SLOAD PUSH1 0x8 PUSH1 0x1 PUSH1 0x0 CALLER PUSH1 0x1 PUSH1 0x1 PUSH1 0xA0 SHL SUB AND PUSH1 0x1 PUSH1 0x1 PUSH1 0xA0 SHL SUB AND DUP2 MSTORE PUSH1 0x20 ADD SWAP1 DUP2 MSTORE PUSH1 0x20 ADD PUSH1 0x0 KECCAK256 PUSH1 0x2 ADD SLOAD DUP2 SLOAD DUP2 LT PUSH2 0x5DC JUMPI PUSH2 0x5DC PUSH2 0x11EB JUMP JUMPDEST PUSH1 0x0 SWAP2 DUP3 MSTORE PUSH1 0x20 DUP1 DUP4 KECCAK256 SWAP1 SWAP2 ADD SLOAD CALLER DUP4 MSTORE PUSH1 0x1 SWAP1 SWAP2 MSTORE PUSH1 0x40 SWAP1 SWAP2 KECCAK256 SLOAD PUSH2 0x603 SWAP1 PUSH1 0x64 PUSH2 0x1217 JUMP JUMPDEST PUSH2 0x60D SWAP2 SWAP1 PUSH2 0x124C JUMP JUMPDEST PUSH2 0x617 SWAP2 SWAP1 PUSH2 0x1217 JUMP JUMPDEST PUSH2 0x621 SWAP2 SWAP1 PUSH2 0x124C JUMP JUMPDEST SWAP1 POP PUSH2 0x6DF JUMP JUMPDEST CALLER PUSH1 0x0 SWAP1 DUP2 MSTORE PUSH1 0x1 PUSH1 0x20 MSTORE PUSH1 0x40 SWAP1 KECCAK256 PUSH1 0x2 ADD SLOAD PUSH1 0x7 DUP1 SLOAD PUSH1 0x64 SWAP3 SWAP1 DUP2 LT PUSH2 0x651 JUMPI PUSH2 0x651 PUSH2 0x11EB JUMP JUMPDEST SWAP1 PUSH1 0x0 MSTORE PUSH1 0x20 PUSH1 0x0 KECCAK256 ADD SLOAD PUSH1 0x9 PUSH1 0x1 PUSH1 0x0 CALLER PUSH1 0x1 PUSH1 0x1 PUSH1 0xA0 SHL SUB AND PUSH1 0x1 PUSH1 0x1 PUSH1 0xA0 SHL SUB AND DUP2 MSTORE PUSH1 0x20 ADD SWAP1 DUP2 MSTORE PUSH1 0x20 ADD PUSH1 0x0 KECCAK256 PUSH1 0x2 ADD SLOAD DUP2 SLOAD DUP2 LT PUSH2 0x697 JUMPI PUSH2 0x697 PUSH2 0x11EB JUMP JUMPDEST PUSH1 0x0 SWAP2 DUP3 MSTORE PUSH1 0x20 DUP1 DUP4 KECCAK256 SWAP1 SWAP2 ADD SLOAD CALLER DUP4 MSTORE PUSH1 0x1 SWAP1 SWAP2 MSTORE PUSH1 0x40 SWAP1 SWAP2 KECCAK256 SLOAD PUSH2 0x6BE SWAP1 PUSH1 0x64 PUSH2 0x1217 JUMP JUMPDEST PUSH2 0x6C8 SWAP2 SWAP1 PUSH2 0x124C JUMP JUMPDEST PUSH2 0x6D2 SWAP2 SWAP1 PUSH2 0x1217 JUMP JUMPDEST PUSH2 0x6DC SWAP2 SWAP1 PUSH2 0x124C JUMP JUMPDEST SWAP1 POP JUMPDEST PUSH1 0x40 MLOAD PUSH1 0x0 SWAP1 DUP2 SWAP1 CALLER SWAP1 DUP5 SWAP1 DUP4 DUP2 DUP2 DUP2 DUP6 DUP8 GAS CALL SWAP3 POP POP POP RETURNDATASIZE DUP1 PUSH1 0x0 DUP2 EQ PUSH2 0x723 JUMPI PUSH1 0x40 MLOAD SWAP2 POP PUSH1 0x1F NOT PUSH1 0x3F RETURNDATASIZE ADD AND DUP3 ADD PUSH1 0x40 MSTORE RETURNDATASIZE DUP3 MSTORE RETURNDATASIZE PUSH1 0x0 PUSH1 0x20 DUP5 ADD RETURNDATACOPY PUSH2 0x728 JUMP JUMPDEST PUSH1 0x60 SWAP2 POP JUMPDEST POP SWAP2 POP SWAP2 POP DUP2 PUSH2 0x76C JUMPI PUSH1 0x40 MLOAD PUSH3 0x461BCD PUSH1 0xE5 SHL DUP2 MSTORE PUSH1 0x20 PUSH1 0x4 DUP3 ADD MSTORE PUSH1 0xF PUSH1 0x24 DUP3 ADD MSTORE PUSH15 0x15DA5D1A191C985DC819985A5B1959 PUSH1 0x8A SHL PUSH1 0x44 DUP3 ADD MSTORE PUSH1 0x64 ADD PUSH2 0x41B JUMP JUMPDEST POP POP POP JUMP JUMPDEST PUSH1 0x1 PUSH1 0x1 PUSH1 0xA0 SHL SUB DUP2 AND PUSH1 0x0 SWAP1 DUP2 MSTORE PUSH1 0x1 PUSH1 0x20 DUP2 SWAP1 MSTORE PUSH1 0x40 DUP3 KECCAK256 PUSH1 0x3 ADD SLOAD PUSH1 0xFF AND ISZERO ISZERO SWAP1 SUB PUSH2 0x7B6 JUMPI POP PUSH1 0x1 PUSH1 0x1 PUSH1 0xA0 SHL SUB AND PUSH1 0x0 SWAP1 DUP2 MSTORE PUSH1 0x1 PUSH1 0x20 MSTORE PUSH1 0x40 SWAP1 KECCAK256 SLOAD SWAP1 JUMP JUMPDEST POP PUSH1 0x0 SWAP2 SWAP1 POP JUMP JUMPDEST PUSH1 0x9 DUP2 DUP2 SLOAD DUP2 LT PUSH2 0x7CE JUMPI PUSH1 0x0 DUP1 REVERT JUMPDEST PUSH1 0x0 SWAP2 DUP3 MSTORE PUSH1 0x20 SWAP1 SWAP2 KECCAK256 ADD SLOAD SWAP1 POP DUP2 JUMP JUMPDEST PUSH1 0x4 DUP2 DUP2 SLOAD DUP2 LT PUSH2 0x7EF JUMPI PUSH1 0x0 DUP1 REVERT JUMPDEST SWAP1 PUSH1 0x0 MSTORE PUSH1 0x20 PUSH1 0x0 KECCAK256 SWAP1 PUSH1 0x20 SWAP2 DUP3 DUP3 DIV ADD SWAP2 SWAP1 MOD SWAP2 POP SLOAD SWAP1 PUSH2 0x100 EXP SWAP1 DIV PUSH1 0xFF AND DUP2 JUMP JUMPDEST PUSH2 0x81B PUSH2 0xF7F JUMP JUMPDEST PUSH2 0x825 PUSH1 0x0 PUSH2 0xFD9 JUMP JUMPDEST JUMP JUMPDEST PUSH1 0x7 DUP2 DUP2 SLOAD DUP2 LT PUSH2 0x7CE JUMPI PUSH1 0x0 DUP1 REVERT JUMPDEST PUSH1 0x0 DUP1 PUSH1 0x2 PUSH1 0x0 SWAP1 SLOAD SWAP1 PUSH2 0x100 EXP SWAP1 DIV PUSH1 0x1 PUSH1 0x1 PUSH1 0xA0 SHL SUB AND PUSH1 0x1 PUSH1 0x1 PUSH1 0xA0 SHL SUB AND PUSH4 0xFEAF968C PUSH1 0x40 MLOAD DUP2 PUSH4 0xFFFFFFFF AND PUSH1 0xE0 SHL DUP2 MSTORE PUSH1 0x4 ADD PUSH1 0xA0 PUSH1 0x40 MLOAD DUP1 DUP4 SUB DUP2 DUP7 GAS STATICCALL ISZERO DUP1 ISZERO PUSH2 0x88D JUMPI RETURNDATASIZE PUSH1 0x0 DUP1 RETURNDATACOPY RETURNDATASIZE PUSH1 0x0 REVERT JUMPDEST POP POP POP POP PUSH1 0x40 MLOAD RETURNDATASIZE PUSH1 0x1F NOT PUSH1 0x1F DUP3 ADD AND DUP3 ADD DUP1 PUSH1 0x40 MSTORE POP DUP2 ADD SWAP1 PUSH2 0x8B1 SWAP2 SWAP1 PUSH2 0x127A JUMP JUMPDEST POP POP POP SWAP2 POP POP PUSH4 0x5F5E100 DUP2 PUSH2 0x8C7 SWAP2 SWAP1 PUSH2 0x12CA JUMP JUMPDEST SWAP2 POP POP SWAP1 JUMP JUMPDEST PUSH3 0x15180 PUSH1 0xA SLOAD TIMESTAMP PUSH2 0x8DF SWAP2 SWAP1 PUSH2 0x12F8 JUMP JUMPDEST LT ISZERO PUSH2 0x925 JUMPI PUSH1 0x40 MLOAD PUSH3 0x461BCD PUSH1 0xE5 SHL DUP2 MSTORE PUSH1 0x20 PUSH1 0x4 DUP3 ADD MSTORE PUSH1 0x15 PUSH1 0x24 DUP3 ADD MSTORE PUSH21 0x135A5B880C4819185E4818599D195C881CDD185C9D PUSH1 0x5A SHL PUSH1 0x44 DUP3 ADD MSTORE PUSH1 0x64 ADD PUSH2 0x41B JUMP JUMPDEST PUSH1 0x0 PUSH2 0x92F PUSH2 0x837 JUMP JUMPDEST PUSH1 0x6 SSTORE PUSH1 0x3 SLOAD PUSH1 0x7 DUP1 SLOAD PUSH1 0x64 SWAP3 SWAP1 DUP2 LT PUSH2 0x94B JUMPI PUSH2 0x94B PUSH2 0x11EB JUMP JUMPDEST SWAP1 PUSH1 0x0 MSTORE PUSH1 0x20 PUSH1 0x0 KECCAK256 ADD SLOAD PUSH1 0x1 PUSH2 0x962 SWAP2 SWAP1 PUSH2 0x1217 JUMP JUMPDEST PUSH2 0x96C SWAP2 SWAP1 PUSH2 0x124C JUMP JUMPDEST PUSH1 0x7 PUSH1 0x3 SLOAD DUP2 SLOAD DUP2 LT PUSH2 0x981 JUMPI PUSH2 0x981 PUSH2 0x11EB JUMP JUMPDEST SWAP1 PUSH1 0x0 MSTORE PUSH1 0x20 PUSH1 0x0 KECCAK256 ADD PUSH1 0x0 DUP3 DUP3 SLOAD PUSH2 0x99A SWAP2 SWAP1 PUSH2 0x12F8 JUMP JUMPDEST SWAP1 SWAP2 SSTORE POP POP PUSH1 0x5 SLOAD PUSH1 0x6 SLOAD SLT PUSH2 0x9F9 JUMPI POP PUSH1 0x4 DUP1 SLOAD PUSH1 0x1 DUP2 ADD DUP3 SSTORE PUSH1 0x0 SWAP2 DUP3 MSTORE PUSH32 0x8A35ACFBC15FF81A39AE7D344FD709F28E8600B4AA8C65C6B64BFE7FE36BD19B PUSH1 0x20 DUP3 DIV ADD DUP1 SLOAD PUSH1 0x1F SWAP1 SWAP3 AND PUSH2 0x100 EXP PUSH1 0xFF MUL NOT SWAP1 SWAP2 AND SWAP1 SSTORE PUSH2 0xA55 JUMP JUMPDEST PUSH1 0x5 SLOAD PUSH1 0x6 SLOAD SLT ISZERO PUSH2 0xA55 JUMPI POP PUSH1 0x4 DUP1 SLOAD PUSH1 0x1 DUP1 DUP3 ADD DUP4 SSTORE PUSH1 0x0 SWAP3 SWAP1 SWAP3 MSTORE PUSH1 0x20 DUP2 DIV PUSH32 0x8A35ACFBC15FF81A39AE7D344FD709F28E8600B4AA8C65C6B64BFE7FE36BD19B ADD DUP1 SLOAD PUSH1 0xFF PUSH1 0x1F SWAP1 SWAP4 AND PUSH2 0x100 EXP SWAP3 DUP4 MUL NOT AND SWAP1 SWAP2 OR SWAP1 SSTORE JUMPDEST PUSH1 0x64 PUSH1 0x7 PUSH1 0x3 SLOAD DUP2 SLOAD DUP2 LT PUSH2 0xA6C JUMPI PUSH2 0xA6C PUSH2 0x11EB JUMP JUMPDEST SWAP1 PUSH1 0x0 MSTORE PUSH1 0x20 PUSH1 0x0 KECCAK256 ADD SLOAD PUSH1 0x1 PUSH2 0xA83 SWAP2 SWAP1 PUSH2 0x1217 JUMP JUMPDEST PUSH2 0xA8D SWAP2 SWAP1 PUSH2 0x124C JUMP JUMPDEST PUSH1 0xB PUSH1 0x0 DUP3 DUP3 SLOAD PUSH2 0xA9E SWAP2 SWAP1 PUSH2 0x130F JUMP JUMPDEST SWAP3 POP POP DUP2 SWAP1 SSTORE POP TIMESTAMP PUSH1 0xA SLOAD PUSH1 0x3 SLOAD PUSH32 0xF30110A23939E204EA2EE835E455ADB360FF938B9F4DFEB72A08F4B03C0B9C7E PUSH1 0x5 SLOAD PUSH1 0x6 SLOAD PUSH1 0x7 PUSH1 0x3 SLOAD DUP2 SLOAD DUP2 LT PUSH2 0xAE8 JUMPI PUSH2 0xAE8 PUSH2 0x11EB JUMP JUMPDEST SWAP1 PUSH1 0x0 MSTORE PUSH1 0x20 PUSH1 0x0 KECCAK256 ADD SLOAD PUSH1 0x8 PUSH1 0x3 SLOAD DUP2 SLOAD DUP2 LT PUSH2 0xB08 JUMPI PUSH2 0xB08 PUSH2 0x11EB JUMP JUMPDEST SWAP1 PUSH1 0x0 MSTORE PUSH1 0x20 PUSH1 0x0 KECCAK256 ADD SLOAD PUSH1 0x9 PUSH1 0x3 SLOAD DUP2 SLOAD DUP2 LT PUSH2 0xB28 JUMPI PUSH2 0xB28 PUSH2 0x11EB JUMP JUMPDEST PUSH1 0x0 SWAP2 DUP3 MSTORE PUSH1 0x20 SWAP2 DUP3 SWAP1 KECCAK256 ADD SLOAD PUSH1 0x40 DUP1 MLOAD SWAP7 DUP8 MSTORE SWAP2 DUP7 ADD SWAP5 SWAP1 SWAP5 MSTORE DUP5 ADD SWAP2 SWAP1 SWAP2 MSTORE PUSH1 0x60 DUP4 ADD MSTORE PUSH1 0x80 DUP3 ADD MSTORE PUSH1 0xA0 ADD PUSH1 0x40 MLOAD DUP1 SWAP2 SUB SWAP1 LOG4 PUSH1 0x1 PUSH1 0x3 PUSH1 0x0 DUP3 DUP3 SLOAD PUSH2 0xB71 SWAP2 SWAP1 PUSH2 0x130F JUMP JUMPDEST SWAP1 SWAP2 SSTORE POP PUSH2 0xB7F SWAP1 POP PUSH2 0x1029 JUMP JUMPDEST POP JUMP JUMPDEST PUSH2 0xE10 PUSH1 0xA SLOAD TIMESTAMP PUSH2 0xB93 SWAP2 SWAP1 PUSH2 0x12F8 JUMP JUMPDEST GT ISZERO PUSH2 0xBDA JUMPI PUSH1 0x40 MLOAD PUSH3 0x461BCD PUSH1 0xE5 SHL DUP2 MSTORE PUSH1 0x20 PUSH1 0x4 DUP3 ADD MSTORE PUSH1 0x16 PUSH1 0x24 DUP3 ADD MSTORE PUSH22 0x13585E080C481A1BDD5C8818599D195C881CDD185C9D PUSH1 0x52 SHL PUSH1 0x44 DUP3 ADD MSTORE PUSH1 0x64 ADD PUSH2 0x41B JUMP JUMPDEST CALLER PUSH1 0x0 SWAP1 DUP2 MSTORE PUSH1 0x1 PUSH1 0x20 DUP2 SWAP1 MSTORE PUSH1 0x40 SWAP1 SWAP2 KECCAK256 PUSH1 0x3 ADD SLOAD PUSH1 0xFF AND ISZERO ISZERO SWAP1 SUB PUSH2 0xD17 JUMPI PUSH1 0x3 SLOAD CALLER PUSH1 0x0 SWAP1 DUP2 MSTORE PUSH1 0x1 PUSH1 0x20 MSTORE PUSH1 0x40 SWAP1 KECCAK256 PUSH1 0x2 ADD SLOAD SUB PUSH2 0xC54 JUMPI PUSH1 0x40 MLOAD PUSH3 0x461BCD PUSH1 0xE5 SHL DUP2 MSTORE PUSH1 0x20 PUSH1 0x4 DUP3 ADD MSTORE PUSH1 0x13 PUSH1 0x24 DUP3 ADD MSTORE PUSH19 0x13DB9B1E480C4818995D08189E481C9BDD5B99 PUSH1 0x6A SHL PUSH1 0x44 DUP3 ADD MSTORE PUSH1 0x64 ADD PUSH2 0x41B JUMP JUMPDEST CALLER PUSH1 0x0 SWAP1 DUP2 MSTORE PUSH1 0x1 PUSH1 0x20 MSTORE PUSH1 0x40 SWAP1 KECCAK256 PUSH1 0x2 ADD SLOAD PUSH1 0x4 DUP1 SLOAD SWAP1 SWAP2 SWAP1 DUP2 LT PUSH2 0xC7C JUMPI PUSH2 0xC7C PUSH2 0x11EB JUMP JUMPDEST SWAP1 PUSH1 0x0 MSTORE PUSH1 0x20 PUSH1 0x0 KECCAK256 SWAP1 PUSH1 0x20 SWAP2 DUP3 DUP3 DIV ADD SWAP2 SWAP1 MOD SWAP1 SLOAD SWAP1 PUSH2 0x100 EXP SWAP1 DIV PUSH1 0xFF AND PUSH1 0x1 DUP2 GT ISZERO PUSH2 0xCAD JUMPI PUSH2 0xCAD PUSH2 0x113A JUMP JUMPDEST CALLER PUSH1 0x0 SWAP1 DUP2 MSTORE PUSH1 0x1 PUSH1 0x20 DUP2 SWAP1 MSTORE PUSH1 0x40 SWAP1 SWAP2 KECCAK256 DUP2 ADD SLOAD PUSH1 0xFF AND SWAP1 DUP2 GT ISZERO PUSH2 0xCD5 JUMPI PUSH2 0xCD5 PUSH2 0x113A JUMP JUMPDEST SUB PUSH2 0xD17 JUMPI PUSH1 0x40 MLOAD PUSH3 0x461BCD PUSH1 0xE5 SHL DUP2 MSTORE PUSH1 0x20 PUSH1 0x4 DUP3 ADD MSTORE PUSH1 0x12 PUSH1 0x24 DUP3 ADD MSTORE PUSH18 0x14195B991A5B99C81DDA5D1A191C985DD85B PUSH1 0x72 SHL PUSH1 0x44 DUP3 ADD MSTORE PUSH1 0x64 ADD PUSH2 0x41B JUMP JUMPDEST CALLER PUSH1 0x0 SWAP1 DUP2 MSTORE PUSH1 0x1 PUSH1 0x20 DUP2 SWAP1 MSTORE PUSH1 0x40 SWAP1 SWAP2 KECCAK256 CALLVALUE DUP2 SSTORE DUP2 ADD DUP1 SLOAD DUP4 SWAP3 PUSH1 0xFF NOT SWAP1 SWAP2 AND SWAP1 DUP4 DUP2 DUP2 GT ISZERO PUSH2 0xD4A JUMPI PUSH2 0xD4A PUSH2 0x113A JUMP JUMPDEST MUL OR SWAP1 SSTORE POP PUSH1 0x3 DUP1 SLOAD CALLER PUSH1 0x0 SWAP1 DUP2 MSTORE PUSH1 0x1 PUSH1 0x20 DUP2 SWAP1 MSTORE PUSH1 0x40 DUP3 KECCAK256 PUSH1 0x2 DUP2 ADD SWAP4 SWAP1 SWAP4 SSTORE SWAP2 SWAP1 SWAP3 ADD DUP1 SLOAD PUSH1 0xFF NOT AND DUP3 OR SWAP1 SSTORE DUP3 SWAP1 DUP2 GT ISZERO PUSH2 0xD8B JUMPI PUSH2 0xD8B PUSH2 0x113A JUMP JUMPDEST SUB PUSH2 0xDCA JUMPI CALLVALUE PUSH1 0x8 PUSH1 0x3 SLOAD DUP2 SLOAD DUP2 LT PUSH2 0xDA6 JUMPI PUSH2 0xDA6 PUSH2 0x11EB JUMP JUMPDEST SWAP1 PUSH1 0x0 MSTORE PUSH1 0x20 PUSH1 0x0 KECCAK256 ADD PUSH1 0x0 DUP3 DUP3 SLOAD PUSH2 0xDBF SWAP2 SWAP1 PUSH2 0x130F JUMP JUMPDEST SWAP1 SWAP2 SSTORE POP PUSH2 0xE18 SWAP1 POP JUMP JUMPDEST PUSH1 0x1 DUP2 PUSH1 0x1 DUP2 GT ISZERO PUSH2 0xDDE JUMPI PUSH2 0xDDE PUSH2 0x113A JUMP JUMPDEST SUB PUSH2 0xE18 JUMPI CALLVALUE PUSH1 0x9 PUSH1 0x3 SLOAD DUP2 SLOAD DUP2 LT PUSH2 0xDF9 JUMPI PUSH2 0xDF9 PUSH2 0x11EB JUMP JUMPDEST SWAP1 PUSH1 0x0 MSTORE PUSH1 0x20 PUSH1 0x0 KECCAK256 ADD PUSH1 0x0 DUP3 DUP3 SLOAD PUSH2 0xE12 SWAP2 SWAP1 PUSH2 0x130F JUMP JUMPDEST SWAP1 SWAP2 SSTORE POP POP JUMPDEST CALLVALUE PUSH1 0x7 PUSH1 0x3 SLOAD DUP2 SLOAD DUP2 LT PUSH2 0xE2E JUMPI PUSH2 0xE2E PUSH2 0x11EB JUMP JUMPDEST SWAP1 PUSH1 0x0 MSTORE PUSH1 0x20 PUSH1 0x0 KECCAK256 ADD PUSH1 0x0 DUP3 DUP3 SLOAD PUSH2 0xE47 SWAP2 SWAP1 PUSH2 0x130F JUMP JUMPDEST SWAP1 SWAP2 SSTORE POP POP PUSH1 0x3 SLOAD PUSH1 0x40 MLOAD CALLER SWAP2 SWAP1 PUSH32 0x9A9B1AB57A775EBEAD5CEFE947552DA14819CEAB35CBCE686DDE8C688F12AA4A SWAP1 PUSH2 0xE84 SWAP1 CALLVALUE SWAP1 DUP7 SWAP1 PUSH2 0x1327 JUMP JUMPDEST PUSH1 0x40 MLOAD DUP1 SWAP2 SUB SWAP1 LOG3 POP JUMP JUMPDEST PUSH1 0xC SLOAD PUSH1 0xB SLOAD PUSH1 0x40 MLOAD PUSH1 0x0 SWAP3 DUP4 SWAP3 PUSH1 0x1 PUSH1 0x1 PUSH1 0xA0 SHL SUB SWAP1 SWAP2 AND SWAP2 DUP4 DUP2 DUP2 DUP2 DUP6 DUP8 GAS CALL SWAP3 POP POP POP RETURNDATASIZE DUP1 PUSH1 0x0 DUP2 EQ PUSH2 0xEE1 JUMPI PUSH1 0x40 MLOAD SWAP2 POP PUSH1 0x1F NOT PUSH1 0x3F RETURNDATASIZE ADD AND DUP3 ADD PUSH1 0x40 MSTORE RETURNDATASIZE DUP3 MSTORE RETURNDATASIZE PUSH1 0x0 PUSH1 0x20 DUP5 ADD RETURNDATACOPY PUSH2 0xEE6 JUMP JUMPDEST PUSH1 0x60 SWAP2 POP JUMPDEST POP SWAP2 POP SWAP2 POP DUP2 PUSH2 0xEF5 JUMPI PUSH1 0x0 DUP1 REVERT JUMPDEST POP POP JUMP JUMPDEST PUSH2 0xF01 PUSH2 0xF7F JUMP JUMPDEST PUSH1 0x1 PUSH1 0x1 PUSH1 0xA0 SHL SUB DUP2 AND PUSH2 0xF66 JUMPI PUSH1 0x40 MLOAD PUSH3 0x461BCD PUSH1 0xE5 SHL DUP2 MSTORE PUSH1 0x20 PUSH1 0x4 DUP3 ADD MSTORE PUSH1 0x26 PUSH1 0x24 DUP3 ADD MSTORE PUSH32 0x4F776E61626C653A206E6577206F776E657220697320746865207A65726F2061 PUSH1 0x44 DUP3 ADD MSTORE PUSH6 0x646472657373 PUSH1 0xD0 SHL PUSH1 0x64 DUP3 ADD MSTORE PUSH1 0x84 ADD PUSH2 0x41B JUMP JUMPDEST PUSH2 0xB7F DUP2 PUSH2 0xFD9 JUMP JUMPDEST PUSH1 0x8 DUP2 DUP2 SLOAD DUP2 LT PUSH2 0x7CE JUMPI PUSH1 0x0 DUP1 REVERT JUMPDEST PUSH1 0x0 SLOAD PUSH1 0x1 PUSH1 0x1 PUSH1 0xA0 SHL SUB AND CALLER EQ PUSH2 0x825 JUMPI PUSH1 0x40 MLOAD PUSH3 0x461BCD PUSH1 0xE5 SHL DUP2 MSTORE PUSH1 0x20 PUSH1 0x4 DUP3 ADD DUP2 SWAP1 MSTORE PUSH1 0x24 DUP3 ADD MSTORE PUSH32 0x4F776E61626C653A2063616C6C6572206973206E6F7420746865206F776E6572 PUSH1 0x44 DUP3 ADD MSTORE PUSH1 0x64 ADD PUSH2 0x41B JUMP JUMPDEST PUSH1 0x0 DUP1 SLOAD PUSH1 0x1 PUSH1 0x1 PUSH1 0xA0 SHL SUB DUP4 DUP2 AND PUSH1 0x1 PUSH1 0x1 PUSH1 0xA0 SHL SUB NOT DUP4 AND DUP2 OR DUP5 SSTORE PUSH1 0x40 MLOAD SWAP2 SWAP1 SWAP3 AND SWAP3 DUP4 SWAP2 PUSH32 0x8BE0079C531659141344CD1FD0A4F28419497F9722A3DAAFE3B4186F6B6457E0 SWAP2 SWAP1 LOG3 POP POP JUMP JUMPDEST PUSH1 0x7 DUP1 SLOAD PUSH1 0x1 DUP2 DUP2 ADD SWAP1 SWAP3 SSTORE PUSH1 0x0 PUSH32 0xA66CC928B5EDB82AF9BD49922954155AB7B0942694BEA4CE44661D9A8736C688 SWAP1 SWAP2 ADD DUP2 SWAP1 SSTORE PUSH1 0x8 DUP1 SLOAD DUP1 DUP5 ADD SWAP1 SWAP2 SSTORE PUSH32 0xF3F7A9FE364FAAB93B216DA50A3214154F22A0A2B415B23A84C8169E8B636EE3 ADD DUP2 SWAP1 SSTORE PUSH1 0x9 DUP1 SLOAD SWAP3 DUP4 ADD DUP2 SSTORE DUP2 MSTORE PUSH32 0x6E1540171B6C0C960B71A7020D9F60077F6AF931A8BBF590DA0223DACF75C7AF SWAP1 SWAP2 ADD SSTORE PUSH2 0x10C5 PUSH2 0x837 JUMP JUMPDEST PUSH1 0x5 DUP2 SWAP1 SSTORE TIMESTAMP PUSH1 0xA DUP2 SWAP1 SSTORE PUSH1 0x3 SLOAD PUSH1 0x40 MLOAD SWAP3 DUP4 MSTORE SWAP1 SWAP2 PUSH32 0xE9EC0ED6586678A63C4B348023C41675DD303D6084C8A2283BD9DA983EDC24B8 SWAP1 PUSH1 0x20 ADD PUSH1 0x40 MLOAD DUP1 SWAP2 SUB SWAP1 LOG3 JUMP JUMPDEST PUSH1 0x0 PUSH1 0x20 DUP3 DUP5 SUB SLT ISZERO PUSH2 0x111C JUMPI PUSH1 0x0 DUP1 REVERT JUMPDEST DUP2 CALLDATALOAD PUSH1 0x1 PUSH1 0x1 PUSH1 0xA0 SHL SUB DUP2 AND DUP2 EQ PUSH2 0x1133 JUMPI PUSH1 0x0 DUP1 REVERT JUMPDEST SWAP4 SWAP3 POP POP POP JUMP JUMPDEST PUSH4 0x4E487B71 PUSH1 0xE0 SHL PUSH1 0x0 MSTORE PUSH1 0x21 PUSH1 0x4 MSTORE PUSH1 0x24 PUSH1 0x0 REVERT JUMPDEST PUSH1 0x2 DUP2 LT PUSH2 0x116E JUMPI PUSH4 0x4E487B71 PUSH1 0xE0 SHL PUSH1 0x0 MSTORE PUSH1 0x21 PUSH1 0x4 MSTORE PUSH1 0x24 PUSH1 0x0 REVERT JUMPDEST SWAP1 MSTORE JUMP JUMPDEST PUSH1 0x20 DUP2 ADD PUSH2 0x1180 DUP3 DUP5 PUSH2 0x1150 JUMP JUMPDEST SWAP3 SWAP2 POP POP JUMP JUMPDEST PUSH1 0x0 PUSH1 0x20 DUP3 DUP5 SUB SLT ISZERO PUSH2 0x1198 JUMPI PUSH1 0x0 DUP1 REVERT JUMPDEST POP CALLDATALOAD SWAP2 SWAP1 POP JUMP JUMPDEST PUSH1 0x0 PUSH1 0x20 DUP3 DUP5 SUB SLT ISZERO PUSH2 0x11B1 JUMPI PUSH1 0x0 DUP1 REVERT JUMPDEST DUP2 CALLDATALOAD PUSH1 0x2 DUP2 LT PUSH2 0x1133 JUMPI PUSH1 0x0 DUP1 REVERT JUMPDEST DUP5 DUP2 MSTORE PUSH1 0x80 DUP2 ADD PUSH2 0x11D4 PUSH1 0x20 DUP4 ADD DUP7 PUSH2 0x1150 JUMP JUMPDEST DUP4 PUSH1 0x40 DUP4 ADD MSTORE DUP3 ISZERO ISZERO PUSH1 0x60 DUP4 ADD MSTORE SWAP6 SWAP5 POP POP POP POP POP JUMP JUMPDEST PUSH4 0x4E487B71 PUSH1 0xE0 SHL PUSH1 0x0 MSTORE PUSH1 0x32 PUSH1 0x4 MSTORE PUSH1 0x24 PUSH1 0x0 REVERT JUMPDEST PUSH4 0x4E487B71 PUSH1 0xE0 SHL PUSH1 0x0 MSTORE PUSH1 0x11 PUSH1 0x4 MSTORE PUSH1 0x24 PUSH1 0x0 REVERT JUMPDEST PUSH1 0x0 DUP2 PUSH1 0x0 NOT DIV DUP4 GT DUP3 ISZERO ISZERO AND ISZERO PUSH2 0x1231 JUMPI PUSH2 0x1231 PUSH2 0x1201 JUMP JUMPDEST POP MUL SWAP1 JUMP JUMPDEST PUSH4 0x4E487B71 PUSH1 0xE0 SHL PUSH1 0x0 MSTORE PUSH1 0x12 PUSH1 0x4 MSTORE PUSH1 0x24 PUSH1 0x0 REVERT JUMPDEST PUSH1 0x0 DUP3 PUSH2 0x125B JUMPI PUSH2 0x125B PUSH2 0x1236 JUMP JUMPDEST POP DIV SWAP1 JUMP JUMPDEST DUP1 MLOAD PUSH10 0xFFFFFFFFFFFFFFFFFFFF DUP2 AND DUP2 EQ PUSH2 0x3BB JUMPI PUSH1 0x0 DUP1 REVERT JUMPDEST PUSH1 0x0 DUP1 PUSH1 0x0 DUP1 PUSH1 0x0 PUSH1 0xA0 DUP7 DUP9 SUB SLT ISZERO PUSH2 0x1292 JUMPI PUSH1 0x0 DUP1 REVERT JUMPDEST PUSH2 0x129B DUP7 PUSH2 0x1260 JUMP JUMPDEST SWAP5 POP PUSH1 0x20 DUP7 ADD MLOAD SWAP4 POP PUSH1 0x40 DUP7 ADD MLOAD SWAP3 POP PUSH1 0x60 DUP7 ADD MLOAD SWAP2 POP PUSH2 0x12BE PUSH1 0x80 DUP8 ADD PUSH2 0x1260 JUMP JUMPDEST SWAP1 POP SWAP3 SWAP6 POP SWAP3 SWAP6 SWAP1 SWAP4 POP JUMP JUMPDEST PUSH1 0x0 DUP3 PUSH2 0x12D9 JUMPI PUSH2 0x12D9 PUSH2 0x1236 JUMP JUMPDEST PUSH1 0x1 PUSH1 0xFF SHL DUP3 EQ PUSH1 0x0 NOT DUP5 EQ AND ISZERO PUSH2 0x12F3 JUMPI PUSH2 0x12F3 PUSH2 0x1201 JUMP JUMPDEST POP SDIV SWAP1 JUMP JUMPDEST PUSH1 0x0 DUP3 DUP3 LT ISZERO PUSH2 0x130A JUMPI PUSH2 0x130A PUSH2 0x1201 JUMP JUMPDEST POP SUB SWAP1 JUMP JUMPDEST PUSH1 0x0 DUP3 NOT DUP3 GT ISZERO PUSH2 0x1322 JUMPI PUSH2 0x1322 PUSH2 0x1201 JUMP JUMPDEST POP ADD SWAP1 JUMP JUMPDEST DUP3 DUP2 MSTORE PUSH1 0x40 DUP2 ADD PUSH2 0x1133 PUSH1 0x20 DUP4 ADD DUP5 PUSH2 0x1150 JUMP INVALID LOG2 PUSH5 0x6970667358 0x22 SLT KECCAK256 TIMESTAMP 0xB8 DUP13 DUP10 TIMESTAMP 0xEC 0xC4 0xAC SWAP8 0xC2 PUSH25 0x7ADBDF56223FDCA850622660D1F3D801F18E15ADD964736F6C PUSH4 0x4300080F STOP CALLER ","sha1":"750af4e63820739f62d3bddfaefeb4df055976c6","source":"// SPDX-License-Identifier: MIT\npragma solidity ^0.8.7;\n\nimport \"@chainlink/contracts/src/v0.8/interfaces/AggregatorV3Interface.sol\";\nimport \"@openzeppelin/contracts/access/Ownable.sol\";\n\ncontract BitcoinUpDown is Ownable {\n    enum UP_DOWN {\n        UP,\n        DOWN\n    }\n    struct Players {\n        uint256 bet;\n        UP_DOWN up_down;\n        uint256 round;\n        bool isExist;\n    }\n    mapping(address => Players) public players_bet;\n    AggregatorV3Interface internal btcUsdPriceFeed;\n    uint256 public round;\n    UP_DOWN[] public roundWinner;\n    int256 public price_open;\n    int256 public price_close;\n    uint256[] public prize_pool;\n    uint256[] public prize_pool_up;\n    uint256[] public prize_pool_down;\n    uint256 public ts_start;\n    uint256 private fee;\n    address private dev;\n\n    event eventStartBet(\n        uint256 indexed round,\n        uint256 indexed ts_start,\n        int256 price_open\n    );\n    event eventBet(\n        uint256 indexed round,\n        address indexed from,\n        uint256 amount,\n        UP_DOWN up_down\n    );\n    event eventDeclareWinners(\n        uint256 indexed round,\n        uint256 indexed ts_start,\n        uint256 indexed ts_close,\n        int256 price_open,\n        int256 price_close,\n        uint256 prize_pool,\n        uint256 prize_pool_up,\n        uint256 prize_pool_down\n    );\n\n    constructor(address _priceFeedAddress) {\n        dev = msg.sender;\n        btcUsdPriceFeed = AggregatorV3Interface(_priceFeedAddress);\n        _startBet();\n    }\n\n    function getPrice() public view returns (int256) {\n        (, int256 price, , , ) = btcUsdPriceFeed.latestRoundData();\n        return price / (10**8);\n    }\n\n    function getIsExist(address _addr) public view returns (uint256) {\n        if (players_bet[_addr].isExist == true) {\n            return players_bet[_addr].bet;\n        }\n        return 0;\n    }\n\n    function getUpDown(address _addr) public view returns (UP_DOWN) {\n        if (players_bet[_addr].isExist == true) {\n            return players_bet[_addr].up_down;\n        }\n    }\n\n    function _startBet() private {\n        prize_pool.push(0);\n        prize_pool_up.push(0);\n        prize_pool_down.push(0);\n        price_open = getPrice();\n        ts_start = block.timestamp;\n        emit eventStartBet(round, ts_start, price_open);\n    }\n\n    function bet(UP_DOWN _up_down) public payable {\n        require(msg.value >= 0, \"Minimum bet = 1 wei\");\n        require(block.timestamp - ts_start <= 3600, \"Max 1 hour after start\");\n\n        if (players_bet[msg.sender].isExist == true) {\n            if (players_bet[msg.sender].round == round) {\n                // Player have aleardy bet this round\n                revert(\"Only 1 bet by round\");\n            } else if (\n                players_bet[msg.sender].up_down ==\n                roundWinner[players_bet[msg.sender].round]\n            ) {\n                // Player have pending withdrawal\n                revert(\"Pending withdrawal\");\n            }\n        }\n\n        // if player doesn't exist yet we add the player\n        players_bet[msg.sender].bet = msg.value;\n        players_bet[msg.sender].up_down = _up_down;\n        players_bet[msg.sender].round = round;\n        players_bet[msg.sender].isExist = true;\n\n        // add the amount to the prizpool\n        if (_up_down == UP_DOWN.UP) {\n            prize_pool_up[round] += msg.value;\n        } else if (_up_down == UP_DOWN.DOWN) {\n            prize_pool_down[round] += msg.value;\n        }\n        prize_pool[round] += msg.value;\n        emit eventBet(round, msg.sender, msg.value, _up_down);\n    }\n\n    function withdraw() public {\n        require(\n            players_bet[msg.sender].isExist == true,\n            \"Player doesn't exist\"\n        );\n        require(players_bet[msg.sender].round < round, \"Round still going\");\n        require(\n            players_bet[msg.sender].up_down ==\n                roundWinner[players_bet[msg.sender].round],\n            \"Loser\"\n        );\n        players_bet[msg.sender].isExist = false;\n        // prize_pool up or down\n        uint256 amount;\n        if (players_bet[msg.sender].up_down == UP_DOWN.UP) {\n            amount =\n                (((players_bet[msg.sender].bet * 100) /\n                    prize_pool_up[players_bet[msg.sender].round]) *\n                    prize_pool[players_bet[msg.sender].round]) /\n                100;\n        } else {\n            amount =\n                (((players_bet[msg.sender].bet * 100) /\n                    prize_pool_down[players_bet[msg.sender].round]) *\n                    prize_pool[players_bet[msg.sender].round]) /\n                100;\n        }\n        (bool sent, bytes memory data) = msg.sender.call{value: amount}(\"\");\n        require(sent, \"Withdraw failed\"); // dev:withdraw failed\n    }\n\n    function withdrawFee() public {\n        (bool sent, bytes memory data) = dev.call{value: fee}(\"\");\n        require(sent); // dev:withdraw fee failed\n    }\n\n    function declareWinners() public {\n        require(block.timestamp - ts_start >= 1 days, \"Min 1 day after start\");\n        UP_DOWN up_down;\n        price_close = getPrice();\n        prize_pool[round] -= ((1 * prize_pool[round]) / 100); // 1% gas tax\n\n        if (price_close >= price_open) {\n            up_down = UP_DOWN.UP;\n            roundWinner.push(up_down);\n        } else if (price_close < price_open) {\n            up_down = UP_DOWN.DOWN;\n            roundWinner.push(up_down);\n        }\n\n        fee += ((1 * prize_pool[round]) / 100);\n\n        emit eventDeclareWinners(\n            round,\n            ts_start,\n            block.timestamp,\n            price_open,\n            price_close,\n            prize_pool[round],\n            prize_pool_up[round],\n            prize_pool_down[round]\n        );\n\n        // Reset variables for new round\n        round += 1;\n        _startBet(); // New round\n    }\n}\n","sourcePath":"contracts/BitcoinUpDown.sol","deployment":{"address":"0xe9e53a9500a7DB34B5E04356D91755b3B3737661","chainid":"97","blockHeight":21383604}}